:100000000C9429010C9451010C9451010C94510150
:100010000C9451010C9451010C9451010C94510118
:100020000C9451010C948E030C94DE260C947025D4
:100030000C9451010C9451010C9451010C945101F8
:100040000C9451010C941F0F0C9451010C9451010C
:100050000C9451010C9451010C9451010C946B1CA3
:100060000C9451010C9451010C9451010C945101C8
:100070000C9451010C9451010C9451010C945101B8
:100080000C94C6220C9451010C9451010C94510112
:100090000C943F130C9451010C9451010C94510198
:1000A0000C9451010C9451010C945101BE06E706C9
:1000B000B506F4060C0736072A0736073407360755
:1000C000300732075307CF06541A5A1A641A721AA5
:1000D000741A7A1A841A921AA41AA61A8A1B8D1BE9
:1000E000801B841BA81BA81BA81BA81B911B951B6E
:1000F000991B9F1BA31BD61DDB1DE01DEA1DF41DD4
:100100003E1E3E1E3E1EFE1D081E121E1C1E291EE9
:100110003E1E311E5F1E621E511E551E5B1E831E3B
:10012000831E831E661E6A1E6E1E741E781E831E2C
:100130007E1E070605040100080A0B0C0D090000CD
:10014000000200090F0000030401000C0000000081
:100150000000000000000000000000000004080291
:10016000011040804010204080408008020401803F
:10017000402010020110801020404020040404049C
:10018000040304050202020204030202020206063C
:10019000060606060404020202040400000000230E
:1001A00000260029002C002F000000000025002858
:1001B000002B002E00310000000000240027002A40
:1001C000002D003000080B000202020100090400AB
:1001D00000010202000005240010010524010101B4
:1001E00004240206052406000107058103100040CF
:1001F00009040100020A0000000705020240000095
:10020000070583024000000312010002EF020140D3
:1002100041233780000101020301120100020000A6
:1002200000404123378000010102030141726475DF
:10023000696E6F204C4C430041726475696E6F208B
:100240004D6963726F000403090451085512671861
:10025000122011241FBECFEFDAE0DEBFCDBF13E0C6
:10026000A0E0B1E0E6E5F9E502C005900D92A03509
:10027000B107D9F726E0A0E5B3E001C01D92A83B85
:10028000B207E1F712E0C2E5D2E004C02297FE0116
:100290000E94D329CA34D107C9F70E949B280C9425
:1002A000A92C0C9400000F931F93CF93DF931F9200
:1002B000CDB7DEB7182F062F8E31C0F4682F8CE62D
:1002C00095E079830E94BD165981813079F4402FE1
:1002D000612F8CE695E00E94D816602F812F0F9039
:1002E000DF91CF911F910F910C94BD1E0F90DF9164
:1002F000CF911F910F9108951F93CF93DF93182FE4
:10030000EB018E3198F5682F8CE695E00E94BD16C2
:10031000833099F0843051F5E12FF0E0E356FC4F43
:10032000408150E0CA01880F991F840F951FBE01BC
:1003300085549C4F0E94BC1010C0133051F08BEFBD
:10034000810F823030F087EF810F833010F01D3045
:1003500021F4BE01812F0E94B01DAE01612F8CE6F9
:1003600095E0DF91CF911F910C94D816DF91CF913A
:100370001F910895DF92EF92FF920F931F93CF93F7
:10038000DF93062F843008F099C0F82EFF0CFF0C85
:10039000FF0C98E0F90E9EE19F1510F43EE1F32E5C
:1003A000182F110F110F110FC12FD0E0EE24E3947D
:1003B000CF1538F56C2F8CE695E00E94BD16813084
:1003C00039F06C2F8CE695E00E94BD16811116C0A5
:1003D000DD24D3948E2D802309F4D12C6C2F8CE650
:1003E00095E00E94BD16813009F051C0DE294D2DE7
:1003F00050E06C2F8CE695E00E94D816EE0CCF5F93
:10040000D7CFD0FF05C0602F6170812F0E94BD1E25
:10041000D1FF06C0602F627081E0810F0E94BD1E77
:10042000D2FF06C0602F647082E0810F0E94BD1E63
:10043000D3FF06C0602F687083E0810F0E94BD1E4D
:10044000D4FF06C0602F607184E0810F0E94BD1E42
:10045000D5FF06C0602F607285E0810F0E94BD1E2F
:10046000D6FF06C0602F607486E0810F0E94BD1E1B
:10047000D7FF24C0602F607887E0810FDF91CF9194
:100480001F910F91FF90EF90DF900C94BD1E6C2F89
:100490008CE695E00E94BD168111A9CFDD2009F4FC
:1004A000A6CF6C2F8CE695E00E94CE16019709F43A
:1004B0009ECF62E08C2F0E94841E99CFDF91CF9156
:1004C0001F910F91FF90EF90DF900895CF93C82F69
:1004D0008C3058F5409165045091660421E030E07D
:1004E000082E02C0220F331F0A94E2F7672B49F44B
:1004F000209530952423352330936604209365049A
:1005000014C0242B352B309366042093650480910E
:10051000DF0381110AC08C2F0E947F1DAC016C2F5C
:100520008CE695E0CF910C94E715CF910895CF9389
:10053000DF93DC01FB012283518340831296CD912E
:10054000DC91139788819381892B888382818D7FA9
:10055000813041F415968C9115979381892B1596CE
:100560008C93159782818150823040F416968C913D
:1005700016979381892B16968C9316978091680015
:1005800014969C91892B80936800DF91CF910895F8
:10059000CF92DF92FF920F931F93CF93DF9300D000
:1005A0001F92CDB7DEB76C01E62FF0E0E35AFE4FA5
:1005B000F490FC0180859185009779F08C01FC0115
:1005C00083818F1106C0B801C6010E94970280E0A6
:1005D0002FC0F80185819681EFCF87E090E02B83D3
:1005E00049835A830E94AE28DC012B8149815A81BC
:1005F000009721F4109202008FEF1AC012962C93EC
:10060000129716961C921E9215971396FC921397AA
:10061000F60180859185892B19F4B187A08703C0E5
:10062000F801B683A583BD01C6010E94970281E04F
:100630000F900F900F90DF91CF911F910F91FF902E
:10064000DF90CF900895242FE82FF0E0E458FE4F7C
:10065000E491EE23D9F061157105C1F0F0E0329715
:10066000E330F10540F4EE0FFF1FE25EFC4F019016
:10067000F081E02D02C0E0E0F0E0A081B1819C912A
:100680009783AB01682FCF010C94C8028FEF0895B8
:10069000FF920F931F93CF93DF93EC01809185041A
:1006A0009F812D813E81F82EF094F3222823F22A97
:1006B0009827F9228F830885198501151105D9F02E
:1006C000D80113969C918F2D892389F08091850400
:1006D000892391E009F490E0F8019483808191816D
:1006E000DC01ED91FC910190F081E02D0995F8017C
:1006F00005811681E2CF8BB39C81892349F09BB39E
:10070000982B9BBBE881F981808180938504C6CFBB
:10071000DF91CF911F910F91FF9008951F920F923B
:100720000FB60F9211242F933F934F935F936F93C4
:100730007F938F939F93AF93BF93EF93FF93E0913A
:100740007B04F0917C048081809385048BE794E0A6
:100750000E944803FF91EF91BF91AF919F918F91BC
:100760007F916F915F914F913F912F910F900FBEAD
:100770000F901F901895DB019A0190918F039C3088
:10078000D0F540919003682F70E0442369F0E42F86
:10079000F0E0E057FC4F8081FB01E356FC4F808383
:1007A00041504093900307C0FB01E356FC4F9083F8
:1007B0009F5F90938F03FB01E356FC4F1A161B06B5
:1007C0007CF41216130664F4408150E0CA01880FCD
:1007D000991F840F951FAD0185549C4F0C94F70F02
:1007E000208130E0C901880F991F820F931F855423
:1007F0009C4F0C94751063E271E08CE695E00C94CC
:100800007916CF93DF93C82FD0E0C356DC4F2881F1
:1008100030E0C901880F991F820F931F85549C4FA8
:100820000E947B10888190918F03891306C08823D2
:1008300079F0815080938F030BC0992349F0E091A8
:100840009003EF5FE0939003F0E0E057FC4F80836C
:100850008FEF8883DF91CF9108951F93CF93DF931C
:10086000162FC82FD0E0FE01E75AFB4F90811923C5
:10087000C35ADB4F411103C09881911741F0412FBA
:1008800050E0682F8CE695E00E9400161883DF91F7
:10089000CF911F910895EF92FF920F931F93CF93E3
:1008A000DF93E82E83E08E1508F475C02E2D30E01E
:1008B000F901EF59FB4F6083672B09F46CC0F90114
:1008C000E75AFB4FF0800E2D000F000F000FF0FED7
:1008D00052C0802F0E94F31E892B09F44CC011E0F6
:1008E000C02FD0E0F1FE07C081E0800F0E94F31E10
:1008F000892B09F042C0F2FE06C082E0800F0E9400
:10090000F31E892BE1F5F3FE06C083E0800F0E9401
:10091000F31E892BB1F5F4FE06C084E0800F0E941F
:10092000F31E892B81F5F5FE06C085E0800F0E943D
:10093000F31E892B51F5C831D10541F0F6FE06C0F2
:1009400086E0800F0E94F31E892B09F5679744F417
:10095000F7FE06C087E0800F0E94F31E892BC9F4C2
:1009600041E0612F8E2DDF91CF911F910F91FF906C
:10097000EF900C942D0410E0B3CF1260BCCF146044
:10098000C2CF1860C8CF1061CECF1062D4CF106430
:10099000DDCF1068E5CFDF91CF911F910F91FF90D0
:1009A000EF900895CF93DF9380916104882309F439
:1009B00048C0D0915904D0FF1DC180E00E94F31EB1
:1009C000892B09F417C1C1E0D1FF06C081E00E9464
:1009D000F31E892B09F010C1D2FF06C082E00E94ED
:1009E000F31E892B09F00AC1D3FF06C083E00E94E1
:1009F000F31E892B09F004C1D4FF06C084E00E94D5
:100A0000F31E892B09F0FEC0D5FF06C085E00E94C9
:100A1000F31E892B09F0F8C0D6FF06C086E00E94BD
:100A2000F31E892B09F0F2C0D7FF06C087E00E94B1
:100A3000F31E892B09F0ECC040E06C2F80E00E948F
:100A40002D0480916204882309F448C0D0915A048F
:100A5000D0FFE0C088E00E94F31E892B09F4DAC0C1
:100A6000C1E0D1FF06C089E00E94F31E892B09F086
:100A7000D3C0D2FF06C08AE00E94F31E892B09F082
:100A8000CDC0D3FF06C08BE00E94F31E892B09F076
:100A9000C7C0D4FF06C08CE00E94F31E892B09F06A
:100AA000C1C0D5FF06C08DE00E94F31E892B09F05E
:100AB000BBC0D6FF06C08EE00E94F31E892B09F052
:100AC000B5C0D7FF06C08FE00E94F31E892B09F046
:100AD000AFC040E06C2F81E00E942D048091630440
:100AE000882309F448C0D0915B04D0FFA3C080E103
:100AF0000E94F31E892B09F49DC0C1E0D1FF06C0FE
:100B000081E10E94F31E892B09F096C0D2FF06C036
:100B100082E10E94F31E892B09F090C0D3FF06C02A
:100B200083E10E94F31E892B09F08AC0D4FF06C01E
:100B300084E10E94F31E892B09F084C0D5FF06C012
:100B400085E10E94F31E892B09F07EC0D6FF06C006
:100B500086E10E94F31E892B09F078C0D7FF06C0FA
:100B600087E10E94F31E892B09F072C040E06C2FD0
:100B700082E00E942D0480916404882309F476C0E9
:100B8000D0915C04D0FF66C088E10E94F31E892BDF
:100B900009F460C0C1E0D1FF06C089E10E94F31EE4
:100BA000892B09F059C0D2FF06C08AE10E94F31ECA
:100BB000892B09F053C0D3FF06C08BE10E94F31EBE
:100BC000892B09F04DC0D4FF06C08CE10E94F31EB2
:100BD000892B09F047C0D5FF06C08DE10E94F31EA6
:100BE000892B09F041C040E06C2F83E0DF91CF9169
:100BF0000C942D04C0E0E8CEC260EECEC460F4CE0A
:100C0000C860FACEC06100CFC06206CFC0640CCF0E
:100C1000C06812CFC0E025CFC2602BCFC46031CFF7
:100C2000C86037CFC0613DCFC06243CFC06449CFF9
:100C3000C0684FCFC0E062CFC26068CFC4606ECFE3
:100C4000C86074CFC0617ACFC06280CFC06486CFE5
:100C5000C0688CCFC0E09FCFC260A5CFC460ABCFCF
:100C6000C860B1CFC061B7CFC062BDCFDF91CF91B7
:100C700008951092E2038FEF80930B0108950F9374
:100C80001F93CF93DF93182FEB01682F8CE695E02D
:100C90000E94BD168F3709F406C1612F8CE695E0DE
:100CA0000E94BD16863051F48091E203882331F012
:100CB000C630D10509F4F3C00E9439061E31B8F4DC
:100CC000C430D105A1F0E12FF0E0E356FC4F808164
:100CD0008C3068F490E09C01220F331F280F391FDD
:100CE000C90185549C4F0E9421118111C9C00EEE8B
:100CF000010F0C3058F461E070E0C230D10511F002
:100D000060E070E0802F0E94660202C01E31E8F4AD
:100D1000E12FE695E695E695812F8770F0E0E75A9A
:100D2000FB4F21E030E0082E01C0220F0A94EAF7C1
:100D3000209719F0CD30D10521F48081822B80835A
:100D400004C0209580812823208340E050E0612F5B
:100D50008CE695E00E94D816CE30D10508F086C00A
:100D6000FE01EA5AFF4F0C94D1290C3008F09BC0C9
:100D700060E0812F0E94841E42E008C01E3108F00E
:100D800092C060E0812F0E94841E40E0612F8CE6BB
:100D900095E0DF91CF911F910F910C94C4161E31F5
:100DA00008F081C062E0812F0E94841E4DE0612F17
:100DB0008CE695E00E94C41641E050E0612F8CE67D
:100DC00095E0DF91CF911F910F910C94D8161E31B1
:100DD00008F069C060E0812F0E94BD1E61E0812F94
:100DE0000E94841E41E0D2CF133059F08BEF810F67
:100DF000823038F087EF810F833018F01D3009F012
:100E000052C061E0812F0E94841E60E070E0812F5B
:100E10000E94B01D43E0BACF1E3108F044C044E048
:100E2000612F8CE695E00E94C416E12FF0E0E356B6
:100E3000FC4F80818F3F41F190E09C01220F331FD6
:100E4000280F391FC90185549C4F0E94211181111F
:100E50002AC01AC08EEF810F823028F546E096CF67
:100E60004AE094CF4BE092CF48E090CF67E371E047
:100E70008CE695E0DF91CF911F910F910C9479163C
:100E8000812F0E94010433CF4FEF5FEF6FEF7FEFB1
:100E9000812FDF91CF911F910F910C94BB031E31D5
:100EA00008F411CF24CFDF91CF911F910F910895B6
:100EB000CF93C0E08EEF8C0F823028F466E070E0B4
:100EC0008C2F0E943F06CF5FCE31A1F781E0809347
:100ED000E2038CEA94E0CF910C94C7110F931F9317
:100EE000CF93DF9381E08093DF038091E203811150
:100EF0000E943906E1E6F4E0C9E5D4E0ADE5B4E0EE
:100F0000119219921D9284E0E536F807C9F7CDE9F0
:100F1000D3E010E00FEF8EEE810F8C3030F462E002
:100F200070E0812F0E943F0603C0812F0E94B122F2
:100F300009931F5F1E3179F710928203109281038B
:100F4000ABE7B3E0EDE6F3E02FE72D9380819181ED
:100F5000892B11F011821082329683E0A138B807F4
:100F6000A1F71092660410926504109290031092FB
:100F70008F0310926703109266031092DF03DF91D4
:100F8000CF911F910F91089525E042E068E471E050
:100F90008CE695E00E940E154CE751E060EE8CE681
:100FA00095E00E9487164AEB51E060E98CE695E0F7
:100FB0000E94871646E652E060EC8CE695E00E94BF
:100FC00087164BE454E060ED8CE695E00E948716AE
:100FD0004FE356E064EF8CE695E00E94871643E508
:100FE00051E065EF8CE695E00E94871640E359E0FA
:100FF00060EF8CE695E00E94B7164EE657E06FEF83
:101000008CE695E00E94AF1640E051EE60E070E0A3
:101010008CE695E00E94511881E396E00E9403203F
:101020008823D1F30C946E070F931F93CF93DF9314
:10103000CDB7DEB7C654D1090FB6F894DEBF0FBEE8
:10104000CDBF8C012AE0CE018F5B9F4F0E944328C9
:1010500020E030E040E450E0BE016F5F7F4FCE0102
:101060008F5B9F4F0E947028B8018CE695E00E942C
:101070007916BE016F5F7F4F8CE695E00E9479166E
:10108000CE018F5B9F4F0E94BD27CA5BDF4F0FB61B
:10109000F894DEBF0FBECDBFDF91CF911F910F91AE
:1010A0000895CF93DF93EFE9F1E0859194919093C8
:1010B0007C0480937B048BE690E090937E04809385
:1010C0007D0481E080937F0410928004109281045B
:1010D0001092840410928304E1EAF1E085919491E6
:1010E00090937204809371048CE690E09093740462
:1010F0008093730482E080937504109276041092BA
:10110000770410927A0410927904E3EAF1E0859171
:10111000949190936804809367048DE690E0909397
:101120006A048093690484E080936B0410926C04D9
:1011300010926D041092700410926F04CBEBD3E008
:10114000CE010E94DB0F239683E0CF3DD807C1F785
:10115000DF91CF910895682F8CEA94E00C94881168
:101160008CEA94E00E9438110895AF92BF92DF920A
:10117000EF92FF920F931F93CF93DF931F92CDB700
:10118000DEB7F82E5B01D42E6F3F8FEF7807C1F0EA
:101190006F2D8CEA94E029830E94D1118A2D0E9440
:1011A000AB082981622F8CEA94E00E94DB118091C8
:1011B000E0039091E103009729F00E941E1D02C0F8
:1011C000A12CB12C4D2D6F2D8CEA94E00E944F1272
:1011D0000D2D10E08CEA94E00E94301108171907D9
:1011E0001CF460EB71E009C08CEA94E00E943011BD
:1011F0008017910734F46DEC71E08CE695E00E9465
:101200007916F092E303A092E40385EEE82E83E0E2
:10121000F82EA12CB12CA016B1069CF042E04D0D89
:1012200023EE33E067E78CE695E00F90DF91CF91F6
:101230001F910F91FF90EF90DF90BF90AF900C94B3
:101240002E168CEA94E00E943011892B39F30E940B
:10125000B008F70181937F01FFEFAF1ABF0ADBCF20
:101260008F929F92AF92BF92CF92DF92EF92FF92B6
:101270000F931F93CF93DF93162FEA018D3609F456
:101280003BC2A8F4803609F4A8C238F4803509F4CA
:1012900063C18F3509F4BDC221C4893609F485C202
:1012A0008B3609F4B8C1823609F018C4E9C2823716
:1012B00009F430C338F48F3609F485C1803709F456
:1012C0000DC10CC4883709F4E9C08A3709F45BC141
:1012D000863709F003C42981922F987125FF03C036
:1012E00069EE71E0E7C3888126FB222720F931E00F
:1012F00023279830A1F148F49111F0C3682F8CEAAC
:1013000094E00E94D11102E007C0903109F44BC073
:10131000983109F475C0E2C3011768F4FE01E00FCB
:10132000F11D9181808120E8929F801911240E94F3
:10133000AB080E5FF1CF8CEA94E00E94521286E473
:1013400090E0DF91CF911F910F91FF90EF90DF9090
:10135000CF90BF90AF909F908F900C941E1D4A81AC
:101360006B8130E8163061F4639FB0011124640F83
:10137000711D9D814C81E0E89E9F4019112405C09C
:10138000639F401911246FEF7FEFDF91CF911F9181
:101390000F91FF90EF90DF90CF90BF90AF909F9014
:1013A0008F900C94B508E0910B01E7301CF069E0D8
:1013B00072E080C39A814B81663069F460E8469F91
:1013C000A0011124490F511D3D819C8160E8369F89
:1013D0009019112406C030E8439F901911244FEF53
:1013E0005FEFEF5FE0930B0165E0E602F00111248F
:1013F000ED5DFB4F808352834183938324836EC3CF
:1014000060910B0116163CF470E0262F332727FD60
:10141000309595E00FC08FEF80930B015FC3949FD1
:10142000F001959FF00D1124ED5DFB4F40814817B1
:1014300039F07F5F472F50E02417350784F770E0BD
:10144000C5E0872F90E02817390724F1783000F5A0
:10145000AC014F5F5F4FC49FD001C59FB00D1124F9
:10146000AD5DBB4F4C91C89FF001C99FF00D112499
:10147000ED5DFB4F408311968D919C911297928365
:10148000818313968C911397838314968C91848314
:101490007F5FD7CF615060930B0120C32881898182
:1014A000E0E88E9FC0011124820F911D009721F06A
:1014B0009093E1038093E0038091E20381110EC3D6
:1014C000DF91CF911F910F91FF90EF90DF90CF9020
:1014D000BF90AF909F908F900C945807653008F4A0
:1014E000FDC218810981FA80EB80CC811E3108F0A1
:1014F000F5C2E12FF0E0E356FC4FE081EC3060F400
:10150000F0E0CF01880F991F8E0F9F1F85549C4FCD
:101510000E9421118111DEC220E8C29FA001112486
:101520004E0D511D30E8F39EB0011124600F711D66
:10153000812F0E94BB0364E070E0812FDF91CF9187
:101540001F910F91FF90EF90DF90CF90BF90AF90E1
:101550009F908F900C943F062881898140E8849F5A
:10156000C0011124820F911D90934C0480934B0471
:101570000E94B51C60934D0470934E0480934F04F9
:1015800090935004ABC2623008F4A8C228818981CC
:1015900060E8869FC0011124820F911D009711F40D
:1015A00081E090E090930D0180930C0160910C011B
:1015B00070910D0188E290E00E9468297093860383
:1015C000609385038BC2623008F488C2698170E041
:1015D000123091F08A81E0E88E9FC0011124682BBF
:1015E000792B133049F08B8190E090E4899F902D06
:1015F00088271124682B792B8881DF91CF911F9147
:101600000F91FF90EF90DF90CF90BF90AF909F90A1
:101610008F900C947C0160EF8CE695E00E947D1623
:101620006CE68CE695E00E947D16C0E060E08CE6FA
:1016300095E00E947D1661E08CE695E00E947D16A3
:101640006DE08CE695E00E947D1661E08CE695E009
:101650000E947D1661E08CE695E00E947D1661E0B7
:101660008CE695E00E947D168EEE8C0F8C3058F43F
:1016700062E08CE695E00E947D166AE08CE695E0DB
:101680000E947D160DC0C33059F463E08CE695E0EE
:101690000E947D1668E08CE695E00E947D160AC0E7
:1016A0008BEF8C0F823088F387EF8C0F833068F3D9
:1016B000CD3059F364E08CE695E00E947D166EE033
:1016C0008CE695E00E947D168EEF8C0F823050F4F0
:1016D00066E08CE695E00E947D1661E08CE695E080
:1016E0000E947D166FE78CE695E00E947D16CF5F25
:1016F000CE3109F09BCFC8C1662309F4EFC1C88180
:1017000060EF8CE695E00E947D166EE68CE695E033
:101710000E947D166C2F8CE695E00E947D16CE31DE
:1017200008F0B2C16C2F8CE695E00E94BD16682FC0
:101730008CE695E00E947D166C2F8CE695E00E9469
:10174000CE16682F6F778CE695E00E947D166C2F81
:101750008CE695E00E94CE168078892B79F06C2F6C
:101760008CE695E00E94CE16880F892F881F990B72
:10177000682F6F778CE695E00E947D166C2F8CE6C3
:1017800095E00E94CE168827907C892B09F47CC1B5
:101790006C2F8CE695E00E94CE16990F880B990F5E
:1017A000982F881F682F6F776BC160EF8CE695E0EC
:1017B0000E947D166AE68CE695E00E947D16CEEECC
:1017C000CC3010F06FE701C06C2F8CE695E00E94E2
:1017D0007D16CF5FCC30A1F757C1488140938C0371
:1017E000298120938B0380915E0381110EC08DE3CC
:1017F00093E0909351038093500361E680E593E07A
:101800000E94BD1B81E080935E0381E0809387038B
:1018100065C198818981911122C09C812D8140E808
:10182000249F90011124290F311D442737FD409535
:10183000542F9A816B81E0E86E9FB0011124690FEB
:10184000711DDF91CF911F910F91FF90EF90DF906D
:10185000CF90BF90AF909F908F900C942F2091309D
:1018600009F03CC1DF91CF911F910F91FF90EF9054
:10187000DF90CF90BF90AF909F908F900C94B1224B
:101880002091810330918203263031050CF03FC056
:10189000888180936C03998190936B039A81913234
:1018A00008F491E290930A019B81CC8140E8C49FA7
:1018B000E0011124C90FD11DF901E558FC4F8083C7
:1018C0006BE070E00E943F066BE070E080916B037C
:1018D0000E943F0682E190E00E94AE288C019E01AA
:1018E00040916B0360916C030E946B18809181039F
:1018F00090918203FC01EE0FFF1FE359FC4F11830F
:10190000008301969093820380938103E7C06AE18C
:1019100072E0D0C08881811148C08981CA8060E8A6
:10192000C69E60011124C80ED11CAB80B12C8C80E6
:10193000912C153059F48AE190E00E94AE28EC0118
:101940009401A501B6010E94601910C0173099F4E6
:101950000D8110E0EE80F12C8AE190E00E94AE282B
:10196000EC019401A501B6010E948619D09367038A
:10197000C0936603B3C067E572E08CE695E00E9411
:101980007916412F50E060E070E087E892E0DF9147
:10199000CF911F910F91FF90EF90DF90CF90BF906C
:1019A000AF909F908F900C941408813009F048C03C
:1019B0004A8150E060E070E027E0440F551F661F49
:1019C000771F2A95D1F78B8190E0A0E0B0E03EE050
:1019D000880F991FAA1FBB1F3A95D1F7482B592B87
:1019E0006A2B7B2B8981482B8C810D8190E8099F84
:1019F00080011124080F111DCE8180916603909102
:101A000067030097D1F00E94BC19C11103C0119562
:101A100001951109B8018091660390916703DF91E8
:101A2000CF911F910F91FF90EF90DF90CF90BF90DB
:101A3000AF909F908F900C94C31A6FE872E03AC0F9
:101A40008230B1F58091660390916703009769F148
:101A50000E944C1BEC0160EF8CE695E00E947D1625
:101A600062E78CE695E00E947D166C2F6F778CE61E
:101A700095E00E947D16BE01660F672F661F770BEB
:101A80008CE695E00E947D1667EF8CE695E0DF918D
:101A9000CF911F910F91FF90EF90DF90CF90BF906B
:101AA000AF909F908F900C947D166BEB72E002C00C
:101AB00060EF72E08CE695E0DF91CF911F910F917E
:101AC000FF90EF90DF90CF90BF90AF909F908F905E
:101AD0000C947916812F0E9401041ECDDF91CF91C5
:101AE0001F910F91FF90EF90DF90CF90BF90AF903C
:101AF0009F908F9008958F929F92AF92BF92CF92B6
:101B0000DF92EF92FF920F931F930E94D2048CE614
:101B100095E00E946E15892B29F08CE695E00E94D5
:101B2000C317F5CF0E94B51C6093550470935604FB
:101B30008093570490935804C0905104D09052045D
:101B4000E0905304F090540440910C0150910D0129
:101B50004A01A12CB12C8B019C010C191D092E09E5
:101B60003F0980169106A206B30608F05DC1D501B3
:101B7000C4018C0D9D1DAE1DBF1D8093510490931B
:101B80005204A0935304B093540480918303909122
:101B900084039C012F5F3F4F309384032093830382
:101BA0002091850330918603281739070CF064C013
:101BB0001092840310928303809181039091820399
:101BC000892B09F459C0E0917903F0917A03EE0F63
:101BD000FF1FE359FC4F808191810E94311969E315
:101BE00070E00E946829CB014091790350917A03FB
:101BF00040936A039A012F5F3F4F30937A032093FB
:101C000079032091810330918203215031094217D9
:101C1000530724F010927A03109279036F77609340
:101C20006803880F892F881F990B8093690360EFE1
:101C30008CE695E00E947D1663E68CE695E00E94B6
:101C40007D16E0916A03F0E0E558FC4F60818CE678
:101C500095E00E947D16609168038CE695E00E94F5
:101C60007D16609169038CE695E00E947D1667EF12
:101C70008CE695E00E947D161EEE62E1610F1C303D
:101C8000D8F48CE695E00E94BD168230A9F420912C
:101C9000650430916604012E02C0359527950A949B
:101CA000E2F720FF09C0812F0E947F1DAC01612F48
:101CB0008CE695E00E94E7151F5F1C30F1F68091DD
:101CC0000B0187FF06C080918703882309F46BC04E
:101CD0001CC010E005E0812F90E020910B0133271C
:101CE00027FD30952817390774F3089FF001099FE5
:101CF000F00D1124ED5DFB4F6181728124814381E0
:101D000080810E94B5081F5FE6CF10928E0310926B
:101D10008D03109288030E943E1C0097A1F00E9440
:101D20005E1C809388032091890330918A031816E2
:101D300014F0882341F0280F311D87FD3A95309328
:101D40008A03209389038091890390918A03282F25
:101D50002F7720938D03880F892F881F990B8F77FA
:101D600080938E0360EF8CE695E00E947D1661E61D
:101D70008CE695E00E947D1660918C038CE695E0E0
:101D80000E947D1660918D038CE695E00E947D1681
:101D900060918E038CE695E00E947D1667EF8CE6DD
:101DA00095E00E947D1680914B0490914C04892B04
:101DB00009F43AC00E94B51C609355047093560410
:101DC000809357049093580400914D0410914E0451
:101DD00020914F0430915004AB01BC01401B510BCA
:101DE000620B730BE0914B04F0914C0428EE33E04E
:101DF000E29FC001E39F900DF29F900D1124A0E09F
:101E0000B0E084179507A607B70770F40E946E0725
:101E100028E088E190E00FB6F894A89580936000E0
:101E20000FBE20936000FFCF1F910F91FF90EF90A6
:101E3000DF90CF90BF90AF909F908F9008951F92AA
:101E40000F920FB60F9211242F933F934F935F93EE
:101E50006F937F938F939F93AF93BF93EF93FF9372
:101E60008091870487FF05C010928500109284003E
:101E70001AC020918704332727FD3095809186046E
:101E800090E0281739077CF480918704992787FD13
:101E90009095FC01EE0FFF1FE80FF91FE857FB4F6D
:101EA000808186FD15C0809187048F5F80938704B1
:101EB00020918704332727FD30958091860490E098
:101EC00028173907BCF4809187048C305CF112C06C
:101ED00080918704992787FD9095FC01EE0FFF1FE5
:101EE000E80FF91FE857FB4F808160E08F730E9475
:101EF000BD1ED9CF809184009091850004968034D6
:101F00009C4918F480E49CE905C08091840090917C
:101F10008500049690938900809388008FEF8093CA
:101F2000870438C020918400309185008091870417
:101F3000992787FD9095FC01EE0FFF1FE80FF91F11
:101F4000E857FB4F81819281820F931F9093890004
:101F50008093880080918704992787FD9095FC01E4
:101F6000EE0FFF1FE80FF91FE857FB4F808186FF38
:101F700011C080918704992787FD9095FC01EE0F91
:101F8000FF1FE80FF91FE857FB4F808161E08F7357
:101F90000E94BD1EFF91EF91BF91AF919F918F91D4
:101FA0007F916F915F914F913F912F910F900FBE55
:101FB0000F901F901895209186042C30A0F431E0EA
:101FC000320F30938604FC012083822F90E0FC01C5
:101FD000EE0FFF1FE80FF91FE857FB4F88EB9BE060
:101FE0009283818308952FEFFC0120830895DF926F
:101FF000EF92FF920F931F93CF93DF93EC01D62EB6
:102000007A01890188818C3008F066C061E08D2DED
:102010000E94841E8881A82FB0E0FD01EE0FFF1FF3
:10202000EA0FFB1FE857FB4F2D2D2F739081907CFB
:10203000922B908360E272E06E197F0977FF02C0F5
:102040006D5F7F4F7595679575956795698340E6D8
:1020500059E0401B510B57FF02C04D5F5F4F559534
:102060004795559547954A836CE00E945C299CE012
:10207000899FB001112420E030E0A901460F571FCD
:10208000FA01EE0FFF1FE40FF51FE857FB4F908199
:1020900096FD16C02F5F3F4F2C30310571F781112F
:1020A0000FC01092800082E0809381001092850022
:1020B00010928400B19A80916F00826080936F00CB
:1020C000888190E0FC01EE0FFF1FE80FF91FE85731
:1020D000FB4F8081806480838881DF91CF911F9145
:1020E0000F91FF90EF90DF90089520E639E040E2F5
:1020F00052E00C94F70FFC01808190E0FC01EE0FA0
:10210000FF1FE80FF91FE857FB4F80818F7B80830B
:102110000895FC0180818C3070F5918128E830E0D1
:10212000291B310997FD3395220F331F220F331FCF
:10213000621773077CF0928128E532E0291B310990
:1021400097FD3395220F331F220F331F621773073A
:102150000CF49B0122503109220F331F4FB7F89422
:1021600090E0FC01EE0FFF1FE80FF91FE857FB4F4F
:10217000328321834FBF08954F925F926F927F9277
:10218000AF92BF92CF92DF92EF92FF920F931F9385
:10219000CF93DF93EC01603282E078070CF040C00F
:1021A00077FD06C0653B71052CF064EB70E002C062
:1021B00060E070E0898128E830E0281B310987FD64
:1021C0003395220F331F220F331F5901CC24B7FC44
:1021D000C094DC2C882777FD8095982F2A8148E5CC
:1021E00052E0421B510927FD5395440F551F440FE0
:1021F000551F2A01662457FC6094762C7F926F92BB
:102200005F924F9214EBE12EF12C00E010E020E001
:1022100030E0A9010E9476270F900F900F900F9049
:10222000CE01DF91CF911F910F91FF90EF90DF9042
:10223000CF90BF90AF907F906F905F904F900C9435
:102240008910FC01808190E0FC01EE0FFF1FE80F78
:10225000F91FE857FB4F808186FB882780F9089596
:102260008091DC0490E02091DD04821B91090895A7
:102270002091DD048091DC04281750F4E22FF0E077
:10228000E252FB4F808190E02F5F2093DD040895A0
:102290008FEF9FEF0895E091DD048091DC04E81753
:1022A00030F4F0E0E252FB4F808190E008958FEF30
:1022B0009FEF08950895CF92DF92EF92FF920F93D0
:1022C0001F93CF93DF937C01CB018A012091B80447
:1022D000222389F0EB016B01C40ED51ECC15DD0560
:1022E00069F06991D701ED91FC910190F081E02DA9
:1022F000C7010995F3CF642F0E941613C801DF911F
:10230000CF911F910F91FF90EF90DF90CF900895A4
:10231000CF93DF931F92CDB7DEB769832091B804C6
:102320002223D1F02091B904203240F021E030E0A6
:10233000FC013383228380E090E015C08091BA04D1
:10234000E82FF0E0E554FB4F998190838F5F8093F5
:10235000BA048093B90405C061E0CE0101960E94E1
:10236000161381E090E00F90DF91CF910895FC016A
:102370001382128248EE53E060E070E0448355839C
:102380006683778388E293E0918380830895109237
:10239000DD041092DC041092BA041092B9040C947B
:1023A000591281E08093B8046093DB041092BA0460
:1023B0001092B90408950F93062F21E04091B904BB
:1023C0006BEB74E08091DB040E94BF121092BA04A0
:1023D0001092B9041092B8040F9108958F929F92B1
:1023E000AF92BF92CF92DF92EF92FF920F931F9323
:1023F000CF93DF93EC01F62ED42E48015901EE2045
:1024000019F10E94D1111E2D143008F013E0115063
:10241000B8F0E881F98128E0129FB0011124A501EC
:10242000940104C056954795379527956A95D2F73C
:10243000CA01B9010190F081E02DCE010995E7CFE5
:1024400060E0CE010E94DB114D2D413208F040E2E8
:102450002C2D6EED74E08F2D0E9477121092DD040A
:102460008093DC04DF91CF911F910F91FF90EF904B
:10247000DF90CF90BF90AF909F908F900895CF92B4
:10248000EF920F931F93C22EE12C00E010E0980111
:102490000E94EE111F910F91EF90CF90089521E0CF
:1024A0000C943F1261E00C94DB118CEA94E00C94E4
:1024B000B71110926B0581E0809369051092680551
:1024C00061E082E00E94BD1E61E083E00E94BD1ECB
:1024D000E9EBF0E080818E7F808380818D7F808337
:1024E00088E48093B80085E48093BC00089541326D
:1024F00008F043C090916B059111FCCF91E090934F
:102500006B05209369052FEF2093FE04109243057D
:10251000240F2093420590936A0590916A05880FD5
:10252000892B80936A0580916805813061F410924F
:10253000680580916A058093BB008091BC0083FD93
:10254000F8CF85EC01C085EE8093BC0080916B05CF
:102550008130E1F380914305841710F440914305E5
:1025600024E435E0FB01D9018A2F821B841718F47B
:102570008D918193F9CF842F089580E008950F9372
:10258000413208F04AC090916B059111FCCF92E066
:1025900090936B05009369059FEF9093FE04109252
:1025A000430540934205FB0164E475E0DB019A2F8B
:1025B000961B941718F491919D93F9CF10926A0588
:1025C00090916A05880F892B80936A058091680530
:1025D000813061F41092680580916A058093BB0098
:1025E0008091BC0083FDF8CF85EC01C085EE80931F
:1025F000BC00222321F080916B058230E1F38091B1
:10260000FE048F3F61F08091FE04803251F0809192
:10261000FE04803341F483E007C081E005C080E020
:1026200003C082E001C084E00F910895613298F404
:1026300020916B05243089F460932005FC0182E22F
:1026400095E0DC012A2F281B261718F421912D93E1
:10265000F9CF80E0089581E0089582E0089585ED46
:102660008093BC008091BC0084FDFCCF10926B0570
:10267000089585EC8093BC0010926B0508951F921D
:102680000F920FB60F9211242F933F934F935F93A6
:102690006F937F938F939F93AF93BF93EF93FF932A
:1026A0008091B900887F803609F49EC078F5883221
:1026B00009F45DC090F4803109F456C038F48823E1
:1026C00009F4F5C0883009F44FC0F5C0883109F429
:1026D0004EC0803209F45FC0EEC0803409F46AC095
:1026E00058F4803309F457C0883309F0E4C080936C
:1026F000FE040E943913DFC0803509F44FC08835CD
:1027000009F45DC0883409F0D6C0D3C0883909F413
:10271000C4C0A8F4883709F467C038F4883609F4CF
:1027200063C0803709F460C0C6C0883809F4B5C0FA
:10273000803909F45FC0803809F0BDC05BC0803BC0
:1027400009F483C038F4803A09F466C0883A09F481
:102750007CC0B1C0803C09F4A4C0883C09F4A1C08D
:10276000883B09F487C0A7C080916A0510C090918A
:10277000430580914205981770F5E091430581E08B
:102780008E0F80934305F0E0EC5BFA4F80818093DD
:10279000BB0085EC83C08093FE048BC0E0914305B1
:1027A00081E08E0F809343058091BB00F0E0EC5BED
:1027B000FA4F808390914305809142056BC0E09170
:1027C000430581E08E0F809343058091BB00F0E0CC
:1027D000EC5BFA4F80838091690581116AC081E0CA
:1027E0008093680584EA5EC083E080936B05109255
:1027F000FF04CFCF8091FF04803208F04EC0E091FB
:10280000FF0481E08E0F8093FF048091BB00F0E015
:10281000E050FB4F8083BDCF0E9439138091FF04AD
:10282000803230F4E091FF04F0E0E050FB4F108282
:102830006091FF0470E0E0916405F091650580E02F
:1028400095E009951092FF0436C084E080936B05F3
:102850001092210510922005E0916605F091670520
:10286000099580912005811105C081E080932005A4
:1028700010922205E091210581E08E0F80932105C1
:10288000F0E0EE5DFA4F80818093BB0090912105CE
:1028900080912005981708F47CCF85E88093BC00D0
:1028A0000AC085EC8093BC0010926B0504C01092A6
:1028B000FE040E942F13FF91EF91BF91AF919F9162
:1028C0008F917F916F915F914F913F912F910F90D9
:1028D0000FBE0F901F9018950F931F93CF93DF9308
:1028E000EC018B0188819981DC01ED91FC916F777E
:1028F0000190F081E02D099588819981DC01ED91AD
:10290000FC91B801660F672F661F770B6F770190F8
:10291000F081E02DDF91CF911F910F910994DC019F
:102920008D919C91DC01ED91FC910190F081E02D65
:1029300060EF0994DC018D919C91DC01ED91FC919B
:102940000190F081E02D67EF0994CF93DF93EC01C4
:1029500088819981DC01ED91FC910190F081E02D5D
:1029600069EF099588819981DC01ED91FC910190D5
:10297000F081E02D62E0099588819981DC01ED917B
:10298000FC910190F081E02D65E0DF91CF910994F9
:102990001F93CF93DF93EC018A818823D9F1CE0175
:1029A0000E948F1488819981DC01ED91FC91019046
:1029B000F081E02D69E7099588819981DC01ED912D
:1029C000FC91AB81BC810190F081E02D6C91099567
:1029D00088819981DC01ED91FC91AB81BC810190F2
:1029E000F081E02D11966C91099512E08A811817FB
:1029F00058F4EB81FC81E10FF11D608170E0CE01A4
:102A00000E946C141F5FF2CFCE01DF91CF911F9116
:102A10000C949A14DF91CF911F910895CF92DF9279
:102A2000EF92FF920F931F93CF93DF938C01EB01F3
:102A3000C42ED22E64E373E0CE010E940C2C7C01E4
:102A40006FE270E0CE010E94012C009739F46CE532
:102A500070E0CE010E94012C009711F0EC0121964C
:102A6000E114F10451F4FE0101900020E9F7EC1BA0
:102A7000EF5FD8011296EC9306C0EC1AFD0AE394BE
:102A8000E394F801E282D80113968D919C911497FA
:102A90000E94892AF801E280F12CC70101960E9468
:102AA000F129D80114969C938E931397FC01EE0D97
:102AB000FF1D1082FC01C082D18212964C9150E021
:102AC00042505109BE010296DF91CF911F910F91A3
:102AD000FF90EF90DF90CF900C94F22BDC018D9162
:102AE0009C91DC01ED91FC910480F581E02D09942D
:102AF0000F931F93CF93DF93FC012085213749F07B
:102B0000293709F049C0DF91CF911F910F910C94A3
:102B1000C814FC01ED54FF4F0190F081E02D309777
:102B200009F450C0DC01A75BBF4F4D915C919A0145
:102B30002150310937FD9A01B90175956795062F26
:102B400040E050E020E030E04E5F5F4F2017A0F4FF
:102B5000EC01C40FD51F1F81DC01A20FB31F189613
:102B60001C931897C885D0E8CD9F1019112418968A
:102B70001C932F5F3F4FE8CFDC01A60FB11D1796C6
:102B80002C911797222311F018961C920896DF912A
:102B9000CF911F910F910994FC01EB54FF4F0190CD
:102BA000F081E02D309771F0AC01475F5F4FDC01A1
:102BB000A75BBF4F6C916150822FDF91CF911F9126
:102BC0000F910994DF91CF911F910F9108950F9369
:102BD0001F93CF93DF93EC018A0188819981DC01F7
:102BE000ED91FC916F70606E0190F081E02D099580
:102BF000B801CE01DF91CF911F910F910C946C140D
:102C00000F931F93CF93DF93EC018A018881998101
:102C1000DC01ED91FC916F7060690190F081E02D15
:102C2000099588819981DC01ED91FC91602F6F7786
:102C30000190F081E02D099588819981DC01ED9169
:102C4000FC91B801660F672F661F770B0190F0812A
:102C5000E02DDF91CF911F910F910994CF92DF92D8
:102C6000EF92FF920F931F93CF93DF9300D01F92A9
:102C7000CDB7DEB78C01F42E2A833B8369830E9493
:102C80008F14D8018D919C91DC01ED91FC91019004
:102C9000F081E02D698109952A81E22EC22E3B81C7
:102CA000D32E8C2D8E198F1540F4F60161916F0192
:102CB00070E0C8010E946C14F4CFC8010F900F900F
:102CC0000F90DF91CF911F910F91FF90EF90DF90C8
:102CD000CF900C949A149A01613751F4FA01019043
:102CE0000020E9F73197E41BF50B4E2F0C942E16BC
:102CF0000895AB0161E70C946B16DC018D919C91FA
:102D0000DC01ED91FC910190F081E02D0994603D92
:102D1000C1F028F4603969F0603C79F00895643FAF
:102D2000A1F0653FB1F0603EC9F4FC01EB55FF4FE7
:102D300013C0FC01E955FF4F0FC0FC01E755FF4FE1
:102D40000BC0FC01E555FF4F07C0FC01E355FF4FE9
:102D500003C0FC01E155FF4F5183408308956F3F4D
:102D600029F4FC01EF54FF4F5183408308958B54A5
:102D70009F4FFC01518340830895860F911DFC01F4
:102D8000E55BFF4F80810895860F911DFC01E55B97
:102D9000FF4F80818F3709F040830895860F911D82
:102DA000860F911DFC01E759FF4F808191810895A5
:102DB000860F911D860F911DFC01E759FF4F51832E
:102DC00040830895FC0115821682178280E090E00E
:102DD000DF01A80FB91F18961C9201968034910547
:102DE000B9F7DF01A85BBF4F1C9211961D921C9290
:102DF000EF54FF4F0190F081E02D309709F00994D6
:102E00000895FC01E954FF4F1082FC0112821482E4
:102E100013820C94E216CF93DF93EC01FC01E85B84
:102E2000FF4F80818823A1F0673F31F41082CE01EB
:102E3000DF91CF910C947815FE01E75BFF4F808105
:102E40009181C80FD91F688701969183808398C0AC
:102E50008D81882309F452C067FD50C081508D8355
:102E6000FE01E80FF11D608781118AC08E818823E1
:102E700009F486C0803DA1F140F4803981F0803CA6
:102E8000D9F5FE01E755FF4F2EC0843FC9F0853FBD
:102E9000D9F0803E89F5FE01EB55FF4F03C0FE01DE
:102EA000E955FF4F0190F081E02D309729F1888599
:102EB000698570E090E8899F600D711D11241AC02A
:102EC000FE01E355FF4F03C0FE01E155FF4F0190A6
:102ED000F081E02D309781F0688570E089850BC026
:102EE000FE01E555FF4F0190F081E02D309721F074
:102EF000688570E08F8109951E8242C0862F603FF1
:102F000028F4807F90E06F706F8301C090E0803F75
:102F1000910549F17CF4803C910509F124F4803954
:102F20009105D9F02DC0803D9105C9F0803E9105F5
:102F3000A1F026C0893F9105E9F03CF49C01245F93
:102F400031092230310548F01BC08F3F9105C1F493
:102F5000CE01DF91CF910C94E21692E001C091E096
:102F60009D838E830DC081E08083C75BDF4F198214
:102F7000188206C08CE695E0DF91CF910C94A514E1
:102F8000DF91CF910895CF93DF93EC0188819981F0
:102F9000DC01ED91FC910680F781E02D09958F3FD2
:102FA000BFEF9B0731F0682FCE01DF91CF910C94DA
:102FB0000B17DF91CF9108957F928F929F92AF92DE
:102FC000BF92CF92DF92EF92FF920F931F93CF9316
:102FD000DF93762EEA01680110E0EE24D7FCE0943E
:102FE000FE2C4901AA2497FCA094BA2C212F30E092
:102FF0002C173D0794F4C701B6010E94E41C61E060
:10300000872D0E94BD1EC501B4010E94E41C60E032
:10301000872D0E94BD1E1F5FE9CFDF91CF911F91C9
:103020000F91FF90EF90DF90CF90BF90AF909F9067
:103030008F907F9008950F931F93CF93DF93EC01B0
:10304000FC01E954FF4F8081811126C061E08DE0D1
:103050000E94841E02ED10E028E230E042E050E0E1
:103060006DE0CE010E94DC176AEF70E080E090E036
:103070000E94E41C28E230E045E050E06DE0CE0123
:103080000E94DC176DE770E080E090E0DF91CF9167
:103090001F910F910C94E41CDF91CF911F910F9120
:1030A0000895CF93DF93EC0181E396E00E94FD1F2A
:1030B00081E396E099838883CE010E941B18CE019C
:1030C0000E94A514CE01DF91CF910C94C8148CE618
:1030D00095E00C940117CF93DF93DC0170E0FB01C6
:1030E000E35AFE4FE4911496EC931497842F90E0EA
:1030F000FC01E35AFE4FE4911596EC931597645842
:103100007E4FFB01C491D0E0CC0FDD1FC755DE4FD1
:10311000FE014591549117965C934E931697FC01CE
:10312000E458FE4F849190E0880F991F85569E4F7A
:10313000FC01459154911B965C934E931A97FB01A9
:103140006491E62FF0E0EE0FFF1FE954FE4F8591EA
:10315000949119969C938E931897C901253FF1E09D
:103160003F0714F084EF91E049E3489F9001499FA5
:10317000300D1124245E3F4F1D963C932E931C97D7
:10318000DF91CF9108950F931F93CF93DF93EC01BD
:10319000E885F98580819C81892B8083EE81FF8180
:1031A00090818C8180958923808384E090E00E94C7
:1031B0001E1DEE81FF8180819C81892B80838AE0A6
:1031C00090E00E941E1DEE81FF8190818C81809590
:1031D00089238083E885F98590818C818095892376
:1031E00080830E94C11C605B794B8F4F9F4F6E871D
:1031F0007F87888B998BEA85FB8580819D818923D8
:1032000059F00E94C11C0E851F852889398906172F
:1032100017072807390778F7EA85FB8580819D81A4
:10322000892369F40E94C11C0E851F85288939896C
:10323000061717072807390778F780E00DC00E94A6
:10324000C11C2C853D85620F731F811D911D6E87EA
:103250007F87888B998B81E0DF91CF911F910F91B0
:1032600008950F931F93CF93DF93EC010E94C3182F
:10327000882389F0EA85FB8580819D81892371F00F
:103280000E94C11C0E851F852889398906171707DA
:103290002807390778F720E030E00CC00E94C11CF5
:1032A0002C853D85255031094E855F85241B350BC6
:1032B000260F371FC901DF91CF911F910F910895FC
:1032C000CF93DF93EC01842F1B861A861982188214
:1032D0001E8A1F8A188E198E7F836E834C875D87A6
:1032E0003F872E8761E00E94841E61E08E850E94E8
:1032F000841E198A188A1B8A1A8A1D8A1C8A82E0EF
:1033000090E099878887DF91CF910895EF92FF929F
:103310000F931F93CF93DF93EC01842F1B861A86A4
:10332000198218821E8A1F8A188E198E7F836E83D7
:103330004C875D873F872E87198B088BFB8AEA8A2B
:1033400061E00E94841E61E08E850E94841E61E01F
:1033500088890E94841E61E08A890E94841E1D8AD9
:103360001C8A84E090E099878887DF91CF911F9134
:103370000F91FF90EF900895CF92DF92EF92FF921E
:10338000CF93DF93EC016A017B012E813F814427BB
:1033900037FD4095542F60E077E883E993E00E9481
:1033A000B229CA01B901A70196010E94B2292A8354
:1033B0003B834C835D83DF91CF91FF90EF90DF9053
:1033C000CF9008950F931F93CF93DF93EC018B0160
:1033D000888599850297F9F46130710571F02CF4B4
:1033E00061157105C1F460E009C06230710559F0E2
:1033F0006330710581F460E007C061E08C850E9454
:10340000BD1E61E005C061E08C850E94BD1E60E0CC
:103410008E850E94BD1E888599850497B9F5013077
:103420001105B1F04CF40115110581F561E08C85B1
:103430000E94BD1E60E011C002301105B9F00330DA
:10344000110521F561E08C850E94BD1E60E013C06E
:1034500060E08C850E94BD1E61E08E850E94BD1ECD
:1034600061E088890E94BD1E60E00DC060E08C852F
:103470000E94BD1E61E08E850E94BD1E60E08889AD
:103480000E94BD1E61E08A890E94BD1E88859985C3
:10349000059709F073C00A30110508F06FC0F801F4
:1034A000EC59FF4F0C94D12960E08C850E94BD1E21
:1034B00061E051C060E08C850E94BD1E61E08E8598
:1034C0000E94BD1E60E04BC060E08C850E94BD1E66
:1034D00061E08E850E94BD1E60E088890E94BD1E4D
:1034E00061E041C060E001C061E08C850E94BD1ECA
:1034F00061E005C061E08C850E94BD1E60E08E85A4
:103500000E94BD1E60E009C061E08C850E94BD1E66
:1035100060E08E850E94BD1E61E088890E94BD1E0C
:1035200061E00DC061E08C850E94BD1E60E08E856B
:103530000E94BD1E61E088890E94BD1E60E08A89EC
:103540000E94BD1E60E013C061E001C060E08C8598
:103550000E94BD1E60E08E850E94BD1E61E08889CC
:103560000E94BD1E60E08A890E94BD1E61E08C89B8
:10357000DF91CF911F910F910C94BD1EDF91CF91E0
:103580001F910F9108954F925F926F927F928F9249
:103590009F92AF92BF92CF92DF92EF92FF920F93E2
:1035A0001F93CF93DF93EC01CB0177FF04C08827F3
:1035B0009927861B970B6C01161617062CF481E0D1
:1035C00090E09983888304C0672B11F019821882D8
:1035D00004E010E08AE0E82EF12CC114D10409F4D3
:1035E0004AC00E94C11C8E889F88A88CB98C2B0170
:1035F0003C01481859086A087B088A809B80AC8087
:10360000BD80481459046A047B0458F36E8B7F8B89
:10361000888F998F288139818A859B852130310552
:1036200059F401969B878A872E813F8182179307E1
:1036300071F41B861A860BC0892B21F48E819F8121
:103640009B878A878A859B8501979B878A8781E0EC
:10365000C81AD108288539858A859B85253031058A
:1036600011F4B70101C0B8010E947C29BC01CE0150
:103670000E94E219B2CFDF91CF911F910F91FF907D
:10368000EF90DF90CF90BF90AF909F908F907F9002
:103690006F905F904F90089585E090E00895FC0151
:1036A000A281B3812C9195819223878182239923D2
:1036B00061F0882379F08085882321F081859285C7
:1036C000890F8187108612860895811103C081E0D9
:1036D000808708952085211108C0992311F081E089
:1036E00003C0882311F08FEF8287089590E0FC01DA
:1036F0003197ED30F10560F5E259FF4F0C94D12977
:10370000809180008F7703C0809180008F7D8093AF
:103710008000089584B58F7702C084B58F7D84BD05
:103720000895809190008F7707C0809190008F7DE1
:1037300003C080919000877F8093900008958091CE
:10374000C0008F7703C08091C0008F7D8093C00040
:1037500008951F93CF93DF93EC01862F142F41E040
:1037600050E0BE010E94230341E050E0BE01812FE2
:10377000DF91CF911F910C942303CF93DF93EC0142
:103780006B874C832E83421709F475C0483018F4B8
:10379000283008F070C088EF840F863020F428505D
:1037A000263060F068C04E3030F02E3008F463C030
:1037B000443108F060C0243108F05DC018861986D5
:1037C000A0912606B0912706109729F4D0932706DA
:1037D000C09326060CC01C968D919C911D97009756
:1037E00011F0DC01F8CF1D96DC93CE931C971D865B
:1037F0001C8650E0FA01E458FE4FE491F0E0EE0F31
:10380000FF1FE556FE4F859194919B838A83892BF8
:1038100009F431C0FA01E35AFE4FE491ED83FA0155
:10382000E25CFE4F849181110E94761B8E8190E0B4
:10383000FC01E35AFE4FE491EF83FC01E25CFE4F92
:10384000849181110E94761B60E08C810E94841E0D
:1038500060E08E810E94841E61E08C810E94BD1E0A
:1038600061E08E810E94BD1E4E816C81CE01DF9190
:10387000CF910C94A91BDF91CF91089590912606CA
:10388000809127069093240680932506E92FF82F30
:10389000309769F08185882331F0F0932506E09315
:1038A0002406CF0108950484F585E02DF1CF109210
:1038B00025061092240680E090E00895FC018185A1
:1038C00087FF03C091E0980F91879185191614F432
:1038D0009150918708951F920F920FB60F92112465
:1038E0002F933F938F939F93AF93BF93809129061C
:1038F00090912A06A0912B06B0912C0630912806B3
:1039000023E0230F2D3720F40196A11DB11D05C022
:1039100026E8230F0296A11DB11D2093280680934F
:10392000290690932A06A0932B06B0932C0680912B
:103930002D0690912E06A0912F06B091300601968B
:10394000A11DB11D80932D0690932E06A0932F06E6
:10395000B0933006BF91AF919F918F913F912F917E
:103960000F900FBE0F901F9018952FB7F89460918D
:10397000290670912A0680912B0690912C062FBF64
:1039800008953FB7F89480912D0690912E06A0914E
:103990002F06B091300626B5A89B05C02F3F19F021
:1039A0000196A11DB11D3FBF6627782F892F9A2F41
:1039B000620F711D811D911D42E0660F771F881FE8
:1039C000991F4A95D1F708958F929F92AF92BF9217
:1039D000CF92DF92EF92FF926B017C010E94C11C9B
:1039E0004B015C01C114D104E104F104F1F00E9427
:1039F000B0280E94C11C681979098A099B09683E90
:103A000073408105910570F321E0C21AD108E108E5
:103A1000F10888EE880E83E0981EA11CB11CC11429
:103A2000D104E104F10429F7DDCFFF90EF90DF909E
:103A3000CF90BF90AF909F908F9008958230910566
:103A400038F0880F991F880F991F05970197F1F794
:103A50000895789484B5826084BD84B5816084BD06
:103A600085B5826085BD85B5816085BDEEE6F0E0F7
:103A7000808181608083E1E8F0E010828081826053
:103A80008083808181608083E0E8F0E080818160D4
:103A90008083E1E9F0E080818260808380818160C1
:103AA0008083E0E9F0E0808181608083E1ECF0E0F8
:103AB0008081846080838081826080838081816056
:103AC0008083E3ECF0E0808181608083E0ECF0E0D3
:103AD000808182608083E2ECF0E08081816080837D
:103AE000EAE7F0E080818460808380818260808367
:103AF00080818160808380818068808308958231A5
:103B000008F08251E82FF0E0EE5CFE4FE4918091E6
:103B10007B00E3FB222720F930E095E0220F331FE2
:103B20009A95E1F78F7D822B80937B00E7708091DF
:103B30000E0120E4829FC0011124E82BE0937C0059
:103B400080917A00806480937A0080917A0086FD6B
:103B5000FCCF809178002091790090E0922B08951D
:103B60001F93CF93DF93182FEB0161E00E94841E17
:103B7000209711F460E004C0CF3FD10539F461E033
:103B8000812FDF91CF911F910C94BD1EE12FF0E0AA
:103B9000E25CFE4F449150E0FA013197EF30F105BD
:103BA00008F06CC0E558FF4F0C94D12984B58068AB
:103BB00084BDC7BD68C084B5806284BDC8BD63C014
:103BC00080918000806880938000D0938900C093AA
:103BD000880059C080918000806280938000D093DB
:103BE0008B00C0938A004FC08091800088608093D2
:103BF0008000D0938D00C0938C0045C080919000D0
:103C0000806880939000D0939900C09398003BC047
:103C100080919000806280939000D0939B00C0932D
:103C20009A0031C080919000886080939000D0937A
:103C30009D00C0939C0027C08091C0008068809345
:103C4000C0008091C0008F7B8093C000C093CF00E4
:103C50001AC08091C00080628093C000C093D000E1
:103C600012C08091C20088608093C2008091C2001F
:103C70008B7F8093C200C093D20005C0C038D105AD
:103C80000CF07DCF77CFDF91CF911F91089590E019
:103C9000FC013197EF30F105B0F5E657FF4F0C947A
:103CA000D129809180008F7703C0809180008F7D23
:103CB00080938000089580918000877FF9CF84B53C
:103CC0008F7702C084B58F7D84BD08958091900068
:103CD0008F7707C0809190008F7D03C08091900006
:103CE000877F8093900008958091C0008F7703C0F4
:103CF0008091C0008F7D8093C00008958091C200A4
:103D0000877F8093C2000895CF93DF9390E0FC01FA
:103D1000E35AFE4F2491FC01E458FE4F849188231E
:103D200049F190E0880F991FFC01E954FE4FA591DD
:103D3000B49187559E4FFC01C591D4919FB76111F5
:103D400008C0F8948C91209582238C9388818223DB
:103D50000AC0623051F4F8948C91322F309583234D
:103D60008C938881822B888304C0F8948C91822B59
:103D70008C939FBFDF91CF9108950F931F93CF93A3
:103D8000DF931F92CDB7DEB7282F30E0F901E25C58
:103D9000FE4F8491F901E35AFE4F1491F901E45862
:103DA000FE4F04910023C9F0882321F069830E940B
:103DB000471E6981E02FF0E0EE0FFF1FE755FE4F31
:103DC000A591B4919FB7F8948C91611103C010959F
:103DD000812301C0812B8C939FBF0F90DF91CF91E6
:103DE0001F910F910895CF93DF93282F30E0F901B1
:103DF000E25CFE4F8491F901E35AFE4FD491F90140
:103E0000E458FE4FC491CC2391F081110E94471ECB
:103E1000EC2FF0E0EE0FFF1FE556FE4FA591B49199
:103E20002C912D2381E090E021F480E002C080E01D
:103E300090E0DF91CF910895CF93DF931F92CDB79C
:103E4000DEB76983DC01ED91FC910280F381E02D06
:103E500041E050E0BE016F5F7F4F09950F90DF9109
:103E6000CF910895CF93DF93EC018C859D8597FFCB
:103E700005C082E00E9440249D878C878C859D85AB
:103E8000DF91CF91089583E00C94D426FC018485C2
:103E9000958597FD06C082E00E94E82390E0019698
:103EA000089582E00E94E82390E00895FC01848553
:103EB000958597FD05C02FEF3FEF3587248708953F
:103EC00082E00C944024CF93DF93EC0180911A019F
:103ED000882331F083E00E9471241816190634F00B
:103EE00081E090E09B838A8380E090E0DF91CF9136
:103EF0000895FC0120812E5F208342E450E065ECB0
:103F000071E080E80C940C25FC0121818081813ACC
:103F100059F4213209F05CC047E050E063E171E000
:103F200080E00E940C2567C0813209F051C0233225
:103F300089F4838190E0982F88273281832BA0E039
:103F4000B0E080930F0190931001A0931101B09302
:103F500012010FC0203239F467E070E083E191E094
:103F60000E943D250AC0223221F4828180931A01E9
:103F700004C02D7F203209F03EC080911301909142
:103F80001401A0911501B0911601803B9440A10548
:103F9000B10501F580911A0180FD1CC080910008D7
:103FA000909101089093FF0A8093FE0A87E797E7B4
:103FB00090930108809300082BE088E190E00FB611
:103FC000F894A895809360000FBE2093600013C002
:103FD00080E0089588E10FB6F89480936000109215
:103FE00060000FBEA8958091FE0A9091FF0A909301
:103FF00001088093000881E008952FEF3FEFFC0156
:10400000358724870895CF93C0911A016AE070E044
:1040100080E090E00E94E41C81E0C11101C080E0DA
:10402000CF910895109234061092330688EE93E0F3
:10403000A0E0B0E08093350690933606A093370653
:10404000B093380683E493E0909332068093310670
:104050008FEF9FEF90933E0680933D0608953F9229
:104060004F925F926F927F928F929F92AF92BF9288
:10407000CF92DF92EF92FF920F931F93CF93DF9334
:1040800000D000D0CDB7DEB78B0129013A01909165
:104090001B01981721F09F3F09F025C204C0E7E0FB
:1040A000F2E03490AEC080931B01E7E0F2E0E491CF
:1040B000EF3F09F418C2E13009F452C01CF5E111D8
:1040C0009FC014BC15BC94B5926094BD95B5916029
:1040D00095BD282F30E0F901E458FE4FE491F0E05F
:1040E000EE0FFF1FE755FE4F4591549150939806F0
:1040F00040939706F901E35AFE4F249120939606C8
:10410000312C81C0E33009F453C0E43009F078C0A9
:104110001092C0001092C1009091C10098609093DD
:10412000C1009091C10091609093C100282F30E0B0
:10413000F901E458FE4FE491F0E0EE0FFF1FE75560
:10414000FE4F459154915093830640938206F901A6
:10415000E35AFE4F24912093810654E0352E53C03C
:10416000109280001092810090918100986090934D
:10417000810090918100916090938100282F30E020
:10418000F901E458FE4FE491F0E0EE0FFF1FE75510
:10419000FE4F459154915093910640939006F9013A
:1041A000E35AFE4F249120938F06332433942BC07F
:1041B00010929000109291009091910098609093CD
:1041C000910090919100916090939100282F30E0A0
:1041D000F901E458FE4FE491F0E0EE0FFF1FE755C0
:1041E000FE4F4591549150938A0640938906F901F8
:1041F000E35AFE4F24912093880673E0372E03C0C4
:104200003E2E37FC70C161E00E94841E4801A12C43
:10421000B12C832D8D7F09F0BDC060E072E18AE78B
:1042200090E0A50194010E94B22929833A834B832F
:104230005C8369017A0181E0C81AD108E108F108BC
:104240009FEFC916D104E104F10409F008F49AC003
:1042500060E472E48FE090E0A50194010E94B2292D
:1042600069017A01E1E0CE1AD108E108F108F2E033
:104270003F1219C08FEFC816D104E104F10409F010
:1042800008F4CCC060E970ED83E090E0A5019401F2
:104290000E94B22969017A0191E0C91AD108E108A6
:1042A000F10883E001C082E0EFEFCE16D104E10413
:1042B000F10409F008F467C068E478EE81E090E06A
:1042C000A50194010E94B22969017A01F1E0CF1A97
:1042D000D108E108F1083320E1F082E038121BC078
:1042E0009FEFC916D104E104F10409F008F496C067
:1042F00064E274EF80E090E0A50194010E94B2298D
:1043000069017A01E1E0CE1AD108E108F10885E0FF
:1043100003C083E001C084E0FFEFCF16D104E104C5
:10432000F10489F180F162E17AE780E090E0A50193
:1043300094010E94B22969017A0181E0C81AD1086A
:10434000E108F108311002C084E001C086E09FEF6F
:10435000C916D104E104F104B1F0A8F0C980DA80F3
:10436000EB80FC809AE0F594E794D794C7949A95F3
:10437000D1F7E1E0CE1AD108E108F10831104EC0C2
:1043800085E003C081E0311049C095B5987F982B36
:1043900095BD44C060E072E18AE790E0A501940118
:1043A0000E94B22969017A01F1E0CF1AD108E1082F
:1043B000F108C114D10481E0E806F10488F068E452
:1043C00078EE81E090E0A50194010E94B229690194
:1043D0007A0191E0C91AD108E108F10893E001C01F
:1043E00091E0E1E03E1207C080918100887F892B37
:1043F0008093810013C0F3E03F1207C080919100C9
:10440000887F892B8093910009C084E0381206C010
:104410008091C100887F892B8093C1004114510491
:104420006104710471F0D801AA0FBB1FA3019201AE
:104430000E94D72928EE33E040E050E00E94902906
:1044400003C02FEF3FEFA90191E0391649F1931511
:104450008CF0311048C0C7BC2093990630939A065F
:1044600040939B0650939C0680916E0082608093DF
:104470006E0039C0E3E03E1629F1F4E03F1233C08C
:10448000C092CF0020938406309385064093860621
:10449000509387068091720080648093720023C0DD
:1044A000D0928900C09288002093920630939306A0
:1044B000409394065093950680916F00826080939C
:1044C0006F0011C0D0929900C092980020938B0683
:1044D00030938C0640938D0650938E068091710028
:1044E0008260809371000F900F900F900F90DF917A
:1044F000CF911F910F91FF90EF90DF90CF90BF90E1
:10450000AF909F908F907F906F905F904F903F9073
:1045100008958230A1F028F4882341F0813049F0D9
:104520000895833091F08430B1F0089510926E00B8
:10453000089580916F008D7F80936F000895809122
:1045400070008D7F809370000895809171008D7F41
:10455000809371000895809172008F7B8093720028
:104560000895CF93C82F80911B018C1307C0E7E0FB
:10457000F2E084919FEF90931B0101C08FEF0E94A6
:10458000892260E08C2FCF910C94BD1E1F920F9258
:104590000FB60F9211242F933F934F935F936F9316
:1045A0007F938F939F93AF93BF93EF93FF938091EC
:1045B0008B0690918C06A0918D06B0918E06892B6A
:1045C0008A2B8B2B51F190918806E0918906F0910E
:1045D0008A0680818927808380918B0690918C0642
:1045E000A0918D06B0918E06181619061A061B06A4
:1045F0002CF580918B0690918C06A0918D06B09140
:104600008E060197A109B10980938B0690938C06C1
:10461000A0938D06B0938E0611C083E00E9489227C
:1046200020918806E0918906F0918A06808190E0C9
:1046300030E020953095822393238083FF91EF9182
:10464000BF91AF919F918F917F916F915F914F91AA
:104650003F912F910F900FBE0F901F9018956150B2
:1046600030F02091F100FC0120830196F8CF289AC8
:1046700084E68093A60608954091A1065091A20673
:1046800020919F063091A00642175307B4F49091F1
:10469000E8009570E1F39091E80092FD19C08093D5
:1046A000F1008091A1069091A20601968F7399273F
:1046B000892B19F48EEF8093E8008091A1069091E8
:1046C000A20601969093A2068093A10681E0089528
:1046D00080E00895CF92DF92EF92FF920F931F93A5
:1046E000CF93DF931F92CDB7DEB7082F162FF42E8E
:1046F000862F880F8E5F99830E943C2383E00E945F
:104700003C23E02EC02E9981D92E8C2D8E19811735
:1047100098F4F601F7FE02C0849101C080810E94E6
:104720003C23082F80E00E943C238023FFEFCF1A18
:10473000DF0A8111EACF01C081E00F90DF91CF91B4
:104740001F910F91FF90EF90DF90CF90089580918F
:10475000D70081608093D70080EA8093D80089B524
:10476000806189BD89B5826089BD09B400FEFDCF35
:1047700061E070E080E090E00E94E41C8091D8004D
:104780008F7C80618093D8008091E000807F80934F
:10479000E0000895CF93DF931F92CDB7DEB7198263
:1047A000CE0101960E94791F0E943829BE016F5FD9
:1047B0007F4F0E94B12889810F90DF91CF9108959A
:1047C0002FB7FC012083F89467706093E900089587
:1047D000CF93DF931F92CDB7DEB7682FCE0101963E
:1047E0000E94E0238091F20099819FBF0F90DF919A
:1047F000CF910895FF920F931F93CF93DF9300D033
:10480000CDB7DEB7F62E8A019091A506992311F057
:1048100057FF03C08FEF9FEF2BC0682FCE0101968B
:104820007A830E94E0238091F20090E0A8017A81CF
:10483000801791070CF4AC01EF2DF72FF40E84E6EE
:10484000FE1639F0289A8093A6069091F100919374
:10485000F7CF4115510521F08091F200882321F016
:1048600089818FBFCA0104C08BE68093E800F8CF2E
:104870000F900F90DF91CF911F910F91FF900895AE
:10488000CF93DF931F92CDB7DEB741E050E0BE017A
:104890006F5F7F4F0E94FA23019719F4898190E09E
:1048A00002C08FEF9FEF0F90DF91CF910895CF93CC
:1048B000DF931F92CDB7DEB7682FCE0101960E941D
:1048C000E0239091E800892F807295FF04C09091B9
:1048D000F20080E4891B99819FBF0F90DF91CF91F7
:1048E00008956F927F928F929F92AF92BF92CF92D4
:1048F000DF92EF92FF920F931F93CF93DF931F925C
:10490000CDB7DEB7782E7B01C42EB52E8091A506DB
:10491000882369F0042F152F8AEFD82E872D8072F7
:10492000982E9AE3A92E872D8074882E11C08FEFC0
:104930009FEF57C0872D0E945724682E81110CC00D
:10494000DA94A9F361E070E080E090E00E94E41C5A
:104950000115110579F73BC0282F30E00217130726
:104960000CF4602E672DCE0101960E94E023809109
:10497000E80085FF29C0262D30E0021B130B99208B
:1049800039F06A948FEF6816B1F01092F100F9CF08
:10499000F701862D77FE07C0815058F094919093CF
:1049A000F1003196F9CF815020F091919093F10070
:1049B000FACFE20EF31E8091E80085FF0FC00115CB
:1049C000110511F481100AC089818FBFC1CF5D9A92
:1049D00084E68093A7068C2D9B2D03C0A092E8004F
:1049E000F3CF0F90DF91CF911F910F91FF90EF9038
:1049F000DF90CF90BF90AF909F908F907F906F90FF
:104A000008951092E9001092A2061092A1069093C8
:104A1000A00680939F060895CF92DF92FF920F9396
:104A20001F93CF93DF9300D0CDB7DEB7F82E8A0166
:104A30006B0101151105B1F0F601F7FE02C084917A
:104A400001C0808149835A830E943C23015011098F
:104A5000FFEFCF1ADF0A49815A818111EACF8FEF28
:104A60009FEF01C0CA010F900F90DF91CF911F916E
:104A70000F91FF90DF90CF900895BF92CF92DF9279
:104A8000EF92FF920F931F93CF93DF936C018B01F3
:104A9000EB013BEFB32E2097C1F07E01C134D1056D
:104AA0001CF020E4E22EF12C8091E80082FFFCCF84
:104AB000C8018C1B9D0B6E2D8C0D9D1D0E942F23FC
:104AC000B092E800CE19DF09E6CFC801DF91CF919F
:104AD0001F910F91FF90EF90DF90CF90BF900895BE
:104AE0001F920F920FB60F921124DF92EF92FF9256
:104AF0000F931F932F933F934F935F936F937F93E6
:104B00008F939F93AF93BF93EF93FF93CF93DF93D5
:104B1000CDB7DEB76C97DEBFCDBF1092E9008091B4
:104B2000E80083FF23C168E0CE0145960E942F2351
:104B300082EF8093E8003D8937FF05C08091E8004F
:104B400080FFFCCF03C08EEF8093E800832F807638
:104B500009F0F0C02E894F89D88C21110CC0303853
:104B600029F48091A4068093F10002C01092F10014
:104B70001092F100F4C0842F90E09D29213049F477
:104B80003111EDC0019709F0EAC08091A4068D7F34
:104B90000AC0233059F43111E2C0019709F0DFC097
:104BA0008091A40682608093A406D9C0253041F488
:104BB0008091E80080FFFCCF40684093E300CFC0C5
:104BC000263009F08DC0EB8CFC8C22E0D2122CC078
:104BD00080E090E00E9401250E94CA2399E08E01A6
:104BE0000F5F1F4FF801292F11922A95E9F799833A
:104BF000DA8291E09E8390EA98879AEF99872091D4
:104C0000A1063091A206275F3F4F3C832B838D8303
:104C1000C7010E94012549E050E0B80180E00E94F0
:104C20000C250E94CA239BC0C7010E9401250E9437
:104C30003829BE016B5E7F4F0E94DA28009719F079
:104C40000CF08DC090C081E0D8120EC08B8D9C8D71
:104C5000089719F481E080939E0680919E06811149
:104C60002FC06AE172E031C0E3E0DE127CC08F89C0
:104C7000882349F1823029F440E86DE088E392E02E
:104C80001CC0813029F440E86BE08CE292E015C052
:104C9000833009F068C00E9438298E010F5F1F4FD2
:104CA000B8010E94F928F80101900020E9F7319736
:104CB000E01BF10B40E06E2FC8010E946A234DC03B
:104CC00068E072E002C066E472E06115710509F403
:104CD0004AC0FB01449150E080E80E940C253FC08F
:104CE000273009F440C0283021F481E08093F1009E
:104CF00036C02930A1F53370B1F5EDE1F1E081E086
:104D000021E036E39081992361F08093E9002093BC
:104D1000EB0091919093EC003093ED008F5F873022
:104D200089F78EE78093EA001092EA008F898093DA
:104D3000A50615C08B8D9C8D0E940125898D811142
:104D400005C0CE0145960E94841F07C00E943829E5
:104D5000BE016B5E7F4F0E941829882321F08EEFE1
:104D60008093E80003C081E28093EB006C960FB65D
:104D7000F894DEBF0FBECDBFDF91CF91FF91EF91D1
:104D8000BF91AF919F918F917F916F915F914F9163
:104D90003F912F911F910F91FF90EF90DF900F9017
:104DA0000FBE0F901F9018958093E9008091F2003C
:104DB000882319F08AE38093E80008951F920F92E8
:104DC0000FB60F9211242F933F934F935F936F93DE
:104DD0007F938F939F93AF93BF93CF93EF93FF9363
:104DE000C091E1008091E100837F8093E100809396
:104DF000E100C3FF0FC01092E90081E08093EB0057
:104E00001092EC0082E38093ED001092A50688E0FA
:104E10008093F000C2FF19C083E00E94D4268091E5
:104E2000A706882339F08091A70681508093A706B2
:104E3000882389F18091A606882339F08091A606FF
:104E400081508093A606882341F1C4FF10C0809151
:104E5000E2008E7E81608093E2008091E1008F7E8F
:104E60008093E1008091A3068E7E806111C0C0FF17
:104E700016C08091E2008E7E80618093E200809176
:104E8000E1008E7E8093E1008091A3068E7E81609A
:104E90008093A30604C05D98CDCF2898D6CFFF910C
:104EA000EF91CF91BF91AF919F918F917F916F9132
:104EB0005F914F913F912F910F900FBE0F901F90D8
:104EC00018951092A5061092A4061092A3060E94AF
:104ED000A723E1EEF0E080818E7E80838DE08093D9
:104EE000E200559A209A5D98289808954F925F9213
:104EF0006F927F92AF92BF92CF92DF92EF92FF922A
:104F00000F931F93CF93DF93CDB7DEB729013A01FB
:104F1000621B730B840B950B29893A894B895C8939
:104F20002A193B094C095D09298B3A8B4B8B5C8B09
:104F30009B01AC0169897A898B899C890E944C29E3
:104F4000E418F50806091709A80197010E94B2297B
:104F50002A0D3B1D4C1D5D1DCA01B901DF91CF918A
:104F60001F910F91FF90EF90DF90CF90BF90AF9087
:104F70007F906F905F904F900895FC0180819181A8
:104F80000C94892ACF93DF93EC0188819981009753
:104F900011F00E94892A198218821D821C821B82AC
:104FA0001A82DF91CF9108950F931F93CF93DF93D0
:104FB000EC018B016F5F7F4F888199810E94182BD4
:104FC000009731F0998388831B830A8381E001C0B5
:104FD00080E0DF91CF911F910F910895CF93DF93E0
:104FE000EC0188819981892B29F08A819B81861720
:104FF000970760F4CE010E94D427882341F08C816A
:105000009D81892B19F4E881F981108281E0DF917B
:10501000CF910895EF92FF920F931F93CF93DF9359
:10502000EC017B018A01BA010E94EE27811104C0C4
:10503000CE010E94C22707C01D830C83B70188815F
:1050400099810E94EB2BCE01DF91CF911F910F919F
:10505000FF90EF900895CF93DF93EC0161157105F8
:1050600061F0FB0101900020E9F7AF0141505109C7
:10507000461B570B0E940A2802C00E94C227CE017D
:10508000DF91CF9108950F931F93CF93DF93CDB707
:10509000DEB7A2970FB6F894DEBF0FBECDBF8C016E
:1050A000CB01BA01F801118210821382128215829B
:1050B000148230E0AE014F5F5F4F0E94262CBE018C
:1050C0006F5F7F4FC8010E942B28A2960FB6F894FD
:1050D000DEBF0FBECDBFDF91CF911F910F9108951D
:1050E0000F931F93CF93DF93EB0141155105E9F027
:1050F0002097D9F0FC016481758126173707A0F449
:10510000621B730B8A01015011096017710708F4C3
:105110008B01FC0160817181620F731FA801CE01B8
:105120000E94F22BC00FD11F1882DF91CF911F91E7
:105130000F91089508950E94291D0E949A288DE9D3
:1051400096E00E9461270E94C407C0E0D0E00E9460
:105150007B0D2097E1F30E940000F9CF0C94F12918
:105160000895EF92FF920F931F93CF93DF937B01EC
:10517000FC01C281D38100E010E0209781F0E8813A
:10518000F9810280F381E02DB701CE01099597FDE9
:1051900008C0080F191F0884D985C02DEECFC8019B
:1051A00002C08FEF9FEFDF91CF911F910F91FF9082
:1051B000EF9008950F931F93CF93DF938B01FC0122
:1051C000C281D381209771F0E881F9810480F58153
:1051D000E02DB801CE010995009731F40884D985F6
:1051E000C02DF0CF80E090E0DF91CF911F910F9123
:1051F00008950F931F93CF93DF938B01FC01C2811E
:10520000D381209771F0E881F9810680F781E02D44
:10521000B801CE010995080F111D0884D985C02D4C
:10522000F0CFF8011082DF91CF911F910F91089577
:105230000F931F93CF93DF938B01FC01C281D38126
:10524000209771F0E881F9810190F081E02DB8019B
:10525000CE010995811106C00884D985C02DF0CFF3
:1052600080E001C081E0DF91CF911F910F910895FF
:105270008091AC0681110DC082E08093A80684E085
:105280008093A9061092AB061092AA0681E0809343
:10529000AC0688EA96E00895DB018F939F930E9405
:1052A000D729BF91AF91A29F800D911DA39F900D13
:1052B000B29F900D11240895991B79E004C0991FA5
:1052C000961708F0961B881F7A95C9F78095089560
:1052D000AA1BBB1B51E107C0AA1FBB1FA617B7071C
:1052E00010F0A61BB70B881F991F5A95A9F7809538
:1052F0009095BC01CD01089597FB072E16F40094FC
:1053000007D077FD09D00E94682907FC05D03EF43C
:10531000909581959F4F0895709561957F4F089561
:10532000A1E21A2EAA1BBB1BFD010DC0AA1FBB1FA9
:10533000EE1FFF1FA217B307E407F50720F0A21B1B
:10534000B30BE40BF50B661F771F881F991F1A9488
:1053500069F760957095809590959B01AC01BD01B2
:10536000CF010895052E97FB1EF400940E94C929D1
:1053700057FD07D00E94902907FC03D04EF40C94EF
:10538000C92950954095309521953F4F4F4F5F4F1C
:10539000089590958095709561957F4F8F4F9F4FA1
:1053A0000895EE0FFF1F0590F491E02D09940E94DF
:1053B000E229A59F900DB49F900DA49F800D911D93
:1053C00011240895A29FB001B39FC001A39F700D47
:1053D000811D1124911DB29F700D811D1124911DFD
:1053E0000895CF93DF938230910510F482E090E02E
:1053F000E091B606F091B70620E030E0A0E0B0E022
:10540000309739F14081518148175907B8F0481752
:10541000590771F482819381109729F013969C9318
:105420008E9312972CC09093B7068093B60627C030
:105430002115310531F04217530718F0A901DB019E
:1054400001C0EF019A01BD01DF010280F381E02D6F
:10545000D7CF21153105F9F0281B390B2430310540
:1054600080F48A819B816115710521F0FB01938392
:10547000828304C09093B7068093B606FE013296ED
:1054800044C0FE01E20FF31F819391932250310932
:10549000398328833AC02091B4063091B506232B76
:1054A00041F420910201309103013093B50620931D
:1054B000B40620910001309101012115310541F41C
:1054C0002DB73EB74091040150910501241B350BC7
:1054D000E091B406F091B506E217F307A0F42E1B95
:1054E0003F0B2817390778F0AC014E5F5F4F241748
:1054F000350748F04E0F5F1F5093B5064093B40632
:105500008193919302C0E0E0F0E0CF01DF91CF9171
:105510000895CF93DF93009709F487C0FC01329779
:1055200013821282C091B606D091B706209781F4FB
:1055300020813181280F391F8091B4069091B506E2
:105540008217930779F5F093B506E093B4066DC022
:10555000DE0120E030E0AE17BF0750F412964D9107
:105560005C9113979D014115510509F1DA01F3CFC3
:10557000B383A28340815181840F951F8A179B07B3
:1055800071F48D919C911197840F951F02969183D0
:10559000808312968D919C9113979383828321151A
:1055A000310529F4F093B706E093B6063EC0D90161
:1055B0001396FC93EE9312974D915D91A40FB51F36
:1055C000EA17FB0779F480819181840F951F029679
:1055D000D90111969C938E938281938113969C930B
:1055E0008E931297E0E0F0E08A819B81009719F09A
:1055F000FE01EC01F9CFCE01029628813981820F9C
:10560000931F2091B4063091B5062817390769F425
:10561000309729F41092B7061092B60602C0138292
:105620001282D093B506C093B406DF91CF9108954E
:10563000A0E0B0E0EEE1FBE20C94762CEC01CB01B3
:10564000209719F40E94F129B8C0FE01E60FF71F58
:105650009E0122503109E217F30708F4ACC0D901CA
:105660000D911C91119706171707B8F00530110519
:1056700008F49FC0A801445051094617570708F481
:1056800098C002501109061B170B019311936D93DB
:105690007C93CF010E94892A8CC05B01A01AB10AB9
:1056A0004E01800E911EA091B606B091B706612CF6
:1056B000712C60E070E0109709F449C0A815B90595
:1056C000C9F5ED90FC901197670142E0C40ED11C22
:1056D000CA14DB0478F147018A189B08640142E090
:1056E000C40ED11C1296BC9012971396AC91B5E0E3
:1056F000CB16D10440F0B282A38391828082D9017B
:105700008D939C9309C00E5F1F4F0E0D1F1DF90155
:1057100011830083EB2DFA2F6115710531F0DB0148
:105720001396FC93EE93129744C0F093B706E09360
:10573000B6063FC06D917C9111976616770608F406
:105740003B01BD0112960D90BC91A02DB4CF60918C
:10575000B4067091B50668157905E9F468167906FE
:10576000D0F440910001509101014115510541F4DF
:105770004DB75EB76091040170910501461B570B50
:10578000E417F507C0F4F093B506E093B406F90109
:10579000918380830EC00E94F1297C01009759F00B
:1057A000A801BE010E94E22BCE010E94892AC701F6
:1057B00004C0CE0102C080E090E0CDB7DEB7EEE0DD
:1057C0000C94922CFB01DC0102C001900D9241501F
:1057D0005040D8F70895FB01DC0101900D920020A4
:1057E000E1F70895FB01DC014150504048F0019081
:1057F0000D920020C9F701C01D9241505040E0F7C2
:105800000895FC0181E090E00190061609F4CF01B3
:105810000020D1F701970895FB0151915523A9F07C
:10582000BF01DC014D9145174111E1F759F4CD015C
:105830000190002049F04D9140154111C9F3FB0141
:105840004111EFCF81E090E00197089525323105B5
:1058500020F4223010F00C94312CFA011082CA018D
:105860000895BB272A3051F4992342F4BDE2909564
:105870008095709561957F4F8F4F9F4F0C94412C71
:10588000BB27FA01A62F6217710581059105330B1D
:1058900030FB66F0AA27660F771F881F991FAA1F83
:1058A000A21710F0A21B63953850A9F7A05DAA3388
:1058B00008F0A95DA19336F7B111B1931082CA0126
:1058C0000C94622CDC01FC01672F71917723E1F7C6
:1058D000329704C07C916D9370836291AE17BF07BD
:1058E000C8F308952F923F924F925F926F927F92EA
:1058F0008F929F92AF92BF92CF92DF92EF92FF92E0
:105900000F931F93CF93DF93CDB7DEB7CA1BDB0B8B
:105910000FB6F894DEBF0FBECDBF09942A88398830
:1059200048885F846E847D848C849B84AA84B98437
:10593000C884DF80EE80FD800C811B81AA81B98143
:10594000CE0FD11D0FB6F894DEBF0FBECDBFED0157
:065950000895F894FFCF5A
:105956000000B80680000100000021FF130001FFCF
:10596600FFFFFF00E1000000000000FF00C1808192
:105976000000004D617820736572766F7320617444
:1059860074616368656400556E6B6E6F776E207028
:10599600696E206D6F646500433A5C50726F677282
:1059A600616D6D6174696F6E5C61726475696E6F4D
:1059B6005C706572736F5C332E53637261746368D7
:1059C600322E305C4669726D617461506C75735F1E
:1059D600733261696F2D50794D61746141494F5C35
:1059E6004669726D617461506C75735F733261697B
:1059F6006F2D50794D61746141494F2E696E6F006C
:105A06004932433A20546F6F206D616E7920627976
:105A1600746573207265636569766564004932430F
:105A26003A20546F6F20666577206279746573201B
:105A360072656365697665640031302D626974202C
:105A460061646472657373696E67206E6F74207328
:105A56007570706F7274656400746F6F206D616E1F
:105A66007920717565726965730050494E475F43C9
:105A76004F4E464947204572726F723A2045786309
:105A86006565646564206E756D626572206F66205B
:105A9600737570706F727465642070696E672064C8
:105AA60065766963657300535445505045522043EB
:105AB6004F4E464947204572726F723A2057726FB1
:105AC6006E67204E756D626572206F662061726723
:105AD600756D656E74730061726763203D200053B7
