:100000000C9427010C944F010C944F010C944F0158
:100010000C944F010C944F010C944F010C944F0120
:100020000C944F010C942B030C9427260C94B924A8
:100030000C944F010C944F010C944F010C944F0100
:100040000C944F010C94B10E0C944F010C944F0181
:100050000C944F010C944F010C944F010C94B31B62
:100060000C944F010C944F010C944F010C944F01D0
:100070000C944F010C944F010C944F010C944F01C0
:100080000C940F220C944F010C944F010C944F01CF
:100090000C94D1120C944F010C944F010C944F010D
:1000A0000C944F010C944F010C944F01650674069B
:1000B000580682069B06CE06C006CE06CA06B606BF
:1000C000C606C8069C19A219AC19BA19BC19C219DE
:1000D000CC19DA19EC19EE19D21AD51AC81ACC1A99
:1000E000F01AF01AF01AF01AD91ADD1AE11AE71A02
:1000F000EB1A1E1D231D281D321D3C1D861D861D4D
:10010000861D461D501D5A1D641D711D861D791DBD
:10011000A71DAA1D991D9D1DA31DCB1DCB1DCB1D6C
:10012000AE1DB21DB61DBC1DC01DCB1DC61D0706D4
:1001300005040100080A0B0C0D090000000200096B
:100140000F0000030401000C00000000000000008C
:1001500000000000000000000004080201104080C0
:10016000401020408040800802040180402010029E
:1001700001108010204040200404040404030405FE
:100180000202020204030202020206060606060634
:1001900004040202020404000000002300260029D7
:1001A000002C002F0000000000250028002B002E4E
:1001B00000310000000000240027002A002D00303C
:1001C00000080B0002020201000904000001020203
:1001D0000000052400100105240101010424020689
:1001E00005240600010705810310004009040100F1
:1001F000020A000000070502024000000705830212
:100200004000000312010002EF0201404123378049
:10021000000101020301120100020000004041231D
:10022000378000010102030141726475696E6F201D
:100230004C4C430041726475696E6F204D69637266
:100240006F00040309042708E711AF175B1F11248F
:100250001FBECFEFDAE0DEBFCDBF13E0A0E0B1E01C
:10026000ECEFF7E502C005900D92A435B107D9F780
:1002700026E0A4E5B3E001C01D92AB39B207E1F777
:1002800012E0CEE4D2E004C02297FE010E942629AB
:10029000C634D107C9F70E94EE270C94FC2B0C94AE
:1002A00000001F93CF93DF93162F843008F06CC0AB
:1002B000982F990F990F990F985F9F3108F09EE141
:1002C000D82FDD0FDD0FDD0F8D2FC0E041E0891746
:1002D000C8F4E82FF0E0DF01A258BB4F2C91223088
:1002E00070F4C42BEE0FFF1FE25CFB4F21E030E007
:1002F000542F512311F420E030E031832083440F48
:100300008F5FE5CFC0FF05C0612F61708D2F0E9408
:10031000051EC1FF06C0612F627081E08D0F0E9433
:10032000051EC2FF06C0612F647082E08D0F0E941F
:10033000051EC3FF06C0612F687083E08D0F0E9409
:10034000051EC4FF06C0612F607184E08D0F0E94FE
:10035000051EC5FF06C0612F607285E08D0F0E94EB
:10036000051EC6FF06C0612F607486E08D0F0E94D7
:10037000051EC7FF09C0612F607887E08D0FDF91F0
:10038000CF911F910C94051EDF91CF911F9108957D
:100390000F931F93CF93DF93EB018E3178F5082FE6
:1003A00010E0F801E258FB4F9081933089F09430CF
:1003B00029F5F801ED55FC4F208130E0C901880F87
:1003C000991F820F931F8F539C4F0E944E100FC096
:1003D000833051F09BEF980F923030F097EF980FE9
:1003E000933010F08D3019F4BE010E94F81CF80112
:1003F000EE0FFF1FE25CFB4FD183C083DF91CF91F3
:100400001F910F910895CF93C82F8C3058F54091CC
:10041000A4045091A50421E030E0082E02C0220F70
:10042000331F0A94E2F7672B49F420953095242373
:1004300035233093A5042093A40414C0242B352B1A
:100440003093A5042093A40480916B0381110AC00A
:100450008C2F0E94C71CAC016C2F8BEA95E0CF91CA
:100460000C947915CF910895CF93DF93DC01FB01B4
:100470002283518340831296CD91DC91139788811A
:100480009381892B888382818D7F813041F41596F9
:100490008C9115979381892B15968C931597828152
:1004A0008150823040F416968C9116979381892B57
:1004B00016968C9316978091680014969C91892BC0
:1004C00080936800DF91CF910895CF92DF92FF92E1
:1004D0000F931F93CF93DF9300D01F92CDB7DEB75A
:1004E0006C01E62FF0E0E75AFE4FF490FC018085A6
:1004F0009185009779F08C01FC0183818F1106C0F2
:10050000B801C6010E94340280E02FC0F801858145
:100510009681EFCF87E090E02B8349835A830E9436
:100520000128DC012B8149815A81009721F4109226
:1005300002008FEF1AC012962C93129716961C92F7
:100540001E9215971396FC921397F601808591855C
:10055000892B19F4B187A08703C0F801B683A5835E
:10056000BD01C6010E94340281E00F900F900F90F0
:10057000DF91CF911F910F91FF90DF90CF90089561
:10058000242FE82FF0E0E858FE4FE491EE23D9F055
:1005900061157105C1F0F0E03297E330F10540F4E8
:1005A000EE0FFF1FED5DFC4F0190F081E02D02C0CA
:1005B000E0E0F0E0A081B1819C919783AB01682FCE
:1005C000CF010C9465028FEF0895FF920F931F9354
:1005D000CF93DF93EC018091C4049F812D813E81F4
:1005E000F82EF094F3222823F22A9827F9228F83F9
:1005F0000885198501151105D9F0D80113969C912C
:100600008F2D892389F08091C404892391E009F416
:1006100090E0F801948380819181DC01ED91FC915F
:100620000190F081E02D0995F80105811681E2CF56
:100630008BB39C81892349F09BB3982B9BBBE881AA
:10064000F98180818093C404C6CFDF91CF911F913F
:100650000F91FF9008951F920F920FB60F921124E1
:100660002F933F934F935F936F937F938F939F93BA
:10067000AF93BF93EF93FF93E091BA04F091BB0463
:1006800080818093C4048AEB94E00E94E502FF918C
:10069000EF91BF91AF919F918F917F916F915F91FA
:1006A0004F913F912F910F900FBE0F901F90189573
:1006B000DB019A01909195039C30D0F5409196030F
:1006C000682F70E0442369F0E42FF0E0EA56FC4F15
:1006D0008081FB01ED55FC4F808341504093960390
:1006E00007C0FB01ED55FC4F90839F5F90939503EE
:1006F000FB01ED55FC4F1A161B067CF4121613066F
:1007000064F4408150E0CA01880F991F840F951F3F
:10071000AD018F539C4F0C94890F208130E0C901AB
:10072000880F991F820F931F8F539C4F0C940710B3
:1007300063E271E08BEA95E00C940816CF93DF93A7
:10074000C82FD0E0CD55DC4F288130E0C901880F9B
:10075000991F820F931F8F539C4F0E940D10888109
:1007600090919503891306C0882379F08150809376
:1007700095030BC0992349F0E0919603EF5FE09356
:100780009603F0E0EA56FC4F80838FEF8883DF9179
:10079000CF9108951F93CF93DF93162FC82FD0E0EA
:1007A000FE01E658FB4F90811923C456DB4F4111DF
:1007B00003C09881911741F0412F50E0682F8BEAD8
:1007C00095E00E9492151883DF91CF911F910895B3
:1007D000EF92FF920F931F93CF93DF93E82E83E066
:1007E0008E1508F475C02E2D30E0F901E056FB4F50
:1007F0006083672B09F46CC0F901E658FB4FF08069
:100800000E2D000F000F000FF0FE52C0802F0E942F
:100810003B1E892B09F44CC011E0C02FD0E0F1FE43
:1008200007C081E0800F0E943B1E892B09F042C067
:10083000F2FE06C082E0800F0E943B1E892BE1F58C
:10084000F3FE06C083E0800F0E943B1E892BB1F5AA
:10085000F4FE06C084E0800F0E943B1E892B81F5C8
:10086000F5FE06C085E0800F0E943B1E892B51F5E6
:10087000C831D10541F0F6FE06C086E0800F0E9427
:100880003B1E892B09F5679744F4F7FE06C087E005
:10089000800F0E943B1E892BC9F441E0612F8E2DF1
:1008A000DF91CF911F910F91FF90EF900C94CA03AD
:1008B00010E0B3CF1260BCCF1460C2CF1860C8CFB5
:1008C0001061CECF1062D4CF1064DDCF1068E5CFB9
:1008D000DF91CF911F910F91FF90EF900895CF93EB
:1008E000DF938091A004882309F448C0D0917A0452
:1008F000D0FF1DC180E00E943B1E892B09F417C167
:10090000C1E0D1FF06C081E00E943B1E892B09F0A7
:1009100010C1D2FF06C082E00E943B1E892B09F065
:100920000AC1D3FF06C083E00E943B1E892B09F059
:1009300004C1D4FF06C084E00E943B1E892B09F04D
:10094000FEC0D5FF06C085E00E943B1E892B09F042
:10095000F8C0D6FF06C086E00E943B1E892B09F036
:10096000F2C0D7FF06C087E00E943B1E892B09F02A
:10097000ECC040E06C2F80E00E94CA038091A1048B
:10098000882309F448C0D0917B04D0FFE0C088E000
:100990000E943B1E892B09F4DAC0C1E0D1FF06C0DA
:1009A00089E00E943B1E892B09F0D3C0D2FF06C00C
:1009B0008AE00E943B1E892B09F0CDC0D3FF06C000
:1009C0008BE00E943B1E892B09F0C7C0D4FF06C0F4
:1009D0008CE00E943B1E892B09F0C1C0D5FF06C0E8
:1009E0008DE00E943B1E892B09F0BBC0D6FF06C0DC
:1009F0008EE00E943B1E892B09F0B5C0D7FF06C0D0
:100A00008FE00E943B1E892B09F0AFC040E06C2FA5
:100A100081E00E94CA038091A204882309F448C09F
:100A2000D0917C04D0FFA3C080E10E943B1E892BA3
:100A300009F49DC0C1E0D1FF06C081E10E943B1EC8
:100A4000892B09F096C0D2FF06C082E10E943B1EAE
:100A5000892B09F090C0D3FF06C083E10E943B1EA2
:100A6000892B09F08AC0D4FF06C084E10E943B1E96
:100A7000892B09F084C0D5FF06C085E10E943B1E8A
:100A8000892B09F07EC0D6FF06C086E10E943B1E7E
:100A9000892B09F078C0D7FF06C087E10E943B1E72
:100AA000892B09F072C040E06C2F82E00E94CA03DB
:100AB0008091A304882309F476C0D0917D04D0FFEF
:100AC00066C088E10E943B1E892B09F460C0C1E02A
:100AD000D1FF06C089E10E943B1E892B09F059C055
:100AE000D2FF06C08AE10E943B1E892B09F053C049
:100AF000D3FF06C08BE10E943B1E892B09F04DC03D
:100B0000D4FF06C08CE10E943B1E892B09F047C030
:100B1000D5FF06C08DE10E943B1E892B09F041C024
:100B200040E06C2F83E0DF91CF910C94CA03C0E0CA
:100B3000E8CEC260EECEC460F4CEC860FACEC0612A
:100B400000CFC06206CFC0640CCFC06812CFC0E037
:100B500025CFC2602BCFC46031CFC86037CFC06112
:100B60003DCFC06243CFC06449CFC0684FCFC0E023
:100B700062CFC26068CFC4606ECFC86074CFC061FE
:100B80007ACFC06280CFC06486CFC0688CCFC0E00F
:100B90009FCFC260A5CFC460ABCFC860B1CFC061EA
:100BA000B7CFC062BDCFDF91CF9108951092E70318
:100BB0008FEF80930B010895AF92BF92DF92EF9277
:100BC000FF920F931F93CF93DF931F92CDB7DEB7A2
:100BD000D82E8B01E82EF12CC70182589B4F5C0167
:100BE000FC0180818F3709F403C1863051F4809174
:100BF000E703882331F06630710509F4F4C00E94E0
:100C0000D605FDE1FD15A8F00430110591F0F701BE
:100C1000ED55FC4F20812C3060F430E0C901880F85
:100C2000991F820F931F8F539C4F0E94B310811105
:100C3000C5C09EEE9D0D9C3068F461E070E002300E
:100C4000110511F060E070E0892F99830E94030282
:100C5000998103C08DE18D15D8F0ED2DE695E695CF
:100C6000E6958D2D8770F0E0E658FB4F21E030E0EF
:100C7000082E01C0220F0A94EAF70115110521F48C
:100C80008081822B808304C020958081282320834B
:100C9000F701EE0FFF1FE25CFB4F118210820C3058
:100CA000110508F07BC0F801EA5AFF4F0C94242983
:100CB0009C3008F09DC060E08D2D0E94CC1D60E04E
:100CC0008D2D0E94051E82E066C0FDE1FD1508F431
:100CD0008FC060E08D2D0E94CC1D60E08D2D0E94A4
:100CE000051EF501108284C0FDE1FD1508F480C0E9
:100CF00060E08D2D0E94051E61E08D2D0E94CC1DAF
:100D000081E049C0F3E0DF1659F08BEF8D0D8230A2
:100D100038F087EF8D0D833018F08DE0D81268C061
:100D200061E08D2D0E94CC1D60E070E08D2D0E9451
:100D3000F81C83E030C0FDE1FD1508F459C084E0E3
:100D4000F5018083F701ED55FC4F80818F3FD1F194
:100D500090E09C01220F331F280F391FC9018F53C8
:100D60009C4F0E94B310811143C02CC060E08D2DB8
:100D70000E94CC1D61E08D2D0E94051E89E00BC0F4
:100D80008EEF8D0D8230A0F586E005C08AE003C0AD
:100D90008BE001C088E0F50180832AC067E371E041
:100DA0008BEA95E00F90DF91CF911F910F91FF900B
:100DB000EF90DF90BF90AF900C9408168D2D0E949D
:100DC0009E0337CF4FEF5FEF6FEF7FEF8D2D0F90CB
:100DD000DF91CF911F910F91FF90EF90DF90BF9027
:100DE000AF900C945803FDE1FD1508F010CF21CF12
:100DF0000F90DF91CF911F910F91FF90EF90DF90B7
:100E0000BF90AF900895CF93C0E08EEF8C0F8230EB
:100E100028F466E070E08C2F0E94DC05CF5FCE31B5
:100E2000A1F781E08093E7038BEE94E0CF910C94DF
:100E300059110F931F93CF93DF9381E080936B033E
:100E40008091E70381110E94D605E0EAF4E0CAE749
:100E5000D4E0ACE9B4E0119219921D9284E0E43A36
:100E6000F807C9F7C3EAD3E010E00FEF8EEE810F69
:100E70008C3030F462E070E0812F0E94DC0503C00A
:100E8000812F0E94FA2109931F5F1E3179F710927A
:100E9000880310928703A1E8B3E0E3E7F3E02FE7CC
:100EA0002D9380819181892B11F0118210823296CD
:100EB00083E0A738B807A1F71092A5041092A40404
:100EC00010926D0310926C0310929603109295038A
:100ED00010926B0380916A03811108C081E08093B6
:100EE0006A03DF91CF911F910F91089528E088E167
:100EF00090E00FB6F894A895809360000FBE209301
:100F00006000FFCF24E042E068E471E08BEA95E006
:100F10000E94A01448EC51E060EE8BEA95E00E943C
:100F2000161641E551E060E98BEA95E00E9416163D
:100F300043E052E060EC8BEA95E00E94161648EE22
:100F400053E060ED8BEA95E00E9416164CED55E0FB
:100F500064EF8BEA95E00E9416164FEF58E060EFC1
:100F60008BEA95E00E94411649E157E06FEF8BEA6A
:100F700095E00E9439161092880310928703109210
:100F80008A0310928903A2E8B3E0E5E7F3E02FE7D4
:100F90002D9380819181892B11F0118210823296DC
:100FA00083E0A738B807A1F760910C0170910D019B
:100FB00088E290E00E94BB2870938C0360938B03BF
:100FC00040E051EE60E070E08BEA95E00E949917F6
:100FD0000C9419070F931F93CF93DF93CDB7DEB710
:100FE000C654D1090FB6F894DEBF0FBECDBF8C0139
:100FF0002AE0CE018F5B9F4F0E94962720E030E0D1
:1010000040E450E0BE016F5F7F4FCE018F5B9F4F8A
:101010000E94C327B8018BEA95E00E940816BE0122
:101020006F5F7F4F8BEA95E00E940816CE018F5BC1
:101030009F4F0E941027CA5BDF4F0FB6F894DEBFA8
:101040000FBECDBFDF91CF911F910F910895CF9328
:10105000DF93EBE9F1E0859194919093BB04809349
:10106000BA048BE690E09093BD048093BC0481E0C9
:101070008093BE041092BF041092C0041092C30467
:101080001092C204EDE9F1E0859194919093B1043E
:101090008093B0048CE690E09093B3048093B20404
:1010A00082E08093B4041092B5041092B6041092BA
:1010B000B9041092B804EFE9F1E08591949190930E
:1010C000A7048093A6048DE690E09093A9048093F2
:1010D000A80484E08093AA041092AB041092AC049C
:1010E0001092AF041092AE04C1ECD3E0CE010E9486
:1010F0006D0F239683E0C53ED807C1F7DF91CF91EE
:101100000895682F8BEE94E00C941A11AF92BF9261
:10111000DF92EF92FF920F931F93CF93DF931F9273
:10112000CDB7DEB7F82E5B01D42E6F3F8FEF780777
:10113000D1F06F2D8BEE94E029830E9463116A2D0C
:101140008BEE94E00E941A112981622F8BEE94E0BD
:101150000E946D118091E5039091E603009729F0BC
:101160000E94661C02C0A12CB12C4D2D6F2D8BEE60
:1011700094E00E94E1110D2D10E08BEE94E00E94AE
:10118000C21008171907C1F4F092E803A092E9030E
:101190005AEEE52E53E0F52EA12CB12CA016B10687
:1011A000DCF48BEE94E00E94CA10F70181937F017A
:1011B000FFEFAF1ABF0AF2CF8BEE94E00E94C2108D
:1011C000801791071CF466EB71E002C063ED71E0DB
:1011D0008BEA95E00E94081642E04D0D28EE33E0C0
:1011E00067E78BEA95E00F90DF91CF911F910F9108
:1011F000FF90EF90DF90BF90AF900C94C0156F926E
:101200007F928F929F92AF92BF92CF92DF92EF9296
:10121000FF920F931F93CF93DF93CDB7DEB727973E
:101220000FB6F894DEBF0FBECDBF162F7A018D36F4
:1012300009F413C2A8F4803609F476C238F4803574
:1012400009F446C18F3509F48DC2D1C3893609F43A
:1012500053C28B3609F49AC1823609F0C8C3A8C2BA
:10126000823709F4F4C238F48F3609F46CC1803740
:1012700009F4FAC0BCC3883709F4DFC08A3709F41F
:1012800040C1863709F0B3C3DA0111962C91922F31
:10129000987125FF03C06FEE71E0A0C3FA01808151
:1012A00026FB222720F931E02327983041F148F42A
:1012B00091119DC3682F8BEE94E00E94631102E0B0
:1012C00006C09031B9F1983109F469C090C3011793
:1012D00068F4F701E00FF11D91818081F0E89F9F94
:1012E000801911240E9481080E5FF1CF8BEE94E0EB
:1012F0000E94E41186E490E00E94661C78C342815B
:101300006381163071F4B0E86B9FB0011124640F53
:10131000711DF70195814481F0E89F9F40191124C8
:1013200006C030E8639F401911246FEF7FEF0E94E1
:1013300086085DC3E0910B01E7301CF06FE072E0BE
:101340004DC3DA0112969C91129713964C91663018
:1013500089F4B0E84B9FA0011124490F511DD7011A
:1013600015963C91159714969C91B0E83B9F901967
:10137000112406C0F0E84F9F901911244FEF5FEF42
:10138000EF5FE0930B0135E0E302F0011124E85F29
:10139000FB4F8083528341839383248328C36091CE
:1013A0000B0116163CF470E0262F332727FD3095ED
:1013B00095E00FC08FEF80930B0119C3949FF0014C
:1013C000959FF00D1124E85FFB4F4081481739F0DD
:1013D0007F5F472F50E02417350784F770E015E052
:1013E000872F90E02817390724F1783000F5AC01F9
:1013F0004F5F5F4F149FD001159FB00D1124A85F60
:10140000BB4F4C91189FF001199FF00D1124E85F1C
:10141000FB4F408311968D919C911297928381830B
:1014200013968C911397838314968C9184837F5F9A
:10143000D7CF615060930B01DAC2DA012C9111967B
:101440008C91B0E88B9FC0011124820F911D0097F1
:1014500021F09093E6038093E5038091E7038111E7
:10146000C6C20E940307C3C2653008F4C0C2FA01B5
:1014700010810181D280C380F4801E3108F0B7C290
:10148000E12FF0E0ED55FC4FE081EC3060F4F0E04E
:10149000CF01880F991F8E0F9F1F8F539C4F0E9463
:1014A000B3108111A0C2F0E8FF9EA00111244C0DE1
:1014B000511D20E8D29EB0011124600F711D812FB3
:1014C0000E94580364E070E0812F0E94DC058FC207
:1014D000DA012C9111968C91B0E88B9FC0011124F8
:1014E000820F911D90933104809330040E94FD1B64
:1014F00060933204709333048093340490933504E2
:1015000076C2623008F473C2FA0120818181F0E86A
:101510008F9FC0011124820F911D8A30910510F414
:101520008AE090E090930D0180930C0160910C0192
:1015300070910D0188E290E00E94BB2870938C03AB
:1015400060938B0354C2623008F451C2DA011196E1
:101550006C91119770E01230A1F012968C91B0E866
:101560008B9FC0011124682B792B133051F0FA01A5
:10157000838190E090E4899F902D88271124682B27
:10158000792BD7018C910E94C80131C260EF8BEAA0
:1015900095E00E940C166CE68BEA95E00E940C1612
:1015A00010E060E08BEA95E00E940C1661E08BEAA7
:1015B00095E00E940C1661E08BEA95E00E940C1603
:1015C00061E08BEA95E00E940C168EEE810F8C3064
:1015D00058F462E08BEA95E00E940C166AE08BEA10
:1015E00095E00E940C160DC0133059F463E08BEAAD
:1015F00095E00E940C1668E08BEA95E00E940C16BC
:101600000AC08BEF810F823088F387EF810F833020
:1016100068F31D3059F364E08BEA95E00E940C16E4
:101620006EE08BEA95E00E940C168EEF810F8230FF
:1016300050F466E08BEA95E00E940C1661E08BEABC
:1016400095E00E940C166FE78BEA95E00E940C165D
:101650001F5F1E3109F0A5CFB6C1662309F4C7C1CB
:10166000FA01008160EF8BEA95E00E940C166EE6AD
:101670008BEA95E00E940C16602F8BEA95E00E94A1
:101680000C160E3108F09FC110E0F801E258FB4F34
:1016900060818BEA95E00E940C16000F111F9801E3
:1016A000225C3B4F7901D9016C916F778BEA95E011
:1016B0000E940C16F70160817181CB018078892B23
:1016C00049F0660F672F661F770B6F778BEA95E0FF
:1016D0000E940C16F801E25CFB4F60817181CB0126
:1016E0008827907C892B09F46EC1770F660B770FE2
:1016F000762F661F6F7763C160EF8BEA95E00E94DB
:101700000C166AE68BEA95E00E940C161EEE1C3061
:1017100010F06FE701C0612F8BEA95E00E940C1674
:101720001F5F1C30A1F74FC1DA014C914093920327
:1017300011962C91209391038091620381110EC028
:1017400082E493E0909355038093540361E684E52B
:1017500093E00E94051B81E08093620381E0809307
:101760008D0345C1FA019081818191111BC0948143
:101770002581F0E82F9F90011124290F311D442766
:1017800037FD4095542FD70112969C9112971396CE
:101790006C91B0E86B9FB0011124690F711D0E941C
:1017A000781F25C1913009F022C10E94FA211FC182
:1017B0002091870330918803263031050CF044C016
:1017C000FA018081809372039181909371039281D9
:1017D000913208F491E290930A01D70113969C91FB
:1017E000139714960C91B0E80B9F80011124090FF8
:1017F000111DF901EF57FC4F80836BE070E00E94F0
:10180000DC056BE070E0809171030E94DC0582E1F1
:1018100090E00E9401287C01980140917103609141
:1018200072030E94B3178091870390918803FC0193
:10183000EE0FFF1FED58FC4FF182E082019690936E
:10184000880380938703D3C060E272E0C7C0FA01C7
:10185000808181114FC08181C280F0E8CF9E6001FC
:101860001124C80ED11CDA0113968C901397912C79
:1018700014966C90712C653079F48AE190E00E94A6
:1018800001288C019301A401B6010E94A8181093AD
:101890006D0300936C03ABC06730A1F4FA010581BE
:1018A00010E0E680F12C8AE190E00E9401285C01C2
:1018B0009301A401B6010E94CE18B0926D03A092CC
:1018C0006C0395C087E0ECE1F3E0DE011196019036
:1018D0000D928A95E1F76DE572E08BEA95E00E9442
:1018E0000816412F50E060E070E0CE0101960E94A2
:1018F000EA077DC0813009F042C0DA01428150E040
:1019000060E070E0F7E0440F551F661F771FFA95FF
:10191000D1F713968C9190E0A0E0B0E01EE0880F24
:10192000991FAA1FBB1F1A95D1F7482B592B6A2B59
:101930007B2BF7018181482B84810581F0E80F9F83
:1019400080011124080F111DD7011696FC9080917B
:101950006C0390916D03009779F00E940419F110C7
:1019600003C0119501951109B80180916C03909104
:101970006D030E940B1A3BC06DE872E02FC08230ED
:1019800059F580916C0390916D03009711F10E94BD
:10199000941A8C0160EF8BEA95E00E940C1662E7C6
:1019A0008BEA95E00E940C16602F6F778BEA95E02A
:1019B0000E940C16B801660F672F661F770B8BEA23
:1019C00095E00E940C1667EF8BEA95E00E940C16DA
:1019D0000EC069EB72E002C06EEE72E08BEA95E039
:1019E0000E94081604C0812F0E949E035CCD27969A
:1019F0000FB6F894DEBF0FBECDBFDF91CF911F9120
:101A00000F91FF90EF90DF90CF90BF90AF909F909D
:101A10008F907F906F9008958F929F92AF92BF9218
:101A2000CF92DF92EF92FF920F931F93CF93DF93AA
:101A30000E946F048BEA95E00E940015892B29F023
:101A40008BEA95E00E946C16F5CF0E94FD1B609317
:101A50003A0470933B0480933C0490933D04C090FF
:101A60003604D0903704E0903804F0903904409167
:101A70000C0150910D014A01A12CB12C8B019C014C
:101A80000C191D092E093F0980169106A206B306FE
:101A900008F05AC1D501C4018C0D9D1DAE1DBF1D9E
:101AA0008093360490933704A0933804B09339049C
:101AB0008091890390918A039C012F5F3F4F30935F
:101AC0008A032093890320918B0330918C0328177C
:101AD00039070CF064C010928A0310928903809138
:101AE000870390918803892B09F459C0E0917F0303
:101AF000F0918003EE0FFF1FED58FC4F8081918124
:101B00000E94791869E370E00E94BB28CB014091E4
:101B10007F0350918003409370039A012F5F3F4FE2
:101B20003093800320937F032091870330918803B3
:101B3000215031094217530724F01092800310926C
:101B40007F036F7760936E03880F892F881F990B2F
:101B500080936F0360EF8BEA95E00E940C1663E6BA
:101B60008BEA95E00E940C16E0917003F0E0EF57CD
:101B7000FC4F60818BEA95E00E940C1660916E0329
:101B80008BEA95E00E940C1660916F038BEA95E05A
:101B90000E940C1667EF8BEA95E00E940C16CEE7C8
:101BA000D4E01EEE1C30C0F488818230A9F420916C
:101BB000A4043091A504012E02C0359527950A94FE
:101BC000E2F720FF09C0812F0E94C71CAC01612FE2
:101BD0008BEA95E00E9479151F5F21961C3011F762
:101BE00080910B0187FF06C080918D03882309F443
:101BF0006BC01CC0C0E0D5E08C2F90E020910B01A1
:101C0000332727FD30952817390774F3D89FF00143
:101C1000D99FF00D1124E85FFB4F6181728124810F
:101C2000438180810E948608CF5FE6CF10929403A3
:101C30001092930310928E030E94861B0097A1F0CE
:101C40000E94A61B80938E0320918F0330919003F6
:101C5000181614F0882341F0280F311D87FD3A959E
:101C60003093900320938F0380918F039091900382
:101C7000282F2F7720939303880F892F881F990B84
:101C80008F778093940360EF8BEA95E00E940C16A7
:101C900061E68BEA95E00E940C16609192038BEA54
:101CA00095E00E940C16609193038BEA95E00E94E8
:101CB0000C16609194038BEA95E00E940C1667EF76
:101CC0008BEA95E00E940C168091300490913104CB
:101CD000892BD1F10E94FD1B60933A0470933B0461
:101CE00080933C0490933D0400913204109133049E
:101CF0002091340430913504AB01BC01401B510BE1
:101D0000620B730BE0913004F091310428EE33E064
:101D1000E29FC001E39F900DF29F900D1124A0E07F
:101D2000B0E084179507A607B70770F4DF91CF914D
:101D30001F910F91FF90EF90DF90CF90BF90AF90E9
:101D40009F908F900C941907DF91CF911F910F9165
:101D5000FF90EF90DF90CF90BF90AF909F908F90CB
:101D600008951F920F920FB60F9211242F933F9355
:101D70004F935F936F937F938F939F93AF93BF9393
:101D8000EF93FF938091C60487FF05C010928500F2
:101D9000109284001AC02091C604332727FD309585
:101DA0008091C50490E0281739077CF48091C6041F
:101DB000992787FD9095FC01EE0FFF1FE80FF91F93
:101DC000E953FB4F808186FD15C08091C6048F5F6B
:101DD0008093C6042091C604332727FD3095809157
:101DE000C50490E028173907BCF48091C6048C30F4
:101DF0005CF112C08091C604992787FD9095FC0183
:101E0000EE0FFF1FE80FF91FE953FB4F808160E0E1
:101E10008F730E94051ED9CF809184009091850018
:101E2000049680349C4918F480E49CE905C08091B4
:101E30008400909185000496909389008093880097
:101E40008FEF8093C60438C02091840030918500C4
:101E50008091C604992787FD9095FC01EE0FFF1F26
:101E6000E80FF91FE953FB4F81819281820F931F85
:101E700090938900809388008091C604992787FDFC
:101E80009095FC01EE0FFF1FE80FF91FE953FB4F80
:101E9000808186FF11C08091C604992787FD9095A7
:101EA000FC01EE0FFF1FE80FF91FE953FB4F808184
:101EB00061E08F730E94051EFF91EF91BF91AF917A
:101EC0009F918F917F916F915F914F913F912F9152
:101ED0000F900FBE0F901F9018952091C5042C30C5
:101EE000A0F431E0320F3093C504FC012083822F2F
:101EF00090E0FC01EE0FFF1FE80FF91FE953FB4FC5
:101F000088EB9BE09283818308952FEFFC0120836F
:101F10000895DF92EF92FF920F931F93CF93DF9379
:101F2000EC01D62E7A01890188818C3008F066C0D8
:101F300061E08D2D0E94CC1D8881A82FB0E0FD01AD
:101F4000EE0FFF1FEA0FFB1FE953FB4F2D2D2F73E1
:101F50009081907C922B908360E272E06E197F09F1
:101F600077FF02C06D5F7F4F759567957595679593
:101F7000698340E659E0401B510B57FF02C04D5F9B
:101F80005F4F55954795559547954A836CE00E945C
:101F9000AF289CE0899FB001112420E030E0A90126
:101FA000460F571FFA01EE0FFF1FE40FF51FE9530D
:101FB000FB4F908196FD16C02F5F3F4F2C303105AF
:101FC00071F781110FC01092800082E08093810030
:101FD0001092850010928400B19A80916F00826007
:101FE00080936F00888190E0FC01EE0FFF1FE80FE7
:101FF000F91FE953FB4F8081806480838881DF91E2
:10200000CF911F910F91FF90EF90DF90089520E600
:1020100039E040E252E00C94890FFC01808190E0AD
:10202000FC01EE0FFF1FE80FF91FE953FB4F808102
:102030008F7B80830895FC0180818C3070F59181C5
:1020400028E830E0291B310997FD3395220F331F13
:10205000220F331F621773077CF0928128E532E06C
:10206000291B310997FD3395220F331F220F331F90
:10207000621773070CF49B0122503109220F331FA2
:102080004FB7F89490E0FC01EE0FFF1FE80FF91F27
:10209000E953FB4F328321834FBF08954F925F92E4
:1020A0006F927F92AF92BF92CF92DF92EF92FF92A8
:1020B0000F931F93CF93DF93EC01603282E0780798
:1020C0000CF040C077FD06C0653B71052CF064EB59
:1020D00070E002C060E070E0898128E830E0281BF1
:1020E000310987FD3395220F331F220F331F59010A
:1020F000CC24B7FCC094DC2C882777FD8095982FE2
:102100002A8148E552E0421B510927FD5395440FAF
:10211000551F440F551F2A01662457FC6094762CE6
:102120007F926F925F924F9214EBE12EF12C00E0C0
:1021300010E020E030E0A9010E94C9260F900F9026
:102140000F900F90CE01DF91CF911F910F91FF90D3
:10215000EF90DF90CF90BF90AF907F906F905F90A7
:102160004F900C941B10FC01808190E0FC01EE0F5D
:10217000FF1FE80FF91FE953FB4F808186FB88277B
:1021800080F9089580911B0590E020911C05821B29
:102190009109089520911C0580911B05281750F482
:1021A000E22FF0E0E35EFA4F808190E02F5F209312
:1021B0001C0508958FEF9FEF0895E0911C05809115
:1021C0001B05E81730F4F0E0E35EFA4F808190E001
:1021D00008958FEF9FEF08950895CF92DF92EF92C9
:1021E000FF920F931F93CF93DF937C01CB018A0162
:1021F0002091F704222389F0EB016B01C40ED51E58
:10220000CC15DD0569F06991D701ED91FC91019044
:10221000F081E02DC7010995F3CF642F0E94A81229
:10222000C801DF91CF911F910F91FF90EF90DF9048
:10223000CF900895CF93DF931F92CDB7DEB7698318
:102240002091F7042223D1F02091F804203240F0AD
:1022500021E030E0FC013383228380E090E015C070
:102260008091F904E82FF0E0E650FB4F99819083CC
:102270008F5F8093F9048093F80405C061E0CE017C
:1022800001960E94A81281E090E00F90DF91CF911B
:102290000895FC011382128248EE53E060E070E082
:1022A00044835583668377838DE293E091838083B3
:1022B000089510921C0510921B051092F9041092BB
:1022C000F8040C94EB1181E08093F70460931A05F5
:1022D0001092F9041092F80408950F93062F21E04C
:1022E0004091F8046AEF74E080911A050E9451123F
:1022F0001092F9041092F8041092F7040F910895C7
:102300008F929F92AF92BF92CF92DF92EF92FF9205
:102310000F931F93CF93DF93EC01F62ED42E480139
:102320005901EE2019F10E9463111E2D143008F09E
:1023300013E01150B8F0E881F98128E0129FB00154
:102340001124A501940104C056954795379527950A
:102350006A95D2F7CA01B9010190F081E02DCE0152
:102360000995E7CF60E0CE010E946D114D2D4132FD
:1023700008F040E22C2D6DE175E08F2D0E940912CE
:1023800010921C0580931B05DF91CF911F910F9137
:10239000FF90EF90DF90CF90BF90AF909F908F9085
:1023A0000895CF92EF920F931F93C22EE12C00E07D
:1023B00010E098010E9480111F910F91EF90CF9033
:1023C000089521E00C94D11161E00C946D118BEE15
:1023D00094E00C9449111092AA0581E08093A8051D
:1023E0001092A70561E082E00E94051E61E083E093
:1023F0000E94051EE9EBF0E080818E7F8083808162
:102400008D7F808388E48093B80085E48093BC004E
:102410000895413208F043C09091AA059111FCCF74
:1024200091E09093AA052093A8052FEF20933D05F6
:1024300010928205240F209381059093A905909115
:10244000A905880F892B8093A9058091A705813064
:1024500061F41092A7058091A9058093BB0080913B
:10246000BC0083FDF8CF85EC01C085EE8093BC00F5
:102470008091AA058130E1F380918205841710F4E0
:102480004091820523E835E0FB01D9018A2F821BA8
:10249000841718F48D918193F9CF842F089580E0EB
:1024A00008950F93413208F04AC09091AA05911106
:1024B000FCCF92E09093AA050093A8059FEF90931C
:1024C0003D051092820540938105FB0163E875E0AC
:1024D000DB019A2F961B941718F491919D93F9CFD5
:1024E0001092A9059091A905880F892B8093A905C1
:1024F0008091A705813061F41092A7058091A9050C
:102500008093BB008091BC0083FDF8CF85EC01C0B7
:1025100085EE8093BC00222321F08091AA058230B1
:10252000E1F380913D058F3F61F080913D05803260
:1025300051F080913D05803341F483E007C081E094
:1025400005C080E003C082E001C084E00F910895DF
:10255000613298F42091AA05243089F460935F05D4
:10256000FC0181E695E0DC012A2F281B261718F4D0
:1025700021912D93F9CF80E0089581E0089582E0C4
:10258000089585ED8093BC008091BC0084FDFCCF54
:102590001092AA05089585EC8093BC001092AA05BC
:1025A00008951F920F920FB60F9211242F933F930D
:1025B0004F935F936F937F938F939F93AF93BF934B
:1025C000EF93FF938091B900887F803609F49EC015
:1025D00078F5883209F45DC090F4803109F456C072
:1025E00038F4882309F4F5C0883009F44FC0F5C0E9
:1025F000883109F44EC0803209F45FC0EEC08034E7
:1026000009F46AC058F4803309F457C0883309F0DC
:10261000E4C080933D050E94CB12DFC0803509F4F1
:102620004FC0883509F45DC0883409F0D6C0D3C0E6
:10263000883909F4C4C0A8F4883709F467C038F4AD
:10264000883609F463C0803709F460C0C6C0883892
:1026500009F4B5C0803909F45FC0803809F0BDC005
:102660005BC0803B09F483C038F4803A09F466C04B
:10267000883A09F47CC0B1C0803C09F4A4C0883C0D
:1026800009F4A1C0883B09F487C0A7C08091A905BF
:1026900010C09091820580918105981770F5E091A6
:1026A000820581E08E0F80938205F0E0ED57FA4FAE
:1026B00080818093BB0085EC83C080933D058BC0F7
:1026C000E091820581E08E0F809382058091BB00AE
:1026D000F0E0ED57FA4F808390918205809181055B
:1026E0006BC0E091820581E08E0F8093820580911E
:1026F000BB00F0E0ED57FA4F80838091A80581116F
:102700006AC081E08093A70584EA5EC083E080937D
:10271000AA0510923E05CFCF80913E05803208F089
:102720004EC0E0913E0581E08E0F80933E05809182
:10273000BB00F0E0E15CFA4F8083BDCF0E94CB127A
:1027400080913E05803230F4E0913E05F0E0E15C9E
:10275000FA4F108260913E0570E0E091A305F09180
:10276000A4058FE395E0099510923E0536C084E0FC
:102770008093AA051092600510925F05E091A5056F
:10278000F091A605099580915F05811105C081E052
:1027900080935F0510926105E091600581E08E0FE6
:1027A00080936005F0E0EF59FA4F80818093BB0081
:1027B0009091600580915F05981708F47CCF85E8BB
:1027C0008093BC000AC085EC8093BC001092AA05DF
:1027D00004C010923D050E94C112FF91EF91BF917C
:1027E000AF919F918F917F916F915F914F913F91A9
:1027F0002F910F900FBE0F901F9018950F931F935E
:10280000CF93DF93EC018B0188819981DC01ED91FD
:10281000FC916F770190F081E02D09958881998175
:10282000DC01ED91FC91B801660F672F661F770BF5
:102830006F770190F081E02DDF91CF911F910F9183
:102840000994DC018D919C91DC01ED91FC9101904A
:10285000F081E02D60EF0994DC018D919C91DC0109
:10286000ED91FC910190F081E02D67EF0994CF93F9
:10287000DF93EC0188819981DC01ED91FC9101905D
:10288000F081E02D69EF099588819981DC01ED9156
:10289000FC910190F081E02D62E009958881998199
:1028A000DC01ED91FC910190F081E02D64E0DF917D
:1028B000CF9109941F93CF93DF93EC018A818823F2
:1028C000D9F1CE010E94211488819981DC01ED911A
:1028D000FC910190F081E02D69E70995888199814B
:1028E000DC01ED91FC91AB81BC810190F081E02D88
:1028F0006C91099588819981DC01ED91FC91AB8106
:10290000BC810190F081E02D11966C91099512E047
:102910008A81181758F4EB81FC81E10FF11D608169
:1029200070E0CE010E94FE131F5FF2CFCE01DF9157
:10293000CF911F910C942C14DF91CF911F9108958A
:10294000CF92DF92EF92FF920F931F93CF93DF937B
:102950008C01EB01C42ED22E69E373E0CE010E94FC
:102960005F2B7C016FE270E0CE010E94542B009738
:1029700039F46CE570E0CE010E94542B009711F001
:10298000EC012196E114F10451F4FE0101900020C4
:10299000E9F7EC1BEF5FD8011296EC9306C0EC1A36
:1029A000FD0AE394E394F801E282D80113968D9135
:1029B0009C9114970E94DC29F801E280F12CC70158
:1029C00001960E944429D80114969C938E931397E4
:1029D000FC01EE0DFF1D1082FC01C082D182129617
:1029E0004C9150E042505109BE010296DF91CF91C7
:1029F0001F910F91FF90EF90DF90CF900C94452B9B
:102A0000DC018D919C91DC01ED91FC910480F581BC
:102A1000E02D09940F931F93CF93DF93FC01208542
:102A2000213749F0293709F049C0DF91CF911F9133
:102A30000F910C945A14FC01E95AFF4F0190F08158
:102A4000E02D309709F450C0DC01A75BBF4F4D91DA
:102A50005C919A012150310937FD9A01B9017595B0
:102A60006795062F40E050E020E030E04E5F5F4F7A
:102A70002017A0F4EC01C40FD51F1F81DC01A20FA9
:102A8000B31F18961C931897C885D0E8CD9F1019CE
:102A9000112418961C932F5F3F4FE8CFDC01A60F3F
:102AA000B11D17962C911797222311F018961C929E
:102AB0000896DF91CF911F910F910994FC01E75A7D
:102AC000FF4F0190F081E02D309771F0AC01475F2E
:102AD0005F4FDC01A75BBF4F6C916150822FDF918C
:102AE000CF911F910F910994DF91CF911F910F9179
:102AF00008950F931F93CF93DF93EC018A01888190
:102B00009981DC01ED91FC916F70606E0190F08114
:102B1000E02D0995B801CE01DF91CF911F910F9162
:102B20000C94FE130F931F93CF93DF93EC018A0154
:102B300088819981DC01ED91FC916F706069019051
:102B4000F081E02D099588819981DC01ED91FC915E
:102B5000602F6F770190F081E02D09958881998130
:102B6000DC01ED91FC91B801660F672F661F770BB2
:102B70000190F081E02DDF91CF911F910F91099489
:102B8000CF92DF92EF92FF920F931F93CF93DF9339
:102B900000D01F92CDB7DEB78C01F42E2A833B8381
:102BA00069830E942114D8018D919C91DC01ED91E3
:102BB000FC910190F081E02D698109952A81E22E36
:102BC000C22E3B81D32E8C2D8E198F1540F4F60129
:102BD00061916F0170E0C8010E94FE13F4CFC8013B
:102BE0000F900F900F90DF91CF911F910F91FF9059
:102BF000EF90DF90CF900C942C149A01FA01019081
:102C00000020E9F73197E41BF50B4E2F0C94C0150B
:102C1000AB0161E70C94FD15DC018D919C91DC0109
:102C2000ED91FC910190F081E02D0994603DB9F0A7
:102C300028F4603961F0603C71F00895603E19F04D
:102C4000643F89F00895FC01E55BFF4F0FC0FC0174
:102C5000E35BFF4F0BC0FC01E15BFF4F07C0FC01D2
:102C6000EF5AFF4F03C0FC01ED5AFF4F51834083E1
:102C700008956F3F29F4FC01EB5AFF4F51834083C5
:102C80000895875A9F4FFC01518340830895FC01AA
:102C900015821682178280E090E0DF01A80FB91F2D
:102CA00018961C92019680349105B9F7DF01A85B54
:102CB000BF4F1C9211961D921C92EB5AFF4F019030
:102CC000F081E02D309709F009940895FC011282FB
:102CD000148213820C944716CF93DF93EC01888102
:102CE0009981DC01ED91FC910680F781E02D099539
:102CF000FE01E85BFF4F20812223B1F0873F910561
:102D000031F41082CE01DF91CF910C940A15FE01AF
:102D1000E75BFF4F20813181C20FD31F88872F5F70
:102D20003F4F318320839DC02D81222309F45EC053
:102D3000803891050CF05AC09FEF920F9D83FE01E1
:102D4000E90FF11D808791118CC08E81882309F4D1
:102D500088C0803DE9F148F48039E9F0803C09F011
:102D600043C0FE01E15BFF4F36C0803E19F0843F57
:102D700019F13AC0FE01E55BFF4F0190F081E02DB3
:102D8000309791F18885698570E0B0E88B9F600D80
:102D9000711D112427C0FE01E35BFF4F0190F081FC
:102DA000E02D309709F18885698570E090E8899F6A
:102DB000600D711D112416C0FE01ED5AFF4F0190E8
:102DC000F081E02D309781F0688570E089850BC037
:102DD000FE01EF5AFF4F0190F081E02D309721F076
:102DE000688570E08F8109951E823BC0803F910508
:102DF0002CF4282F2F702F83807F9927803E9105F8
:102E000021F154F4803C910511F1803D9105F9F0D8
:102E10008039910531F519C0843F9105B1F054F422
:102E2000803F9105F1F481E08083C75BDF4F198219
:102E3000188217C0893F910571F08F3F910589F481
:102E4000CE01DF91CF910C94471692E001C091E042
:102E50009D838E8306C08BEA95E0DF91CF910C9421
:102E60003714DF91CF9108958F929F92AF92BF92C6
:102E7000CF92DF92EF92FF921F93CF93DF93EB01FC
:102E80004A01690161E08DE00E94CC1D10E0EE2452
:102E9000D7FCE094FE2CAA2497FCA094BA2C812F96
:102EA00090E08C179D0794F4C701B6010E942C1C7A
:102EB00061E08DE00E94051EC501B4010E942C1C3A
:102EC00060E08DE00E94051E1F5FE9CFDF91CF918A
:102ED0001F91FF90EF90DF90CF90BF90AF909F90A9
:102EE0008F900895CF93DF93EC0161E08DE00E9415
:102EF000CC1D22ED30E048E250E062E070E0CE010F
:102F00000E9434176AEF70E080E090E00E942C1C71
:102F100022ED30E048E250E064E070E0CE010E9433
:102F200034176DE770E080E090E0DF91CF910C9472
:102F30002C1CCF93DF93EC0183E196E00E94551F98
:102F400083E196E099838883CE010E947217CE01B7
:102F50000E943714CE01DF91CF910C945A148BEA62
:102F600095E00C946616CF93DF93DC0170E0FB01D3
:102F7000E75AFE4FE4911496EC931497842F90E057
:102F8000FC01E75AFE4FE4911596EC9315976858AB
:102F90007E4FFB01C491D0E0CC0FDD1FCB55DE4F3F
:102FA000FE014591549117965C934E931697FC0140
:102FB000E858FE4F849190E0880F991F89569E4FE4
:102FC000FC01459154911B965C934E931A97FB011B
:102FD0006491E62FF0E0EE0FFF1FED54FE4F859158
:102FE000949119969C938E931897C901253FF1E00F
:102FF0003F0714F084EF91E049E3489F9001499F17
:10300000300D1124245E3F4F1D963C932E931C9748
:10301000DF91CF9108950F931F93CF93DF93EC012E
:10302000E885F98580819C81892B8083EE81FF81F1
:1030300090818C8180958923808384E090E00E9438
:10304000661CEE81FF8180819C81892B80838AE0D0
:1030500090E00E94661CEE81FF8190818C818095BA
:1030600089238083E885F98590818C8180958923E7
:1030700080830E94091C605B794B8F4F9F4F6E8746
:103080007F87888B998BEA85FB8580819D81892349
:1030900059F00E94091C0E851F8528893989061759
:1030A00017072807390778F7EA85FB8580819D8116
:1030B000892369F40E94091C0E851F852889398996
:1030C000061717072807390778F780E00DC00E9418
:1030D000091C2C853D85620F731F811D911D6E8714
:1030E0007F87888B998B81E0DF91CF911F910F9122
:1030F00008950F931F93CF93DF93EC010E940B1859
:10310000882389F0EA85FB8580819D81892371F080
:103110000E94091C0E851F85288939890617170703
:103120002807390778F720E030E00CC00E94091C1E
:103130002C853D85255031094E855F85241B350B37
:10314000260F371FC901DF91CF911F910F9108956D
:10315000CF93DF93EC01842F1B861A861982188285
:103160001E8A1F8A188E198E7F836E834C875D8717
:103170003F872E8761E00E94CC1D61E08E850E9412
:10318000CC1D198A188A1B8A1A8A1D8A1C8A82E019
:1031900090E099878887DF91CF910895EF92FF9211
:1031A0000F931F93CF93DF93EC01842F1B861A8616
:1031B000198218821E8A1F8A188E198E7F836E8349
:1031C0004C875D873F872E87198B088BFB8AEA8A9D
:1031D00061E00E94CC1D61E08E850E94CC1D61E003
:1031E00088890E94CC1D61E08A890E94CC1D1D8ABD
:1031F0001C8A84E090E099878887DF91CF911F91A6
:103200000F91FF90EF900895CF92DF92EF92FF928F
:10321000CF93DF93EC016A017B012E813F8144272C
:1032200037FD4095542F60E077E883E993E00E94F2
:103230000529CA01B901A70196010E9405292A831F
:103240003B834C835D83DF91CF91FF90EF90DF90C4
:10325000CF9008950F931F93CF93DF93EC018B01D1
:10326000888599850297F9F46130710571F02CF425
:1032700061157105C1F460E009C06230710559F053
:103280006330710581F460E007C061E08C850E94C5
:10329000051E61E005C061E08C850E94051E60E0AE
:1032A0008E850E94051E888599850497B9F50130A1
:1032B0001105B1F04CF40115110581F561E08C8523
:1032C0000E94051E60E011C002301105B9F0033004
:1032D000110521F561E08C850E94051E60E013C098
:1032E00060E08C850E94051E61E08E850E94051EAF
:1032F00061E088890E94051E60E00DC060E08C8559
:103300000E94051E61E08E850E94051E60E088898E
:103310000E94051E61E08A890E94051E88859985A4
:10332000059709F073C00A30110508F06FC0F80165
:10333000EE59FF4F0C94242960E08C850E94051EF5
:1033400061E051C060E08C850E94051E61E08E85C1
:103350000E94051E60E04BC060E08C850E94051E47
:1033600061E08E850E94051E60E088890E94051E2E
:1033700061E041C060E001C061E08C850E94051EF3
:1033800061E005C061E08C850E94051E60E08E85CD
:103390000E94051E60E009C061E08C850E94051E48
:1033A00060E08E850E94051E61E088890E94051EEE
:1033B00061E00DC061E08C850E94051E60E08E8595
:1033C0000E94051E61E088890E94051E60E08A89CE
:1033D0000E94051E60E013C061E001C060E08C85C2
:1033E0000E94051E60E08E850E94051E61E08889AE
:1033F0000E94051E60E08A890E94051E61E08C899A
:10340000DF91CF911F910F910C94051EDF91CF9109
:103410001F910F9108954F925F926F927F928F92BA
:103420009F92AF92BF92CF92DF92EF92FF920F9353
:103430001F93CF93DF93EC01CB0177FF04C0882764
:103440009927861B970B6C01161617062CF481E042
:1034500090E09983888304C0672B11F01982188249
:1034600004E010E08AE0E82EF12CC114D10409F444
:103470004AC00E94091C8E889F88A88CB98C2B0199
:103480003C01481859086A087B088A809B80AC80F8
:10349000BD80481459046A047B0458F36E8B7F8BFB
:1034A000888F998F288139818A859B8521303105C4
:1034B00059F401969B878A872E813F818217930753
:1034C00071F41B861A860BC0892B21F48E819F8193
:1034D0009B878A878A859B8501979B878A8781E05E
:1034E000C81AD108288539858A859B8525303105FC
:1034F00011F4B70101C0B8010E94CF28BC01CE0170
:103500000E942A19B2CFDF91CF911F910F91FF90A6
:10351000EF90DF90CF90BF90AF909F908F907F9073
:103520006F905F904F90089585E090E00895FC01C2
:10353000A281B3812C919581922387818223992343
:1035400061F0882379F08085882321F08185928538
:10355000890F8187108612860895811103C081E04A
:10356000808708952085211108C0992311F081E0FA
:1035700003C0882311F08FEF8287089590E0FC014B
:103580003197ED30F10560F5E459FF4F0C94242993
:10359000809180008F7703C0809180008F7D809321
:1035A0008000089584B58F7702C084B58F7D84BD77
:1035B0000895809190008F7707C0809190008F7D53
:1035C00003C080919000877F809390000895809140
:1035D000C0008F7703C08091C0008F7D8093C000B2
:1035E00008951F93CF93DF93EC01862F142F41E0B2
:1035F00050E0BE010E94C00241E050E0BE01812FB8
:10360000DF91CF911F910C94C002CF93DF93EC0117
:103610006B874C832E83421709F475C0483018F429
:10362000283008F070C088EF840F863020F42850CE
:10363000263060F068C04E3030F02E3008F463C0A1
:10364000443108F060C0243108F05DC01886198646
:10365000A0910806B0910906109729F4D0930906A5
:10366000C09308060CC01C968D919C911D970097E5
:1036700011F0DC01F8CF1D96DC93CE931C971D86CC
:103680001C8650E0FA01E858FE4FE491F0E0EE0F9E
:10369000FF1FE956FE4F859194919B838A83892B66
:1036A00009F431C0FA01E75AFE4FE491ED83FA01C3
:1036B000E65CFE4F849181110E94BE1A8E8190E0DB
:1036C000FC01E75AFE4FE491EF83FC01E65CFE4FFC
:1036D000849181110E94BE1A60E08C810E94CC1DF1
:1036E00060E08E810E94CC1D61E08C810E94051EED
:1036F00061E08E810E94051E4E816C81CE01DF91BA
:10370000CF910C94F11ADF91CF9108959091080612
:10371000809109069093060680930706E92FF82FFB
:10372000309769F08185882331F0F0930706E093A4
:103730000606CF0108950484F585E02DF1CF10929F
:1037400007061092060680E090E00895FC0181854E
:1037500087FF03C091E0980F91879185191614F4A3
:103760009150918708951F920F920FB60F921124D6
:103770002F933F938F939F93AF93BF9380910B06AB
:1037800090910C06A0910D06B0910E0630910A069C
:1037900023E0230F2D3720F40196A11DB11D05C094
:1037A00026E8230F0296A11DB11D20930A068093DF
:1037B0000B0690930C06A0930D06B0930E06809115
:1037C0000F0690911006A0911106B0911206019675
:1037D000A11DB11D80930F0690931006A0931106B2
:1037E000B0931206BF91AF919F918F913F912F910E
:1037F0000F900FBE0F901F9018952FB7F8946091FF
:103800000B0670910C0680910D0690910E062FBF4D
:1038100008953FB7F89480910F0690911006A091FB
:103820001106B091120626B5A89B05C02F3F19F0CE
:103830000196A11DB11D3FBF6627782F892F9A2FB2
:10384000620F711D811D911D42E0660F771F881F59
:10385000991F4A95D1F708958F929F92AF92BF9288
:10386000CF92DF92EF92FF926B017C010E94091CC4
:103870004B015C01C114D104E104F104F1F00E9498
:1038800003280E94091C681979098A099B09683E66
:1038900073408105910570F321E0C21AD108E10857
:1038A000F10888EE880E83E0981EA11CB11CC1149B
:1038B000D104E104F10429F7DDCFFF90EF90DF9010
:1038C000CF90BF90AF909F908F90089582309105D8
:1038D00038F0880F991F880F991F05970197F1F706
:1038E0000895789484B5826084BD84B5816084BD78
:1038F00085B5826085BD85B5816085BDEEE6F0E069
:10390000808181608083E1E8F0E0108280818260C4
:103910008083808181608083E0E8F0E08081816045
:103920008083E1E9F0E08081826080838081816032
:103930008083E0E9F0E0808181608083E1ECF0E069
:1039400080818460808380818260808380818160C7
:103950008083E3ECF0E0808181608083E0ECF0E044
:10396000808182608083E2ECF0E0808181608083EE
:10397000EAE7F0E0808184608083808182608083D8
:103980008081816080838081806880830895823116
:1039900008F08251E82FF0E0E25DFE4FE491809163
:1039A0007B00E3FB222720F930E095E0220F331F54
:1039B0009A95E1F78F7D822B80937B00E770809151
:1039C0000E0120E4829FC0011124E82BE0937C00CB
:1039D00080917A00806480937A0080917A0086FDDD
:1039E000FCCF809178002091790090E0922B08958F
:1039F0001F93CF93DF93182FEB0161E00E94CC1D42
:103A0000209711F460E004C0CF3FD10539F461E0A4
:103A1000812FDF91CF911F910C94051EE12FF0E0D3
:103A2000E65CFE4F449150E0FA013197EF30F1052A
:103A300008F06CC0E758FF4F0C94242984B58068C7
:103A400084BDC7BD68C084B5806284BDC8BD63C085
:103A500080918000806880938000D0938900C0931B
:103A6000880059C080918000806280938000D0934C
:103A70008B00C0938A004FC0809180008860809343
:103A80008000D0938D00C0938C0045C08091900041
:103A9000806880939000D0939900C09398003BC0B9
:103AA00080919000806280939000D0939B00C0939F
:103AB0009A0031C080919000886080939000D093EC
:103AC0009D00C0939C0027C08091C00080688093B7
:103AD000C0008091C0008F7B8093C000C093CF0056
:103AE0001AC08091C00080628093C000C093D00053
:103AF00012C08091C20088608093C2008091C20091
:103B00008B7F8093C200C093D20005C0C038D1051E
:103B10000CF07DCF77CFDF91CF911F91089590E08A
:103B2000FC013197EF30F105B0F5E857FF4F0C94E9
:103B30002429809180008F7703C0809180008F7D41
:103B400080938000089580918000877FF9CF84B5AD
:103B50008F7702C084B58F7D84BD089580919000D9
:103B60008F7707C0809190008F7D03C08091900077
:103B7000877F8093900008958091C0008F7703C065
:103B80008091C0008F7D8093C00008958091C20015
:103B9000877F8093C2000895CF93DF9390E0FC016C
:103BA000E75AFE4F2491FC01E858FE4F8491882388
:103BB00049F190E0880F991FFC01ED54FE4FA5914B
:103BC000B4918B559E4FFC01C591D4919FB7611163
:103BD00008C0F8948C91209582238C93888182234D
:103BE0000AC0623051F4F8948C91322F30958323BF
:103BF0008C938881822B888304C0F8948C91822BCB
:103C00008C939FBFDF91CF9108950F931F93CF9314
:103C1000DF931F92CDB7DEB7282F30E0F901E65CC5
:103C2000FE4F8491F901E75AFE4F1491F901E858CB
:103C3000FE4F04910023C9F0882321F069830E947C
:103C40008F1D6981E02FF0E0EE0FFF1FEB55FE4F57
:103C5000A591B4919FB7F8948C91611103C0109510
:103C6000812301C0812B8C939FBF0F90DF91CF9157
:103C70001F910F910895CF93DF93282F30E0F90122
:103C8000E65CFE4F8491F901E75AFE4FD491F901A9
:103C9000E858FE4FC491CC2391F081110E948F1DF2
:103CA000EC2FF0E0EE0FFF1FE956FE4FA591B49107
:103CB0002C912D2381E090E021F480E002C080E08F
:103CC00090E0DF91CF910895CF93DF931F92CDB70E
:103CD000DEB76983DC01ED91FC910280F381E02D78
:103CE00041E050E0BE016F5F7F4F09950F90DF917B
:103CF000CF910895CF93DF93EC018C859D8597FF3D
:103D000005C082E00E9489239D878C878C859D85D4
:103D1000DF91CF91089583E00C941D26FC018485EA
:103D2000958597FD06C082E00E94312390E00196C0
:103D3000089582E00E94312390E00895FC0184857B
:103D4000958597FD05C02FEF3FEF358724870895B0
:103D500082E00C948923CF93DF93EC0180911A01C8
:103D6000882331F083E00E94BA231816190634F034
:103D700081E090E09B838A8380E090E0DF91CF91A7
:103D80000895FC0120812E5F208342E450E061EC25
:103D900071E080E80C945524FC0121818081813AF6
:103DA00059F4213209F04BC047E050E063E171E083
:103DB00080E00E9455245EC0813209F040C0233269
:103DC00089F4838190E0982F88273281832BA0E0AB
:103DD000B0E080930F0190931001A0931101B09374
:103DE00012010FC0203239F467E070E083E191E006
:103DF0000E94862409C0223221F4828180931A0114
:103E000003C02D7F2032B1F580916306811103C07C
:103E1000E0E0F8E002C0EEEFFAE08091130190914B
:103E20001401A0911501B0911601803B9440A105A9
:103E3000B10511F580911A0180FF03C01DC080E01B
:103E40000895EE3F2AE0F20731F08081918190934E
:103E5000FF0A8093FE0A87E797E7918380832BE030
:103E600088E190E00FB6F894A895809360000FBEAB
:103E70002093600081E0089588E10FB6F894809364
:103E80006000109260000FBEA895EE3F8AE0F80730
:103E900039F08091FE0A9091FF0A91838083EACFE6
:103EA0001092FF0A1092FE0AE5CF2FEF3FEFFC01C0
:103EB000358724870895109216061092150688EE0D
:103EC00093E0A0E0B0E08093170690931806A093CB
:103ED0001906B0931A0688E493E090931406809331
:103EE00013068FEF9FEF9093200680931F0608958F
:103EF0003F924F925F926F927F928F929F92AF927A
:103F0000BF92CF92DF92EF92FF920F931F93CF93C6
:103F1000DF9300D000D0CDB7DEB78B0129013A0185
:103F200090911B01981721F09F3F09F025C204C012
:103F3000E3E0F2E03490AEC080931B01E3E0F2E0F6
:103F4000E491EF3F09F418C2E13009F452C01CF5C6
:103F5000E1119FC014BC15BC94B5926094BD95B599
:103F6000916095BD282F30E0F901E858FE4FE491AB
:103F7000F0E0EE0FFF1FEB55FE4F4591549150932B
:103F80007B0640937A06F901E75AFE4F249120936D
:103F90007906312C81C0E33009F453C0E43009F0D4
:103FA00078C01092C0001092C1009091C10098603A
:103FB0009093C1009091C10091609093C100282F0F
:103FC00030E0F901E858FE4FE491F0E0EE0FFF1FFA
:103FD000EB55FE4F4591549150936606409365060C
:103FE000F901E75AFE4F24912093640654E0352EE0
:103FF00053C01092800010928100909181009860CF
:104000009093810090918100916090938100282F7E
:1040100030E0F901E858FE4FE491F0E0EE0FFF1FA9
:10402000EB55FE4F4591549150937406409373069F
:10403000F901E75AFE4F24912093720633243394FA
:104040002BC0109290001092910090919100986076
:104050009093910090919100916090939100282FFE
:1040600030E0F901E858FE4FE491F0E0EE0FFF1F59
:10407000EB55FE4F4591549150936D0640936C065D
:10408000F901E75AFE4F249120936B0673E0372E17
:1040900003C03E2E37FC70C161E00E94CC1D480178
:1040A000A12CB12C832D8D7F09F0BDC060E072E1A1
:1040B0008AE790E0A50194010E94052929833A83AB
:1040C0004B835C8369017A0181E0C81AD108E10859
:1040D000F1089FEFC916D104E104F10409F008F4D6
:1040E0009AC060E472E48FE090E0A50194010E9420
:1040F000052969017A01E1E0CE1AD108E108F10849
:10410000F2E03F1219C08FEFC816D104E104F104A8
:1041100009F008F4CCC060E970ED83E090E0A501FF
:1041200094010E94052969017A0191E0C91AD10818
:10413000E108F10883E001C082E0EFEFCE16D10480
:10414000E104F10409F008F467C068E478EE81E066
:1041500090E0A50194010E94052969017A01F1E02E
:10416000CF1AD108E108F1083320E1F082E03812DB
:104170001BC09FEFC916D104E104F10409F008F453
:1041800096C064E274EF80E090E0A50194010E9483
:10419000052969017A01E1E0CE1AD108E108F108A8
:1041A00085E003C083E001C084E0FFEFCF16D104B7
:1041B000E104F10489F180F162E17AE780E090E0C6
:1041C000A50194010E94052969017A0181E0C81ABC
:1041D000D108E108F108311002C084E001C086E096
:1041E0009FEFC916D104E104F104B1F0A8F0C98031
:1041F000DA80EB80FC809AE0F594E794D794C7943A
:104200009A95D1F7E1E0CE1AD108E108F108311012
:104210004EC085E003C081E0311049C095B5987F5C
:10422000982B95BD44C060E072E18AE790E0A5015B
:1042300094010E94052969017A01F1E0CF1AD108A1
:10424000E108F108C114D10481E0E806F10488F026
:1042500068E478EE81E090E0A50194010E940529D0
:1042600069017A0191E0C91AD108E108F10893E0E7
:1042700001C091E0E1E03E1207C080918100887F9B
:10428000892B8093810013C0F3E03F1207C0809117
:104290009100887F892B8093910009C084E03812B7
:1042A00006C08091C100887F892B8093C100411492
:1042B00051046104710471F0D801AA0FBB1FA3015E
:1042C00092010E942A2928EE33E040E050E00E944B
:1042D000E32803C02FEF3FEFA90191E0391649F120
:1042E00093158CF0311048C0C7BC20937C063093E6
:1042F0007D0640937E0650937F0680916E0082601B
:1043000080936E0039C0E3E03E1629F1F4E03F12DD
:1043100033C0C092CF002093670630936806409365
:10432000690650936A0680917200806480937200DF
:1043300023C0D0928900C0928800209375063093E4
:104340007606409377065093780680916F008260DE
:1043500080936F0011C0D0929900C0929800209372
:104360006E0630936F0640937006509371068091ED
:1043700071008260809371000F900F900F900F90EA
:10438000DF91CF911F910F91FF90EF90DF90CF9031
:10439000BF90AF909F908F907F906F905F904F9065
:1043A0003F9008958230A1F028F4882341F08130B5
:1043B00049F00895833091F08430B1F0089510925F
:1043C0006E00089580916F008D7F80936F00089537
:1043D000809170008D7F80937000089580917100AE
:1043E0008D7F809371000895809172008F7B809300
:1043F00072000895CF93C82F80911B018C1307C0C2
:10440000E3E0F2E084919FEF90931B0101C08FEFF6
:104410000E94D22160E08C2FCF910C94051E1F9238
:104420000F920FB60F9211242F933F934F935F93E8
:104430006F937F938F939F93AF93BF93EF93FF936C
:1044400080916E0690916F06A0917006B0917106F2
:10445000892B8A2B8B2B51F190916B06E0916C0686
:10446000F0916D0680818927808380916E069091FE
:104470006F06A0917006B0917106181619061A06FB
:104480001B062CF580916E0690916F06A091700628
:10449000B09171060197A109B10980936E069093BE
:1044A0006F06A0937006B093710611C083E00E945E
:1044B000D22120916B06E0916C06F0916D0680810F
:1044C00090E030E020953095822393238083FF9104
:1044D000EF91BF91AF919F918F917F916F915F917C
:1044E0004F913F912F910F900FBE0F901F901895F5
:1044F000615030F02091F100FC0120830196F8CF4B
:10450000289A84E680938906089540918406509104
:104510008506209182063091830642175307B4F432
:104520009091E8009570E1F39091E80092FD19C038
:104530008093F100809184069091850601968F7397
:104540009927892B19F48EEF8093E80080918406D7
:10455000909185060196909385068093840681E06C
:10456000089580E00895CF92DF92EF92FF920F932B
:104570001F93CF93DF931F92CDB7DEB7082F162F6F
:10458000F42E862F880F8E5F99830E94852283E008
:104590000E948522E02EC02E9981D92E8C2D8E1955
:1045A000811798F4F601F7FE02C0849101C0808162
:1045B0000E948522082F80E00E9485228023FFEF41
:1045C000CF1ADF0A8111EACF01C081E00F90DF919D
:1045D000CF911F910F91FF90EF90DF90CF900895B2
:1045E0008091D70081608093D70080EA8093D800C3
:1045F00089B5806189BD89B5826089BD09B400FE35
:10460000FDCF61E070E080E090E00E942C1C809182
:10461000D8008F7C80618093D8008091E000807FFB
:104620008093E0000895CF93DF931F92CDB7DEB75C
:104630001982CE0101960E94C11E0E948B28BE01E4
:104640006F5F7F4F0E94042889810F90DF91CF9187
:1046500008952FB7FC012083F89467706093E900F8
:104660000895CF93DF931F92CDB7DEB7682FCE01A9
:1046700001960E9429238091F20099819FBF0F909B
:10468000DF91CF910895FF920F931F93CF93DF9304
:1046900000D0CDB7DEB7F62E8A0190918806992317
:1046A00011F057FF03C08FEF9FEF2BC0682FCE0193
:1046B00001967A830E9429238091F20090E0A8015C
:1046C0007A81801791070CF4AC01EF2DF72FF40ECF
:1046D00084E6FE1639F0289A809389069091F100BD
:1046E0009193F7CF4115510521F08091F200882375
:1046F00021F089818FBFCA0104C08BE68093E80056
:10470000F8CF0F900F90DF91CF911F910F91FF90F5
:104710000895CF93DF931F92CDB7DEB741E050E00D
:10472000BE016F5F7F4F0E944323019719F4898177
:1047300090E002C08FEF9FEF0F90DF91CF9108952F
:10474000CF93DF931F92CDB7DEB7682FCE010196CE
:104750000E9429239091E800892F807295FF04C060
:104760009091F20080E4891B99819FBF0F90DF91A7
:10477000CF9108956F927F928F929F92AF92BF9246
:10478000CF92DF92EF92FF920F931F93CF93DF931D
:104790001F92CDB7DEB7782E7B01C42EB52E809147
:1047A0008806882369F0042F152F8AEFD82E872DCD
:1047B0008072982E9AE3A92E872D8074882E11C0BE
:1047C0008FEF9FEF57C0872D0E94A023682E811185
:1047D0000CC0DA94A9F361E070E080E090E00E9400
:1047E0002C1C0115110579F73BC0282F30E002176A
:1047F00013070CF4602E672DCE0101960E94292329
:104800008091E80085FF29C0262D30E0021B130BA4
:10481000992039F06A948FEF6816B1F01092F10088
:10482000F9CFF701862D77FE07C0815058F094919B
:104830009093F1003196F9CF815020F091919093AF
:10484000F100FACFE20EF31E8091E80085FF0FC061
:104850000115110511F481100AC089818FBFC1CFE4
:104860005D9A84E680938A068C2D9B2D03C0A092CE
:10487000E800F3CF0F90DF91CF911F910F91FF9040
:10488000EF90DF90CF90BF90AF909F908F907F90F0
:104890006F9008951092E900109285061092840698
:1048A00090938306809382060895CF92DF92FF92C1
:1048B0000F931F93CF93DF9300D0CDB7DEB7F82EC1
:1048C0008A016B0101151105B1F0F601F7FE02C076
:1048D000849101C0808149835A830E9485220150BE
:1048E0001109FFEFCF1ADF0A49815A818111EACFFE
:1048F0008FEF9FEF01C0CA010F900F90DF91CF9112
:104900001F910F91FF90DF90CF900895BF92CF92AB
:10491000DF92EF92FF920F931F93CF93DF936C017F
:104920008B01EB013BEFB32E2097C1F07E01C13428
:10493000D1051CF020E4E22EF12C8091E80082FFEA
:10494000FCCFC8018C1B9D0B6E2D8C0D9D1D0E94F4
:104950007822B092E800CE19DF09E6CFC801DF91D6
:10496000CF911F910F91FF90EF90DF90CF90BF906C
:1049700008951F920F920FB60F921124DF92EF92BB
:10498000FF920F931F932F933F934F935F936F93D8
:104990007F938F939F93AF93BF93EF93FF93CF93A7
:1049A000DF93CDB7DEB76C97DEBFCDBF1092E900C5
:1049B0008091E80083FF23C168E0CE0145960E9404
:1049C000782282EF8093E8003D8937FF05C080910F
:1049D000E80080FFFCCF03C08EEF8093E800832FB8
:1049E000807609F0F0C02E894F89D88C21110CC037
:1049F000303829F4809187068093F10002C010922C
:104A0000F1001092F100F4C0842F90E09D29213034
:104A100049F43111EDC0019709F0EAC08091870691
:104A20008D7F0AC0233059F43111E2C0019709F09B
:104A3000DFC080918706826080938706D9C02530C9
:104A400041F48091E80080FFFCCF40684093E30090
:104A5000CFC0263009F08DC0EB8CFC8C22E0D21246
:104A60002CC080E090E00E944A240E94132399E029
:104A70008E010F5F1F4FF801292F11922A95E9F738
:104A80009983DA8291E09E8390EA98879AEF9987DA
:104A90002091840630918506275F3F4F3C832B830E
:104AA0008D83C7010E944A2449E050E0B80180E0AC
:104AB0000E9455240E9413239BC0C7010E944A24D0
:104AC0000E948B28BE016B5E7F4F0E942D280097AD
:104AD00019F00CF08DC090C081E0D8120EC08B8D03
:104AE0009C8D089719F481E080938106809181065E
:104AF00081112FC066E172E031C0E3E0DE127CC0BC
:104B00008F89882349F1823029F440E86DE084E3FD
:104B100092E01CC0813029F440E86BE088E292E02A
:104B200015C0833009F068C00E948B288E010F5F8A
:104B30001F4FB8010E944C28F80101900020E9F7AE
:104B40003197E01BF10B40E06E2FC8010E94B322A9
:104B50004DC064E072E002C062E472E0611571056C
:104B600009F44AC0FB01449150E080E80E945524BA
:104B70003FC0273009F440C0283021F481E0809301
:104B8000F10036C02930A1F53370B1F5EDE1F1E067
:104B900081E021E036E39081992361F08093E90080
:104BA0002093EB0091919093EC003093ED008F5F98
:104BB000873089F78EE78093EA001092EA008F89A8
:104BC0008093880615C08B8D9C8D0E944A24898D08
:104BD000811105C0CE0145960E94CC1E07C00E94DF
:104BE0008B28BE016B5E7F4F0E946B28882321F0CB
:104BF0008EEF8093E80003C081E28093EB006C9617
:104C00000FB6F894DEBF0FBECDBFDF91CF91FF91FD
:104C1000EF91BF91AF919F918F917F916F915F9134
:104C20004F913F912F911F910F91FF90EF90DF9047
:104C30000F900FBE0F901F9018958093E900809100
:104C4000F200882319F08AE38093E80008951F9208
:104C50000F920FB60F9211242F933F934F935F93B0
:104C60006F937F938F939F93AF93BF93CF93EF9364
:104C7000FF93C091E1008091E100837F8093E10088
:104C80008093E100C3FF0FC01092E90081E08093A0
:104C9000EB001092EC0082E38093ED001092880606
:104CA00088E08093F000C2FF19C083E00E941D26B7
:104CB00080918A06882339F080918A0681508093FA
:104CC0008A06882389F180918906882339F08091AA
:104CD0008906815080938906882341F1C4FF10C062
:104CE0008091E2008E7E81608093E2008091E100FD
:104CF0008F7E8093E100809186068E7E806111C058
:104D0000C0FF16C08091E2008E7E80618093E20039
:104D10008091E1008E7E8093E100809186068E7EF8
:104D200081608093860604C05D98CDCF2898D6CF49
:104D3000FF91EF91CF91BF91AF919F918F917F9113
:104D40006F915F914F913F912F910F900FBE0F90F8
:104D50001F9018951092880610928706109286066A
:104D60000E94F0228091E1008E7E8093E1008DE030
:104D70008093E200559A209A5D982898EEEFFFE71D
:104D8000859194918B3F9C4D19F481E0809363064B
:104D900008954F925F926F927F92AF92BF92CF929F
:104DA000DF92EF92FF920F931F93CF93DF93CDB7D4
:104DB000DEB729013A01621B730B840B950B29891D
:104DC0003A894B895C892A193B094C095D09298B71
:104DD0003A8B4B8B5C8B9B01AC0169897A898B89FF
:104DE0009C890E949F28E418F50806091709A80164
:104DF00097010E9405292A0D3B1D4C1D5D1DCA010E
:104E0000B901DF91CF911F910F91FF90EF90DF904B
:104E1000CF90BF90AF907F906F905F904F9008952C
:104E2000FC01808191810C94DC29CF93DF93EC010C
:104E300088819981009711F00E94DC2919821882DB
:104E40001D821C821B821A82DF91CF9108950F93DD
:104E50001F93CF93DF93EC018B016F5F7F4F8881AE
:104E600099810E946B2A009731F0998388831B8374
:104E70000A8381E001C080E0DF91CF911F910F9103
:104E80000895CF93DF93EC0188819981892B29F0D4
:104E90008A819B818617970760F4CE010E9427279D
:104EA000882341F08C819D81892B19F4E881F98157
:104EB000108281E0DF91CF910895EF92FF920F93DE
:104EC0001F93CF93DF93EC017B018A01BA010E940B
:104ED0004127811104C0CE010E94152707C01D8300
:104EE0000C83B701888199810E943E2BCE01DF910E
:104EF000CF911F910F91FF90EF900895CF93DF9383
:104F0000EC016115710561F0FB0101900020E9F7EA
:104F1000AF0141505109461B570B0E945D2702C04B
:104F20000E941527CE01DF91CF9108950F931F9313
:104F3000CF93DF93CDB7DEB7A2970FB6F894DEBF5D
:104F40000FBECDBF8C01CB01BA01F80111821082D6
:104F5000138212821582148230E0AE014F5F5F4FE0
:104F60000E94792BBE016F5F7F4FC8010E947E2790
:104F7000A2960FB6F894DEBF0FBECDBFDF91CF91E2
:104F80001F910F9108950F931F93CF93DF93EB0120
:104F900041155105E9F02097D9F0FC016481758134
:104FA00026173707A0F4621B730B8A010150110901
:104FB0006017710708F48B01FC0160817181620F39
:104FC000731FA801CE010E94452BC00FD11F18826C
:104FD000DF91CF911F910F91089508950E94711C48
:104FE0000E94ED2780E896E00E94AA260E94820790
:104FF000C0E0D0E00E940C0D2097E1F30E94000079
:10500000F9CF0C9444290895EF92FF920F931F93C8
:10501000CF93DF937B01FC01C281D38100E010E0DC
:10502000209781F0E881F9810280F381E02DB701BA
:10503000CE01099597FD08C0080F191F0884D9856E
:10504000C02DEECFC80102C08FEF9FEFDF91CF914F
:105050001F910F91FF90EF9008950F931F93CF939F
:10506000DF938B01FC01C281D381209771F0E8812D
:10507000F9810480F581E02DB801CE0109950097F2
:1050800031F40884D985C02DF0CF80E090E0DF9125
:10509000CF911F910F9108950F931F93CF93DF939B
:1050A0008B01FC01C281D381209771F0E881F981E5
:1050B0000680F781E02DB801CE010995080F111D7A
:1050C0000884D985C02DF0CFF8011082DF91CF91EF
:1050D0001F910F9108950F931F93CF93DF938B012F
:1050E000FC01C281D381209771F0E881F9810190A0
:1050F000F081E02DB801CE010995811106C0088428
:10510000D985C02DF0CF80E001C081E0DF91CF9143
:105110001F910F91089580918F0681110DC082E03B
:1051200080938B0684E080938C0610928E061092FA
:105130008D0681E080938F068BE896E00895DB0171
:105140008F939F930E942A29BF91AF91A29F800DB8
:10515000911DA39F900DB29F900D11240895991B4E
:1051600079E004C0991F961708F0961B881F7A955E
:10517000C9F780950895AA1BBB1B51E107C0AA1F60
:10518000BB1FA617B70710F0A61BB70B881F991FE8
:105190005A95A9F780959095BC01CD01089597FB8C
:1051A000072E16F4009407D077FD09D00E94BB2883
:1051B00007FC05D03EF4909581959F4F089570951A
:1051C00061957F4F0895A1E21A2EAA1BBB1BFD011A
:1051D0000DC0AA1FBB1FEE1FFF1FA217B307E407D6
:1051E000F50720F0A21BB30BE40BF50B661F771F2E
:1051F000881F991F1A9469F760957095809590950E
:105200009B01AC01BD01CF010895052E97FB1EF453
:1052100000940E941C2957FD07D00E94E32807FC38
:1052200003D04EF40C941C2950954095309521954F
:105230003F4F4F4F5F4F08959095809570956195C2
:105240007F4F8F4F9F4F0895EE0FFF1F0590F491F2
:10525000E02D09940E943529A59F900DB49F900DD3
:10526000A49F800D911D11240895A29FB001B39FAA
:10527000C001A39F700D811D1124911DB29F700D5F
:10528000811D1124911D0895CF93DF9382309105E4
:1052900010F482E090E0E0919906F0919A0620E007
:1052A00030E0A0E0B0E0309739F1408151814817FB
:1052B0005907B8F04817590771F482819381109704
:1052C00029F013969C938E9312972CC090939A0674
:1052D0008093990627C02115310531F042175307F5
:1052E00018F0A901DB0101C0EF019A01BD01DF0146
:1052F0000280F381E02DD7CF21153105F9F0281B6D
:10530000390B2430310580F48A819B816115710548
:1053100021F0FB019383828304C090939A068093CB
:105320009906FE01329644C0FE01E20FF31F8193FD
:10533000919322503109398328833AC020919706EE
:1053400030919806232B41F4209102013091030102
:105350003093980620939706209100013091010127
:105360002115310541F42DB73EB74091040150910C
:105370000501241B350BE0919706F0919806E21782
:10538000F307A0F42E1B3F0B2817390778F0AC0168
:105390004E5F5F4F2417350748F04E0F5F1F509345
:1053A0009806409397068193919302C0E0E0F0E065
:1053B000CF01DF91CF910895CF93DF93009709F448
:1053C00087C0FC01329713821282C0919906D09156
:1053D0009A06209781F420813181280F391F80910E
:1053E0009706909198068217930779F5F09398069F
:1053F000E09397066DC0DE0120E030E0AE17BF07F6
:1054000050F412964D915C9113979D0141155105F1
:1054100009F1DA01F3CFB383A28340815181840F74
:10542000951F8A179B0771F48D919C911197840F9A
:10543000951F02969183808312968D919C9113976C
:10544000938382832115310529F4F0939A06E09322
:1054500099063EC0D9011396FC93EE9312974D9195
:105460005D91A40FB51FEA17FB0779F48081918144
:10547000840F951F0296D90111969C938E93828179
:10548000938113969C938E931297E0E0F0E08A81CB
:105490009B81009719F0FE01EC01F9CFCE01029635
:1054A00028813981820F931F2091970630919806A9
:1054B0002817390769F4309729F410929A06109248
:1054C000990602C013821282D0939806C093970661
:1054D000DF91CF910895A0E0B0E0E1E7FAE20C940B
:1054E000C92BEC01CB01209719F40E944429B8C0C4
:1054F000FE01E60FF71F9E0122503109E217F30764
:1055000008F4ACC0D9010D911C911197061717072B
:10551000B8F00530110508F49FC0A80144505109A6
:105520004617570708F498C002501109061B170BBD
:10553000019311936D937C93CF010E94DC298CC061
:105540005B01A01AB10A4E01800E911EA09199062E
:10555000B0919A06612C712C60E070E0109709F40C
:1055600049C0A815B905C9F5ED90FC9011976701E0
:1055700042E0C40ED11CCA14DB0478F147018A183A
:105580009B08640142E0C40ED11C1296BC90129795
:105590001396AC91B5E0CB16D10440F0B282A38350
:1055A00091828082D9018D939C9309C00E5F1F4F19
:1055B0000E0D1F1DF90111830083EB2DFA2F6115CC
:1055C000710531F0DB011396FC93EE93129744C002
:1055D000F0939A06E09399063FC06D917C911197E4
:1055E0006616770608F43B01BD0112960D90BC913A
:1055F000A02DB4CF60919706709198066815790533
:10560000E9F468167906D0F4409100015091010147
:105610004115510541F44DB75EB760910401709199
:105620000501461B570BE417F507C0F4F0939806E5
:10563000E0939706F901918380830EC00E9444296C
:105640007C01009759F0A801BE010E94352BCE01C4
:105650000E94DC29C70104C0CE0102C080E090E0B6
:10566000CDB7DEB7EEE00C94E52BFB01DC0102C008
:1056700001900D9241505040D8F70895FB01DC0194
:1056800001900D920020E1F70895FB01DC014150EB
:10569000504048F001900D920020C9F701C01D92C2
:1056A00041505040E0F70895FC0181E090E0019006
:1056B000061609F4CF010020D1F701970895FB01E8
:1056C00051915523A9F0BF01DC014D9145174111BE
:1056D000E1F759F4CD010190002049F04D914015BA
:1056E0004111C9F3FB014111EFCF81E090E0019737
:1056F00008952532310520F4223010F00C94842BCB
:10570000FA011082CA010895BB272A3051F4992367
:1057100042F4BDE290958095709561957F4F8F4FD3
:105720009F4F0C94942BBB27FA01A62F621771058B
:1057300081059105330B30FB66F0AA27660F771FB2
:10574000881F991FAA1FA21710F0A21B639538503B
:10575000A9F7A05DAA3308F0A95DA19336F7B111AE
:10576000B1931082CA010C94B52BDC01FC01672FA8
:1057700071917723E1F7329704C07C916D93708328
:105780006291AE17BF07C8F308952F923F924F92D0
:105790005F926F927F928F929F92AF92BF92CF92C1
:1057A000DF92EF92FF920F931F93CF93DF93CDB7CA
:1057B000DEB7CA1BDB0B0FB6F894DEBF0FBECDBF42
:1057C00009942A88398848885F846E847D848C8413
:1057D0009B84AA84B984C884DF80EE80FD800C811C
:1057E0001B81AA81B981CE0FD11D0FB6F894DEBFFF
:0C57F0000FBECDBFED010895F894FFCF6F
:1057FC0000009B0680000100000021FF130001FF48
:10580C00FFFFFF00E1000000000000FF00C18081ED
:10581C000000004D617820736572766F732061749F
:10582C0074616368656400556E6B6E6F776E207083
:10583C00696E206D6F646500533A5C506572736FCE
:10584C005C4769744875625C746563686E6F6C6FF5
:10585C00676965735C61726475696E6F5C706572A3
:10586C00736F5C312E426C6F636B6C794072647534
:10587C00696E6F5C50794D6174612D61696F2D4655
:10588C0069726D617461506C75735C50794D6174A3
:10589C00612D61696F2D4669726D617461506C7513
:1058AC00732E696E6F004932433A20546F6F206D2E
:1058BC00616E7920627974657320726563656976AF
:1058CC006564004932433A20546F6F206665772037
:1058DC0062797465732072656365697665640031FD
:1058EC00302D6269742061646472657373696E67CC
:1058FC00206E6F7420737570706F727465640074B1
:10590C006F6F206D616E79207175657269657300BA
:10591C0050494E475F434F4E464947204572726F80
:10592C00723A204578636565646564206E756D62B6
:10593C006572206F6620737570706F727465642069
:10594C0070696E67206465766963657300535445AE
:10595C005050455220434F4E464947204572726F76
:10596C00723A2057726F6E67204E756D62657220A9
:10597C006F6620617267756D656E74730053544564
:10598C0050504552204F504552415445204572725B
:10599C006F723A204D4F544F52204E4F5420434F6C
:1059AC004E46494755524544005354455050455274
:1059BC00204649524D574152452056455253494F66
:1059CC004E204572726F723A204E4F204D4F544FFD
:1059DC00525320434F4E4649475552454400535469
:1059EC00455050455220434F4E4649472045727210
:1059FC006F723A20554E4B4E4F574E2053544550D4
:105A0C0050455220434F4D4D414E440061726763E7
:105A1C00203D00BA04B004A604000000001A11EDE9
:105A2C0010C210CA10DD10EC102E63707000000054
:105A3C000000971A00000000641EAB1E8E1E9E1EF6
:045A4C007A1E8B1E15
:00000001FF
