:100000000C947C000C94A4000C94A4000C9470023A
:100010000C949D020C94CA020C94A4000C9425200C
:100020000C94A4000C94A4000C94A4000C94C90C8F
:100030000C94A4000C94A4000C94A4000C94A400B0
:100040000C94C2190C94A4000C94141D0C94461D1D
:100050000C94A4000C94A4000C94A4000C94A40090
:100060000C94E9100C94A40071047F0462048C04C5
:10007000A304D504C704D504D104BD04CD04CF0422
:10008000B517BB17C517D317D517DB17E517F31728
:10009000051807180000000800020100000304070B
:1000A0000000000000000000010204081020408051
:1000B00001020408102001020408102004040404B2
:1000C0000404040402020202020203030303030302
:1000D0000000000023002600290000000000250089
:1000E00028002B0000000000240027002A00020046
:1000F0003A06FF0FC815761D11241FBECFEFD8E0BA
:10010000DEBFCDBF13E0A0E0B1E0EEE2FAE402C052
:1001100005900D92A234B107D9F726E0A2E4B3E02E
:1001200001C01D92AC38B207E1F710E0C8EFD0E093
:1001300004C02297FE010E943F22C03FD107C9F7A9
:100140000E94A6210C9415250C940000833008F021
:1001500062C0482F440F440F440F485F453108F0F8
:1001600044E1582F550F550F550F90E071E054178B
:10017000E8F42EEF250F2231B0F4E52FF0E0DF0197
:10018000A35BBB4F2C91223070F4972BEE0FFF1F17
:10019000EE5DFB4F21E030E0A72FA62311F420E015
:1001A00030E031832083770F5F5FE1CF81110AC098
:1001B0009C7FF8942BB1892F809582239623892BDD
:1001C0008BB928C08130C9F46923F89425B1892FEF
:1001D0008F7380958223262F2F73822B85B988B148
:1001E00062956695669563709295969596959370CF
:1001F00090959823692B68B90DC09F70F89428B129
:10020000892F880F880F809582236923660F660FD8
:10021000862B88B9789408950F931F93CF93DF931B
:10022000EB01843180F5082F10E0F801E35BFB4F10
:1002300090819330A1F0943031F582508231E0F416
:10024000F801EF56FC4F208130E0C901880F991F5B
:10025000820F931F8B559C4F0E94660E0DC08330FA
:1002600041F09BEF980F923020F097EF980F93306A
:1002700018F4BE010E94D81AF801EE0FFF1FEE5DC0
:10028000FB4FD183C083DF91CF911F910F910895D0
:10029000CF93C82F863058F5409167045091680479
:1002A00021E030E0082E02C0220F331F0A94E2F74B
:1002B000672B49F420953095242335233093680427
:1002C0002093670414C0242B352B309368042093AB
:1002D00067048091590381110AC08C2F0E94BB1AB8
:1002E000AC016C2F8EE695E0CF910C949113CF91D9
:1002F0000895CF93DF93DC01FB0122835183408378
:100300001296CD91DC91139788819381892B8883F4
:1003100082818D7F813041F415968C911597938160
:10032000892B15968C93159782818150823040F4E9
:1003300016968C9116979381892B16968C93169707
:100340008091680014969C91892B80936800DF91BE
:10035000CF910895CF92DF92FF920F931F93CF9387
:10036000DF9300D01F92CDB7DEB76C01E62FF0E02F
:10037000E855FF4FF490FC0180859185009779F056
:100380008C01FC0183818F1106C0B801C6010E9457
:10039000790180E02FC0F80185819681EFCF87E059
:1003A00090E02B8349835A830E94B521DC012B8185
:1003B00049815A81009721F4109202008FEF1AC0F0
:1003C00012962C93129716961C921E9215971396BE
:1003D000FC921397F60180859185892B19F4B187DA
:1003E000A08703C0F801B683A583BD01C6010E94A2
:1003F000790181E00F900F900F90DF91CF911F91C5
:100400000F91FF90DF90CF900895242FE82FF0E018
:10041000E454FF4FE491EE23D9F061157105C1F06A
:10042000F0E03297E330F10540F4EE0FFF1FE05F9C
:10043000FC4F0190F081E02D02C0E0E0F0E0A081EF
:10044000B1819C919783AB01682FCF010C94AA01D5
:100450008FEF0895FF920F931F93CF93DF93EC01DB
:10046000809187049F812D813E81F82EF094F322A4
:100470002823F22A9827F9228F83088519850115E8
:100480001105D9F0D80113969C918F2D892389F0FD
:1004900080918704892391E009F490E0F801948326
:1004A00080819181DC01ED91FC910190F081E02D42
:1004B0000995F80105811681E2CF8BB39C818923D0
:1004C00049F09BB3982B9BBBE881F9818081809395
:1004D0008704C6CFDF91CF911F910F91FF900895B0
:1004E0001F920F920FB60F9211242F933F934F93A9
:1004F0005F936F937F938F939F93AF93BF93EF938C
:10050000FF93E0917D04F0917E04808180938704C5
:100510008DE794E00E942A02FF91EF91BF91AF9185
:100520009F918F917F916F915F914F913F912F910B
:100530000F900FBE0F901F9018951F920F920FB63D
:100540000F9211242F933F934F935F936F937F9359
:100550008F939F93AF93BF93EF93FF93E0917304B7
:10056000F091740480818093870483E794E00E9473
:100570002A02FF91EF91BF91AF919F918F917F914F
:100580006F915F914F913F912F910F900FBE0F9000
:100590001F9018951F920F920FB60F9211242F9350
:1005A0003F934F935F936F937F938F939F93AF93FB
:1005B000BF93EF93FF93E0916904F0916A04808107
:1005C0008093870489E694E00E942A02FF91EF91CC
:1005D000BF91AF919F918F917F916F915F914F915B
:1005E0003F912F910F900FBE0F901F901895DB0138
:1005F0009A01909183039C30D0F540918403682F39
:1006000070E0442369F0E42FF0E0EC57FC4F808168
:10061000FB01EF56FC4F808341504093840307C099
:10062000FB01EF56FC4F90839F5F90938303FB0188
:10063000EF56FC4F1A161B067CF41216130664F4D0
:10064000408150E0CA01880F991F840F951FAD01AA
:100650008B559C4F0C94A10D208130E0C901880F6F
:10066000991F820F931F8B559C4F0C941F0E60E1B6
:1006700071E08EE695E00C942014CF93DF93C82FA1
:10068000D0E0CF56DC4F288130E0C901880F991F98
:10069000820F931F8B559C4F0E94250E888190914D
:1006A0008303891306C0882379F0815080938303E4
:1006B0000BC0992349F0E0918403EF5FE09384033A
:1006C000F0E0EC57FC4F80838FEF8883DF91CF9170
:1006D00008951F93CF93DF93162FC82FD0E0FE010C
:1006E000E65BFB4F90811923CF59DB4F411103C0CB
:1006F0009881911741F0412F50E0682F8EE695E0E8
:100700000E94AA131883DF91CF911F91089583301F
:1007100020F5282F30E0F901EC59FB4F6083672B5F
:10072000E1F0F901E65BFB4F9081811103C069B1F3
:100730006C7F0FC0813049F463B126B140E4249F3F
:10074000900111246F73622B04C066B16C736695BF
:100750006695692341E00C946903089580916404CF
:10076000882349F069B180914A0468236C7F40E096
:1007700080E00E94690380916504882379F063B169
:1007800086B120E4829FC00111246F73682B809191
:100790004B04682340E081E00E9469038091660475
:1007A000882359F066B16C736695669580914C0408
:1007B000682340E082E00C94690308951092CB0313
:1007C0008FEF80930B010895AF92BF92DF92EF926B
:1007D000FF920F931F93CF93DF9300D0CDB7DEB777
:1007E000D82E8B01E82EF12CC701835B9B4F5C0157
:1007F000FC0180818F3709F401C1863049F4809172
:10080000CB03882329F06630710511F00E94DE03C6
:100810004EEF4D0D4231B8F404301105A1F0F7014F
:10082000EF56FC4F20812C3070F430E0C901880F66
:10083000991F820F931F8B559C4F4A830E94CB0EAA
:100840004A818111C3C092EF9D0D963070F461E032
:1008500070E00230110511F060E070E0892F4A83EA
:1008600099830E94480199814A814231D8F4ED2D43
:10087000E695E695E6958D2D8770F0E0E65BFB4FFB
:1008800021E030E0082E01C0220F0A94EAF701159A
:10089000110521F48081822B808304C02095808102
:1008A00028232083F701EE0FFF1FEE5DFB4F11821F
:1008B00010820C30110508F078C0F801EC5CFF4F95
:1008C0000C943D22963008F099C0423140F460E02B
:1008D0008D2D0E94601B60E08D2D0E94991B82E08F
:1008E00061C0423108F08AC060E08D2D0E94601B1B
:1008F00060E08D2D0E94991BF50110827FC042316E
:1009000008F07CC060E08D2D0E94991B61E08D2D68
:100910000E94601B81E046C0F3E0DF1649F08BEFD8
:100920008D0D823028F087EF8D0D833008F066C082
:1009300061E08D2D0E94601B60E070E08D2D0E94B3
:10094000D81A83E02FC0423108F058C084E0F50186
:100950008083F701EF56FC4F80818F3FE9F190E0F3
:100960009C01220F331F280F391FC9018B559C4F43
:100970000E94CB0E811142C02FC060E08D2D0E94DD
:10098000601B61E08D2D0E94991B89E00BC08EEEEB
:100990008D0D823098F586E005C08AE003C08BE0BB
:1009A00001C088E0F501808329C064E271E08EE631
:1009B00095E00F900F90DF91CF911F910F91FF90D5
:1009C000EF90DF90BF90AF900C9420148D2D4A8350
:1009D0000E943D034A8137CF4FEF5FEF6FEF7FEF0C
:1009E0008D2D0F900F90DF91CF911F910F91FF9060
:1009F000EF90DF90BF90AF900C94F7020F900F90A4
:100A0000DF91CF911F910F91FF90EF90DF90BF90FA
:100A1000AF900895CF93C0E08EEE8C0F823028F413
:100A200066E070E08C2F0E94E403CF5FC431A1F731
:100A300081E08093CB038EEA94E0CF910C94710F08
:100A40000F931F93CF93DF9381E08093590380919D
:100A5000CB0381110E94DE031092640410924A04B9
:100A6000109261041092650410924B04109262047B
:100A70001092660410924C0410926304C1E9D3E012
:100A800010E00FEF82EF810F863018F462E070E023
:100A90000AC08EEF810F823120F4812F0E94102036
:100AA00005C061E070E0812F0E94E40309931F5F9D
:100AB000143141F71092760310927503AFE6B3E05C
:100AC000E1E6F3E02FE72D9380819181892B11F0EE
:100AD00011821082329683E0A537B807A1F71092F1
:100AE00068041092670410925B0310925A031092EC
:100AF000840310928303109259038091580381114B
:100B000008C081E080935803DF91CF911F910F912E
:100B1000089528E088E190E00FB6F894A8958093B6
:100B200060000FBE20936000FFCF24E042E065E349
:100B300071E08EE695E00E94B8124CE051E060EE64
:100B40008EE695E00E942E1446EA50E060E98EE6BB
:100B500095E00E942E1448E451E060EC8EE695E0AA
:100B60000E942E1447E853E060ED8EE695E00E9467
:100B70002E1444EE53E064EF8EE695E00E942E14AE
:100B800042E157E060EF8EE695E00E94591440E2A2
:100B900055E06FEF8EE695E00E94511410927603B7
:100BA000109275031092780310927703A0E7B3E0D8
:100BB000E3E6F3E02FE72D9380819181892B11F0FB
:100BC00011821082329683E0A537B807A1F76091B1
:100BD0000C0170910D0188E290E00E94D421709385
:100BE0007A036093790340E051EE60E070E08EE6B6
:100BF00095E00E94B1150C9420050F931F93CF939D
:100C0000DF93CDB7DEB7C654D1090FB6F894DEBF77
:100C10000FBECDBF8C012AE0CE018F5B9F4F0E949B
:100C20004E2120E030E040E450E0BE016F5F7F4F96
:100C3000CE018F5B9F4F0E947B21B8018EE695E02D
:100C40000E942014BE016F5F7F4F8EE695E00E94E8
:100C50002014CE018F5B9F4F0E94C820CA5BDF4FDC
:100C60000FB6F894DEBF0FBECDBFDF91CF911F91BD
:100C70000F910895CF93DF93E4EDF0E08591949187
:100C800090937E0480937D048BE690E090938004A3
:100C900080937F0481E080938104109282041092FB
:100CA00083041092860410928504E6EDF0E08591AD
:100CB000949190937404809373048CE690E09093E5
:100CC00076048093750482E0809377041092780410
:100CD0001092790410927C0410927B04E8EDF0E00D
:100CE0008591949190936A04809369048DE690E0D5
:100CF00090936C0480936B0484E080936D04109255
:100D00006E0410926F041092720410927104C5EA7E
:100D1000D3E0CE010E94850D239683E0C93CD8071D
:100D2000C1F7DF91CF910895682F8EEA94E00C947B
:100D3000320FAF92BF92DF92EF92FF920F931F9309
:100D4000CF93DF931F92CDB7DEB7F82E5B01D42E81
:100D50006F3F8FEF7807D1F06F2D8EEA94E02983F3
:100D60000E947B0F6A2D8EEA94E00E94320F298147
:100D7000622F8EEA94E00E94850F8091C9039091C2
:100D8000CA03009729F00E94751A02C0A12CB12C49
:100D90004D2D6F2D8EEA94E00E94F90F0D2D10E07D
:100DA0008EEA94E00E94DA0E08171907C1F4F09257
:100DB000CC03A092CD036EECE62E63E0F62EA12CC0
:100DC000B12CA016B106DCF48EEA94E00E94E20E8B
:100DD000F70181937F01FFEFAF1ABF0AF2CF8EEACE
:100DE00094E00E94DA0E801791071CF463EA71E028
:100DF00002C060EC71E08EE695E00E94201442E0B3
:100E00004D0D2CEC33E067E78EE695E00F90DF9117
:100E1000CF911F910F91FF90EF90DF90BF90AF9017
:100E20000C94D8136F927F928F929F92AF92BF9241
:100E3000CF92DF92EF92FF920F931F93CF93DF93A6
:100E4000CDB7DEB727970FB6F894DEBF0FBECDBF84
:100E5000162F7A018D3609F418C2A8F4803609F4E9
:100E60007BC238F4803509F448C18F3509F492C249
:100E7000D6C3893609F458C28B3609F49CC1823630
:100E800009F0CDC3ADC2823709F4F9C238F48F3608
:100E900009F46EC1803709F4FAC0C1C3883709F478
:100EA000DFC08A3709F442C1863709F0B8C3DA01D6
:100EB00011962C91922F987125FF03C06CED71E073
:100EC000A5C3FA01808126FB222720F931E02327E0
:100ED000983041F148F49111A2C3682F8EEA94E052
:100EE0000E947B0F02E006C09031B9F1983109F4FD
:100EF00069C095C3011768F4F701E00FF11D9181F6
:100F00008081F0E89F9F801911240E9494060E5F53
:100F1000F1CF8EEA94E00E94FC0F86E490E00E94FC
:100F2000751A7DC342816381163071F4B0E86B9FFE
:100F3000B0011124640F711DF70195814481F0E81F
:100F40009F9F4019112406C030E8639F4019112467
:100F50006FEF7FEF0E94990662C3E0910B01E730CB
:100F60001CF06CEF71E052C3DA0112969C9112975B
:100F700013964C91663089F4B0E84B9FA001112480
:100F8000490F511DD70115963C91159714969C91C8
:100F9000B0E83B9F9019112406C0F0E84F9F9019CC
:100FA00011244FEF5FEFEF5FE0930B0135E0E302B9
:100FB000F0011124E451FC4F8083528341839383D9
:100FC00024832DC360910B0116163CF470E0262F8C
:100FD000332727FD309595E00FC08FEF80930B01ED
:100FE0001EC3949FF001959FF00D1124E451FC4F16
:100FF0004081481739F07F5F472F50E024173507AD
:1010000084F770E015E0872F90E02817390724F166
:10101000783000F5AC014F5F5F4F149FD001159FF2
:10102000B00D1124A451BC4F4C91189FF001199F91
:10103000F00D1124E451FC4F408311968D919C9149
:1010400012979283818313968C91139783831496BE
:101050008C9184837F5FD7CF615060930B01DFC297
:10106000DA012C9111968C91B0E88B9FC00111246C
:10107000820F911D009721F09093CA038093C903BA
:101080008091CB038111CBC20E940A05C8C2653092
:1010900008F4C5C2FA0110810181D280C380F480B6
:1010A0008EEF810F823108F0BAC2E12FF0E0EF56E7
:1010B000FC4FE081EC3060F4F0E0CF01880F991F25
:1010C0008E0F9F1F8B559C4F0E94CB0E8111A3C288
:1010D000F0E8FF9EA00111244C0D511D20E8D29E86
:1010E000B0011124600F711D812F0E94F70264E08E
:1010F00070E0812F0E94E40392C2DA012C911196D4
:101100008C91B0E88B9FC0011124820F911D9093A8
:101110001504809314040E940C1A609316047093B3
:101120001704809318049093190479C2623008F46C
:1011300076C2FA0120818181F0E88F9FC0011124DD
:10114000820F911D8A30910510F48AE090E090930F
:101150000D0180930C0160910C0170910D0188E2EA
:1011600090E00E94D42170937A036093790357C270
:10117000623008F454C2DA0111966C91119770E054
:101180001230A1F012968C91B0E88B9FC00111240F
:10119000682B792B133051F0FA01838190E090E4B1
:1011A000899F902D88271124682B792BD7018C914A
:1011B0000E940C0134C260EF8EE695E00E94241478
:1011C0006CE68EE695E00E9424141EEF84EF810FFA
:1011D000863058F462E08EE695E00E9424146AE0BE
:1011E0008EE695E00E9424140DC0113059F463E09E
:1011F0008EE695E00E94241468E08EE695E00E9459
:10120000241408C08DEF810F823088F389EF810F9D
:10121000833068F3123150F464E08EE695E00E946A
:1012200024146EE08EE695E00E94241480EF810F76
:10123000823050F466E08EE695E00E94241461E06E
:101240008EE695E00E9424146FE78EE695E00E94FA
:1012500024141F5F123109F4CEC1123108F0B6CF49
:1012600060E08EE695E00E94241461E08EE695E051
:101270000E94241461E08EE695E00E94241461E04F
:101280008EE695E00E942414A1CF662309F4C7C11D
:10129000FA01008160EF8EE695E00E9424146EE66C
:1012A0008EE695E00E942414602F8EE695E00E9461
:1012B0002414043108F09FC110E0F801E35BFB4FF8
:1012C00060818EE695E00E942414000F111F9801A2
:1012D0002E5D3B4F7901D9016C916F778EE695E0D9
:1012E0000E942414F70160817181CB018078892BE1
:1012F00049F0660F672F661F770B6F778EE695E0D4
:101300000E942414F801EE5DFB4F60817181CB01D6
:101310008827907C892B09F46EC1770F660B770FB5
:10132000762F661F6F7763C160EF8EE695E00E94AF
:1013300024146AE68EE695E00E94241412EF16301B
:1013400010F06FE701C0612F8EE695E00E94241433
:101350001F5F1630A1F74FC1DA014C914093800313
:1013600011962C9120937F038091500381110EC020
:101370008FE293E0909343038093420361E682E41B
:1013800093E00E94141981E08093500381E08093E0
:101390007B0345C1FA019081818191111BC0948129
:1013A0002581F0E82F9F90011124290F311D44273A
:1013B00037FD4095542FD70112969C9112971396A2
:1013C0006C91B0E86B9FB0011124690F711D0E94F0
:1013D000E11D25C1913009F022C10E9410201FC1DA
:1013E0002091750330917603263031050CF044C00E
:1013F000FA01808180936003918190935F039281D1
:10140000913208F491E290930A01D70113969C91CE
:10141000139714960C91B0E80B9F80011124090FCB
:10142000111DF901E159FC4F80836BE070E00E94CF
:10143000E4036BE070E080915F030E94E40382E1CB
:1014400090E00E94B5217C01980140915F0360917A
:1014500060030E94CC158091750390917603FC0186
:10146000EE0FFF1FEF59FC4FF182E082019690933F
:10147000760380937503D3C06DE072E0C7C0FA01B4
:10148000808181114FC08181C280F0E8CF9E6001D0
:101490001124C80ED11CDA0113968C901397912C4D
:1014A00014966C90712C653079F48AE190E00E947A
:1014B000B5218C019301A401B6010E94C1161093BD
:1014C0005B0300935A03ABC06730A1F4FA010581B6
:1014D00010E0E680F12C8AE190E00E94B5215C01E9
:1014E0009301A401B6010E94E716B0925B03A0929B
:1014F0005A0395C087E0E9E0F3E0DE011196019020
:101500000D928A95E1F76AE472E08EE695E00E941A
:101510002014412F50E060E070E0CE0101960E945F
:10152000FD057DC0813009F042C0DA01428150E002
:1015300060E070E0F7E0440F551F661F771FFA95D3
:10154000D1F713968C9190E0A0E0B0E01EE0880FF8
:10155000991FAA1FBB1F1A95D1F7482B592B6A2B2D
:101560007B2BF7018181482B84810581F0E80F9F57
:1015700080011124080F111DD7011696FC9080914F
:101580005A0390915B03009779F00E941D17F110A8
:1015900003C0119501951109B80180915A039091EA
:1015A0005B030E9424183BC06AE772E02FC08230C0
:1015B00059F580915A0390915B03009711F10E94B5
:1015C000AD188C0160EF8EE695E00E94241462E76E
:1015D0008EE695E00E942414602F6F778EE695E0EA
:1015E0000E942414B801660F672F661F770B8EE6E2
:1015F00095E00E94241467EF8EE695E00E94241483
:101600000EC066EA72E002C06BED72E08EE695E015
:101610000E94201404C0812F0E943D0359CD2796BB
:101620000FB6F894DEBF0FBECDBFDF91CF911F91F3
:101630000F91FF90EF90DF90CF90BF90AF909F9071
:101640008F907F906F9008958F929F92AF92BF92EC
:10165000CF92DF92EF92FF920F931F93CF93DF937E
:101660000E94AE038EE695E00E941813892B29F0A4
:101670008EE695E00E948414F5CF0E940C1A6093C8
:101680001E0470931F048093200490932104C09043
:101690001A04D0901B04E0901C04F0901D044091AB
:1016A0000C0150910D014A01A12CB12C8B019C0120
:1016B0000C191D092E093F0980169106A206B306D2
:1016C00008F05AC1D501C4018C0D9D1DAE1DBF1D72
:1016D00080931A0490931B04A0931C04B0931D04E0
:1016E00080917703909178039C012F5F3F4F309357
:1016F0007803209377032091790330917A03281798
:1017000039070CF064C0109278031092770380912F
:10171000750390917603892B09F459C0E0916D030C
:10172000F0916E03EE0FFF1FEF59FC4F8081918106
:101730000E94921669E370E00E94D421CB0140918F
:101740006D0350916E0340935E039A012F5F3F4FEC
:1017500030936E0320936D032091750330917603CF
:10176000215031094217530724F010926E03109252
:101770006D036F7760935C03880F892F881F990B27
:1017800080935D0360EF8EE695E00E94241463E68B
:101790008EE695E00E942414E0915E03F0E0E159AA
:1017A000FC4F60818EE695E00E94241460915C03FA
:1017B0008EE695E00E94241460915D038EE695E02C
:1017C0000E94241467EF8EE695E00E942414CDE475
:1017D000D4E012EF1630C0F488818230A9F4209151
:1017E000670430916804012E02C0359527950A944C
:1017F000E2F720FF09C0812F0E94BB1AAC01612FC4
:101800008EE695E00E9491131F5F2196163011F726
:1018100080910B0187FF06C080917B03882309F428
:101820006BC01CC0C0E0D5E08C2F90E020910B0174
:10183000332727FD30952817390774F3D89FF00117
:10184000D99FF00D1124E451FC4F618172812481F4
:10185000438180810E949906CF5FE6CF1092820378
:101860001092810310927C030E9495190097A1F0B9
:101870000E94B51980937C0320917D0330917E03F3
:10188000181614F0882341F0280F311D87FD3A9572
:1018900030937E0320937D0380917D0390917E039E
:1018A000282F2F7720938103880F892F881F990B6A
:1018B0008F778093820360EF8EE695E00E94241478
:1018C00061E68EE695E00E942414609180038EE626
:1018D00095E00E942414609181038EE695E00E94B9
:1018E0002414609182038EE695E00E94241467EF31
:1018F0008EE695E00E9424148091140490911504C2
:10190000892BD1F10E940C1A60931E0470931F045E
:1019100080932004909321040091160410911704E1
:101920002091180430911904AB01BC01401B510BEC
:10193000620B730BE0911404F091150428EE33E070
:10194000E29FC001E39F900DF29F900D1124A0E053
:10195000B0E084179507A607B70770F4DF91CF9121
:101960001F910F91FF90EF90DF90CF90BF90AF90BD
:101970009F908F900C942005DF91CF911F910F9134
:10198000FF90EF90DF90CF90BF90AF909F908F909F
:1019900008951F920F920FB60F9211242F933F9329
:1019A0004F935F936F937F938F939F93AF93BF9367
:1019B000EF93FF938091890487FF05C01092850003
:1019C000109284001AC020918904332727FD309596
:1019D0008091880490E0281739077CF4809189046D
:1019E000992787FD9095FC01EE0FFF1FE80FF91F67
:1019F000E657FB4F808186FD15C0809189048F5F7B
:101A00008093890420918904332727FD30958091A4
:101A1000880490E028173907BCF4809189048C3041
:101A20005CF112C080918904992787FD9095FC0193
:101A3000EE0FFF1FE80FF91FE657FB4F808160E0B4
:101A40008F730E94991BD9CF80918400909185005B
:101A5000049680349C4918F480E49CE905C0809188
:101A6000840090918500049690938900809388006B
:101A70008FEF8093890438C02091840030918500D5
:101A800080918904992787FD9095FC01EE0FFF1F37
:101A9000E80FF91FE657FB4F81819281820F931F58
:101AA000909389008093880080918904992787FD0D
:101AB0009095FC01EE0FFF1FE80FF91FE657FB4F53
:101AC000808186FF11C080918904992787FD9095B8
:101AD000FC01EE0FFF1FE80FF91FE657FB4F808157
:101AE00061E08F730E94991BFF91EF91BF91AF91BD
:101AF0009F918F917F916F915F914F913F912F9126
:101B00000F900FBE0F901F901895209188042C30D5
:101B1000A0F431E0320F30938804FC012083822F3F
:101B200090E0FC01EE0FFF1FE80FF91FE657FB4F97
:101B300088EB9BE09283818308952FEFFC01208343
:101B40000895DF92EF92FF920F931F93CF93DF934D
:101B5000EC01D62E7A01890188818C3008F066C0AC
:101B600061E08D2D0E94601B8881A82FB0E0FD01EF
:101B7000EE0FFF1FEA0FFB1FE657FB4F2D2D2F73B4
:101B80009081907C922B908360E272E06E197F09C5
:101B900077FF02C06D5F7F4F759567957595679567
:101BA000698340E659E0401B510B57FF02C04D5F6F
:101BB0005F4F55954795559547954A836CE00E9430
:101BC000C8219CE0899FB001112420E030E0A901E8
:101BD000460F571FFA01EE0FFF1FE40FF51FE657E0
:101BE000FB4F908196FD16C02F5F3F4F2C30310583
:101BF00071F781110FC01092800082E08093810004
:101C00001092850010928400B19A80916F008260DA
:101C100080936F00888190E0FC01EE0FFF1FE80FBA
:101C2000F91FE657FB4F8081806480838881DF91B4
:101C3000CF911F910F91FF90EF90DF90089520E6D4
:101C400039E040E252E00C94A10DFC01808190E06B
:101C5000FC01EE0FFF1FE80FF91FE657FB4F8081D5
:101C60008F7B80830895FC0180818C3070F5918199
:101C700028E830E0291B310997FD3395220F331FE7
:101C8000220F331F621773077CF0928128E532E040
:101C9000291B310997FD3395220F331F220F331F64
:101CA000621773070CF49B0122503109220F331F76
:101CB0004FB7F89490E0FC01EE0FFF1FE80FF91FFB
:101CC000E657FB4F328321834FBF08954F925F92B7
:101CD0006F927F92AF92BF92CF92DF92EF92FF927C
:101CE0000F931F93CF93DF93EC01603282E078076C
:101CF0000CF040C077FD06C0653B71052CF064EB2D
:101D000070E002C060E070E0898128E830E0281BC4
:101D1000310987FD3395220F331F220F331F5901DD
:101D2000CC24B7FCC094DC2C882777FD8095982FB5
:101D30002A8148E552E0421B510927FD5395440F83
:101D4000551F440F551F2A01662457FC6094762CBA
:101D50007F926F925F924F9214EBE12EF12C00E094
:101D600010E020E030E0A9010E9481200F900F9048
:101D70000F900F90CE01DF91CF911F910F91FF90A7
:101D8000EF90DF90CF90BF90AF907F906F905F907B
:101D90004F900C94330EFC01808190E0FC01EE0F1B
:101DA000FF1FE80FF91FE657FB4F808186FB88274E
:101DB00080F908958091DE0490E02091DF04821B79
:101DC000910908952091DF048091DE04281750F4D2
:101DD000E22FF0E0E052FB4F808190E02F5F2093F4
:101DE000DF0408958FEF9FEF0895E091DF04809165
:101DF000DE04E81730F4F0E0E052FB4F808190E021
:101E000008958FEF9FEF08950895CF92DF92EF929C
:101E1000FF920F931F93CF93DF937C01CB018A0135
:101E20002091BA04222389F0EB016B01C40ED51E68
:101E3000CC15DD0569F06991D701ED91FC91019018
:101E4000F081E02DC7010995F3CF642F0E94C010E7
:101E5000C801DF91CF911F910F91FF90EF90DF901C
:101E6000CF900895CF93DF931F92CDB7DEB76983EC
:101E70002091BA042223D1F02091BB04203240F0FB
:101E800021E030E0FC013383228380E090E015C044
:101E90008091BC04E82FF0E0E354FB4F99819083DC
:101EA0008F5F8093BC048093BB0405C061E0CE01CA
:101EB00001960E94C01081E090E00F90DF91CF91D9
:101EC0000895FC011382128248EE53E060E070E056
:101ED00044835583668377838AE193E0918380838B
:101EE00008951092DF041092DE041092BC04109248
:101EF000BB040C94031081E08093BA046093DD046A
:101F00001092BC041092BB0408950F93062F21E099
:101F10004091BB046DEB74E08091DD040E94691078
:101F20001092BC041092BB041092BA040F91089551
:101F30008F929F92AF92BF92CF92DF92EF92FF92D9
:101F40000F931F93CF93DF93EC01F62ED42E48010D
:101F50005901EE2019F10E947B0F1E2D143008F05C
:101F600013E01150B8F0E881F98128E0129FB00128
:101F70001124A501940104C05695479537952795DE
:101F80006A95D2F7CA01B9010190F081E02DCE0126
:101F90000995E7CF60E0CE010E94850F4D2D4132BB
:101FA00008F040E22C2D60EE74E08F2D0E9421108D
:101FB0001092DF048093DE04DF91CF911F910F9187
:101FC000FF90EF90DF90CF90BF90AF909F908F9059
:101FD0000895CF92EF920F931F93C22EE12C00E051
:101FE00010E098010E94980F1F910F91EF90CF90F1
:101FF000089521E00C94E90F61E00C94850F8EEABE
:1020000094E00C94610F10926D0581E080936B0554
:1020100010926A0561E082E10E94991B61E083E110
:102020000E94991BE9EBF0E080818E7F80838081A4
:102030008D7F808388E48093B80085E48093BC0022
:102040000895413208F043C090916D059111FCCF85
:1020500091E090936D0520936B052FEF2093000581
:1020600010924505240F2093440590936C059091A0
:102070006C05880F892B80936C0580916A058130EF
:1020800061F410926A0580916C058093BB00809189
:10209000BC0083FDF8CF85EC01C085EE8093BC00C9
:1020A00080916D058130E1F380914505841710F42E
:1020B0004091450526E435E0FB01D9018A2F821BBA
:1020C000841718F48D918193F9CF842F089580E0BF
:1020D00008950F93413208F04AC090916D05911117
:1020E000FCCF92E090936D0500936B059FEF90936A
:1020F00000051092450540934405FB0166E475E038
:10210000DB019A2F961B941718F491919D93F9CFA8
:1021100010926C0590916C05880F892B80936C054B
:1021200080916A05813061F410926A0580916C0596
:102130008093BB008091BC0083FDF8CF85EC01C08B
:1021400085EE8093BC00222321F080916D058230C2
:10215000E1F3809100058F3F61F0809100058032AE
:1021600051F080910005803341F483E007C081E0A5
:1021700005C080E003C082E001C084E00F910895B3
:10218000613298F420916D05243089F46093220522
:10219000FC0184E295E0DC012A2F281B261718F4A5
:1021A00021912D93F9CF80E0089581E0089582E098
:1021B000089585ED8093BC008091BC0084FDFCCF28
:1021C00010926D05089585EC8093BC0010926D050A
:1021D00008951F920F920FB60F9211242F933F93E1
:1021E0004F935F936F937F938F939F93AF93BF931F
:1021F000EF93FF938091B900887F803609F49EC0E9
:1022000078F5883209F45DC090F4803109F456C045
:1022100038F4882309F4F5C0883009F44FC0F5C0BC
:10222000883109F44EC0803209F45FC0EEC08034BA
:1022300009F46AC058F4803309F457C0883309F0B0
:10224000E4C0809300050E94E310DFC0803509F4EC
:102250004FC0883509F45DC0883409F0D6C0D3C0BA
:10226000883909F4C4C0A8F4883709F467C038F481
:10227000883609F463C0803709F460C0C6C0883866
:1022800009F4B5C0803909F45FC0803809F0BDC0D9
:102290005BC0803B09F483C038F4803A09F466C01F
:1022A000883A09F47CC0B1C0803C09F4A4C0883CE1
:1022B00009F4A1C0883B09F487C0A7C080916C05D0
:1022C00010C09091450580914405981770F5E091F4
:1022D000450581E08E0F80934505F0E0EA5BFA4FFB
:1022E00080818093BB0085EC83C0809300058BC008
:1022F000E091450581E08E0F809345058091BB00FC
:10230000F0E0EA5BFA4F80839091450580914405A7
:102310006BC0E091450581E08E0F8093450580916B
:10232000BB00F0E0EA5BFA4F808380916B0581117E
:102330006AC081E080936A0584EA5EC083E080938E
:102340006D0510920105CFCF80910105803208F014
:102350004EC0E091010581E08E0F809301058091D0
:10236000BB00F0E0EE5FFA4F8083BDCF0E94E31028
:1023700080910105803230F4E0910105F0E0EE5FDC
:10238000FA4F10826091010570E0E0916605F091CE
:10239000670582E095E009951092010536C084E05A
:1023A00080936D051092230510922205E091680537
:1023B000F0916905099580912205811105C081E0A0
:1023C0008093220510922405E091230581E08E0F71
:1023D00080932305F0E0EC5DFA4F80818093BB0091
:1023E0009091230580912205981708F47CCF85E809
:1023F0008093BC000AC085EC8093BC0010926D05F0
:1024000004C0109200050E94D910FF91EF91BF9176
:10241000AF919F918F917F916F915F914F913F917C
:102420002F910F900FBE0F901F9018950F931F9331
:10243000CF93DF93EC018B0188819981DC01ED91D1
:10244000FC916F770190F081E02D09958881998149
:10245000DC01ED91FC91B801660F672F661F770BC9
:102460006F770190F081E02DDF91CF911F910F9157
:102470000994DC018D919C91DC01ED91FC9101901E
:10248000F081E02D60EF0994DC018D919C91DC01DD
:10249000ED91FC910190F081E02D67EF0994CF93CD
:1024A000DF93EC0188819981DC01ED91FC91019031
:1024B000F081E02D69EF099588819981DC01ED912A
:1024C000FC910190F081E02D62E00995888199816D
:1024D000DC01ED91FC910190F081E02D64E0DF9151
:1024E000CF9109941F93CF93DF93EC018A818823C6
:1024F000D9F1CE010E94391288819981DC01ED91D8
:10250000FC910190F081E02D69E70995888199811E
:10251000DC01ED91FC91AB81BC810190F081E02D5B
:102520006C91099588819981DC01ED91FC91AB81D9
:10253000BC810190F081E02D11966C91099512E01B
:102540008A81181758F4EB81FC81E10FF11D60813D
:1025500070E0CE010E9416121F5FF2CFCE01DF9114
:10256000CF911F910C944412DF91CF911F91089548
:10257000CF92DF92EF92FF920F931F93CF93DF934F
:102580008C01EB01C42ED22E66E273E0CE010E94D4
:1025900078247C016FE270E0CE010E946D240097E8
:1025A00039F46CE570E0CE010E946D24009711F0C3
:1025B000EC012196E114F10451F4FE010190002098
:1025C000E9F7EC1BEF5FD8011296EC9306C0EC1A0A
:1025D000FD0AE394E394F801E282D80113968D9109
:1025E0009C9114970E94F522F801E280F12CC7011A
:1025F00001960E945D22D80114969C938E931397A6
:10260000FC01EE0DFF1D1082FC01C082D1821296EA
:102610004C9150E042505109BE010296DF91CF919A
:102620001F910F91FF90EF90DF90CF900C945E245C
:10263000DC018D919C91DC01ED91FC910480F58190
:10264000E02D09940F931F93CF93DF93FC01208516
:10265000213749F0293709F049C0DF91CF911F9107
:102660000F910C947212FC01E95AFF4F0190F08116
:10267000E02D309709F450C0DC01A75BBF4F4D91AE
:102680005C919A012150310937FD9A01B901759584
:102690006795062F40E050E020E030E04E5F5F4F4E
:1026A0002017A0F4EC01C40FD51F1F81DC01A20F7D
:1026B000B31F18961C931897C885D0E8CD9F1019A2
:1026C000112418961C932F5F3F4FE8CFDC01A60F13
:1026D000B11D17962C911797222311F018961C9272
:1026E0000896DF91CF911F910F910994FC01E75A51
:1026F000FF4F0190F081E02D309771F0AC01475F02
:102700005F4FDC01A75BBF4F6C916150822FDF915F
:10271000CF911F910F910994DF91CF911F910F914C
:1027200008950F931F93CF93DF93EC018A01888163
:102730009981DC01ED91FC916F70606E0190F081E8
:10274000E02D0995B801CE01DF91CF911F910F9136
:102750000C9416120F931F93CF93DF93EC018A0111
:1027600088819981DC01ED91FC916F706069019025
:10277000F081E02D099588819981DC01ED91FC9132
:10278000602F6F770190F081E02D09958881998104
:10279000DC01ED91FC91B801660F672F661F770B86
:1027A0000190F081E02DDF91CF911F910F9109945D
:1027B000CF92DF92EF92FF920F931F93CF93DF930D
:1027C00000D01F92CDB7DEB78C01F42E2A833B8355
:1027D00069830E943912D8018D919C91DC01ED91A1
:1027E000FC910190F081E02D698109952A81E22E0A
:1027F000C22E3B81D32E8C2D8E198F1540F4F601FD
:1028000061916F0170E0C8010E941612F4CFC801F7
:102810000F900F900F90DF91CF911F910F91FF902C
:10282000EF90DF90CF900C9444129A01FA0101903E
:102830000020E9F73197E41BF50B4E2F0C94D813C9
:10284000AB0161E70C941514DC018D919C91DC01C6
:10285000ED91FC910190F081E02D0994603DB9F07B
:1028600028F4603961F0603C71F00895603E19F021
:10287000643F89F00895FC01E55BFF4F0FC0FC0148
:10288000E35BFF4F0BC0FC01E15BFF4F07C0FC01A6
:10289000EF5AFF4F03C0FC01ED5AFF4F51834083B5
:1028A00008956F3F29F4FC01EB5AFF4F5183408399
:1028B0000895875A9F4FFC01518340830895FC017E
:1028C00015821682178280E090E0DF01A80FB91F01
:1028D00018961C92019680349105B9F7DF01A85B28
:1028E000BF4F1C9211961D921C92EB5AFF4F019004
:1028F000F081E02D309709F009940895FC011282CF
:10290000148213820C945F14CF93DF93EC018881BF
:102910009981DC01ED91FC910680F781E02D09950C
:10292000FE01E85BFF4F20812223B1F0873F910534
:1029300031F41082CE01DF91CF910C942213FE016D
:10294000E75BFF4F20813181C20FD31F88872F5F44
:102950003F4F318320839DC02D81222309F45EC027
:10296000803891050CF05AC09FEF920F9D83FE01B5
:10297000E90FF11D808791118CC08E81882309F4A5
:1029800088C0803DE9F148F48039E9F0803C09F0E5
:1029900043C0FE01E15BFF4F36C0803E19F0843F2B
:1029A00019F13AC0FE01E55BFF4F0190F081E02D87
:1029B000309791F18885698570E0B0E88B9F600D54
:1029C000711D112427C0FE01E35BFF4F0190F081D0
:1029D000E02D309709F18885698570E090E8899F3E
:1029E000600D711D112416C0FE01ED5AFF4F0190BC
:1029F000F081E02D309781F0688570E089850BC00B
:102A0000FE01EF5AFF4F0190F081E02D309721F049
:102A1000688570E08F8109951E823BC0803F9105DB
:102A20002CF4282F2F702F83807F9927803E9105CB
:102A300021F154F4803C910511F1803D9105F9F0AC
:102A40008039910531F519C0843F9105B1F054F4F6
:102A5000803F9105F1F481E08083C75BDF4F1982ED
:102A6000188217C0893F910571F08F3F910589F455
:102A7000CE01DF91CF910C945F1492E001C091E000
:102A80009D838E8306C08EE695E0DF91CF910C94F6
:102A90004F12DF91CF9108958F929F92AF92BF9284
:102AA000CF92DF92EF92FF921F93CF93DF93EB01D0
:102AB0004A01690161E08DE00E94601B10E0EE2494
:102AC000D7FCE094FE2CAA2497FCA094BA2C812F6A
:102AD00090E08C179D0794F4C701B6010E943B1A41
:102AE00061E08DE00E94991BC501B4010E943B1A70
:102AF00060E08DE00E94991B1F5FE9CFDF91CF91CD
:102B00001F91FF90EF90DF90CF90BF90AF909F907C
:102B10008F900895CF93DF93EC0161E08DE00E94E8
:102B2000601B22ED30E048E250E062E070E0CE0150
:102B30000E944C156AEF70E080E090E00E943B1A22
:102B400022ED30E048E250E064E070E0CE010E9407
:102B50004C156DE770E080E090E0DF91CF910C9430
:102B60003B1ACF93DF93EC0126E086ED95E00E94BF
:102B7000B21C86ED95E099838883CE010E948A1568
:102B8000CE010E944F12CE01DF91CF910C947212B0
:102B90008EE695E00C947E14CF93DF93DC0170E019
:102BA000FB01E855FF4FE4911496EC931497842FA2
:102BB00090E0FC01E855FF4FE4911596EC931597D2
:102BC00064547F4FFB01C491D0E0CC0FDD1FC6528F
:102BD000DF4FFE014591549117965C934E931697E3
:102BE000FC01E454FF4F849190E0880F991F8053BB
:102BF0009F4FFC01459154911B965C934E931A97FD
:102C0000FB016491E62FF0E0EE0FFF1FEC51FF4F48
:102C10008591949119969C938E931897C901253F9D
:102C2000F1E03F0714F084EF91E049E3489F900101
:102C3000499F300D1124245E3F4F1D963C932E93E7
:102C40001C97DF91CF9108950F931F93CF93DF933C
:102C5000EC01E885F98580819C81892B8083EE8158
:102C6000FF8190818C8180958923808384E090E02E
:102C70000E94751AEE81FF8180819C81892B80835F
:102C80008AE090E00E94751AEE81FF8190818C812C
:102C9000809589238083E885F98590818C81809552
:102CA000892380830E94181A605B794B8F4F9F4F56
:102CB0006E877F87888B998BEA85FB8580819D81D4
:102CC000892359F00E94181A0E851F852889398991
:102CD000061717072807390778F7EA85FB858081EB
:102CE0009D81892369F40E94181A0E851F85288901
:102CF0003989061717072807390778F780E00DC0CC
:102D00000E94181A2C853D85620F731F811D911D2D
:102D10006E877F87888B998B81E0DF91CF911F91A0
:102D20000F9108950F931F93CF93DF93EC010E94AF
:102D30002416882389F0EA85FB8580819D8189237B
:102D400071F00E94181A0E851F8528893989061787
:102D500017072807390778F720E030E00CC00E94F9
:102D6000181A2C853D85255031094E855F85241B19
:102D7000350B260F371FC901DF91CF911F910F919E
:102D80000895CF93DF93EC01842F1B861A86198256
:102D900018821E8A1F8A188E198E7F836E834C8735
:102DA0005D873F872E8761E00E94601B61E08E8512
:102DB0000E94601B198A188A1B8A1A8A1D8A1C8A1B
:102DC00082E090E099878887DF91CF910895EF9214
:102DD000FF920F931F93CF93DF93EC01842F1B86F9
:102DE0001A86198218821E8A1F8A188E198E7F836E
:102DF0006E834C875D873F872E87198B088BFB8AF4
:102E0000EA8A61E00E94601B61E08E850E94601B7F
:102E100061E088890E94601B61E08A890E94601BD2
:102E20001D8A1C8A84E090E099878887DF91CF9182
:102E30001F910F91FF90EF900895CF92DF92EF9244
:102E4000FF92CF93DF93EC016A017B012E813F81DA
:102E5000442737FD4095542F60E077E883E993E0FD
:102E60000E941E22CA01B901A70196010E941E22DA
:102E70002A833B834C835D83DF91CF91FF90EF905A
:102E8000DF90CF9008950F931F93CF93DF93EC01C2
:102E90008B01888599850297F9F46130710571F08D
:102EA0002CF461157105C1F460E009C06230710550
:102EB00059F06330710581F460E007C061E08C85F2
:102EC0000E94991B61E005C061E08C850E94991BFE
:102ED00060E08E850E94991B888599850497B9F5D5
:102EE00001301105B1F04CF40115110581F561E0D7
:102EF0008C850E94991B60E011C002301105B9F069
:102F00000330110521F561E08C850E94991B60E07A
:102F100013C060E08C850E94991B61E08E850E9441
:102F2000991B61E088890E94991B60E00DC060E0F8
:102F30008C850E94991B61E08E850E94991B60E040
:102F400088890E94991B61E08A890E94991B888563
:102F50009985059709F073C00A30110508F06FC014
:102F6000F801E05CFF4F0C943D2260E08C850E94EC
:102F7000991B61E051C060E08C850E94991B61E063
:102F80008E850E94991B60E04BC060E08C850E949A
:102F9000991B61E08E850E94991B60E088890E94E0
:102FA000991B61E041C060E001C061E08C850E9436
:102FB000991B61E005C061E08C850E94991B60E06F
:102FC0008E850E94991B60E009C061E08C850E949B
:102FD000991B60E08E850E94991B61E088890E94A0
:102FE000991B61E00DC061E08C850E94991B60E037
:102FF0008E850E94991B61E088890E94991B60E080
:103000008A890E94991B60E013C061E001C060E002
:103010008C850E94991B60E08E850E94991B61E05F
:1030200088890E94991B60E08A890E94991B61E04F
:103030008C89DF91CF911F910F910C94991BDF9197
:10304000CF911F910F9108954F925F926F927F924F
:103050008F929F92AF92BF92CF92DF92EF92FF92A8
:103060000F931F93CF93DF93EC01CB0177FF04C045
:1030700088279927861B970B6C01161617062CF4C8
:1030800081E090E09983888304C0672B11F0198256
:10309000188204E010E08AE0E82EF12CC114D1047B
:1030A00009F44AC00E94181A8E889F88A88CB98C8F
:1030B0002B013C01481859086A087B088A809B80CC
:1030C000AC80BD80481459046A047B0458F36E8BAD
:1030D0007F8B888F998F288139818A859B852130C4
:1030E000310559F401969B878A872E813F8182178B
:1030F000930771F41B861A860BC0892B21F48E81ED
:103100009F819B878A878A859B8501979B878A8772
:1031100081E0C81AD108288539858A859B852530A4
:10312000310511F4B70101C0B8010E94E821BC01CA
:10313000CE010E944317B2CFDF91CF911F910F9123
:10314000FF90EF90DF90CF90BF90AF909F908F90C7
:103150007F906F905F904F90089585E090E0089584
:10316000FC01A281B3812C919581922387818223D6
:10317000992361F0882379F08085882321F0818567
:103180009285890F8187108612860895811103C068
:1031900081E0808708952085211108C0992311F0CE
:1031A00081E003C0882311F08FEF82870895833078
:1031B00081F028F4813099F08230A1F008958730B1
:1031C000A9F08830B9F08430D1F4809180008F7DEF
:1031D00003C0809180008F7780938000089584B52C
:1031E0008F7702C084B58F7D84BD08958091B00033
:1031F0008F7703C08091B0008F7D8093B0000895D9
:103200001F93CF93DF93EC01862F142F41E050E002
:10321000BE010E94050241E050E0BE01812FDF9116
:10322000CF911F910C940502CF93DF93EC016B8734
:103230004C832E83421709F475C0483018F42830A7
:1032400008F070C088EF840F863020F428502630B4
:1032500060F068C04E3030F02E3008F463C0443166
:1032600008F060C0243108F05DC018861986A0916E
:10327000CB05B091CC05109729F4D093CC05C09321
:10328000CB050CC01C968D919C911D97009711F059
:10329000DC01F8CF1D96DC93CE931C971D861C860F
:1032A00050E0FA01E454FF4FE491F0E0EE0FFF1F0D
:1032B000E053FF4F859194919B838A83892B09F476
:1032C00031C0FA01E855FF4FE491ED83FA01EC5665
:1032D000FF4F849181110E94D7188E8190E0FC01EC
:1032E000E855FF4FE491EF83FC01EC56FF4F8491CA
:1032F00081110E94D71860E08C810E94601B60E001
:103300008E810E94601B61E08C810E94991B61E0AC
:103310008E810E94991B4E816C81CE01DF91CF91ED
:103320000C940019DF91CF9108959091CB05809175
:10333000CC059093C9058093CA05E92FF82F3097E3
:1033400069F08185882331F0F093CA05E093C905BF
:10335000CF0108950484F585E02DF1CF1092CA05C0
:103360001092C90580E090E00895FC01818587FFF7
:1033700003C091E0980F91879185191614F491502C
:10338000918708951F920F920FB60F9211242F93D9
:103390003F938F939F93AF93BF938091CE0590916E
:1033A000CF05A091D005B091D1053091CD0523E096
:1033B000230F2D3720F40196A11DB11D05C026E86D
:1033C000230F0296A11DB11D2093CD058093CE053C
:1033D0009093CF05A093D005B093D1058091D205ED
:1033E0009091D305A091D405B091D5050196A11D6A
:1033F000B11D8093D2059093D305A093D405B093CB
:10340000D505BF91AF919F918F913F912F910F90D3
:103410000FBE0F901F9018952FB7F8946091CE05AE
:103420007091CF058091D0059091D1052FBF08955F
:103430003FB7F8948091D2059091D305A091D4051F
:10344000B091D50526B5A89B05C02F3F19F0019670
:10345000A11DB11D3FBF6627782F892F9A2F620FBC
:10346000711D811D911D42E0660F771F881F991FF6
:103470004A95D1F708958F929F92AF92BF92CF92C3
:10348000DF92EF92FF926B017C010E94181A4B01B0
:103490005C01C114D104E104F104F1F00E94B721F0
:1034A0000E94181A681979098A099B09683E7340B5
:1034B0008105910570F321E0C21AD108E108F108F5
:1034C00088EE880E83E0981EA11CB11CC114D104A3
:1034D000E104F10429F7DDCFFF90EF90DF90CF906A
:1034E000BF90AF909F908F9008958230910538F0F3
:1034F000880F991F880F991F05970197F1F7089575
:10350000789484B5826084BD84B5816084BD85B5BE
:10351000826085BD85B5816085BDEEE6F0E0808185
:1035200081608083E1E8F0E01082808182608083A6
:10353000808181608083E0E8F0E080818160808329
:10354000E1EBF0E0808184608083E0EBF0E080815B
:1035500081608083EAE7F0E08081846080838081FD
:1035600082608083808181608083808180688083A5
:103570001092C10008958E3008F08E50877020910F
:103580000E0190E4299F90011124822B80937C00EE
:1035900080917A00806480937A0080917A0086FD21
:1035A000FCCF809178002091790090E0922B0895D3
:1035B0001F93CF93DF93182FEB0161E00E94601BF4
:1035C000209711F460E004C0CF3FD10539F461E0E9
:1035D000812FDF91CF911F910C94991BE12FF0E087
:1035E000EC56FF4FE491E330F9F048F4E130B9F0E4
:1035F000E230A1F584B5806284BDC8BD34C0E73037
:10360000E9F0E83019F1E43049F5809180008062FA
:1036100080938000D0938B00C0938A0024C084B52F
:10362000806884BDC7BD1FC0809180008068809382
:103630008000D0938900C093880015C08091B000AD
:1036400080688093B000C093B3000DC08091B0003B
:1036500080628093B000C093B40005C0C038D1052B
:103660000CF0B5CFAFCFDF91CF911F91089583308C
:1036700081F028F4813099F08230A1F008958730EC
:10368000A9F08830B9F08430D1F4809180008F7D2A
:1036900003C0809180008F7780938000089584B567
:1036A0008F7702C084B58F7D84BD08958091B0006E
:1036B0008F7703C08091B0008F7D8093B000089514
:1036C000CF93DF9390E0FC01E855FF4F2491FC017C
:1036D000E454FF4F8491882349F190E0880F991FAB
:1036E000FC01EC51FF4FA591B49186529F4FFC0114
:1036F000C591D4919FB7611108C0F8948C91209521
:1037000082238C93888182230AC0623051F4F8941A
:103710008C91322F309583238C938881822B8883E0
:1037200004C0F8948C91822B8C939FBFDF91CF9132
:1037300008950F931F93CF93DF931F92CDB7DEB7FA
:10374000282F30E0F901EC56FF4F8491F901E8553C
:10375000FF4F1491F901E454FF4F04910023C9F085
:10376000882321F069830E94371B6981E02FF0E0F4
:10377000EE0FFF1FE652FF4FA591B4919FB7F8944B
:103780008C91611103C01095812301C0812B8C9312
:103790009FBF0F90DF91CF911F910F910895FC0172
:1037A000818D228D90E0805C9F4F821B91098F73E9
:1037B00099270895FC01918D828D981731F0828DA3
:1037C000E80FF11D858D90E008958FEF9FEF08952C
:1037D000FC01918D828D981761F0828DDF01A80F19
:1037E000B11D5D968C91928D9F5F9F73928F90E03B
:1037F00008958FEF9FEF08958CE69DE1892B49F0A6
:1038000080E090E0892B29F00E946C1D81110C94BE
:1038100000000895FC01848DDF01A80FB11DA35A9B
:10382000BF4F2C91848D90E001968F739927848FE0
:10383000A689B7892C93A089B1898C9180648C93D7
:10384000938D848D981306C00288F389E02D8081C2
:103850008F7D80830895CF93DF93EC01888D88233B
:10386000C9F0EA89FB89808185FD05C0A889B989ED
:103870008C9186FD0FC00FB607FCF5CF808185FFC8
:10388000F2CFA889B9898C9185FFEDCFCE010E9436
:103890000A1CE7CFDF91CF910895CF92DF92FF927C
:1038A0000F931F93CF93DF931F92CDB7DEB76C01B9
:1038B00081E0D60158968C9358975B969C915B97C4
:1038C0005C968C915C97981307C05096ED91FC9193
:1038D0005197808185FD2EC0F601038D10E00F5FAA
:1038E0001F4F0F731127F02EF601848DF81211C0AF
:1038F0000FB607FCF9CFD6015096ED91FC91519788
:10390000808185FFF1CFC60169830E940A1C69810D
:10391000EBCF838DE80FF11DE35AFF4F6083D60193
:103920005B960C935B975296ED91FC915397808137
:1039300080620CC0D6015696ED91FC91579760833A
:103940005096ED91FC91519780818064808381E055
:1039500090E00F90DF91CF911F910F91FF90DF903A
:10396000CF900895BF92CF92DF92EF92FF92CF93C4
:10397000DF93EC016A017B01B22EE889F98982E0CC
:103980008083411581EE580761057105A1F060E063
:1039900079E08DE390E0A70196010E94FC2121507F
:1039A00031094109510956954795379527952115B4
:1039B00080E1380798F0E889F989108260E874E8B6
:1039C0008EE190E0A70196010E94FC21215031096F
:1039D000410951095695479537952795EC85FD8501
:1039E0003083EE85FF852083188EEC89FD89B082B7
:1039F000EA89FB89808180618083EA89FB898081F3
:103A000088608083EA89FB89808180688083EA8975
:103A1000FB8980818F7D8083DF91CF91FF90EF9034
:103A2000DF90CF90BF9008951F920F920FB60F9224
:103A300011242F938F939F93EF93FF93E091E605CB
:103A4000F091E7058081E091EC05F091ED0582FDB4
:103A500012C090818091EF058F5F8F732091F005E8
:103A6000821751F0E091EF05F0E0EA52FA4F958F9E
:103A70008093EF0501C08081FF91EF919F918F911D
:103A80002F910F900FBE0F901F9018951F920F92BD
:103A90000FB60F9211242F933F934F935F936F9321
:103AA0007F938F939F93AF93BF93EF93FF9386ED95
:103AB00095E00E940A1CFF91EF91BF91AF919F91F9
:103AC0008F917F916F915F914F913F912F910F90C7
:103AD0000FBE0F901F90189586ED95E00E94CF1BAA
:103AE00021E0892B09F420E0822F08951092D90556
:103AF0001092D80588EE93E0A0E0B0E08093DA055C
:103B00009093DB05A093DC05B093DD0585E393E09E
:103B10009093D7058093D60585EC90E09093E305CC
:103B20008093E20584EC90E09093E5058093E405B2
:103B300080EC90E09093E7058093E60581EC90E0BF
:103B40009093E9058093E80582EC90E09093EB0573
:103B50008093EA0586EC90E09093ED058093EC0568
:103B60001092EF051092F0051092F1051092F205F7
:103B70000895CF92DF92EF92FF920F931F93CF930E
:103B8000DF937C016A01EB0100E010E00C151D05DC
:103B900071F06991D701ED91FC910190F081E02DD8
:103BA000C7010995892B19F00F5F1F4FEFCFC8018F
:103BB000DF91CF911F910F91FF90EF90DF90CF9009
:103BC00008953F924F925F926F927F928F929F9251
:103BD000AF92BF92CF92DF92EF92FF920F931F931B
:103BE000CF93DF9300D000D0CDB7DEB78B01290192
:103BF0003A0190910F01981721F09F3F09F0DAC127
:103C000004C0EEEEF0E0349081C080930F01EEEE40
:103C1000F0E0E491EF3F09F4CDC1E13031F1E23061
:103C200009F44BC0E11171C014BC15BC94B592608D
:103C300094BD95B5916095BD282F30E0F901E4540D
:103C4000FF4FE491F0E0EE0FFF1FE652FF4F45916A
:103C500054915093830640938206F901E855FF4F33
:103C6000249120938106312C53C010928000109231
:103C700081009091810098609093810090918100E3
:103C8000916090938100282F30E0F901E454FF4FB8
:103C9000E491F0E0EE0FFF1FE652FF4F4591549183
:103CA00050937C0640937B06F901E855FF4F249121
:103CB00020937A06332433942BC01092B0001092D4
:103CC000B1009091B00092609093B0009091B100DB
:103CD00091609093B100282F30E0F901E454FF4F38
:103CE000E491F0E0EE0FFF1FE652FF4F4591549133
:103CF0005093750640937406F901E855FF4F2491DF
:103D00002093730652E0352E03C03E2E37FC52C17D
:103D100061E00E94601B4801A12CB12C832D8D7F96
:103D200009F0C7C060E072E18AE790E0A501940164
:103D30000E941E2229833A834B835C8369017A01A6
:103D400081E0C81AD108E108F1089FEFC916D10433
:103D5000E104F10409F008F49AC060E472E48FE031
:103D600090E0A50194010E941E2269017A01E1E020
:103D7000CE1AD108E108F108F2E03F1219C08FEF26
:103D8000C816D104E104F10409F008F48AC060E91E
:103D900070ED83E090E0A50194010E941E2269016C
:103DA0007A0191E0C91AD108E108F10883E001C065
:103DB00082E0EFEFCE16D104E104F10409F008F43B
:103DC00067C068E478EE81E090E0A50194010E946C
:103DD0001E2269017A01F1E0CF1AD108E108F10849
:103DE0003320E1F082E038121BC09FEFC916D104E6
:103DF000E104F10409F008F4DBC064E274EF80E050
:103E000090E0A50194010E941E2269017A01E1E07F
:103E1000CE1AD108E108F10885E003C083E001C0B3
:103E200084E0FFEFCF16D104E104F10489F180F1C1
:103E300062E17AE780E090E0A50194010E941E22F1
:103E400069017A0181E0C81AD108E108F10831104E
:103E500002C084E001C086E09FEFC916D104E104EE
:103E6000F104B1F0A8F0C980DA80EB80FC809AE020
:103E7000F594E794D794C7949A95D1F7E1E0CE1AD8
:103E8000D108E108F108332031F087E00BC081E070
:103E9000332011F007C085E095B5987F982B95BD2C
:103EA00038C082E09091B100987F982B9093B10038
:103EB00030C060E072E18AE790E0A50194010E94C1
:103EC0001E2269017A01F1E0CF1AD108E108F10858
:103ED000C114D10481E0E806F10488F068E478EECA
:103EE00081E090E0A50194010E941E2269017A01FF
:103EF00091E0C91AD108E108F10893E001C091E00E
:103F0000E1E03E1206C080918100887F892B80937A
:103F10008100411451046104710471F0D801AA0FA9
:103F2000BB1FA30192010E94432228EE33E040E030
:103F300050E00E94FC2103C02FEF3FEFA901F1E008
:103F40003F16A1F082E0381619F1311033C0C7BC1A
:103F50002093840630938506409386065093870607
:103F600080916E00826080936E0024C0D0928900A0
:103F7000C092880020937D0630937E0640937F0692
:103F80005093800680916F00826080936F0012C012
:103F9000C092B3002093760630937706409378065C
:103FA000509379068091700082608093700002C007
:103FB00084E078CF0F900F900F900F90DF91CF910A
:103FC0001F910F91FF90EF90DF90CF90BF90AF9037
:103FD0009F908F907F906F905F904F903F9008954B
:103FE000813039F018F0823051F0089510926E004F
:103FF000089580916F008D7F80936F000895809168
:1040000070008D7F8093700081E08093B00080917C
:10401000B100887F84608093B1001092B30008954E
:10402000CF93C82F80910F018C1307C0EEEEF0E004
:1040300084919FEF90930F0101C08FEF0E94F01FBA
:1040400060E08C2FCF910C94991B1F920F920FB6AA
:104050000F9211242F933F934F935F936F937F930E
:104060008F939F93AF93BF93EF93FF9380917606C7
:1040700090917706A0917806B0917906892B8A2BCA
:104080008B2B51F190917306E0917406F0917506B7
:104090008081892780838091760690917706A09110
:1040A0007806B0917906181619061A061B06C4F48C
:1040B0008091760690917706A0917806B091790666
:1040C0000197A109B1098093760690937706A09392
:1040D0007806B093790604C080910F010E941020E9
:1040E000FF91EF91BF91AF919F918F917F916F91D0
:1040F0005F914F913F912F910F900FBE0F901F90A6
:1041000018954F925F926F927F92AF92BF92CF922B
:10411000DF92EF92FF920F931F93CF93DF93CDB770
:10412000DEB729013A01621B730B840B950B2989B9
:104130003A894B895C892A193B094C095D09298B0D
:104140003A8B4B8B5C8B9B01AC0169897A898B899B
:104150009C890E94B821E418F50806091709A801EE
:1041600097010E941E222A0D3B1D4C1D5D1DCA0198
:10417000B901DF91CF911F910F91FF90EF90DF90E8
:10418000CF90BF90AF907F906F905F904F900895C9
:10419000FC01808191810C94F522CF93DF93EC0197
:1041A00088819981009711F00E94F5221982188266
:1041B0001D821C821B821A82DF91CF9108950F937A
:1041C0001F93CF93DF93EC018B016F5F7F4F88814B
:1041D00099810E948423009731F0998388831B83FF
:1041E0000A8381E001C080E0DF91CF911F910F91A0
:1041F0000895CF93DF93EC0188819981892B29F071
:104200008A819B818617970760F4CE010E94DF2088
:10421000882341F08C819D81892B19F4E881F981F3
:10422000108281E0DF91CF910895EF92FF920F937A
:104230001F93CF93DF93EC017B018A01BA010E94A7
:10424000F920811104C0CE010E94CD2007C01D833A
:104250000C83B701888199810E945724CE01DF9198
:10426000CF911F910F91FF90EF900895CF93DF931F
:10427000EC016115710561F0FB0101900020E9F787
:10428000AF0141505109461B570B0E94152102C036
:104290000E94CD20CE01DF91CF9108950F931F93FF
:1042A000CF93DF93CDB7DEB7A2970FB6F894DEBFFA
:1042B0000FBECDBF8C01CB01BA01F8011182108273
:1042C000138212821582148230E0AE014F5F5F4F7D
:1042D0000E949224BE016F5F7F4FC8010E94362169
:1042E000A2960FB6F894DEBF0FBECDBFDF91CF917F
:1042F0001F910F9108950F931F93CF93DF93EB01BD
:1043000041155105E9F02097D9F0FC0164817581D0
:1043100026173707A0F4621B730B8A01015011099D
:104320006017710708F48B01FC0160817181620FD5
:10433000731FA801CE010E945E24C00FD11F1882F6
:10434000DF91CF911F910F91089508950E94801AD7
:104350000E94A5210E949505CCEFDBE10E94240B71
:104360002097E1F30E94FC1BF9CF0C945D22089585
:10437000DB018F939F930E944322BF91AF91A29F35
:10438000800D911DA39F900DB29F900D1124089553
:10439000991B79E004C0991F961708F0961B881F97
:1043A0007A95C9F780950895AA1BBB1B51E107C0F8
:1043B000AA1FBB1FA617B70710F0A61BB70B881FB5
:1043C000991F5A95A9F780959095BC01CD01089544
:1043D00097FB072E16F4009407D077FD09D00E94B2
:1043E000D42107FC05D03EF4909581959F4F089508
:1043F000709561957F4F0895A1E21A2EAA1BBB1BF1
:10440000FD010DC0AA1FBB1FEE1FFF1FA217B307A0
:10441000E407F50720F0A21BB30BE40BF50B661FB6
:10442000771F881F991F1A9469F76095709580957A
:1044300090959B01AC01BD01CF010895052E97FB1E
:104440001EF400940E94352257FD07D00E94FC21E3
:1044500007FC03D04EF40C943522509540953095CE
:1044600021953F4F4F4F5F4F0895909580957095E0
:1044700061957F4F8F4F9F4F0895EE0FFF1F05905F
:10448000F491E02D09940E944E22A59F900DB49FB7
:10449000900DA49F800D911D11240895A29FB0013D
:1044A000B39FC001A39F700D811D1124911DB29F68
:1044B000700D811D1124911D0895CF93DF938230DB
:1044C000910510F482E090E0E0918A06F0918B066D
:1044D00020E030E0A0E0B0E0309739F14081518138
:1044E00048175907B8F04817590771F4828193812A
:1044F000109729F013969C938E9312972CC090934B
:104500008B0680938A0627C02115310531F04217AA
:10451000530718F0A901DB0101C0EF019A01BD01A9
:10452000DF010280F381E02DD7CF21153105F9F0AD
:10453000281B390B2430310580F48A819B81611559
:10454000710521F0FB019383828304C090938B0655
:1045500080938A06FE01329644C0FE01E20FF31FEB
:104560008193919322503109398328833AC0209155
:10457000880630918906232B41F420910201309165
:104580000301309389062093880620910001309121
:1045900001012115310541F42DB73EB740910401C9
:1045A00050910501241B350BE0918806F091890696
:1045B000E217F307A0F42E1B3F0B2817390778F0FA
:1045C000AC014E5F5F4F2417350748F04E0F5F1F59
:1045D00050938906409388068193919302C0E0E04E
:1045E000F0E0CF01DF91CF910895CF93DF93009753
:1045F00009F487C0FC01329713821282C0918A06A7
:10460000D0918B06209781F420813181280F391FAA
:1046100080918806909189068217930779F5F09327
:104620008906E09388066DC0DE0120E030E0AE1719
:10463000BF0750F412964D915C9113979D0141155F
:10464000510509F1DA01F3CFB383A283408151818F
:10465000840F951F8A179B0771F48D919C91119778
:10466000840F951F02969183808312968D919C9161
:104670001397938382832115310529F4F0938B06D8
:10468000E0938A063EC0D9011396FC93EE931297ED
:104690004D915D91A40FB51FEA17FB0779F4808156
:1046A0009181840F951F0296D90111969C938E9348
:1046B0008281938113969C938E931297E0E0F0E0B1
:1046C0008A819B81009719F0FE01EC01F9CFCE01A0
:1046D000029628813981820F931F2091880630919C
:1046E00089062817390769F4309729F410928B0648
:1046F00010928A0602C013821282D0938906C09358
:104700008806DF91CF910895A0E0B0E0EAE8F3E2F7
:104710000C94E224EC01CB01209719F40E945D2255
:10472000B8C0FE01E60FF71F9E0122503109E217C3
:10473000F30708F4ACC0D9010D911C91119706172D
:104740001707B8F00530110508F49FC0A8014450C0
:1047500051094617570708F498C002501109061B63
:10476000170B019311936D937C93CF010E94F52257
:104770008CC05B01A01AB10A4E01800E911EA0915F
:104780008A06B0918B06612C712C60E070E0109766
:1047900009F449C0A815B905C9F5ED90FC90119729
:1047A000670142E0C40ED11CCA14DB0478F1470152
:1047B0008A189B08640142E0C40ED11C1296BC907A
:1047C00012971396AC91B5E0CB16D10440F0B282AB
:1047D000A38391828082D9018D939C9309C00E5F3F
:1047E0001F4F0E0D1F1DF90111830083EB2DFA2FB2
:1047F0006115710531F0DB011396FC93EE9312976E
:1048000044C0F0938B06E0938A063FC06D917C9183
:1048100011976616770608F43B01BD0112960D90BC
:10482000BC91A02DB4CF609188067091890668155F
:104830007905E9F468167906D0F4409100015091A9
:1048400001014115510541F44DB75EB76091040176
:1048500070910501461B570BE417F507C0F4F09360
:104860008906E0938806F901918380830EC00E9437
:104870005D227C01009759F0A801BE010E944E24E0
:10488000CE010E94F522C70104C0CE0102C080E023
:1048900090E0CDB7DEB7EEE00C94FE24FB01DC0126
:1048A00002C001900D9241505040D8F70895FB018D
:1048B000DC0101900D920020E1F70895FB01DC017D
:1048C0004150504048F001900D920020C9F701C0BE
:1048D0001D9241505040E0F70895FC0181E090E0C6
:1048E0000190061609F4CF010020D1F70197089531
:1048F000FB0151915523A9F0BF01DC014D914517F2
:104900004111E1F759F4CD010190002049F04D919A
:1049100040154111C9F3FB014111EFCF81E090E057
:10492000019708952532310520F4223010F00C94BF
:104930009D24FA011082CA010895BB272A3051F440
:10494000992342F4BDE290958095709561957F4FD3
:104950008F4F9F4F0C94AD24BB27FA01A62F6217EF
:10496000710581059105330B30FB66F0AA27660FB0
:10497000771F881F991FAA1FA21710F0A21B63950B
:104980003850A9F7A05DAA3308F0A95DA19336F7C6
:10499000B111B1931082CA010C94CE24DC01FC0148
:1049A000672F71917723E1F7329704C07C916D9363
:1049B00070836291AE17BF07C8F308952F923F929C
:1049C0004F925F926F927F928F929F92AF92BF921F
:1049D000CF92DF92EF92FF920F931F93CF93DF93CB
:1049E000CDB7DEB7CA1BDB0B0FB6F894DEBF0FBE28
:1049F000CDBF09942A88398848885F846E847D8475
:104A00008C849B84AA84B984C884DF80EE80FD8076
:104A10000C811B81AA81B981CE0FD11D0FB6F894EC
:0E4A2000DEBF0FBECDBFED010895F894FFCFAD
:104A2E0000008C0680000100000021FF130001FF32
:104A3E004D617820736572766F7320617474616353
:104A4E0068656400556E6B6E6F776E2070696E20B0
:104A5E006D6F646500533A5C506572736F5C4769A5
:104A6E00744875625C746563686E6F6C6F676965B8
:104A7E00735C61726475696E6F5C706572736F5C86
:104A8E00312E426C6F636B6C7940726475696E6F18
:104A9E005C50794D6174612D61696F2D4669726D3F
:104AAE00617461506C75735C50794D6174612D61E8
:104ABE00696F2D4669726D617461506C75732E69E4
:104ACE006E6F004932433A20546F6F206D616E79DC
:104ADE00206279746573207265636569766564001A
:104AEE004932433A20546F6F20666577206279749D
:104AFE0065732072656365697665640031302D6279
:104B0E0069742061646472657373696E67206E6F79
:104B1E007420737570706F7274656400746F6F209B
:104B2E006D616E7920717565726965730050494EBD
:104B3E00475F434F4E464947204572726F723A2087
:104B4E004578636565646564206E756D6265722077
:104B5E006F6620737570706F727465642070696E05
:104B6E0067206465766963657300535445505045FC
:104B7E005220434F4E464947204572726F723A207B
:104B8E0057726F6E67204E756D626572206F66206C
:104B9E00617267756D656E74730053544550504560
:104BAE0052204F504552415445204572726F723A11
:104BBE00204D4F544F52204E4F5420434F4E464996
:104BCE00475552454400535445505045522046498E
:104BDE00524D574152452056455253494F4E20454E
:104BEE0072726F723A204E4F204D4F544F525320D7
:104BFE00434F4E4649475552454400535445505035
:104C0E00455220434F4E464947204572726F723AC5
:104C1E0020554E4B4E4F574E2053544550504552F3
:104C2E0020434F4D4D414E440061726763203D005D
:104C3E007D047304690400000000320F050FDA0EC4
:104C4E00E20EF50E040F2E6370700000000000B02F
:104C5E0018000000004D1CB91DCF1BE81BDA1B2BE2
:024C6E001C0028
:00000001FF
