:100000000C941E010C9446010C9446010C9446017C
:100010000C9446010C9446010C9446010C94460144
:100020000C9446010C9446010C94E0230C9472222B
:100030000C9446010C9446010C9446010C94460124
:100040000C9446010C943D0D0C9446010C94460111
:100050000C9446010C9446010C9446010C946D19C5
:100060000C9446010C9446010C9446010C944601F4
:100070000C9446010C9446010C9446010C944601E4
:100080000C94C81F0C9446010C9446010C94460134
:100090000C945D110C9446010C9446010C9446019D
:1000A0000C9446010C9446010C9446018F05B8054A
:1000B0008605C505DD050706FB05070605060706D7
:1000C000010603062406A0057218781882189018F5
:1000D00092189818A218B018C218C418D81ADD1AA5
:1000E000E21AEC1AF61A401B401B401B001B0A1BAD
:1000F000141B1E1B2B1B401B331B611B641B531B40
:10010000571B5D1B851B851B851B681B6C1B701B90
:10011000761B7A1B851B801B070605040100080A55
:100120000B0C0D090000000200090F000003040180
:10013000000C0000000000000000000000000000B3
:100140000000000408020110408040102040804060
:10015000800802040180402010020110801020401D
:100160004020040404040403040502020202040300
:100170000202020206060606060604040202020441
:1001800004000000002300260029002C002F00009E
:10019000000000250028002B002E00310000000088
:1001A00000240027002A002D003000080B00020266
:1001B00002010009040000010202000005240010F1
:1001C000010524010101042402060524060001079B
:1001D00005810310004009040100020A0000000725
:1001E00005020240000007058302400000031201DF
:1001F0000002EF02014041233680000101020301A9
:10020000120100020000004041233680000101027B
:10021000030141726475696E6F204C4C430041725A
:100220006475696E6F204C656F6E6172646F000457
:1002300003090400220773108516141D11241FBE24
:10024000CFEFDAE0DEBFCDBF13E0A0E0B1E0E6E53E
:10025000F3E502C005900D92A035B107D9F726E06D
:10026000A0E5B3E001C01D92A737B207E1F712E0A5
:10027000CCE3D2E004C02297FE010E94D326C4330F
:10028000D107C9F70E949B250C94A9290C94000062
:100290000F931F93CF93DF931F92CDB7DEB7182F25
:1002A000062F8E31C0F4682F8FE295E079830E948B
:1002B000DB145981813079F4402F612F8FE295E072
:1002C0000E94F614602F812F0F90DF91CF911F9124
:1002D0000F910C94BF1B0F90DF91CF911F910F9145
:1002E00008951F93CF93DF93182FEB018E3198F56C
:1002F000682F8FE295E00E94DB14833099F0843000
:1003000051F5E12FF0E0E158FC4F408150E0CA0187
:10031000880F991F840F951FBE0183569C4F0E9422
:10032000DA0E10C0133051F08BEF810F823030F0B5
:1003300087EF810F833010F01D3021F4BE01812F33
:100340000E94B21AAE01612F8FE295E0DF91CF914A
:100350001F910C94F614DF91CF911F910895DF92B5
:10036000EF92FF920F931F93CF93DF93062F84306A
:1003700008F099C0F82EFF0CFF0CFF0C98E0F90E66
:100380009EE19F1510F43EE1F32E182F110F110F6F
:10039000110FC12FD0E0EE24E394CF1538F56C2F68
:1003A0008FE295E00E94DB14813039F06C2F8FE2F0
:1003B00095E00E94DB14811116C0DD24D3948E2DAC
:1003C000802309F4D12C6C2F8FE295E00E94DB147E
:1003D000813009F051C0DE294D2D50E06C2F8FE2A5
:1003E00095E00E94F614EE0CCF5FD7CFD0FF05C08A
:1003F000602F6170812F0E94BF1BD1FF06C0602F4C
:10040000627081E0810F0E94BF1BD2FF06C0602F87
:10041000647082E0810F0E94BF1BD3FF06C0602F73
:10042000687083E0810F0E94BF1BD4FF06C0602F5D
:10043000607184E0810F0E94BF1BD5FF06C0602F52
:10044000607285E0810F0E94BF1BD6FF06C0602F3F
:10045000607486E0810F0E94BF1BD7FF24C0602F0D
:10046000607887E0810FDF91CF911F910F91FF900E
:10047000EF90DF900C94BF1B6C2F8FE295E00E94F1
:10048000DB148111A9CFDD2009F4A6CF6C2F8FE2F8
:1004900095E00E94EC14019709F49ECF62E08C2F46
:1004A0000E94861B99CFDF91CF911F910F91FF90F2
:1004B000EF90DF900895CF93C82F8C3058F540917E
:1004C00047045091480421E030E0082E02C0220F7A
:1004D000331F0A94E2F7672B49F4209530952423C3
:1004E0003523309348042093470414C0242B352B24
:1004F00030934804209347048091C10381110AC0BE
:100500008C2F0E94811AAC016C2F8FE295E0CF9165
:100510000C940514CF910895DB019A019091710319
:100520009C30D0F540917203682F70E0442369F04D
:10053000E42FF0E0EE58FC4F8081FB01E158FC4FC6
:10054000808341504093720307C0FB01E158FC4F88
:1005500090839F5F90937103FB01E158FC4F1A1643
:100560001B067CF41216130664F4408150E0CA01A5
:10057000880F991F840F951FAD0183569C4F0C94D3
:10058000150E208130E0C901880F991F820F931F3B
:1005900083569C4F0C94930E63E271E08FE295E0DA
:1005A0000C949714CF93DF93C82FD0E0C158DC4F41
:1005B000288130E0C901880F991F820F931F83564D
:1005C0009C4F0E94990E888190917103891306C0F7
:1005D000882379F08150809371030BC0992349F0EF
:1005E000E0917203EF5FE0937203F0E0EE58FC4F8E
:1005F00080838FEF8883DF91CF9108951F93CF93EE
:10060000DF93162FC82FD0E0FE01E55CFB4F9081F1
:100610001923C15CDB4F411103C09881911741F050
:10062000412F50E0682F8FE295E00E941E1418833E
:10063000DF91CF911F910895EF92FF920F931F9337
:10064000CF93DF93E82E83E08E1508F475C02E2D2E
:1006500030E0F901ED5BFB4F6083672B09F46CC060
:10066000F901E55CFB4FF0800E2D000F000F000F2D
:10067000F0FE52C0802F0E94F51B892B09F44CC05C
:1006800011E0C02FD0E0F1FE07C081E0800F0E9492
:10069000F51B892B09F042C0F2FE06C082E0800FF4
:1006A0000E94F51B892BE1F5F3FE06C083E0800F65
:1006B0000E94F51B892BB1F5F4FE06C084E0800F83
:1006C0000E94F51B892B81F5F5FE06C085E0800FA1
:1006D0000E94F51B892B51F5C831D10541F0F6FE7A
:1006E00006C086E0800F0E94F51B892B09F56797ED
:1006F00044F4F7FE06C087E0800F0E94F51B892BAB
:10070000C9F441E0612F8E2DDF91CF911F910F91A0
:10071000FF90EF900C94FE0210E0B3CF1260BCCFBC
:100720001460C2CF1860C8CF1061CECF1062D4CF92
:100730001064DDCF1068E5CFDF91CF911F910F914D
:10074000FF90EF900895CF93DF9380914304882327
:1007500009F448C0D0913B04D0FF1DC180E00E9445
:10076000F51B892B09F417C1C1E0D1FF06C081E058
:100770000E94F51B892B09F010C1D2FF06C082E050
:100780000E94F51B892B09F00AC1D3FF06C083E044
:100790000E94F51B892B09F004C1D4FF06C084E038
:1007A0000E94F51B892B09F0FEC0D5FF06C085E02D
:1007B0000E94F51B892B09F0F8C0D6FF06C086E021
:1007C0000E94F51B892B09F0F2C0D7FF06C087E015
:1007D0000E94F51B892B09F0ECC040E06C2F80E0F3
:1007E0000E94FE0280914404882309F448C0D091FD
:1007F0003C04D0FFE0C088E00E94F51B892B09F47F
:10080000DAC0C1E0D1FF06C089E00E94F51B892B48
:1008100009F0D3C0D2FF06C08AE00E94F51B892BE5
:1008200009F0CDC0D3FF06C08BE00E94F51B892BD9
:1008300009F0C7C0D4FF06C08CE00E94F51B892BCD
:1008400009F0C1C0D5FF06C08DE00E94F51B892BC1
:1008500009F0BBC0D6FF06C08EE00E94F51B892BB5
:1008600009F0B5C0D7FF06C08FE00E94F51B892BA9
:1008700009F0AFC040E06C2F81E00E94FE02809141
:100880004504882309F448C0D0913D04D0FFA3C09B
:1008900080E10E94F51B892B09F49DC0C1E0D1FFC6
:1008A00006C081E10E94F51B892B09F096C0D2FF9A
:1008B00006C082E10E94F51B892B09F090C0D3FF8E
:1008C00006C083E10E94F51B892B09F08AC0D4FF82
:1008D00006C084E10E94F51B892B09F084C0D5FF76
:1008E00006C085E10E94F51B892B09F07EC0D6FF6A
:1008F00006C086E10E94F51B892B09F078C0D7FF5E
:1009000006C087E10E94F51B892B09F072C040E008
:100910006C2F82E00E94FE0280914604882309F435
:1009200076C0D0913E04D0FF66C088E10E94F51BDE
:10093000892B09F460C0C1E0D1FF06C089E10E94A3
:10094000F51B892B09F059C0D2FF06C08AE10E942D
:10095000F51B892B09F053C0D3FF06C08BE10E9421
:10096000F51B892B09F04DC0D4FF06C08CE10E9415
:10097000F51B892B09F047C0D5FF06C08DE10E9409
:10098000F51B892B09F041C040E06C2F83E0DF911B
:10099000CF910C94FE02C0E0E8CEC260EECEC460FF
:1009A000F4CEC860FACEC06100CFC06206CFC0648A
:1009B0000CCFC06812CFC0E025CFC2602BCFC4607F
:1009C00031CFC86037CFC0613DCFC06243CFC06474
:1009D00049CFC0684FCFC0E062CFC26068CFC4606B
:1009E0006ECFC86074CFC0617ACFC06280CFC06460
:1009F00086CFC0688CCFC0E09FCFC260A5CFC46057
:100A0000ABCFC860B1CFC061B7CFC062BDCFDF91FF
:100A1000CF9108951092C4038FEF80930B01089536
:100A20000F931F93CF93DF93182FEB01682F8FE263
:100A300095E00E94DB148F3709F406C1612F8FE225
:100A400095E00E94DB14863051F48091C403882322
:100A500031F0C630D10509F4F3C00E940A051E31F9
:100A6000B8F4C430D105A1F0E12FF0E0E158FC4F1B
:100A700080818C3068F490E09C01220F331F280F96
:100A8000391FC90183569C4F0E943F0F8111C9C075
:100A90000EEE010F0C3058F461E070E0C230D10569
:100AA00011F060E070E0802F0E945B0202C01E31F6
:100AB000E8F4E12FE695E695E695812F8770F0E062
:100AC000E55CFB4F21E030E0082E01C0220F0A94C4
:100AD000EAF7209719F0CD30D10521F48081822BDF
:100AE000808304C0209580812823208340E050E04B
:100AF000612F8FE295E00E94F614CE30D10508F008
:100B000086C0FE01EA5AFF4F0C94D1260C3008F043
:100B10009BC060E0812F0E94861B42E008C01E310E
:100B200008F092C060E0812F0E94861B40E0612F98
:100B30008FE295E0DF91CF911F910F910C94E21419
:100B40001E3108F081C062E0812F0E94861B4DE0BB
:100B5000612F8FE295E00E94E21441E050E0612FA6
:100B60008FE295E0DF91CF911F910F910C94F614D5
:100B70001E3108F069C060E0812F0E94BF1B61E058
:100B8000812F0E94861B41E0D2CF133059F08BEFAA
:100B9000810F823038F087EF810F833018F01D30DD
:100BA00009F052C061E0812F0E94861B60E070E076
:100BB000812F0E94B21A43E0BACF1E3108F044C020
:100BC00044E0612F8FE295E00E94E214E12FF0E013
:100BD000E158FC4F80818F3F41F190E09C01220F52
:100BE000331F280F391FC90183569C4F0E943F0FA6
:100BF00081112AC01AC08EEF810F823028F546E09D
:100C000096CF4AE094CF4BE092CF48E090CF67E395
:100C100071E08FE295E0DF91CF911F910F910C94DD
:100C20009714812F0E94D20233CF4FEF5FEF6FEF07
:100C30007FEF812FDF91CF911F910F910C948C0248
:100C40001E3108F411CF24CFDF91CF911F910F9166
:100C50000895CF93C0E08EEF8C0F823028F466E0C9
:100C600070E08C2F0E941005CF5FCE31A1F781E09C
:100C70008093C4038FE694E0CF910C94E50F0F931B
:100C80001F93CF93DF9381E08093C1038091C403CE
:100C900081110E940A05E3E4F4E0CBE3D4E0AFE382
:100CA000B4E0119219921D9284E0E734F807C9F775
:100CB000CFE7D3E010E00FEF8EEE810F8C3030F4F1
:100CC00062E070E0812F0E94100503C0812F0E9416
:100CD000B31F09931F5F1E3179F710926C031092B6
:100CE0006B03A5E6B3E0E7E5F3E02FE72D93808102
:100CF0009181892B11F011821082329683E0AB36FC
:100D0000B807A1F71092480410924704109272039A
:100D10001092710310925103109250031092C1036C
:100D2000DF91CF911F910F91089525E042E068E493
:100D300071E08FE295E00E942C1341E751E060EEF4
:100D40008FE295E00E94A5144FEA51E060E98FE23E
:100D500095E00E94A5144BE552E060EC8FE295E02F
:100D60000E94A5144CE153E060ED8FE295E00E94F3
:100D7000A51440E155E064EF8FE295E00E94A514D0
:100D800048E451E065EF8FE295E00E94A51446EB40
:100D900057E060EF8FE295E00E94D5144FE356E0F4
:100DA0006FEF8FE295E00E94CD1440E051EE60E0DD
:100DB00070E08FE295E00E946F1680EF95E00E9450
:100DC000051D8823D1F30C943F060F931F93CF93F7
:100DD000DF93CDB7DEB7C654D1090FB6F894DEBFA6
:100DE0000FBECDBF8C012AE0CE018F5B9F4F0E94CA
:100DF000432520E030E040E450E0BE016F5F7F4FCC
:100E0000CE018F5B9F4F0E947025B8018FE295E065
:100E10000E949714BE016F5F7F4F8FE295E00E94A2
:100E20009714CE018F5B9F4F0E94BD24CA5BDF4F9A
:100E30000FB6F894DEBF0FBECDBFDF91CF911F91EB
:100E40000F910895CF93DF93CDE9D3E0CE010E94B7
:100E5000F90D239683E0C13CD807C1F7DF91CF910C
:100E60000895682F8FE694E00C94A60F8FE694E027
:100E70000E94560F0895AF92BF92DF92EF92FF92B9
:100E80000F931F93CF93DF931F92CDB7DEB7F82E4A
:100E90005B01D42E6F3F8FEF7807C1F06F2D8FE687
:100EA00094E029830E94EF0F8A2D0E943107298147
:100EB000622F8FE694E00E94F90F8091C203909117
:100EC000C303009729F00E94201A02C0A12CB12C64
:100ED0004D2D6F2D8FE694E00E946D100D2D10E0CA
:100EE0008FE694E00E944E0F081719071CF46AEB76
:100EF00071E009C08FE694E00E944E0F80179107C1
:100F000034F467ED71E08FE295E00E949714F0925F
:100F1000C503A092C60387ECE82E83E0F82EA12C2F
:100F2000B12CA016B1069CF042E04D0D25EC33E04B
:100F300067E78FE295E00F90DF91CF911F910F91BE
:100F4000FF90EF90DF90BF90AF900C944C148FE621
:100F500094E00E944E0F892B39F30E943607F70167
:100F600081937F01FFEFAF1ABF0ADBCF8F929F9271
:100F7000AF92BF92CF92DF92EF92FF920F931F93A7
:100F8000CF93DF93162FEA018D3609F43BC2E8F4C4
:100F9000823609F4DFC238F4803509F46BC18F352D
:100FA00009F4A1C205C4893609F485C28B3609F05B
:100FB000FFC360EF8FE295E00E949B146CE68FE226
:100FC00095E00E949B14C0E0E2C1823709F40CC393
:100FD00038F48F3609F485C1803709F40DC1E8C3B0
:100FE000883709F4E9C08A3709F45BC1863709F00C
:100FF000DFC32981922F987125FF03C063EF71E051
:10100000C3C3888126FB222720F931E023279830AB
:10101000A1F148F49111CCC3682F8FE694E00E94AF
:10102000EF0F02E007C0903109F44BC0983109F48A
:1010300075C0BEC3011768F4FE01E00FF11D918178
:10104000808120E8929F801911240E9431070E5F51
:10105000F1CF8FE694E00E94701086E490E0DF917B
:10106000CF911F910F91FF90EF90DF90CF90BF90A5
:10107000AF909F908F900C94201A4A816B8130E83A
:10108000163061F4639FB0011124640F711D9D81BE
:101090004C81E0E89E9F4019112405C0639F4019D0
:1010A00011246FEF7FEFDF91CF911F910F91FF9090
:1010B000EF90DF90CF90BF90AF909F908F900C9467
:1010C0003B07E0910B01E7301CF063E172E05CC389
:1010D0009A814B81663069F460E8469FA001112433
:1010E000490F511D3D819C8160E8369F9019112464
:1010F00006C030E8439F901911244FEF5FEFEF5F78
:10110000E0930B0165E0E602F0011124EB5FFB4F79
:10111000808352834183938324834AC360910B016C
:1011200016163CF470E0262F332727FD309595E006
:101130000FC08FEF80930B013BC3949FF001959FED
:10114000F00D1124EB5FFB4F4081481739F07F5FB2
:10115000472F50E02417350784F770E0C5E0872F4C
:1011600090E02817390724F1783000F5AC014F5F83
:101170005F4FC49FD001C59FB00D1124AB5FBB4F23
:101180004C91C89FF001C99FF00D1124EB5FFB4FFC
:10119000408311968D919C9112979283818313962F
:1011A0008C911397838314968C9184837F5FD7CF20
:1011B000615060930B01FCC228818981E0E88E9F19
:1011C000C0011124820F911D009721F09093C30359
:1011D0008093C2038091C4038111EAC2DF91CF9151
:1011E0001F910F91FF90EF90DF90CF90BF90AF9045
:1011F0009F908F900C942906653008F4D9C218810D
:101200000981FA80EB80CC811E3108F0D1C2E12F38
:10121000F0E0E158FC4FE081EC3060F4F0E0CF0109
:10122000880F991F8E0F9F1F83569C4F0E943F0F60
:101230008111BAC220E8C29FA00111244E0D511D98
:1012400030E8F39EB0011124600F711D812F0E94C0
:101250008C0264E070E0812FDF91CF911F910F919C
:10126000FF90EF90DF90CF90BF90AF909F908F90C6
:101270000C9410052881898140E8849FC0011124C5
:10128000820F911D90932E0480932D040E94B71914
:1012900060932F0470933004809331049093320450
:1012A00087C2623008F484C22881898160E8869F01
:1012B000C0011124820F911D009711F481E090E08C
:1012C00090930D0180930C0160910C0170910D01C0
:1012D00088E290E00E9468267093700360936F0329
:1012E00067C2623008F464C2698170E0123091F024
:1012F0008A81E0E88E9FC0011124682B792B13307E
:1013000049F08B8190E090E4899F902D88271124EB
:10131000682B792B8881DF91CF911F910F91FF90DE
:10132000EF90DF90CF90BF90AF909F908F900C94F4
:101330007101C33009F058C063E08FE295E00E946C
:101340009B1468E08FE295E00E949B1464E08FE2BA
:1013500095E00E949B146EE08FE295E00E949B1442
:101360008EEF8C0F823050F466E08FE295E00E94A1
:101370009B1461E08FE295E00E949B146FE78FE27F
:1013800095E00E949B14CF5FCE3109F4E7C160E085
:101390008FE295E00E949B1461E08FE295E00E944D
:1013A0009B146DE08FE295E00E949B1461E08FE258
:1013B00095E00E949B1461E08FE295E00E949B14EF
:1013C00061E08FE295E00E949B148EEE8C0F8C30D2
:1013D00008F0AFCF62E08FE295E00E949B146AE0D4
:1013E0008FE295E00E949B148BEF8C0F823008F403
:1013F000A3CF87EF8C0F833008F49ECFCD3009F058
:10140000A5CF9ACF662309F4D3C1C88160EF8FE2DC
:1014100095E00E949B146EE68FE295E00E949B147B
:101420006C2F8FE295E00E949B14CE3108F096C19C
:101430006C2F8FE295E00E94DB14682F8FE295E01D
:101440000E949B146C2F8FE295E00E94EC14682F91
:101450006F778FE295E00E949B146C2F8FE295E0EE
:101460000E94EC148078892B79F06C2F8FE295E044
:101470000E94EC14880F892F881F990B682F6F77B3
:101480008FE295E00E949B146C2F8FE295E00E9402
:10149000EC148827907C892B09F460C16C2F8FE2B3
:1014A00095E00E94EC14990F880B990F982F881FD4
:1014B000682F6F774FC160EF8FE295E00E949B1419
:1014C0006AE68FE295E00E949B14CEEECC3010F0DD
:1014D0006FE701C06C2F8FE295E00E949B14CF5FF5
:1014E000CC30A1F73BC198818981911122C09C81A8
:1014F0002D8140E8249F90011124290F311D44279C
:1015000037FD4095542F9A816B81E0E86E9FB001C2
:101510001124690F711DDF91CF911F910F91FF90E1
:10152000EF90DF90CF90BF90AF909F908F900C94F2
:10153000311D913009F03CC1DF91CF911F910F9186
:10154000FF90EF90DF90CF90BF90AF909F908F90E3
:101550000C94B31F20916B0330916C03263031053E
:101560000CF03FC088818093560399819093550376
:101570009A81913208F491E290930A019B81CC8187
:1015800040E8C49FE0011124C90FD11DF901EB59B6
:10159000FC4F80836BE070E00E9410056BE070E010
:1015A000809155030E94100582E190E00E94AE25D3
:1015B0008C019E0140915503609156030E9489164B
:1015C00080916B0390916C03FC01EE0FFF1FE95AB1
:1015D000FC4F11830083019690936C0380936B03FF
:1015E000E7C064E272E0D0C08881811148C089817F
:1015F000CA8060E8C69E60011124C80ED11CAB8071
:10160000B12C8C80912C153059F48AE190E00E9425
:10161000AE25EC019401A501B6010E947E1710C011
:10162000173099F40D8110E0EE80F12C8AE190E002
:101630000E94AE25EC019401A501B6010E94A417F9
:10164000D0935103C0935003B3C061E672E08FE2C0
:1016500095E00E949714412F50E060E070E081E92E
:1016600092E0DF91CF911F910F91FF90EF90DF906B
:10167000CF90BF90AF909F908F900C94E5068130F3
:1016800009F048C04A8150E060E070E027E0440F74
:10169000551F661F771F2A95D1F78B8190E0A0E038
:1016A000B0E03EE0880F991FAA1FBB1F3A95D1F703
:1016B000482B592B6A2B7B2B8981482B8C810D81E0
:1016C00090E8099F80011124080F111DCE8180919F
:1016D0005003909151030097D1F00E94DA17C11185
:1016E00003C0119501951109B801809150039091A3
:1016F0005103DF91CF911F910F91FF90EF90DF90F9
:10170000CF90BF90AF909F908F900C94E11869E9B3
:1017100072E03AC08230B1F580915003909151034C
:10172000009769F10E946A19EC0160EF8FE295E081
:101730000E949B1462E78FE295E00E949B146C2F3D
:101740006F778FE295E00E949B14BE01660F672FB2
:10175000661F770B8FE295E00E949B1467EF8FE284
:1017600095E0DF91CF911F910F91FF90EF90DF9067
:10177000CF90BF90AF909F908F900C949B1465EC8E
:1017800072E002C06AEF72E08FE295E0DF91CF91E4
:101790001F910F91FF90EF90DF90CF90BF90AF908F
:1017A0009F908F900C949714812F0E94D20242CD6B
:1017B000DF91CF911F910F91FF90EF90DF90CF902D
:1017C000BF90AF909F908F9008958F929F92AF920D
:1017D000BF92CF92DF92EF92FF920F931F930E94DE
:1017E000A3038FE295E00E948C13892B29F08FE2EE
:1017F00095E00E94E115F5CF0E94B7196093370478
:10180000709338048093390490933A04C090330461
:10181000D0903404E0903504F090360440910C01EF
:1018200050910D014A01A12CB12C8B019C010C1986
:101830001D092E093F0980169106A206B30608F07D
:1018400011C1D501C4018C0D9D1DAE1DBF1D80931E
:10185000330490933404A0933504B09336048091FC
:101860006D0390916E039C012F5F3F4F30936E0389
:1018700020936D0320916F0330917003281739076F
:101880000CF064C010926E0310926D0380916B0394
:1018900090916C03892B09F459C0E0916303F09196
:1018A0006403EE0FFF1FE95AFC4F808191810E9473
:1018B0004F1769E370E00E946826CB0140916303F3
:1018C00050916403409354039A012F5F3F4F30932C
:1018D00064032093630320916B0330916C032150C8
:1018E00031094217530724F01092640310926303E6
:1018F0006F7760935203880F892F881F990B80930D
:10190000530360EF8FE295E00E949B1463E68FE241
:1019100095E00E949B14E0915403F0E0EB59FC4FDA
:1019200060818FE295E00E949B14609152038FE2E8
:1019300095E00E949B14609153038FE295E00E9412
:101940009B1467EF8FE295E00E949B141EEE62E10C
:10195000610F1C30D8F48FE295E00E94DB148230D6
:10196000A9F42091470430914804012E02C0359516
:1019700027950A94E2F720FF09C0812F0E94811A5F
:10198000AC01612F8FE295E00E9405141F5F1C30AF
:10199000F1F680910B0187FF08C080912D04909192
:1019A0002E04892B09F45EC01CC010E005E0812FD5
:1019B00090E020910B01332727FD30952817390738
:1019C00064F3089FF001099FF00D1124EB5FFB4FBA
:1019D000618172812481438180810E943B071F5F66
:1019E000E6CF0E94B7196093370470933804809350
:1019F000390490933A0400912F04109130042091FF
:101A0000310430913204AB01BC01401B510B620B1D
:101A1000730BE0912D04F0912E0428EE33E0E29F49
:101A2000C001E39F900DF29F900D1124A0E0B0E063
:101A300084179507A607B707A8F40E943F0640E061
:101A400050E0BA0188E293E00E94E50628E088E1D0
:101A500090E00FB6F894A895809360000FBE209395
:101A60006000FFCF1F910F91FF90EF90DF90CF901C
:101A7000BF90AF909F908F9008951F920F920FB6D6
:101A80000F9211242F933F934F935F936F937F9304
:101A90008F939F93AF93BF93EF93FF9380914A04EB
:101AA00087FF05C010928500109284001AC0209113
:101AB0004A04332727FD30958091490490E0281788
:101AC00039077CF480914A04992787FD9095FC01A1
:101AD000EE0FFF1FE80FF91FE55BFB4F808186FDCE
:101AE00015C080914A048F5F80934A0420914A0474
:101AF000332727FD30958091490490E02817390756
:101B0000BCF480914A048C305CF112C080914A048C
:101B1000992787FD9095FC01EE0FFF1FE80FF91F35
:101B2000E55BFB4F808160E08F730E94BF1BD9CFC4
:101B30008091840090918500049680349C4918F42B
:101B400080E49CE905C08091840090918500049612
:101B500090938900809388008FEF80934A0438C067
:101B6000209184003091850080914A04992787FD57
:101B70009095FC01EE0FFF1FE80FF91FE55BFB4F8F
:101B800081819281820F931F9093890080938800B6
:101B900080914A04992787FD9095FC01EE0FFF1F65
:101BA000E80FF91FE55BFB4F808186FF11C0809134
:101BB0004A04992787FD9095FC01EE0FFF1FE80F5F
:101BC000F91FE55BFB4F808161E08F730E94BF1BB3
:101BD000FF91EF91BF91AF919F918F917F916F9105
:101BE0005F914F913F912F910F900FBE0F901F90DB
:101BF0001895209149042C30A0F431E0320F309335
:101C00004904FC012083822F90E0FC01EE0FFF1FAE
:101C1000E80FF91FE55BFB4F88EB9BE09283818324
:101C200008952FEFFC0120830895DF92EF92FF9239
:101C30000F931F93CF93DF93EC01D62E7A01890186
:101C400088818C3008F066C061E08D2D0E94861B73
:101C50008881A82FB0E0FD01EE0FFF1FEA0FFB1FE8
:101C6000E55BFB4F2D2D2F739081907C922B908301
:101C700060E272E06E197F0977FF02C06D5F7F4FEF
:101C80007595679575956795698340E659E0401BA2
:101C9000510B57FF02C04D5F5F4F559547955595C6
:101CA00047954A836CE00E945C269CE0899FB001C6
:101CB000112420E030E0A901460F571FFA01EE0F72
:101CC000FF1FE40FF51FE55BFB4F908196FD16C0EB
:101CD0002F5F3F4F2C30310571F781110FC01092EB
:101CE000800082E080938100109285001092840031
:101CF000B19A80916F00826080936F00888190E03C
:101D0000FC01EE0FFF1FE80FF91FE55BFB4F808121
:101D1000806480838881DF91CF911F910F91FF9024
:101D2000EF90DF90089520E639E040E252E00C9415
:101D3000150EFC01808190E0FC01EE0FFF1FE80F03
:101D4000F91FE55BFB4F80818F7B80830895FC0149
:101D500080818C3070F5918128E830E0291B3109B1
:101D600097FD3395220F331F220F331F621773071E
:101D70007CF0928128E532E0291B310997FD3395EB
:101D8000220F331F220F331F621773070CF49B01BE
:101D900022503109220F331F4FB7F89490E0FC0115
:101DA000EE0FFF1FE80FF91FE55BFB4F3283218326
:101DB0004FBF08954F925F926F927F92AF92BF9202
:101DC000CF92DF92EF92FF920F931F93CF93DF9307
:101DD000EC01603282E078070CF040C077FD06C06D
:101DE000653B71052CF064EB70E002C060E070E0D0
:101DF000898128E830E0281B310987FD3395220FBF
:101E0000331F220F331F5901CC24B7FCC094DC2CA4
:101E1000882777FD8095982F2A8148E552E0421B5C
:101E2000510927FD5395440F551F440F551F2A0193
:101E3000662457FC6094762C7F926F925F924F924B
:101E400014EBE12EF12C00E010E020E030E0A901DD
:101E50000E9476240F900F900F900F90CE01DF918B
:101E6000CF911F910F91FF90EF90DF90CF90BF9097
:101E7000AF907F906F905F904F900C94A70EFC01F5
:101E8000808190E0FC01EE0FFF1FE80FF91FE55B7A
:101E9000FB4F808186FB882780F9089580919F04FD
:101EA00090E02091A004821B910908952091A00444
:101EB00080919F04281750F4E22FF0E0EF55FB4F7C
:101EC000808190E02F5F2093A00408958FEF9FEF13
:101ED0000895E091A00480919F04E81730F4F0E0A9
:101EE000EF55FB4F808190E008958FEF9FEF0895AD
:101EF0000895CF92DF92EF92FF920F931F93CF93AB
:101F0000DF937C01CB018A0120917B04222389F09D
:101F1000EB016B01C40ED51ECC15DD0569F069918E
:101F2000D701ED91FC910190F081E02DC701099559
:101F3000F3CF642F0E943411C801DF91CF911F911C
:101F40000F91FF90EF90DF90CF900895CF93DF93A4
:101F50001F92CDB7DEB7698320917B042223D1F095
:101F600020917C04203240F021E030E0FC013383FA
:101F7000228380E090E015C080917D04E82FF0E09E
:101F8000E258FB4F998190838F5F80937D0480930B
:101F90007C0405C061E0CE0101960E94341181E00D
:101FA00090E00F90DF91CF910895FC01138212828F
:101FB00048EE53E060E070E04483558366837783A6
:101FC0008EE293E09183808308951092A004109292
:101FD0009F0410927D0410927C040C94771081E091
:101FE00080937B0460939E0410927D0410927C0485
:101FF00008950F93062F21E040917C046EE774E072
:1020000080919E040E94DD1010927D0410927C0449
:1020100010927B040F9108958F929F92AF92BF927E
:10202000CF92DF92EF92FF920F931F93CF93DF93A4
:10203000EC01F62ED42E48015901EE2019F10E9430
:10204000EF0F1E2D143008F013E01150B8F0E881A6
:10205000F98128E0129FB0011124A501940104C068
:1020600056954795379527956A95D2F7CA01B901D4
:102070000190F081E02DCE010995E7CF60E0CE011F
:102080000E94F90F4D2D413208F040E22C2D61EAFB
:1020900074E08F2D0E9495101092A00480939F04ED
:1020A000DF91CF911F910F91FF90EF90DF90CF9034
:1020B000BF90AF909F908F900895CF92EF920F9323
:1020C0001F93C22EE12C00E010E098010E940C103A
:1020D0001F910F91EF90CF90089521E00C945D1027
:1020E00061E00C94F90F8FE694E00C94D50F1092F8
:1020F0002E0581E080932C0510922B0561E082E093
:102100000E94BF1B61E083E00E94BF1BE9EBF0E08F
:1021100080818E7F808380818D7F808388E480931F
:10212000B80085E48093BC000895413208F043C0B4
:1021300090912E059111FCCF91E090932E05209364
:102140002C052FEF2093C10410920605240F209335
:10215000050590932D0590912D05880F892B80936F
:102160002D0580912B05813061F410922B05809113
:102170002D058093BB008091BC0083FDF8CF85ECDA
:1021800001C085EE8093BC0080912E058130E1F383
:1021900080910605841710F44091060527E035E08C
:1021A000FB01D9018A2F821B841718F48D9181932A
:1021B000F9CF842F089580E008950F93413208F0FD
:1021C0004AC090912E059111FCCF92E090932E057C
:1021D00000932C059FEF9093C10410920605409345
:1021E0000505FB0167E075E0DB019A2F961B94174C
:1021F00018F491919D93F9CF10922D0590912D0592
:10220000880F892B80932D0580912B05813061F4F7
:1022100010922B0580912D058093BB008091BC000E
:1022200083FDF8CF85EC01C085EE8093BC002223AE
:1022300021F080912E058230E1F38091C1048F3F1F
:1022400061F08091C104803251F08091C1048033EB
:1022500041F483E007C081E005C080E003C082E074
:1022600001C084E00F910895613298F420912E0509
:10227000243089F46093E304FC0185EE94E0DC01F2
:102280002A2F281B261718F421912D93F9CF80E0CF
:10229000089581E0089582E0089585ED8093BC0063
:1022A0008091BC0084FDFCCF10922E05089585EC32
:1022B0008093BC0010922E0508951F920F920FB6C6
:1022C0000F9211242F933F934F935F936F937F93BC
:1022D0008F939F93AF93BF93EF93FF938091B90038
:1022E000887F803609F49EC078F5883209F45DC095
:1022F00090F4803109F456C038F4882309F4F5C00D
:10230000883009F44FC0F5C0883109F44EC08032DE
:1023100009F45FC0EEC0803409F46AC058F4803319
:1023200009F457C0883309F0E4C08093C1040E94C7
:102330005711DFC0803509F44FC0883509F45DC0FE
:10234000883409F0D6C0D3C0883909F4C4C0A8F4D1
:10235000883709F467C038F4883609F463C08037D9
:1023600009F460C0C6C0883809F4B5C0803909F4E2
:102370005FC0803809F0BDC05BC0803B09F483C0FA
:1023800038F4803A09F466C0883A09F47CC0B1C0D8
:10239000803C09F4A4C0883C09F4A1C0883B09F43E
:1023A00087C0A7C080912D0510C09091060580912F
:1023B0000505981770F5E091060581E08E0F809372
:1023C0000605F0E0E95FFA4F80818093BB0085EC61
:1023D00083C08093C1048BC0E091060581E08E0F1D
:1023E000809306058091BB00F0E0E95FFA4F80839F
:1023F00090910605809105056BC0E091060581E08E
:102400008E0F809306058091BB00F0E0E95FFA4FE4
:10241000808380912C0581116AC081E080932B0517
:1024200084EA5EC083E080932E051092C204CFCF71
:102430008091C204803208F04EC0E091C20481E075
:102440008E0F8093C2048091BB00F0E0ED53FB4FF0
:102450008083BDCF0E9457118091C204803230F436
:10246000E091C204F0E0ED53FB4F10826091C20492
:1024700070E0E0912705F091280583EC94E0099540
:102480001092C20436C084E080932E051092E404BA
:102490001092E304E0912905F0912A0509958091B5
:1024A000E304811105C081E08093E3041092E50408
:1024B000E091E40481E08E0F8093E404F0E0EB51BE
:1024C000FB4F80818093BB009091E4048091E304F2
:1024D000981708F47CCF85E88093BC000AC085EC8F
:1024E0008093BC0010922E0504C01092C1040E947B
:1024F0004D11FF91EF91BF91AF919F918F917F917E
:102500006F915F914F913F912F910F900FBE0F9060
:102510001F9018950F931F93CF93DF93EC018B01BE
:1025200088819981DC01ED91FC916F770190F081B8
:10253000E02D099588819981DC01ED91FC91B8012C
:10254000660F672F661F770B6F770190F081E02D84
:10255000DF91CF911F910F910994DC018D919C9196
:10256000DC01ED91FC910190F081E02D60EF099488
:10257000DC018D919C91DC01ED91FC910190F08149
:10258000E02D67EF0994CF93DF93EC018881998167
:10259000DC01ED91FC910190F081E02D69EF09954E
:1025A00088819981DC01ED91FC910190F081E02D11
:1025B00062E0099588819981DC01ED91FC9101909F
:1025C000F081E02D65E0DF91CF9109941F93CF93C7
:1025D000DF93EC018A818823D9F1CE010E94AD12EC
:1025E00088819981DC01ED91FC910190F081E02DD1
:1025F00069E7099588819981DC01ED91FC91AB81B6
:10260000BC810190F081E02D6C91099588819981C0
:10261000DC01ED91FC91AB81BC810190F081E02D5A
:1026200011966C91099512E08A81181758F4EB8184
:10263000FC81E10FF11D608170E0CE010E948A12E1
:102640001F5FF2CFCE01DF91CF911F910C94B81292
:10265000DF91CF911F910895CF92DF92EF92FF9279
:102660000F931F93CF93DF938C01EB01C42ED22ED7
:102670006AE373E0CE010E940C297C016FE270E0F6
:10268000CE010E940129009739F46CE570E0CE017B
:102690000E940129009711F0EC012196E114F10448
:1026A00051F4FE0101900020E9F7EC1BEF5FD80127
:1026B0001296EC9306C0EC1AFD0AE394E394F80139
:1026C000E282D80113968D919C9114970E948927DC
:1026D000F801E280F12CC70101960E94F126D80191
:1026E00014969C938E931397FC01EE0DFF1D1082A0
:1026F000FC01C082D18212964C9150E042505109A7
:10270000BE010296DF91CF911F910F91FF90EF9044
:10271000DF90CF900C94F228DC018D919C91DC012C
:10272000ED91FC910480F581E02D09940F931F93A6
:10273000CF93DF93FC012085213749F0293709F039
:1027400049C0DF91CF911F910F910C94E612FC01CB
:10275000ED54FF4F0190F081E02D309709F450C007
:10276000DC01A75BBF4F4D915C919A01215031096B
:1027700037FD9A01B90175956795062F40E050E045
:1027800020E030E04E5F5F4F2017A0F4EC01C40F53
:10279000D51F1F81DC01A20FB31F18961C93189739
:1027A000C885D0E8CD9F1019112418961C932F5F6F
:1027B0003F4FE8CFDC01A60FB11D17962C9117975C
:1027C000222311F018961C920896DF91CF911F9149
:1027D0000F910994FC01EB54FF4F0190F081E02D23
:1027E000309771F0AC01475F5F4FDC01A75BBF4FD3
:1027F0006C916150822FDF91CF911F910F910994BD
:10280000DF91CF911F910F9108950F931F93CF9355
:10281000DF93EC018A0188819981DC01ED91FC91C3
:102820006F70606E0190F081E02D0995B801CE01C6
:10283000DF91CF911F910F910C948A120F931F93E8
:10284000CF93DF93EC018A0188819981DC01ED91BE
:10285000FC916F7060690190F081E02D099588818D
:102860009981DC01ED91FC91602F6F770190F081EF
:10287000E02D099588819981DC01ED91FC91B801E9
:10288000660F672F661F770B0190F081E02DDF91B7
:10289000CF911F910F910994CF92DF92EF92FF9207
:1028A0000F931F93CF93DF9300D01F92CDB7DEB766
:1028B0008C01F42E2A833B8369830E94AD12D801D8
:1028C0008D919C91DC01ED91FC910190F081E02DC6
:1028D000698109952A81E22EC22E3B81D32E8C2D4F
:1028E0008E198F1540F4F60161916F0170E0C801F7
:1028F0000E948A12F4CFC8010F900F900F90DF91C1
:10290000CF911F910F91FF90EF90DF90CF900C949B
:10291000B8129A01613751F4FA0101900020E9F7E9
:102920003197E41BF50B4E2F0C944C140895AB011A
:1029300061E70C948914DC018D919C91DC01ED918F
:10294000FC910190F081E02D0994603DC1F028F4E4
:10295000603969F0603C79F00895643FA1F0653F0B
:10296000B1F0603EC9F4FC01EB55FF4F13C0FC0110
:10297000E955FF4F0FC0FC01E755FF4F0BC0FC01AD
:10298000E555FF4F07C0FC01E355FF4F03C0FC01B5
:10299000E155FF4F5183408308956F3F29F4FC01B7
:1029A000EF54FF4F5183408308958B549F4FFC0198
:1029B000518340830895860F911DFC01E55BFF4F15
:1029C00080810895860F911DFC01E55BFF4F80819A
:1029D0008F3709F040830895860F911D860F911D52
:1029E000FC01E759FF4F808191810895860F911D69
:1029F000860F911DFC01E759FF4F518340830895D5
:102A0000FC0115821682178280E090E0DF01A80F9A
:102A1000B91F18961C92019680349105B9F7DF0111
:102A2000A85BBF4F1C9211961D921C92EF54FF4F52
:102A30000190F081E02D309709F009940895FC0190
:102A4000E954FF4F1082FC011282148213820C940D
:102A50000015CF93DF93EC01FC01E85BFF4F808111
:102A60008823A1F0673F31F41082CE01DF91CF912E
:102A70000C949613FE01E75BFF4F80819181C80F94
:102A8000D91F688701969183808398C08D818823A0
:102A900009F452C067FD50C081508D83FE01E80FDC
:102AA000F11D608781118AC08E81882309F486C058
:102AB000803DA1F140F4803981F0803CD9F5FE01E0
:102AC000E755FF4F2EC0843FC9F0853FD9F0803EC7
:102AD00089F5FE01EB55FF4F03C0FE01E955FF4F9D
:102AE0000190F081E02D309729F18885698570E0AB
:102AF00090E8899F600D711D11241AC0FE01E355F5
:102B0000FF4F03C0FE01E155FF4F0190F081E02D22
:102B1000309781F0688570E089850BC0FE01E5552E
:102B2000FF4F0190F081E02D309721F0688570E033
:102B30008F8109951E8242C0862F603F28F4807FD6
:102B400090E06F706F8301C090E0803F910549F184
:102B50007CF4803C910509F124F480399105D9F089
:102B60002DC0803D9105C9F0803E9105A1F026C0A1
:102B7000893F9105E9F03CF49C01245F3109223042
:102B8000310548F01BC08F3F9105C1F4CE01DF91A4
:102B9000CF910C94001592E001C091E09D838E834B
:102BA0000DC081E08083C75BDF4F1982188206C0A9
:102BB0008FE295E0DF91CF910C94C312DF91CF911A
:102BC0000895CF93DF93EC0188819981DC01ED9129
:102BD000FC910680F781E02D09958F3FBFEF9B07A1
:102BE00031F0682FCE01DF91CF910C942915DF9140
:102BF000CF9108957F928F929F92AF92BF92CF9282
:102C0000DF92EF92FF920F931F93CF93DF93762E75
:102C1000EA01680110E0EE24D7FCE094FE2C4901A3
:102C2000AA2497FCA094BA2C212F30E02C173D0742
:102C300094F4C701B6010E94E61961E0872D0E9455
:102C4000BF1BC501B4010E94E61960E0872D0E94F8
:102C5000BF1B1F5FE9CFDF91CF911F910F91FF90B5
:102C6000EF90DF90CF90BF90AF909F908F907F902C
:102C700008950F931F93CF93DF93EC01FC01E95468
:102C8000FF4F8081811126C061E08DE00E94861B8C
:102C900002ED10E028E230E042E050E06DE0CE01CD
:102CA0000E94FA156AEF70E080E090E00E94E61959
:102CB00028E230E045E050E06DE0CE010E94FA15D8
:102CC0006DE770E080E090E0DF91CF911F910F9170
:102CD0000C94E619DF91CF911F910F910895CF9336
:102CE000DF93EC0180EF95E00E94FF1C80EF95E000
:102CF00099838883CE010E943916CE010E94C312A7
:102D0000CE01DF91CF910C94E6128FE295E00C9406
:102D10001F15CF93DF93DC0170E0FB01ED5BFE4FED
:102D2000E4911496EC931497842F90E0FC01ED5BF2
:102D3000FE4FE4911596EC9315976E597E4FFB016B
:102D4000C491D0E0CC0FDD1FC157DE4FFE0145918D
:102D5000549117965C934E931697FC01EE59FE4FD3
:102D6000849190E0880F991F8F579E4FFC014591E9
:102D700054911B965C934E931A97FB016491E62F36
:102D8000F0E0EE0FFF1FE356FE4F859194911996E8
:102D90009C938E931897C901253FF1E03F0714F0EB
:102DA00084EF91E049E3489F9001499F300D112441
:102DB000245E3F4F1D963C932E931C97DF91CF913D
:102DC00008950F931F93CF93DF93EC01E885F98566
:102DD00080819C81892B8083EE81FF8190818C8111
:102DE00080958923808384E090E00E94201AEE8100
:102DF000FF8180819C81892B80838AE090E00E9402
:102E0000201AEE81FF8190818C81809589238083B7
:102E1000E885F98590818C818095892380830E9443
:102E2000C319605B794B8F4F9F4F6E877F87888B6D
:102E3000998BEA85FB8580819D81892359F00E94C9
:102E4000C3190E851F852889398906171707280792
:102E5000390778F7EA85FB8580819D81892369F4AC
:102E60000E94C3190E851F852889398906171707FF
:102E70002807390778F780E00DC00E94C3192C8518
:102E80003D85620F731F811D911D6E877F87888B23
:102E9000998B81E0DF91CF911F910F9108950F934E
:102EA0001F93CF93DF93EC010E94E116882389F0F2
:102EB000EA85FB8580819D81892371F00E94C31979
:102EC0000E851F85288939890617170728073907AE
:102ED00078F720E030E00CC00E94C3192C853D85B6
:102EE000255031094E855F85241B350B260F371F72
:102EF000C901DF91CF911F910F910895CF93DF9377
:102F0000EC01842F1B861A86198218821E8A1F8A5A
:102F1000188E198E7F836E834C875D873F872E873F
:102F200061E00E94861B61E08E850E94861B198AE3
:102F3000188A1B8A1A8A1D8A1C8A82E090E0998767
:102F40008887DF91CF910895EF92FF920F931F939F
:102F5000CF93DF93EC01842F1B861A861982188287
:102F60001E8A1F8A188E198E7F836E834C875D8719
:102F70003F872E87198B088BFB8AEA8A61E00E94C3
:102F8000861B61E08E850E94861B61E088890E9415
:102F9000861B61E08A890E94861B1D8A1C8A84E048
:102FA00090E099878887DF91CF911F910F91FF90D3
:102FB000EF900895CF92DF92EF92FF92CF93DF933D
:102FC000EC016A017B012E813F81442737FD40954A
:102FD000542F60E077E883E993E00E94B226CA01AB
:102FE000B901A70196010E94B2262A833B834C8334
:102FF0005D83DF91CF91FF90EF90DF90CF900895A8
:103000000F931F93CF93DF93EC018B0188859985F4
:103010000297F9F46130710571F02CF461157105B6
:10302000C1F460E009C06230710559F06330710588
:1030300081F460E007C061E08C850E94BF1B61E005
:1030400005C061E08C850E94BF1B60E08E850E94F8
:10305000BF1B888599850497B9F501301105B1F03A
:103060004CF40115110581F561E08C850E94BF1BB0
:1030700060E011C002301105B9F00330110521F5EF
:1030800061E08C850E94BF1B60E013C060E08C850E
:103090000E94BF1B61E08E850E94BF1B61E0888992
:1030A0000E94BF1B60E00DC060E08C850E94BF1BCA
:1030B00061E08E850E94BF1B60E088890E94BF1B73
:1030C00061E08A890E94BF1B88859985059709F070
:1030D00073C00A30110508F06FC0F801EC59FF4FBA
:1030E0000C94D12660E08C850E94BF1B61E051C02A
:1030F00060E08C850E94BF1B61E08E850E94BF1B33
:1031000060E04BC060E08C850E94BF1B61E08E8553
:103110000E94BF1B60E088890E94BF1B61E041C024
:1031200060E001C061E08C850E94BF1B61E005C0CA
:1031300061E08C850E94BF1B60E08E850E94BF1BF2
:1031400060E009C061E08C850E94BF1B60E08E8555
:103150000E94BF1B61E088890E94BF1B61E00DC017
:1031600061E08C850E94BF1B60E08E850E94BF1BC2
:1031700061E088890E94BF1B60E08A890E94BF1BB2
:1031800060E013C061E001C060E08C850E94BF1B5D
:1031900060E08E850E94BF1B61E088890E94BF1B92
:1031A00060E08A890E94BF1B61E08C89DF91CF912A
:1031B0001F910F910C94BF1BDF91CF911F910F9125
:1031C00008954F925F926F927F928F929F92AF92EB
:1031D000BF92CF92DF92EF92FF920F931F93CF9304
:1031E000DF93EC01CB0177FF04C088279927861B6A
:1031F000970B6C01161617062CF481E090E099836A
:10320000888304C0672B11F01982188204E010E053
:103210008AE0E82EF12CC114D10409F44AC00E94BE
:10322000C3198E889F88A88CB98C2B013C01481843
:1032300059086A087B088A809B80AC80BD8048144E
:1032400059046A047B0458F36E8B7F8B888F998FA7
:10325000288139818A859B852130310559F4019671
:103260009B878A872E813F818217930771F41B8683
:103270001A860BC0892B21F48E819F819B878A87B8
:103280008A859B8501979B878A8781E0C81AD10828
:10329000288539858A859B852530310511F4B7014C
:1032A00001C0B8010E947C26BC01CE010E9400181A
:1032B000B2CFDF91CF911F910F91FF90EF90DF90F0
:1032C000CF90BF90AF909F908F907F906F905F90C6
:1032D0004F90089585E090E008951F920F920FB6E9
:1032E0000F9211242F933F938F939F93AF93BF938C
:1032F0008091E8059091E905A091EA05B091EB0570
:103300003091E70523E0230F2D3720F40196A11D0E
:10331000B11D05C026E8230F0296A11DB11D209303
:10332000E7058093E8059093E905A093EA05B0933B
:10333000EB058091EC059091ED05A091EE05B09123
:10334000EF050196A11DB11D8093EC059093ED054D
:10335000A093EE05B093EF05BF91AF919F918F9130
:103360003F912F910F900FBE0F901F9018952FB780
:10337000F8946091E8057091E9058091EA059091D3
:10338000EB052FBF08953FB7F8948091EC0590911D
:10339000ED05A091EE05B091EF0526B5A89B05C0FF
:1033A0002F3F19F00196A11DB11D3FBF6627782F51
:1033B000892F9A2F620F711D811D911D42E0660FAA
:1033C000771F881F991F4A95D1F708958F929F9272
:1033D000AF92BF92CF92DF92EF92FF926B017C018E
:1033E0000E94C3194B015C01C114D104E104F10432
:1033F000F1F00E94B0250E94C319681979098A0961
:103400009B09683E73408105910570F321E0C21A63
:10341000D108E108F10888EE880E83E0981EA11C0F
:10342000B11CC114D104E104F10429F7DDCFFF90F0
:10343000EF90DF90CF90BF90AF909F908F900895C6
:103440008230910538F0880F991F880F991F0597D2
:103450000197F1F70895789484B5826084BD84B5AE
:10346000816084BD85B5826085BD85B5816085BD7F
:10347000EEE6F0E0808181608083E1E8F0E0108298
:10348000808182608083808181608083E0E8F0E0D9
:10349000808181608083E1E9F0E0808182608083C7
:1034A000808181608083E0E9F0E0808181608083B9
:1034B000E1ECF0E0808184608083808182608083A1
:1034C000808181608083E3ECF0E080818160808393
:1034D000E0ECF0E0808182608083E2ECF0E08081CB
:1034E00081608083EAE7F0E080818460808380816E
:1034F0008260808380818160808380818068808316
:103500000895823108F08251E82FF0E0E85EFE4F26
:10351000E49180917B00E3FB222720F930E095E0E5
:10352000220F331F9A95E1F78F7D822B80937B00CA
:10353000E77080910E0120E4829FC0011124E82BE6
:10354000E0937C0080917A00806480937A0080917F
:103550007A0086FDFCCF809178002091790090E080
:10356000922B08951F93CF93DF93182FEB0161E007
:103570000E94861B209711F460E004C0CF3FD10564
:1035800039F461E0812FDF91CF911F910C94BF1B23
:10359000E12FF0E0EC5DFE4F449150E0FA013197ED
:1035A000EF30F10508F06CC0E259FF4F0C94D126C2
:1035B00084B5806884BDC7BD68C084B5806284BDA1
:1035C000C8BD63C080918000806880938000D093E4
:1035D0008900C093880059C08091800080628093E8
:1035E0008000D0938B00C0938A004FC080918000F0
:1035F000886080938000D0938D00C0938C0045C07C
:1036000080919000806880939000D0939900C0933F
:1036100098003BC080919000806280939000D0938E
:103620009B00C0939A0031C0809190008860809385
:103630009000D0939D00C0939C0027C08091C00053
:1036400080688093C0008091C0008F7B8093C00011
:10365000C093CF001AC08091C00080628093C000E8
:10366000C093D00012C08091C20088608093C200D5
:103670008091C2008B7F8093C200C093D20005C0AE
:10368000C038D1050CF07DCF77CFDF91CF911F915E
:10369000089590E0FC013197EF30F105B0F5E35863
:1036A000FF4F0C94D126809180008F7703C08091CA
:1036B00080008F7D80938000089580918000877FB7
:1036C000F9CF84B58F7702C084B58F7D84BD08950E
:1036D000809190008F7707C0809190008F7D03C00C
:1036E00080919000877F8093900008958091C00022
:1036F0008F7703C08091C0008F7D8093C0000895B4
:103700008091C200877F8093C2000895CF93DF939A
:1037100090E0FC01ED5BFE4F2491FC01EE59FE4F61
:103720008491882349F190E0880F991FFC01E356AA
:10373000FE4FA591B49181579E4FFC01C591D49144
:103740009FB7611108C0F8948C91209582238C93C7
:10375000888182230AC0623051F4F8948C91322F10
:10376000309583238C938881822B888304C0F894BE
:103770008C91822B8C939FBFDF91CF9108950F93F3
:103780001F93CF93DF931F92CDB7DEB7282F30E082
:10379000F901EC5DFE4F8491F901ED5BFE4F149150
:1037A000F901EE59FE4F04910023C9F0882321F05E
:1037B00069830E94491B6981E02FF0E0EE0FFF1F33
:1037C000E157FE4FA591B4919FB7F8948C91611188
:1037D00003C01095812301C0812B8C939FBF0F9054
:1037E000DF91CF911F910F910895CF93DF93282FF1
:1037F00030E0F901EC5DFE4F8491F901ED5BFE4F85
:10380000D491F901EE59FE4FC491CC2391F081116E
:103810000E94491BEC2FF0E0EE0FFF1FEF57FE4F09
:10382000A591B4912C912D2381E090E021F480E0CA
:1038300002C080E090E0DF91CF910895CF93DF93B5
:103840001F92CDB7DEB76983DC01ED91FC91028058
:10385000F381E02D41E050E0BE016F5F7F4F09959D
:103860000F90DF91CF910895CF93DF93EC018C857A
:103870009D8597FF05C082E00E9442219D878C872D
:103880008C859D85DF91CF91089583E00C94D6239C
:10389000FC018485958597FD06C082E00E94EA20A0
:1038A00090E00196089582E00E94EA2090E0089559
:1038B000FC018485958597FD05C02FEF3FEF358787
:1038C0002487089582E00C944221CF93DF93EC018A
:1038D00080911A01882331F083E00E947321181629
:1038E000190634F081E090E09B838A8380E090E0C9
:1038F000DF91CF910895FC0120812E5F208342E467
:1039000050E06BEA71E080E80C940E22FC0121810A
:103910008081813A59F4213209F05CC047E050E0DF
:1039200063E171E080E00E940E2267C0813209F0FD
:1039300051C0233289F4838190E0982F8827328107
:10394000832BA0E0B0E080930F0190931001A0932F
:103950001101B09312010FC0203239F467E070E01A
:1039600083E191E00E943F220AC0223221F4828149
:1039700080931A0104C02D7F203209F03EC080914F
:10398000130190911401A0911501B0911601803B93
:103990009440A105B10501F580911A0180FD1CC07C
:1039A00080910008909101089093FF0A8093FE0A8D
:1039B00087E797E790930108809300082BE088E160
:1039C00090E00FB6F894A895809360000FBE209306
:1039D000600013C080E0089588E10FB6F8948093EA
:1039E0006000109260000FBEA8958091FE0A909131
:1039F000FF0A909301088093000881E008952FEF5B
:103A00003FEFFC01358724870895CF93C0911A01B9
:103A10006AE070E080E090E00E94E61981E0C11168
:103A200001C080E0CF9108951092F3051092F20545
:103A300088EE93E0A0E0B0E08093F4059093F50564
:103A4000A093F605B093F70583E493E09093F10516
:103A50008093F0058FEF9FEF9093FD058093FC0519
:103A600008953F924F925F926F927F928F929F92B2
:103A7000AF92BF92CF92DF92EF92FF920F931F937C
:103A8000CF93DF9300D000D0CDB7DEB78B012901F3
:103A90003A0190911B01981721F09F3F09F025C230
:103AA00004C0EDEEF1E03490AEC080931B01EDEE6A
:103AB000F1E0E491EF3F09F418C2E13009F452C09B
:103AC0001CF5E1119FC014BC15BC94B5926094BD67
:103AD00095B5916095BD282F30E0F901EE59FE4F64
:103AE000E491F0E0EE0FFF1FE157FE4F4591549136
:103AF0005093570640935606F901ED5BFE4F249113
:103B000020935506312C81C0E33009F453C0E430D2
:103B100009F078C01092C0001092C1009091C100CD
:103B200098609093C1009091C10091609093C10002
:103B3000282F30E0F901EE59FE4FE491F0E0EE0F4E
:103B4000FF1FE157FE4F4591549150934206409319
:103B50004106F901ED5BFE4F24912093400654E0AD
:103B6000352E53C0109280001092810090918100F8
:103B70009860909381009091810091609093810072
:103B8000282F30E0F901EE59FE4FE491F0E0EE0FFE
:103B9000FF1FE157FE4F45915491509350064093BB
:103BA0004F06F901ED5BFE4F249120934E0633241E
:103BB00033942BC01092900010929100909191003C
:103BC00098609093910090919100916090939100F2
:103BD000282F30E0F901EE59FE4FE491F0E0EE0FAE
:103BE000FF1FE157FE4F4591549150934906409372
:103BF0004806F901ED5BFE4F24912093470673E0E0
:103C0000372E03C03E2E37FC70C161E00E94861B38
:103C10004801A12CB12C832D8D7F09F0BDC060E03F
:103C200072E18AE790E0A50194010E94B2262983FF
:103C30003A834B835C8369017A0181E0C81AD10819
:103C4000E108F1089FEFC916D104E104F10409F07D
:103C500008F49AC060E472E48FE090E0A50194015A
:103C60000E94B22669017A01E1E0CE1AD108E1088A
:103C7000F108F2E03F1219C08FEFC816D104E10439
:103C8000F10409F008F4CCC060E970ED83E090E045
:103C9000A50194010E94B22669017A0191E0C91A36
:103CA000D108E108F10883E001C082E0EFEFCE1611
:103CB000D104E104F10409F008F467C068E478EE87
:103CC00081E090E0A50194010E94B22669017A0189
:103CD000F1E0CF1AD108E108F1083320E1F082E0E9
:103CE00038121BC09FEFC916D104E104F10409F09A
:103CF00008F496C064E274EF80E090E0A5019401BE
:103D00000E94B22669017A01E1E0CE1AD108E108E9
:103D1000F10885E003C083E001C084E0FFEFCF1627
:103D2000D104E104F10489F180F162E17AE780E0F5
:103D300090E0A50194010E94B22669017A0181E018
:103D4000C81AD108E108F108311002C084E001C0AE
:103D500086E09FEFC916D104E104F104B1F0A8F0A8
:103D6000C980DA80EB80FC809AE0F594E794D794E0
:103D7000C7949A95D1F7E1E0CE1AD108E108F1088D
:103D800031104EC085E003C081E0311049C095B5C7
:103D9000987F982B95BD44C060E072E18AE790E07F
:103DA000A50194010E94B22669017A01F1E0CF1ABF
:103DB000D108E108F108C114D10481E0E806F1045A
:103DC00088F068E478EE81E090E0A50194010E941B
:103DD000B22669017A0191E0C91AD108E108F10817
:103DE00093E001C091E0E1E03E1207C080918100C4
:103DF000887F892B8093810013C0F3E03F1207C0B6
:103E000080919100887F892B8093910009C084E084
:103E1000381206C08091C100887F892B8093C10031
:103E2000411451046104710471F0D801AA0FBB1F41
:103E3000A30192010E94D72628EE33E040E050E033
:103E40000E94902603C02FEF3FEFA90191E03916A1
:103E500049F193158CF0311048C0C7BC2093580627
:103E60003093590640935A0650935B0680916E003A
:103E7000826080936E0039C0E3E03E1629F1F4E0E1
:103E80003F1233C0C092CF002093430630934406C4
:103E9000409345065093460680917200806480935B
:103EA000720023C0D0928900C092880020935106EE
:103EB00030935206409353065093540680916F00FE
:103EC000826080936F0011C0D0929900C0929800D8
:103ED00020934A0630934B0640934C0650934D0670
:103EE000809171008260809371000F900F900F900D
:103EF0000F90DF91CF911F910F91FF90EF90DF9086
:103F0000CF90BF90AF909F908F907F906F905F9079
:103F10004F903F9008958230A1F028F4882341F01B
:103F2000813049F00895833091F08430B1F00895E4
:103F300010926E00089580916F008D7F80936F00C6
:103F40000895809170008D7F809370000895809116
:103F500071008D7F809371000895809172008F7B36
:103F6000809372000895CF93C82F80911B018C130A
:103F700007C0EDEEF1E084919FEF90931B0101C02B
:103F80008FEF0E948B1F60E08C2FCF910C94BF1B92
:103F90001F920F920FB60F9211242F933F934F93BE
:103FA0005F936F937F938F939F93AF93BF93EF93A1
:103FB000FF9380914A0690914B06A0914C06B091D8
:103FC0004D06892B8A2B8B2B51F190914706E0915E
:103FD0004806F091490680818927808380914A06AE
:103FE00090914B06A0914C06B0914D0618161906FB
:103FF0001A061B062CF580914A0690914B06A0915B
:104000004C06B0914D060197A109B10980934A066B
:1040100090934B06A0934C06B0934D0611C083E0DD
:104020000E948B1F20914706E0914806F0914906B7
:10403000808190E030E02095309582239323808327
:10404000FF91EF91BF91AF919F918F917F916F9170
:104050005F914F913F912F910F900FBE0F901F9046
:104060001895615030F02091F100FC0120830196F9
:10407000F8CF289884E680936506089540916006FD
:104080005091610620915E0630915F0642175307FA
:10409000B4F49091E8009570E1F39091E80092FDFE
:1040A00019C08093F100809160069091610601969D
:1040B0008F739927892B19F48EEF8093E8008091F4
:1040C0006006909161060196909361068093600668
:1040D00081E0089580E00895CF92DF92EF92FF9201
:1040E0000F931F93CF93DF931F92CDB7DEB7082FA7
:1040F000162FF42E862F880F8E5F99830E943E2004
:1041000083E00E943E20E02EC02E9981D92E8C2D76
:104110008E19811798F4F601F7FE02C0849101C050
:1041200080810E943E20082F80E00E943E20802354
:10413000FFEFCF1ADF0A8111EACF01C081E00F90B3
:10414000DF91CF911F910F91FF90EF90DF90CF9073
:1041500008958091D70081608093D70080EA809392
:10416000D80089B5806189BD89B5826089BD09B4EF
:1041700000FEFDCF61E070E080E090E00E94E61973
:104180008091D8008F7C80618093D8008091E0007E
:10419000807F8093E0000895CF93DF931F92CDB787
:1041A000DEB71982CE0101960E947B1C0E94382640
:1041B000BE016F5F7F4F0E94B12589810F90DF9113
:1041C000CF9108952FB7FC012083F8946770609316
:1041D000E9000895CF93DF931F92CDB7DEB7682F24
:1041E000CE0101960E94E2208091F20099819FBF4A
:1041F0000F90DF91CF910895FF920F931F93CF936C
:10420000DF9300D0CDB7DEB7F62E8A019091640619
:10421000992311F057FF03C08FEF9FEF2BC0682F3A
:10422000CE0101967A830E94E2208091F20090E014
:10423000A8017A81801791070CF4AC01EF2DF72FBC
:10424000F40E84E6FE1639F0289880936506909166
:10425000F1009193F7CF4115510521F08091F200C3
:10426000882321F089818FBFCA0104C08BE6809327
:10427000E800F8CF0F900F90DF91CF911F910F9131
:10428000FF900895CF93DF931F92CDB7DEB741E043
:1042900050E0BE016F5F7F4F0E94FC20019719F430
:1042A000898190E002C08FEF9FEF0F90DF91CF9157
:1042B0000895CF93DF931F92CDB7DEB7682FCE015D
:1042C00001960E94E2209091E800892F807295FF6C
:1042D00004C09091F20080E4891B99819FBF0F90E8
:1042E000DF91CF9108956F927F928F929F92AF92BC
:1042F000BF92CF92DF92EF92FF920F931F93CF93D3
:10430000DF931F92CDB7DEB7782E7B01C42EB52E7A
:1043100080916406882369F0042F152F8AEFD82E28
:10432000872D8072982E9AE3A92E872D8074882E6F
:1043300011C08FEF9FEF57C0872D0E945921682E23
:1043400081110CC0DA94A9F361E070E080E090E0A4
:104350000E94E6190115110579F73BC0282F30E0BE
:10436000021713070CF4602E672DCE0101960E94F0
:10437000E2208091E80085FF29C0262D30E0021B55
:10438000130B992039F06A948FEF6816B1F01092F0
:10439000F100F9CFF701862D77FE07C0815058F064
:1043A00094919093F1003196F9CF815020F0919142
:1043B0009093F100FACFE20EF31E8091E80085FFA2
:1043C0000FC00115110511F481100AC089818FBF3A
:1043D000C1CF5D9884E6809366068C2D9B2D03C02B
:1043E000A092E800F3CF0F90DF91CF911F910F9132
:1043F000FF90EF90DF90CF90BF90AF909F908F9005
:104400007F906F9008951092E900109261061092CB
:10441000600690935F0680935E060895CF92DF92C8
:10442000FF920F931F93CF93DF9300D0CDB7DEB7EA
:10443000F82E8A016B0101151105B1F0F601F7FEA6
:1044400002C0849101C0808149835A830E943E202A
:1044500001501109FFEFCF1ADF0A49815A818111FA
:10446000EACF8FEF9FEF01C0CA010F900F90DF914D
:10447000CF911F910F91FF90DF90CF900895BF9241
:10448000CF92DF92EF92FF920F931F93CF93DF9320
:104490006C018B01EB013BEFB32E2097C1F07E0145
:1044A000C134D1051CF020E4E22EF12C8091E8000B
:1044B00082FFFCCFC8018C1B9D0B6E2D8C0D9D1DAA
:1044C0000E943120B092E800CE19DF09E6CFC80182
:1044D000DF91CF911F910F91FF90EF90DF90CF90E0
:1044E000BF9008951F920F920FB60F921124DF9282
:1044F000EF92FF920F931F932F933F934F935F93EE
:104500006F937F938F939F93AF93BF93EF93FF939B
:10451000CF93DF93CDB7DEB76C97DEBFCDBF1092E0
:10452000E9008091E80083FF23C168E0CE01459651
:104530000E94312082EF8093E8003D8937FF05C05B
:104540008091E80080FFFCCF03C08EEF8093E800ED
:10455000832F807609F0F0C02E894F89D88C2111E5
:104560000CC0303829F4809163068093F10002C0BA
:104570001092F1001092F100F4C0842F90E09D2978
:10458000213049F43111EDC0019709F0EAC0809162
:1045900063068D7F0AC0233059F43111E2C00197C0
:1045A00009F0DFC080916306826080936306D9C002
:1045B000253041F48091E80080FFFCCF40684093B3
:1045C000E300CFC0263009F08DC0EB8CFC8C22E0DC
:1045D000D2122CC080E090E00E9403220E94CC20E6
:1045E00099E08E010F5F1F4FF801292F11922A9534
:1045F000E9F79983DA8291E09E8390EA98879AEFAF
:1046000099872091600630916106275F3F4F3C8378
:104610002B838D83C7010E94032249E050E0B8013B
:1046200080E00E940E220E94CC209BC0C7010E9405
:1046300003220E943826BE016B5E7F4F0E94DA255E
:10464000009719F00CF08DC090C081E0D8120EC018
:104650008B8D9C8D089719F481E080935D06809185
:104660005D0681112FC060E072E031C0E3E0DE1230
:104670007CC08F89882349F1823029F440E860E1C9
:104680008EE192E01CC0813029F440E86BE082E1C9
:1046900092E015C0833009F068C00E9438268E0170
:1046A0000F5F1F4FB8010E94F925F801019000200B
:1046B000E9F73197E01BF10B40E06E2FC8010E9433
:1046C0006C204DC06EEE71E002C06FE272E06115C9
:1046D000710509F44AC0FB01449150E080E80E9452
:1046E0000E223FC0273009F440C0283021F481E079
:1046F0008093F10036C02930A1F53370B1F5EDE1BA
:10470000F1E081E021E036E39081992361F080932C
:10471000E9002093EB0091919093EC003093ED0031
:104720008F5F873089F78EE78093EA001092EA0066
:104730008F898093640615C08B8D9C8D0E94032207
:10474000898D811105C0CE0145960E94861C07C047
:104750000E943826BE016B5E7F4F0E941826882378
:1047600021F08EEF8093E80003C081E28093EB009C
:104770006C960FB6F894DEBF0FBECDBFDF91CF9120
:10478000FF91EF91BF91AF919F918F917F916F9129
:104790005F914F913F912F911F910F91FF90EF905B
:1047A000DF900F900FBE0F901F9018958093E90037
:1047B0008091F200882319F08AE38093E80008953D
:1047C0001F920F920FB60F9211242F933F934F9386
:1047D0005F936F937F938F939F93AF93BF93CF9389
:1047E000EF93FF93C091E1008091E100837F80937C
:1047F000E1008093E100C3FF0FC01092E90081E067
:104800008093EB001092EC0082E38093ED00109215
:10481000640688E08093F000C2FF19C083E00E9424
:10482000D62380916606882339F0809166068150F0
:1048300080936606882389F180916506882339F084
:1048400080916506815080936506882341F1C4FFFD
:1048500010C08091E2008E7E81608093E2008091A2
:10486000E1008F7E8093E100809162068E7E806100
:1048700011C0C0FF16C08091E2008E7E80618093DF
:10488000E2008091E1008E7E8093E10080916206DB
:104890008E7E81608093620604C05D9ACDCF289A97
:1048A000D6CFFF91EF91CF91BF91AF919F918F9113
:1048B0007F916F915F914F913F912F910F900FBE1C
:1048C0000F901F9018951092640610926306109234
:1048D00062060E94A920E1EEF0E080818E7E808356
:1048E0008DE08093E200559A209A08954F925F924E
:1048F0006F927F92AF92BF92CF92DF92EF92FF9230
:104900000F931F93CF93DF93CDB7DEB729013A0101
:10491000621B730B840B950B29893A894B895C893F
:104920002A193B094C095D09298B3A8B4B8B5C8B0F
:104930009B01AC0169897A898B899C890E944C26EC
:10494000E418F50806091709A80197010E94B22684
:104950002A0D3B1D4C1D5D1DCA01B901DF91CF9190
:104960001F910F91FF90EF90DF90CF90BF90AF908D
:104970007F906F905F904F900895FC0180819181AE
:104980000C948927CF93DF93EC018881998100975C
:1049900011F00E948927198218821D821C821B82B5
:1049A0001A82DF91CF9108950F931F93CF93DF93D6
:1049B000EC018B016F5F7F4F888199810E941828DD
:1049C000009731F0998388831B830A8381E001C0BB
:1049D00080E0DF91CF911F910F910895CF93DF93E6
:1049E000EC0188819981892B29F08A819B81861726
:1049F000970760F4CE010E94D424882341F08C8173
:104A00009D81892B19F4E881F981108281E0DF9181
:104A1000CF910895EF92FF920F931F93CF93DF935F
:104A2000EC017B018A01BA010E94EE24811104C0CD
:104A3000CE010E94C22407C01D830C83B701888168
:104A400099810E94EB28CE01DF91CF911F910F91A8
:104A5000FF90EF900895CF93DF93EC0161157105FE
:104A600061F0FB0101900020E9F7AF0141505109CD
:104A7000461B570B0E940A2502C00E94C224CE0189
:104A8000DF91CF9108950F931F93CF93DF93CDB70D
:104A9000DEB7A2970FB6F894DEBF0FBECDBF8C0174
:104AA000CB01BA01F80111821082138212821582A1
:104AB000148230E0AE014F5F5F4F0E942629BE0195
:104AC0006F5F7F4FC8010E942B25A2960FB6F89406
:104AD000DEBF0FBECDBFDF91CF911F910F91089523
:104AE0000F931F93CF93DF93EB0141155105E9F02D
:104AF0002097D9F0FC016481758126173707A0F44F
:104B0000621B730B8A01015011096017710708F4C9
:104B10008B01FC0160817181620F731FA801CE01BE
:104B20000E94F228C00FD11F1882DF91CF911F91F0
:104B30000F91089508950E942B1A0E949A258CE5E2
:104B400096E00E9463240E949506C0E0D0E00E9497
:104B5000E50B2097E1F30E940000F9CF0C94F126B9
:104B60000895EF92FF920F931F93CF93DF937B01F2
:104B7000FC01C281D38100E010E0209781F0E88140
:104B8000F9810280F381E02DB701CE01099597FDEF
:104B900008C0080F191F0884D985C02DEECFC801A1
:104BA00002C08FEF9FEFDF91CF911F910F91FF9088
:104BB000EF9008950F931F93CF93DF938B01FC0128
:104BC000C281D381209771F0E881F9810480F58159
:104BD000E02DB801CE010995009731F40884D985FC
:104BE000C02DF0CF80E090E0DF91CF911F910F9129
:104BF00008950F931F93CF93DF938B01FC01C28124
:104C0000D381209771F0E881F9810680F781E02D4A
:104C1000B801CE010995080F111D0884D985C02D52
:104C2000F0CFF8011082DF91CF911F910F9108957D
:104C30000F931F93CF93DF938B01FC01C281D3812C
:104C4000209771F0E881F9810190F081E02DB801A1
:104C5000CE010995811106C00884D985C02DF0CFF9
:104C600080E001C081E0DF91CF911F910F91089505
:104C700080916B0681110DC082E08093670684E00D
:104C80008093680610926A061092690681E080930C
:104C90006B0687E696E00895DB018F939F930E9451
:104CA000D726BF91AF91A29F800D911DA39F900D1C
:104CB000B29F900D11240895991B79E004C0991FAB
:104CC000961708F0961B881F7A95C9F78095089566
:104CD000AA1BBB1B51E107C0AA1FBB1FA617B70722
:104CE00010F0A61BB70B881F991F5A95A9F780953E
:104CF0009095BC01CD01089597FB072E16F4009402
:104D000007D077FD09D00E94682607FC05D03EF445
:104D1000909581959F4F0895709561957F4F089567
:104D2000A1E21A2EAA1BBB1BFD010DC0AA1FBB1FAF
:104D3000EE1FFF1FA217B307E407F50720F0A21B21
:104D4000B30BE40BF50B661F771F881F991F1A948E
:104D500069F760957095809590959B01AC01BD01B8
:104D6000CF010895052E97FB1EF400940E94C926DA
:104D700057FD07D00E94902607FC03D04EF40C94F8
:104D8000C92650954095309521953F4F4F4F5F4F25
:104D9000089590958095709561957F4F8F4F9F4FA7
:104DA0000895EE0FFF1F0590F491E02D09940E94E5
:104DB000E226A59F900DB49F900DA49F800D911D9C
:104DC00011240895A29FB001B39FC001A39F700D4D
:104DD000811D1124911DB29F700D811D1124911D03
:104DE0000895CF93DF938230910510F482E090E034
:104DF000E0917506F091760620E030E0A0E0B0E0AA
:104E0000309739F14081518148175907B8F0481758
:104E1000590771F482819381109729F013969C931E
:104E20008E9312972CC0909376068093750627C0B8
:104E30002115310531F04217530718F0A901DB01A4
:104E400001C0EF019A01BD01DF010280F381E02D75
:104E5000D7CF21153105F9F0281B390B2430310546
:104E600080F48A819B816115710521F0FB01938398
:104E7000828304C09093760680937506FE01329675
:104E800044C0FE01E20FF31F819391932250310938
:104E9000398328833AC02091730630917406232BFE
:104EA00041F4209102013091030130937406209364
:104EB000730620910001309101012115310541F463
:104EC0002DB73EB74091040150910501241B350BCD
:104ED000E0917306F0917406E217F307A0F42E1B1D
:104EE0003F0B2817390778F0AC014E5F5F4F24174E
:104EF000350748F04E0F5F1F5093740640937306BA
:104F00008193919302C0E0E0F0E0CF01DF91CF9177
:104F10000895CF93DF93009709F487C0FC0132977F
:104F200013821282C0917506D0917606209781F483
:104F300020813181280F391F80917306909174066A
:104F40008217930779F5F0937406E09373066DC0AA
:104F5000DE0120E030E0AE17BF0750F412964D910D
:104F60005C9113979D014115510509F1DA01F3CFC9
:104F7000B383A28340815181840F951F8A179B07B9
:104F800071F48D919C911197840F951F02969183D6
:104F9000808312968D919C91139793838283211520
:104FA000310529F4F0937606E09375063EC0D901E9
:104FB0001396FC93EE9312974D915D91A40FB51F3C
:104FC000EA17FB0779F480819181840F951F02967F
:104FD000D90111969C938E938281938113969C9311
:104FE0008E931297E0E0F0E08A819B81009719F0A0
:104FF000FE01EC01F9CFCE01029628813981820FA2
:10500000931F20917306309174062817390769F4AD
:10501000309729F4109276061092750602C013821A
:105020001282D0937406C0937306DF91CF910895D6
:10503000A0E0B0E0EEE1F8E20C947629EC01CB01BF
:10504000209719F40E94F126B8C0FE01E60FF71F61
:105050009E0122503109E217F30708F4ACC0D901D0
:105060000D911C91119706171707B8F0053011051F
:1050700008F49FC0A801445051094617570708F487
:1050800098C002501109061B170B019311936D93E1
:105090007C93CF010E9489278CC05B01A01AB10AC2
:1050A0004E01800E911EA0917506B0917606612C7E
:1050B000712C60E070E0109709F449C0A815B9059B
:1050C000C9F5ED90FC901197670142E0C40ED11C28
:1050D000CA14DB0478F147018A189B08640142E096
:1050E000C40ED11C1296BC9012971396AC91B5E0E9
:1050F000CB16D10440F0B282A38391828082D90181
:105100008D939C9309C00E5F1F4F0E0D1F1DF9015B
:1051100011830083EB2DFA2F6115710531F0DB014E
:105120001396FC93EE93129744C0F0937606E093A7
:1051300075063FC06D917C9111976616770608F44D
:105140003B01BD0112960D90BC91A02DB4CF609192
:1051500073067091740668157905E9F46816790686
:10516000D0F440910001509101014115510541F4E5
:105170004DB75EB76091040170910501461B570B56
:10518000E417F507C0F4F0937406E0937306F90191
:10519000918380830EC00E94F1267C01009759F014
:1051A000A801BE010E94E228CE010E948927C70102
:1051B00004C0CE0102C080E090E0CDB7DEB7EEE0E3
:1051C0000C949229FB01DC0102C001900D92415028
:1051D0005040D8F70895FB01DC0101900D920020AA
:1051E000E1F70895FB01DC014150504048F0019087
:1051F0000D920020C9F701C01D9241505040E0F7C8
:105200000895FC0181E090E00190061609F4CF01B9
:105210000020D1F701970895FB0151915523A9F082
:10522000BF01DC014D9145174111E1F759F4CD0162
:105230000190002049F04D9140154111C9F3FB0147
:105240004111EFCF81E090E00197089525323105BB
:1052500020F4223010F00C943129FA011082CA0196
:105260000895BB272A3051F4992342F4BDE290956A
:105270008095709561957F4F8F4F9F4F0C9441297A
:10528000BB27FA01A62F6217710581059105330B23
:1052900030FB66F0AA27660F771F881F991FAA1F89
:1052A000A21710F0A21B63953850A9F7A05DAA338E
:1052B00008F0A95DA19336F7B111B1931082CA012C
:1052C0000C946229DC01FC01672F71917723E1F7CF
:1052D000329704C07C916D9370836291AE17BF07C3
:1052E000C8F308952F923F924F925F926F927F92F0
:1052F0008F929F92AF92BF92CF92DF92EF92FF92E6
:105300000F931F93CF93DF93CDB7DEB7CA1BDB0B91
:105310000FB6F894DEBF0FBECDBF09942A88398836
:1053200048885F846E847D848C849B84AA84B9843D
:10533000C884DF80EE80FD800C811B81AA81B98149
:10534000CE0FD11D0FB6F894DEBF0FBECDBFED015D
:065350000895F894FFCF60
:105356000000770680000100000021FF130001FF16
:10536600FFFFFF00E1000000000000FF00C1808198
:105376000000004D617820736572766F732061744A
:1053860074616368656400556E6B6E6F776E20702E
:10539600696E206D6F646500433A5C50726F677288
:1053A600616D6D6174696F6E5C61726475696E6F53
:1053B6005C706572736F5C332E53637261746368DD
:1053C600322E305C4669726D617461506C75735F24
:1053D600733261696F2D50794D61746141494F5F38
:1053E600333275345C4669726D617461506C7573E5
:1053F6005F733261696F2D50794D61746141494F18
:105406005F333275342E696E6F004932433A205449
:105416006F6F206D616E7920627974657320726595
:10542600636569766564004932433A20546F6F209C
:10543600666577206279746573207265636569763F
:1054460065640031302D626974206164647265732D
:1054560073696E67206E6F7420737570706F7274E7
:10546600656400746F6F206D616E79207175657269
:105476006965730050494E475F434F4E4649472082
:105486004572726F723A204578636565646564207B
:105496006E756D626572206F6620737570706F72BF
:1054A6007465642070696E672064657669636573E8
:1054B600005354455050455220434F4E46494720CD
:1054C6004572726F723A2057726F6E67204E756D15
:1054D600626572206F6620617267756D656E7473A2
:1054E6000061726763203D20005354455050455279
:1054F600204F504552415445204572726F723A20F2
:105506004D4F544F52204E4F5420434F4E4649471D
:105516005552454400535445505045522046495231
:105526004D574152452056455253494F4E204572DC
:10553600726F723A204E4F204D4F544F52532043B4
:105546004F4E4649475552454400535445505045E1
:105556005220434F4E464947204572726F723A2099
:10556600554E4B4E4F574E205354455050455220A2
:10557600434F4D4D414E4400780000000000A60FF9
:10558600790F4E0F560F690F780F2E63707000005B
:105596000000001E1C651C481C581C341C451C00C1
:00000001FF
