:1000000042C1000071C100006FC100006DC100005D
:100010006BC1000069C1000067C1000065C100003C
:1000200063C1000061C100005FC100005DC100004C
:100030005BC100000C943E2457C1000055C1000074
:1000400053C100000C94D90F4FC100004DC10000F6
:100050004BC1000049C1000047C100000C94D71BF0
:1000600043C100000C9437200C946D203DC100006A
:100070003BC1000039C1000037C1000035C100009C
:100080000C94061031C100002FC100002DC10000EA
:100090002BC1000029C1000027C100000C941514D9
:1000A00023C1000021C100000C9433101DC10000C9
:1000B0001BC1000019C1000017C100000C946010A2
:1000C00013C1000011C100000FC100000DC10000EC
:1000D0000BC1000009C1000007C1000005C10000FC
:1000E00003C100008107AC077507B907CB07F50707
:1000F000E907F507F307F507EF07F107100893077E
:10010000F31AF81A001B0B1B0D1B121B1A1B251BC5
:10011000331B351B3E1D431D481D521D5C1DD51D47
:10012000661D6E1D761D801D8A1D941DA31DAD1DAF
:10013000D51DB71DC11DCB1DF71DFA1DE91DED1DF8
:10014000F31D311EFE1D021E081E0C1E101E161E63
:100150001A1E1E1E311E241E281E2C1E00000A0BF5
:1001600002090C0D0E080703040100000000000046
:10017000000000000000000000000000000000007F
:10018000000000000000000012111000000000003C
:10019000000000000000000000000000000000005F
:1001A000000001021020200808102040102040808C
:1001B000020102010804020101020408102040802B
:1001C00080402010080402018004020180402010B9
:1001D0000804020108040201010204081020408002
:1001E00001020408102040800505050507050808E0
:1001F0000808020202020A0A0808040404040101B1
:1002000001010101010103030303030303030407C5
:1002100007070C0C0C0C0C0C0C0C0202020206065C
:100220000606060606060B0B0B0B0B0B0B0B000052
:1002300020002300260029002C002F00320000019E
:10024000000003010601090100002200250028002A
:100250002B002E00310034000201000005010801CE
:100260000B0100002100240027002A002D0030008F
:10027000330001010000040107010A0102000C091A
:100280002C1322199F2011241FBECFEFD1E2DEBF15
:10029000CDBF00E00CBF14E0A0E0B2E0E0E0F2E58A
:1002A00000E00BBF02C007900D92AC33B107D9F745
:1002B00029E0ACE3B4E001C01D92A535B207E1F737
:1002C00012E0C6E8D2E000E006C022970109FE0174
:1002D0000BBF0E945326CE37D10780E00807A9F74D
:1002E0000E94B4250C94FE288BCE0F931F93CF93BE
:1002F000DF931F92CDB7DEB7182F062F8EEF810F39
:100300008434C0F4612F81E597E079830E948917D6
:100310005981813079F4402F612F81E597E00E9467
:10032000A417602F812F0F90DF91CF911F910F9114
:100330000C946B1E0F90DF91CF911F910F91089538
:100340001F93CF93DF93182FEB01863498F5682F16
:1003500081E597E00E9489178330F9F0843051F5E8
:100360008EEF810F843480F4E12FF0E0E157FB4FF2
:10037000408150E0CA01880F991F840F951FBE016C
:100380008B529B4F0E949E11AE01612F81E597E039
:10039000DF91CF911F910C94A4178EEF810F8C30B9
:1003A00020F084ED810F833078F7BE01812F0E9409
:1003B0001A1DEACFDF91CF911F910895DF92EF923E
:1003C000FF920F931F93CF93DF93062F893008F08E
:1003D0009DC0F82EFF0CFF0CFF0C98E0F90E96E480
:1003E0009F1510F436E4F32E182F110F110F110F73
:1003F000C12FD0E0EE24E394CF1558F58EEF8C0F8B
:10040000843420F56C2F81E597E00E9489178130B4
:1004100039F06C2F81E597E00E948917811116C091
:10042000DD24D3948E2D802309F4D12C6C2F81E50B
:1004300097E00E948917813009F051C0DE294D2DC7
:1004400050E06C2F81E597E00E94A417EE0CCF5F7F
:10045000D3CFD0FF05C0602F6170812F0E946B1E2B
:10046000D1FF06C0602F627081E0810F0E946B1E79
:10047000D2FF06C0602F647082E0810F0E946B1E65
:10048000D3FF06C0602F687083E0810F0E946B1E4F
:10049000D4FF06C0602F607184E0810F0E946B1E44
:1004A000D5FF06C0602F607285E0810F0E946B1E31
:1004B000D6FF06C0602F607486E0810F0E946B1E1D
:1004C000D7FF24C0602F607887E0810FDF91CF9144
:1004D0001F910F91FF90EF90DF900C946B1E6C2F8B
:1004E00081E597E00E9489178111A9CFDD2009F4E9
:1004F000A6CF6C2F81E597E00E949A17019709F427
:100500009ECF62E08C2F0E94321E99CFDF91CF9157
:100510001F910F91FF90EF90DF900895CF93C82F18
:10052000803158F54091FA055091FB0521E030E00B
:10053000082E02C0220F331F0A94E2F7672B49F4FA
:1005400020953095242335233093FB052093FA051D
:1005500014C0242B352B3093FB052093FA05809192
:10056000650581110AC08C2F0E94F51CAC016C2F0F
:1005700081E597E0CF910C94BA16CF910895DB01F5
:100580009A0190915D049033D0F540915E04682FFC
:1005900070E0442369F0E42FF0E0E25AFB4F8081E1
:1005A000FB01E157FB4F8083415040935E0407C03D
:1005B000FB01E157FB4F90839F5F90935D04FB012C
:1005C000E157FB4F1A161B067CF41216130664F44F
:1005D000408150E0CA01880F991F840F951FAD011B
:1005E0008B529B4F0C94A910208130E0C901880FD9
:1005F000991F820F931F8B529B4F0C94581160E1EF
:1006000072E081E597E00C944617CF93DF93C82FF3
:10061000D0E0C157DB4F288130E0C901880F991F16
:10062000820F931F8B529B4F0E945D118881909186
:100630005D04891306C0882379F0815080935D049E
:100640000BC0992349F0E0915E04EF5FE0935E04F4
:10065000F0E0E25AFB4F80838FEF8883DF91CF91E8
:1006600008951F93CF93DF93162FC82FD0E0FE017C
:10067000E152FA4F90811923C851DA4F411103C05A
:100680009881911741F0412F50E0682F81E597E064
:100690000E94D2161883DF91CF911F910895EF9297
:1006A000FF920F931F93CF93DF93E82E88E08E1570
:1006B00008F47DC02E2D30E0F901EF50FA4F608331
:1006C000672B09F474C0F901E152FA4FF0800E2D46
:1006D000000F000F000F8EEF800F843408F057C01A
:1006E000F0FE55C0802F0E94A01E892B09F44FC038
:1006F00011E08FEF800F843448F4F1FE07C081E0F1
:10070000800F0E94A01E892B09F043C0C02FD0E0AB
:10071000F2FE06C082E0800F0E94A01E892BD9F550
:10072000F3FE06C083E0800F0E94A01E892BA9F56E
:10073000F4FE06C084E0800F0E94A01E892B79F58C
:10074000F5FE06C085E0800F0E94A01E892B49F5AA
:10075000C034D10541F0F6FE06C086E0800F0E944D
:10076000A01E892B01F5EF9744F4F7FE06C087E041
:10077000800F0E94A01E892BC1F441E0612F8E2DB5
:10078000DF91CF911F910F91FF90EF906ACF10E012
:10079000B0CF1260BBCF1460C3CF1860C9CF106157
:1007A000CFCF1062D5CF1064DECF1068E6CFDF91D7
:1007B000CF911F910F91FF90EF900895CF93DF930A
:1007C0008091F1058823B9F1D091DF05D2FF85C270
:1007D00082E00E94A01E892B09F47FC2C4E0D3FFEF
:1007E00006C083E00E94A01E892B09F078C2D4FFC6
:1007F00006C084E00E94A01E892B09F072C2D5FFBA
:1008000006C085E00E94A01E892B09F06CC2D6FFAD
:1008100006C086E00E94A01E892B09F066C2D7FFA1
:1008200006C087E00E94A01E892B09F060C240E04C
:100830006C2F80E016DF8091F205882309F447C011
:10084000D091E005D0FF55C288E00E94A01E892B00
:1008500009F44FC2C1E0D1FF06C089E00E94A01E8A
:10086000892B09F048C2D2FF06C08AE00E94A01E70
:10087000892B09F042C2D3FF06C08BE00E94A01E64
:10088000892B09F03CC2D4FF06C08CE00E94A01E58
:10089000892B09F036C2D5FF06C08DE00E94A01E4C
:1008A000892B09F030C2D6FF06C08EE00E94A01E40
:1008B000892B09F02AC2D7FF06C08FE00E94A01E34
:1008C000892B09F024C240E06C2F81E0CADE8091C0
:1008D000F305882309F447C0D091E105D0FF19C280
:1008E00080E10E94A01E892B09F413C2C1E0D1FF50
:1008F00006C081E10E94A01E892B09F00CC2D2FF24
:1009000006C082E10E94A01E892B09F006C2D3FF17
:1009100006C083E10E94A01E892B09F000C2D4FF0B
:1009200006C084E10E94A01E892B09F0FAC1D5FF00
:1009300006C085E10E94A01E892B09F0F4C1D6FFF4
:1009400006C086E10E94A01E892B09F0EEC1D7FFE8
:1009500006C087E10E94A01E892B09F0E8C140E093
:100960006C2F82E07EDE8091F405882309F447C075
:10097000D091E205D0FFDDC188E10E94A01E892B45
:1009800009F4D7C1C1E0D1FF06C089E10E94A01ED1
:10099000892B09F0D0C1D2FF06C08AE10E94A01EB7
:1009A000892B09F0CAC1D3FF06C08BE10E94A01EAB
:1009B000892B09F0C4C1D4FF06C08CE10E94A01E9F
:1009C000892B09F0BEC1D5FF06C08DE10E94A01E93
:1009D000892B09F0B8C1D6FF06C08EE10E94A01E87
:1009E000892B09F0B2C1D7FF06C08FE10E94A01E7B
:1009F000892B09F0ACC140E06C2F83E032DE80919E
:100A0000F505882309F447C0D091E305D0FFA1C1C3
:100A100080E20E94A01E892B09F49BC1C1E0D1FF96
:100A200006C081E20E94A01E892B09F094C1D2FF6A
:100A300006C082E20E94A01E892B09F08EC1D3FF5E
:100A400006C083E20E94A01E892B09F088C1D4FF52
:100A500006C084E20E94A01E892B09F082C1D5FF46
:100A600006C085E20E94A01E892B09F07CC1D6FF3A
:100A700006C086E20E94A01E892B09F076C1D7FF2E
:100A800006C087E20E94A01E892B09F070C140E0D9
:100A90006C2F84E0E6DD8091F605882309F447C0D9
:100AA000D091E405D0FF65C188E20E94A01E892B89
:100AB00009F45FC1C1E0D1FF06C089E20E94A01E17
:100AC000892B09F058C1D2FF06C08AE20E94A01EFD
:100AD000892B09F052C1D3FF06C08BE20E94A01EF1
:100AE000892B09F04CC1D4FF06C08CE20E94A01EE5
:100AF000892B09F046C1D5FF06C08DE20E94A01ED9
:100B0000892B09F040C1D6FF06C08EE20E94A01ECC
:100B1000892B09F03AC1D7FF06C08FE20E94A01EC0
:100B2000892B09F034C140E06C2F85E09ADD80917B
:100B3000F705882309F447C0D091E505D0FF29C106
:100B400080E30E94A01E892B09F423C1C1E0D1FFDC
:100B500006C081E30E94A01E892B09F01CC1D2FFB0
:100B600006C082E30E94A01E892B09F016C1D3FFA4
:100B700006C083E30E94A01E892B09F010C1D4FF98
:100B800006C084E30E94A01E892B09F00AC1D5FF8C
:100B900006C085E30E94A01E892B09F004C1D6FF80
:100BA00006C086E30E94A01E892B09F0FEC0D7FF75
:100BB00006C087E30E94A01E892B09F0F8C040E020
:100BC0006C2F86E04EDD8091F805882309F447C03C
:100BD000D091E605D0FFEDC088E30E94A01E892BCE
:100BE00009F4E7C0C1E0D1FF06C089E30E94A01E5E
:100BF000892B09F0E0C0D2FF06C08AE30E94A01E44
:100C0000892B09F0DAC0D3FF06C08BE30E94A01E37
:100C1000892B09F0D4C0D4FF06C08CE30E94A01E2B
:100C2000892B09F0CEC0D5FF06C08DE30E94A01E1F
:100C3000892B09F0C8C0D6FF06C08EE30E94A01E13
:100C4000892B09F0C2C0D7FF06C08FE30E94A01E07
:100C5000892B09F0BCC040E06C2F87E002DD809159
:100C6000F905882309F4C1C0D091E705D0FFB1C0D0
:100C700080E40E94A01E892B09F4ABC0C1E0D1FF23
:100C800006C081E40E94A01E892B09F0A4C0D2FFF7
:100C900006C082E40E94A01E892B09F09EC0D3FFEB
:100CA00006C083E40E94A01E892B09F098C0D4FFDF
:100CB00006C084E40E94A01E892B09F092C0D5FFD3
:100CC00006C085E40E94A01E892B09F08CC040E07C
:100CD0006C2F88E0DF91CF91C4CCC0E080CDC8609C
:100CE00086CDC0618CCDC06292CDC06498CDC06805
:100CF0009ECDC0E0B0CDC260B6CDC460BCCDC860F2
:100D0000C2CDC061C8CDC062CECDC064D4CDC068F4
:100D1000DACDC0E0ECCDC260F2CDC460F8CDC860E1
:100D2000FECDC06104CEC0620ACEC06410CEC068E1
:100D300016CEC0E028CEC2602ECEC46034CEC860CD
:100D40003ACEC06140CEC06246CEC0644CCEC068D0
:100D500052CEC0E064CEC2606ACEC46070CEC860BD
:100D600076CEC0617CCEC06282CEC06488CEC068C0
:100D70008ECEC0E0A0CEC260A6CEC460ACCEC860AD
:100D8000B2CEC061B8CEC062BECEC064C4CEC068B0
:100D9000CACEC0E0DCCEC260E2CEC460E8CEC8609D
:100DA000EECEC061F4CEC062FACEC06400CFC0689F
:100DB00006CFC0E018CFC2601ECFC46024CFC86089
:100DC0002ACFC06130CFC06236CFC0643CCFC0688C
:100DD00042CFC0E054CFC2605ACFC46060CFC86079
:100DE00066CFC0616CCFC06272CFDF91CF910895A2
:100DF000109268058FEF80930B020895FF920F9376
:100E00001F93CF93DF93182FEB01682F81E597E0B5
:100E10000E9489178F3709F403C1612F81E597E09C
:100E20000E948917863041F480916805882321F05B
:100E3000C630D10509F0E4C00EEF010F0434B8F458
:100E4000C430D105A1F0E12FF0E0E157FB4F8081E4
:100E5000803368F490E09C01220F331F280F391F64
:100E6000C9018B529B4F0E9402128111CBC0BAEC78
:100E7000FB2EF10E8FE08F1548F061E070E0C2307C
:100E8000D10511F060E070E08F2D48DB0434E8F408
:100E9000E12FE695E695E695812F8770F0E0E15227
:100EA000FA4F21E030E0082E01C0220F0A94EAF741
:100EB000209719F0CD30D10521F48081822B8083D9
:100EC00004C0209580812823208340E050E0612FDA
:100ED00081E597E00E94A417CE30D10508F085C0C7
:100EE000FE01EE58FF4F0C9443268FE08F1508F457
:100EF00097C0043420F460E0812F0E94321E42E04B
:100F000008C0043408F08CC060E0812F0E94321EBB
:100F100040E0612F81E597E0DF91CF911F910F9124
:100F2000FF900C949017043408F07AC062E0812F8F
:100F30000E94321E4DE0612F81E597E00E949017DC
:100F400041E050E0612F81E597E0DF91CF911F9163
:100F50000F91FF900C94A417043408F061C060E076
:100F6000812F0E946B1E61E0812F0E94321E41E0A2
:100F7000D0CF0C3028F084ED810F833008F050C0C2
:100F800061E0812F0E94321E60E070E0812F0E949C
:100F90001A1D43E0BECF043408F042C044E0612F84
:100FA00081E597E00E949017E12FF0E0E157FB4FB9
:100FB00080818F3F51F190E09C01220F331F280F59
:100FC000391FC9018B529B4F0E940212811128C008
:100FD0001CC08CEE810F823018F546E09ACF4AE0B3
:100FE00098CF4BE096CF48E094CF64E272E081E581
:100FF00097E0DF91CF911F910F91FF900C944617CE
:10100000F7DE1ACF812F01DB32CF4FEF5FEF6FEFAB
:101010007FEF812FDF91CF911F910F91FF90AFCA8A
:10102000DF91CF911F910F91FF900895CF93C0E072
:101030008CEE8C0F823020F466E070E08C2FDEDEC8
:10104000CF5FC634A9F781E08093680581E996E017
:10105000CF910C94A6120F931F93CF93DF9381E04F
:1010600080936505809168058111C2DEE1EFF5E0AE
:10107000CFEDD5E0A8EEB5E0119219921D9285E072
:10108000EA3FF807C9F7CFE8D4E010E00FEF8AECA9
:10109000810F803118F462E070E00AC08EEF810F9A
:1010A000843420F4812F0E942B2404C061E070E07E
:1010B000812FA4DE09931F5F163449F7109258045C
:1010C00010925704A1E5B4E0E3E4F4E02FE72D9398
:1010D00080819181892B11F011821082329684E0F7
:1010E000A735B807A1F71092FB051092FA051092E8
:1010F0005E0410925D0410923D0410923C04109224
:101100006505DF91CF911F910F91089525E042E091
:1011100065E372E081E597E00E94E21540EA51E064
:1011200060EE81E597E00E9453174EED51E060E9D3
:1011300081E597E00E9453174EE852E060EC81E5AC
:1011400097E00E9453174FE453E060ED81E597E08C
:101150000E9453174EEF56E064EF81E597E00E943E
:10116000531745E751E065EF81E597E00E9453177B
:101170004DE959E060EF81E597E00E9483174BE26B
:1011800058E06FEF81E597E00E947B1740E051EE59
:1011900060E070E081E597E00E940F195CCF0F934B
:1011A0001F93CF93DF93CDB7DEB7C654D1090FB6E7
:1011B000F894DEBF0FBECDBF8C012AE0CE018F5B5D
:1011C0009F4F0E945F2520E030E040E450E0BE01E8
:1011D0006F5F7F4FCE018F5B9F4F0E948A25B801C2
:1011E00081E597E00E944617BE016F5F7F4F81E562
:1011F00097E00E944617CE018F5B9F4F0E94E2242A
:10120000CA5BDF4F0FB6F894DEBF0FBECDBFDF91D4
:10121000CF911F910F910895CF93DF93C5EDD4E047
:10122000CE017BD7239685E0C536D807C9F7DF9175
:10123000CF910895682F81E996E00C94681281E9B6
:1012400096E00C9419120895AF92BF92DF92EF923C
:10125000FF920F931F93CF93DF931F92CDB7DEB70B
:10126000F82E5B01D42E6F3F8FEF7807B9F06F2D0A
:1012700081E996E029830E94AF128A2DDBDF298164
:10128000622F81E996E00E94B912809166059091E3
:101290006705009729F00E94881C02C0A12CB12C80
:1012A0004D2D6F2D81E996E00E9428130D2D10E041
:1012B00081E996E00E941112081719071CF467EAE9
:1012C00072E009C081E996E00E941112801791072F
:1012D00034F464EC72E081E597E00E944617F092E6
:1012E0006905A0926A055BE6E52E55E0F52EA12C76
:1012F000B12CA016B1069CF042E04D0D29E635E078
:1013000067E781E597E00F90DF91CF911F910F91F3
:10131000FF90EF90DF90BF90AF900C94001781E9A1
:1013200096E00E941112892B39F389DFF70181932E
:101330007F01FFEFAF1ABF0ADCCF8F929F92AF926F
:10134000BF92CF92DF92EF92FF920F931F93CF93B2
:10135000DF93162FEA018D3609F435C2E8F48236A0
:1013600009F4D9C238F4803509F468C18F3509F41D
:101370009BC2FCC3893609F47FC28B3609F0F6C3E1
:1013800060EF81E597E00E9449176CE681E597E000
:101390000E944917CEEFFCC1823709F404C338F428
:1013A0008F3609F482C1803709F40AC1DFC3883758
:1013B00009F4E7C08A3709F458C1863709F0D6C363
:1013C0002981922F987125FF03C060EE72E0BAC3A5
:1013D000888126FB222720F931E02327983099F1D4
:1013E00048F49111C3C3682F81E996E00E94AF12BF
:1013F00002E007C0903109F449C0983109F473C084
:10140000B5C3011760F4FE01E00FF11D91818081E9
:1014100020E8929F801911240DDF0E5FF2CF81E941
:1014200096E00E942A1386E490E0DF91CF911F910D
:101430000F91FF90EF90DF90CF90BF90AF909F9073
:101440008F900C94881C4A816B8130E8163061F4CF
:10145000639FB0011124640F711D9D814C81E0E8F0
:101460009E9F4019112405C0639F401911246FEFFE
:101470007FEFDF91CF911F910F91FF90EF90DF9061
:10148000CF90BF90AF909F908F90DECEE0910B02F7
:10149000E7301CF060E073E055C39A814B81663001
:1014A00069F460E8469FA0011124490F511D3D8158
:1014B0009C8160E8369F9019112406C030E8439F54
:1014C000901911244FEF5FEFEF5FE0930B0265E09F
:1014D000E602F0011124E755FA4F808352834183DD
:1014E0009383248343C360910B0216163CF470E08F
:1014F000262F332727FD309595E00FC08FEF80937F
:101500000B0234C3949FF001959FF00D1124E75511
:10151000FA4F4081481739F07F5F472F50E024177A
:10152000350784F770E0C5E0872F90E0281739076A
:1015300024F1783000F5AC014F5F5F4FC49FD001BC
:10154000C59FB00D1124A755BA4F4C91C89FF0010B
:10155000C99FF00D1124E755FA4F408311968D91E4
:101560009C9112979283818313968C911397838316
:1015700014968C9184837F5FD7CF615060930B0268
:10158000F5C228818981E0E88E9FC0011124820F75
:10159000911D009721F090936705809366058091D7
:1015A00068058111E3C2DF91CF911F910F91FF90E8
:1015B000EF90DF90CF90BF90AF909F908F9036CDFF
:1015C000653008F4D3C218810981FA80EB80CC81A0
:1015D0008EEF810F843408F0C9C2E12FF0E0E157AB
:1015E000FB4FE081E03358F4F0E0CF01880F991F02
:1015F0008E0F9F1F8B529B4F05D78111B3C220E8DE
:10160000C29FA00111244E0D511D30E8F39EB00180
:101610001124600F711D812F0E94BF0264E070E0F1
:10162000812FDF91CF911F910F91FF90EF90DF906D
:10163000CF90BF90AF909F908F90E0CB2881898111
:1016400040E8849FC0011124820F911D9093D20520
:101650008093D1050E94211C6093D3057093D4051B
:101660008093D5059093D60581C2623008F47EC27E
:101670002881898160E8869FC0011124820F911D15
:10168000009711F481E090E090930D0280930C029A
:1016900060910C0270910D0288E290E00E94DE25BC
:1016A00070935C0460935B0461C2623008F45EC2B4
:1016B000698170E0123091F08A81E0E88E9FC0016C
:1016C0001124682B792B133049F08B8190E090E442
:1016D000899F902D88271124682B792B8881DF9191
:1016E000CF911F910F91FF90EF90DF90CF90BF901F
:1016F000AF909F908F900C94A001CC3008F458C00C
:1017000086ED8C0F833008F453C0C43450F464E089
:1017100081E597E00E9449176EE081E597E00E941D
:1017200049178EEE8C0F823050F466E081E597E029
:101730000E94491761E081E597E00E9449176FE731
:1017400081E597E00E944917CF5FC43409F4E4C1F2
:10175000C434F0F460E081E597E00E94491761E04D
:1017600081E597E00E9449176DE081E597E00E94CE
:10177000491761E081E597E00E94491761E081E542
:1017800097E00E94491761E081E597E00E944917C0
:101790008CEC8C0F803108F0B0CF62E081E597E0EF
:1017A0000E9449176AE081E597E00E944917A8CF97
:1017B00063E081E597E00E94491768E081E597E0E2
:1017C0000E944917A2CF662309F4D0C1C88160EFF7
:1017D00081E597E00E9449176EE681E597E00E9457
:1017E00049176C2F81E597E00E944917C63408F02D
:1017F00093C16C2F81E597E00E948917682F81E5DE
:1018000097E00E9449176C2F81E597E00E949A1794
:10181000682F6F7781E597E00E9449176C2F81E56B
:1018200097E00E949A178078892B79F06C2F81E5D8
:1018300097E00E949A17880F892F881F990B682FAD
:101840006F7781E597E00E9449176C2F81E597E05B
:101850000E949A178827907C892B09F45DC16C2F10
:1018600081E597E00E949A17990F880B990F982F9E
:10187000881F682F6F774CC160EF81E597E00E9469
:1018800049176AE681E597E00E944917CAECC03122
:1018900010F06FE701C06C2F81E597E00E944917B7
:1018A000CF5FC031A1F738C198818981911122C0E1
:1018B0009C812D8140E8249F90011124290F311D26
:1018C000442737FD4095542F9A816B81E0E86E9F45
:1018D000B0011124690F711DDF91CF911F910F91FC
:1018E000FF90EF90DF90CF90BF90AF909F908F9040
:1018F0000C940A21913009F039C1DF91CF911F91E9
:101900000F91FF90EF90DF90CF90BF90AF909F909E
:101910008F900C942B24209157043091580426303A
:1019200031050CF03DC088818093420499819093E9
:1019300041049A81913208F491E290930A029B81CA
:10194000CC8140E8C49FE0011124C90FD11DF901E9
:10195000EF5AFB4F80836BE070E050DA6BE070E091
:10196000809141044BDA82E190E00E94C1258C0114
:101970009E0140914104609142040E94251980918A
:10198000570490915804FC01EE0FFF1FED5BFB4FD5
:101990001183008301969093580480935704E6C006
:1019A00061E173E0CFC08881811147C08981CA801D
:1019B00060E8C69E60011124C80ED11CAB80B12C1A
:1019C0008C80912C153059F48AE190E00E94C12559
:1019D000EC019401A501B6010E94111A10C0173044
:1019E00099F40D8110E0EE80F12C8AE190E00E94E4
:1019F000C125EC019401A501B6010E94351AD093CE
:101A00003D04C0933C04B2C06EE473E081E597E00E
:101A10000E944617412F50E060E070E08EE793E0AF
:101A2000DF91CF911F910F91FF90EF90DF90CF90BA
:101A3000BF90AF909F908F90B2CB813009F048C09B
:101A40004A8150E060E070E0F7E0440F551F661FE8
:101A5000771FFA95D1F78B8190E0A0E0B0E01EE00F
:101A6000880F991FAA1FBB1F1A95D1F7482B592B16
:101A70006A2B7B2B8981482B8C810D8190E8099FF3
:101A800080011124080F111DCE8180913C0490919A
:101A90003D040097D1F00E94671AC11103C011954F
:101AA00001951109B80180913C0490913D04DF91AA
:101AB000CF911F910F91FF90EF90DF90CF90BF904B
:101AC000AF909F908F900C944D1B66E873E03AC0E6
:101AD0008230B1F580913C0490913D04009769F10A
:101AE0000E94D41BEC0160EF81E597E00E9449174A
:101AF00062E781E597E00E9449176C2F6F7781E5D7
:101B000097E00E944917BE01660F672F661F770B8B
:101B100081E597E00E94491767EF81E597E0DF9143
:101B2000CF911F910F91FF90EF90DF90CF90BF90DA
:101B3000AF909F908F900C94491762EB73E002C0B6
:101B400067EE73E081E597E0DF91CF911F910F91F0
:101B5000FF90EF90DF90CF90BF90AF909F908F90CD
:101B60000C944617812F0E94050349CDDF91CF9138
:101B70001F910F91FF90EF90DF90CF90BF90AF90AB
:101B80009F908F9008958F929F92AF92BF92CF9225
:101B9000DF92EF92FF920F931F930E94DE0381E585
:101BA00097E00E944216892B29F081E597E00E9478
:101BB0008B18F5CF0E94211C6093DB057093DC0528
:101BC0008093DD059093DE05C090D705D090D805B1
:101BD000E090D905F090DA0540910C0250910D0289
:101BE0004A01A12CB12C8B019C010C191D092E0955
:101BF0003F0980169106A206B30608F00EC1D50172
:101C0000C4018C0D9D1DAE1DBF1D8093D705909303
:101C1000D805A093D905B093DA0580915904909125
:101C20005A049C012F5F3F4F30935A04209359046C
:101C300020915B0430915C04281739070CF064C0D4
:101C400010925A04109259048091570490915804AC
:101C5000892B09F459C0E0914F04F0915004EE0F24
:101C6000FF1FED5BFB4F808191810E94E51969E3C5
:101C700070E00E94DE25CB0140914F04509150044A
:101C8000409340049A012F5F3F4F309350042093BC
:101C90004F042091570430915804215031094217C4
:101CA000530724F01092500410924F046F77609302
:101CB0003E04880F892F881F990B80933F0460EFA3
:101CC00081E597E00E94491763E681E597E00E946D
:101CD0004917E0914004F0E0EF5AFB4F608181E545
:101CE00097E00E94491760913E0481E597E00E94C9
:101CF000491760913F0481E597E00E94491767EF1B
:101D000081E597E00E9449171AEC66E3610F1031F4
:101D1000D8F481E597E00E9489178230A9F42091D8
:101D2000FA053091FB05012E02C0359527950A94DE
:101D3000E2F720FF09C0812F0E94F51CAC01612F42
:101D400081E597E00E94BA161F5F1031F1F680918D
:101D50000B0287FF08C08091D1059091D205892B95
:101D600009F45BC01BC010E005E0812F90E02091DA
:101D70000B02332727FD30952817390764F3089F96
:101D8000F001099FF00D1124E755FA4F618172812E
:101D900024814381808158DA1F5FE7CF0E94211C94
:101DA0006093DB057093DC058093DD059093DE0581
:101DB0000091D3051091D4052091D5053091D60519
:101DC000AB01BC01401B510B620B730BE091D105C1
:101DD000F091D20528EE33E0E29FC001E39F900D21
:101DE000F29F900D1124A0E0B0E084179507A6079C
:101DF000B70798F430D940E050E0BA0185E194E0AB
:101E0000CED928E088E190E00FB6F894A8958093A9
:101E100060000FBE20936000FFCF1F910F91FF90D5
:101E2000EF90DF90CF90BF90AF909F908F900895EC
:101E3000CF92DF92EF92FF920F931F93CF93DF9396
:101E40006C018B017A01EC01C350DA4F888187FF66
:101E500004C0FB011182108223C02CE02C9DC00124
:101E60002D9D900D11242881AC01420F511D27FD9D
:101E70005A952091FC0530E0421753078CF42881D5
:101E8000AC01420F511D27FD5A959A01FA01EE0F40
:101E9000FF1FE20FF31FEF5FF94F208126FD19C0EE
:101EA00088818F5F88838CE08C9D90018D9D300DA3
:101EB00011248881A901480F511D87FD5A958091F1
:101EC000FC0590E048175907B4F488818C303CF148
:101ED00012C02881820F911D27FD9A95FC01EE0FFB
:101EE000FF1FE80FF91FEF5FF94F808160E08F73EC
:101EF0000E946B1ED5CFF8018081918104968034B9
:101F00009C4918F480E49CE904C0F8018081918127
:101F10000496F701918380838FEF888341C0F80195
:101F2000808191814881B901640F711D47FD7A95C7
:101F3000AB01FB01EE0FFF1FE40FF51FEF5FF94F41
:101F400041815281840F951FF7019183808388819D
:101F5000A901480F511D87FD5A95FA01EE0FFF1F89
:101F6000E40FF51FEF5FF94F808186FF19C088816C
:101F7000280F311D87FD3A95F901EE0FFF1FE20F83
:101F8000F31FEF5FF94F808161E08F73DF91CF9195
:101F90001F910F91FF90EF90DF90CF900C946B1EEC
:101FA000DF91CF911F910F91FF90EF90DF90CF9035
:101FB00008951F920F920FB60F9211240BB60F9235
:101FC0002F933F934F935F936F937F938F939F9341
:101FD000AF93BF93EF93FF9348E850E064E870E05D
:101FE00081E090E025DFFF91EF91BF91AF919F914C
:101FF0008F917F916F915F914F913F912F910F90B2
:102000000BBE0F900FBE0F901F9018951F920F924E
:102010000FB60F9211240BB60F922F933F934F934D
:102020005F936F937F938F939F93AF93BF93EF9340
:10203000FF9348E950E064E970E082E090E0F8DE68
:10204000FF91EF91BF91AF919F918F917F916F9190
:102050005F914F913F912F910F900BBE0F900FBE4C
:102060000F901F9018951F920F920FB60F92112488
:102070000BB60F922F933F934F935F936F937F9382
:102080008F939F93AF93BF93EF93FF9348EA50E0F2
:1020900064EA70E083E090E0CBDEFF91EF91BF91C6
:1020A000AF919F918F917F916F915F914F913F91F0
:1020B0002F910F900BBE0F900FBE0F901F90189591
:1020C0001F920F920FB60F9211240BB60F922F93FF
:1020D0003F934F935F936F937F938F939F93AF93B0
:1020E000BF93EF93FF9348E251E064E271E080E038
:1020F00090E09EDEFF91EF91BF91AF919F918F9104
:102100007F916F915F914F913F912F910F900BBEF7
:102110000F900FBE0F901F9018952091FC05203353
:10212000A0F431E0320F3093FC05FC012083822FB4
:1021300090E0FC01EE0FFF1FE80FF91FEF5FF94F72
:1021400088EB9BE09283818308952FEFFC0120832D
:102150000895DF92EF92FF920F931F93CF93DF9337
:10216000EC01D62E7A0189018881803308F068C09D
:1021700061E08D2D0E94321E8881A82FB0E0FD0104
:10218000EE0FFF1FEA0FFB1FEF5FF94F2D2D2F738F
:102190009081907C922B908360E272E06E197F09AF
:1021A00077FF02C06D5F7F4F759567957595679551
:1021B000698340E659E0401B510B57FF02C04D5F59
:1021C0005F4F55954795559547954A836CE00E941A
:1021D000D2259CE0899FB001112420E030E0A901C4
:1021E000460F571FFA01EE0FFF1FE40FF51FEF5FB9
:1021F000F94F908196FD18C02F5F3F4F2C3031056D
:1022000071F790E08130910521F51092800082E015
:10221000809381001092850010928400B19A809181
:102220006F00826080936F00888190E0FC01EE0F68
:10223000FF1FE80FF91FEF5FF94F808180648083F3
:102240008881DF91CF911F910F91FF90EF90DF90E8
:1022500008958230910569F41092900082E0809395
:102260009100109295001092940088BB80937100A9
:10227000DBCF8330910569F41092A00082E0809357
:10228000A1001092A5001092A40089BB8093720057
:10229000CBCF892B49F61092200182E08093210157
:1022A00010922501109224018ABB80937300BCCF49
:1022B00020E639E040E252E04CCFFC01808190E022
:1022C000FC01EE0FFF1FE80FF91FEF5FF94F808150
:1022D0008F7B80830895FC018081803370F591812C
:1022E00028E830E0291B310997FD3395220F331F71
:1022F000220F331F621773077CF0928128E532E0CA
:10230000291B310997FD3395220F331F220F331FED
:10231000621773070CF49B0122503109220F331FFF
:102320004FB7F89490E0FC01EE0FFF1FE80FF91F84
:10233000EF5FF94F328321834FBF08954F925F9231
:102340006F927F92AF92BF92CF92DF92EF92FF9205
:102350000F931F93CF93DF93EC01603282E07807F5
:102360000CF040C077FD06C0653B71052CF064EBB6
:1023700070E002C060E070E0898128E830E0281B4E
:10238000310987FD3395220F331F220F331F590167
:10239000CC24B7FCC094DC2C882777FD8095982F3F
:1023A0002A8148E552E0421B510927FD5395440F0D
:1023B000551F440F551F2A01662457FC6094762C44
:1023C0007F926F925F924F9214EBE12EF12C00E01E
:1023D00010E020E030E0A9010E949D240F900F90B2
:1023E0000F900F90CE01DF91CF911F910F91FF9031
:1023F000EF90DF90CF90BF90AF907F906F905F9005
:102400004F9069CFFC01808190E0FC01EE0FFF1F2F
:10241000E80FF91FEF5FF94F808186FB882780F96D
:1024200008958091C10690E02091C206821B910917
:1024300008952091C2068091C106281750F4E22F1A
:10244000F0E0ED53F94F808190E02F5F2093C206BA
:1024500008958FEF9FEF0895E091C2068091C10625
:10246000E81730F4F0E0ED53F94F808190E00895E3
:102470008FEF9FEF08950895CF92DF92EF92FF9232
:102480000F931F93CF93DF937C01CB018A0120919F
:102490009D06222389F0EB016B01C40ED51ECC15DD
:1024A000DD0561F06991D701ED91FC910190F0811A
:1024B000E02DC7011995F3CF642F8ED1C801DF91AC
:1024C000CF911F910F91FF90EF90DF90CF900895E3
:1024D000CF93DF931F92CDB7DEB7698320919D061E
:1024E0002223D1F020919E06203240F021E030E0FE
:1024F000FC013383228380E090E014C080919F062A
:10250000E82FF0E0E056F94F998190838F5F809338
:102510009F0680939E0604C061E0CE0101965CD1C7
:1025200081E090E00F90DF91CF910895FC0113823C
:10253000128248EE53E060E070E044835583668386
:1025400077838BE194E09183808308951092C20693
:102550001092C10610929F0610929E0680C081E0E4
:1025600080939D066093C00610929F0610929E066F
:1025700008950F93062F21E040919E0660EA76E0D1
:102580008091C006D2D010929F0610929E061092A3
:102590009D060F9108958F929F92AF92BF92CF9216
:1025A000DF92EF92FF920F931F93CF93DF93EC0193
:1025B000F62ED42E48015901EE2009F1D0DF1E2D50
:1025C000143008F013E01150B8F0E881F98128E0E8
:1025D000129FB0011124A501940104C0569547959E
:1025E000379527956A95D2F7CA01B9010190F08114
:1025F000E02DCE011995E7CF60E0CE01BADF4D2D79
:10260000413208F040E22C2D63EC76E08F2D45D06E
:102610001092C2068093C106DF91CF911F910F9156
:10262000FF90EF90DF90CF90BF90AF909F908F90F2
:102630000895CF92EF920F931F93C22EE12C00E0EA
:1026400010E09801A8DF1F910F91EF90CF900895AF
:1026500021E0EFCF61E08DCF81E996E067CF109266
:10266000500781E080934E0710924D0761E084E1AE
:102670000E946B1E61E085E10E946B1EE9EBF0E0B9
:1026800080818E7F808380818D7F808388E48093AA
:10269000B80085E48093BC000895413208F043C03F
:1026A000909150079111FCCF91E0909350072093A7
:1026B0004E072FEF2093E30610922807240F209354
:1026C000270790934F0790914F07880F892B80938E
:1026D0004F0780914D07813061F410924D07809132
:1026E0004F078093BB008091BC0083FDF8CF85EC41
:1026F00001C085EE8093BC00809150078130E1F3EA
:1027000080912807841710F44091280729E237E0C8
:10271000FB01D9018A2F821B841718F48D918193B4
:10272000F9CF842F089580E008950F93413208F087
:102730004AC0909150079111FCCF92E090935007BE
:1027400000934E079FEF9093E30610922807409363
:102750002707FB0169E277E0DB019A2F961B9417AC
:1027600018F491919D93F9CF10924F0790914F07D4
:10277000880F892B80934F0780914D07813061F43A
:1027800010924D0780914F078093BB008091BC0051
:1027900083FDF8CF85EC01C085EE8093BC00222339
:1027A00021F0809150078230E1F38091E3068F3F62
:1027B00061F08091E306803251F08091E30680332E
:1027C00041F483E007C081E005C080E003C082E0FF
:1027D00001C084E00F910895613298F42091500770
:1027E000243089F460930507FC0187E097E0DC0161
:1027F0002A2F281B261718F421912D93F9CF80E05A
:10280000089581E0089582E0089585ED8093BC00ED
:102810008091BC0084FDFCCF10925007089585EC98
:102820008093BC001092500708951F920F920FB62C
:102830000F9211240BB60F922F933F934F935F93F8
:102840006F937F938F939F93AF93BF93EF93FF9378
:102850008091B900887F803609F49DC070F5883278
:1028600009F45CC090F4803109F455C038F4882331
:1028700009F4F3C0883009F44EC0F2C0883109F47D
:102880004DC0803209F45EC0EBC0803409F469C0E9
:1028900050F4803309F456C0883309F0E1C08093C6
:1028A000E306BDDFDDC0803509F44FC0883509F48B
:1028B0005DC0883409F0D4C0D2C0883909F4C3C0DF
:1028C000A8F4883709F467C038F4883609F463C07F
:1028D000803709F460C0C4C0883809F4B4C08039B6
:1028E00009F45FC0803809F0BBC05BC0803B09F4CD
:1028F00082C038F4803A09F466C0883A09F47BC093
:10290000AFC0803C09F4A3C0883C09F4A0C0883B58
:1029100009F486C0A5C080914F0710C09091280788
:1029200080912707981770F5E091280781E08E0FB6
:1029300080932807F0E0E75DF84F80818093BB002B
:1029400085EC82C08093E3068AC0E091280781E08D
:102950008E0F809328078091BB00F0E0E75DF84F71
:10296000808390912807809127076AC0E09128070B
:1029700081E08E0F809328078091BB00F0E0E75D37
:10298000F84F808380914E07811169C081E0809368
:102990004D0784EA5DC083E0809350071092E406FF
:1029A000CFCF8091E406803208F04DC0E091E4067C
:1029B00081E08E0F8093E4068091BB00F0E0EB5144
:1029C000F94F8083BDCF2BDF8091E406803230F455
:1029D000E091E406F0E0EB51F94F10826091E406DB
:1029E00070E0E0914907F0914A0785EE96E019956D
:1029F0001092E40635C084E08093500710920607D9
:102A000010920507E0914B07F0914C0719958091C2
:102A10000507811105C081E0809305071092070723
:102A2000E091060781E08E0F80930607F0E0E95FF2
:102A3000F84F80818093BB00909106078091050735
:102A4000981708F47DCF85E88093BC0009C085EC19
:102A50008093BC001092500703C01092E306D5DEAD
:102A6000FF91EF91BF91AF919F918F917F916F9166
:102A70005F914F913F912F910F900BBE0F900FBE22
:102A80000F901F9018950F931F93CF93DF93EC0136
:102A90008B0188819981DC01ED91FC916F77019028
:102AA000F081E02D199588819981DC01ED91FC91EF
:102AB000B801660F672F661F770B6F770190F08163
:102AC000E02DDF91CF911F910F911994DC018D9131
:102AD0009C91DC01ED91FC910190F081E02D60EF83
:102AE0001994DC018D919C91DC01ED91FC91019098
:102AF000F081E02D67EF1994CF93DF93EC0188818B
:102B00009981DC01ED91FC910190F081E02D69EF5C
:102B1000199588819981DC01ED91FC910190F081FA
:102B2000E02D62E0199588819981DC01ED91FC919D
:102B30000190F081E02D65E0DF91CF9119941F9312
:102B4000CF93DF93EC018A818823C1F1CE01BEDFF0
:102B500088819981DC01ED91FC910190F081E02D5B
:102B600069E7199588819981DC01ED91FC91AB8130
:102B7000BC810190F081E02D6C911995888199813B
:102B8000DC01ED91FC91AB81BC810190F081E02DE5
:102B900011966C91199512E08A81181750F4EB8107
:102BA000FC81E10FF11D608170E0CE016CDF1F5FE1
:102BB000F3CFCE01DF91CF911F9193CFDF91CF91D2
:102BC0001F910895CF92DF92EF92FF920F931F9380
:102BD000CF93DF938C01EB01C42ED22E67E274E019
:102BE000CE010E949B287C016FE270E0CE010E9422
:102BF0009028009739F46CE570E0CE010E9490288F
:102C0000009711F0EC012196E114F10451F4FE015A
:102C100001900020E9F7EC1BEF5FD8011296EC93CE
:102C200006C0EC1AFD0AE394E394F801E282D801AD
:102C300013968D919C9114970E94FE26F801E280D4
:102C4000F12CC70101960E946626D80114969C9328
:102C50008E931397FC01EE0DFF1D1082FC01C082C4
:102C6000D18212964C9150E042505109BE01029619
:102C7000DF91CF911F910F91FF90EF90DF90CF9058
:102C80000C948128DC018D919C91DC01ED91FC91EB
:102C90000480F581E02D19940F931F93CF93DF9358
:102CA000FC012085213741F0293709F048C0DF9128
:102CB000CF911F910F9143CFFC01E55DFE4F019035
:102CC000F081E02D309709F450C0DC01A75BBF4FC5
:102CD0004D915C919A012150310937FD9A01B9015A
:102CE00075956795062F40E050E020E030E04E5F9C
:102CF0005F4F2017A0F4EC01C40FD51F1F81DC012A
:102D0000A20FB31F18961C931897C885D0E8CD9FC3
:102D10001019112418961C932F5F3F4FE8CFDC0148
:102D2000A60FB11D17962C911797222311F0189614
:102D30001C920896DF91CF911F910F911994FC017D
:102D4000E35DFE4F0190F081E02D309771F0AC0112
:102D5000475F5F4FDC01A75BBF4F6C916150822FD3
:102D6000DF91CF911F910F911994DF91CF911F9116
:102D70000F9108950F931F93CF93DF93EC018A0176
:102D800088819981DC01ED91FC916F70606E0190FA
:102D9000F081E02D1995B801CE01DF91CF911F91FF
:102DA0000F9171CE0F931F93CF93DF93EC018A01A4
:102DB00088819981DC01ED91FC916F7060690190CF
:102DC000F081E02D199588819981DC01ED91FC91CC
:102DD000602F6F770190F081E02D1995888199819E
:102DE000DC01ED91FC91B801660F672F661F770B30
:102DF0000190F081E02DDF91CF911F910F911994F7
:102E0000CF92DF92EF92FF920F931F93CF93DF93B6
:102E100000D0CDB7DEB78C01F42E2A833B836983C3
:102E200055DED8018D919C91DC01ED91FC910190D2
:102E3000F081E02D698119952A81E22EC22E3B8115
:102E4000D32E8C2D8E198F1538F4F60161916F01F8
:102E500070E0C80118DEF5CFC8010F900F900F90F9
:102E6000DF91CF911F910F91FF90EF90DF90CF9066
:102E700038CE9A01613749F4FA0101900020E9F750
:102E80003197E41BF50B4E2FBBCF0895AB0161E7E3
:102E9000F0CFDC018D919C91DC01ED91FC910190D2
:102EA000F081E02D1994603DC1F028F4603969F09B
:102EB000603C79F00895643FA1F0653FB1F0603E59
:102EC000C9F4FC01E35EFE4F13C0FC01E15EFE4F5E
:102ED0000FC0FC01EF5DFE4F0BC0FC01ED5DFE4F2E
:102EE00007C0FC01EB5DFE4F03C0FC01E95DFE4F36
:102EF0005183408308956F3F29F4FC01E75DFE4F45
:102F0000518340830895835D9E4FFC01518340832C
:102F10000895860F911DFC01E55BFF4F80810895A8
:102F2000860F911DFC01E55BFF4F80818F3709F013
:102F300040830895860F911D860F911DFC01EF5669
:102F4000FF4F808191810895860F911D860F911DFD
:102F5000FC01EF56FF4F518340830895FC01158219
:102F60001682178280E090E0DF01A80FB91F189643
:102F70001C92019680349105B9F7DF01A85BBF4F21
:102F80001C9211961D921C92E75DFE4F0190F081FC
:102F9000E02D309709F019940895FC01E15DFE4F92
:102FA0001082FC01128214821382D8CFCF93DF9358
:102FB000EC01FC01E85BFF4F8081882399F0673FBB
:102FC00029F41082CE01DF91CF9166CEFE01E75B3E
:102FD000FF4F80819181C80FD91F68870196918327
:102FE000808396C08D81882309F452C067FD50C04C
:102FF00081508D83FE01E80FF11D6087811188C02B
:103000008E81882309F484C0803DA1F140F4803989
:1030100081F0803CD9F5FE01EF5DFE4F2EC0843F6C
:10302000C9F0853FD9F0803E89F5FE01E35EFE4F91
:1030300003C0FE01E15EFE4F0190F081E02D30976C
:1030400029F18885698570E090E8899F600D711D80
:1030500011241AC0FE01EB5DFE4F03C0FE01E95DC5
:10306000FE4F0190F081E02D309781F0688570E08F
:1030700089850BC0FE01ED5DFE4F0190F081E02DD2
:10308000309721F0688570E08F8119951E8240C0CD
:10309000862F603F28F4807F90E06F706F8301C0BF
:1030A00090E0803F910541F17CF4803C910501F175
:1030B00024F480399105D1F02BC0803D9105C1F0F9
:1030C000803E910599F024C0893F9105E1F03CF4E0
:1030D0009C01245F31092230310540F019C08F3F37
:1030E0009105B1F4CE01DF91CF9138CF92E001C0CC
:1030F00091E09D838E830CC081E08083C75BDF4FAE
:103100001982188205C081E597E0DF91CF91F4CC58
:10311000DF91CF910895CF93DF93EC01888199815E
:10312000DC01ED91FC910680F781E02D19958F3F30
:10313000BFEF9B0729F0682FCE01DF91CF9136CFEB
:10314000DF91CF9108957F928F929F92AF92BF921D
:10315000CF92DF92EF92FF920F931F93CF93DF9363
:10316000762EEA01680110E0EE24D7FCE094FE2CF4
:103170004901AA2497FCA094BA2C212F30E02C17E7
:103180003D0774F4C701B6018BD361E0872DA3D549
:10319000C501B40185D360E0872D9DD51F5FEDCFBC
:1031A000DF91CF911F910F91FF90EF90DF90CF9023
:1031B000BF90AF909F908F907F9008950F931F9333
:1031C000CF93DF93EC01FC01E15DFE4F8081811123
:1031D00021C061E08DE046D502ED10E028E230E04C
:1031E00042E050E06DE0CE01AEDF6AEF70E080E0DB
:1031F00090E056D328E230E045E050E06DE0CE01AB
:10320000A2DF6DE770E080E090E0DF91CF911F9149
:103210000F9146C3DF91CF911F910F910895CF93E6
:10322000DF93EC0126E08AE898E0C1D68AE898E0CE
:1032300099838883CE01C2DFCE015EDCCE01DF91AF
:10324000CF917DCC81E597E0A8CECF93DF93DC01D1
:1032500070E0FB01EE55FE4FE4911496EC93149749
:10326000842F90E0FC01EE55FE4FE4911596EC930F
:10327000159768517E4FFB01C491D0E0CC0FDD1F44
:10328000C85BDD4FFE014591549117965C934E93B8
:103290001697FC01E851FE4F849190E0880F991F2A
:1032A000825D9D4FFC01459154911B965C934E931A
:1032B0001A97FB016491E62FF0E0EE0FFF1FEE5925
:1032C000FD4F8591949119969C938E931897C901FF
:1032D000253FF1E03F0714F084EF91E049E3489F78
:1032E0009001499F300D1124245E3F4F1D963C9361
:1032F0002E931C97DF91CF9108950F931F93CF9337
:10330000DF93EC01E885F98580819C81892B80839E
:10331000EE81FF8190818C8180958923808384E078
:1033200090E0F6D2EE81FF8180819C81892B8083A1
:103330008AE090E0EDD2EE81FF8190818C818095D2
:1033400089238083E885F98590818C818095892304
:10335000808383D2605B794B8F4F9F4F6E877F87CF
:10336000888B998BEA85FB8580819D81892351F02B
:1033700074D20E851F8528893989061717072807F3
:10338000390780F7EA85FB8580819D81892361F477
:1033900064D20E851F8528893989061717072807E3
:1033A000390780F780E00CC058D22C853D85620F2C
:1033B000731F811D911D6E877F87888B998B81E09C
:1033C000DF91CF911F910F9108950F931F93CF938A
:1033D000DF93EC0192DF882381F0EA85FB85808111
:1033E0009D81892369F039D20E851F852889398905
:1033F000061717072807390780F720E030E00BC0D1
:103400002CD22C853D85255031094E855F85241BA6
:10341000350B260F371FC901DF91CF911F910F91F7
:103420000895CF93DF93EC01842F1B861A861982AF
:1034300018821E8A1F8A188E198E7F836E834C878E
:103440005D873F872E8761E00DD461E08E850AD4C9
:10345000198A188A1B8A1A8A1D8A1C8A82E090E0BF
:1034600099878887DF91CF910895EF92FF920F930C
:103470001F93CF93DF93EC01842F1B861A8619824A
:1034800018821E8A1F8A188E198E7F836E834C873E
:103490005D873F872E87198B088BFB8AEA8A61E05C
:1034A000E1D361E08E85DED361E08889DBD361E022
:1034B0008A89D8D31D8A1C8A84E090E099878887FE
:1034C000DF91CF911F910F91FF90EF900895CF92D0
:1034D000DF92EF92FF92CF93DF93EC016A017B01C1
:1034E0002E813F81442737FD4095542F60E077E8D7
:1034F00083E993E00E942726CA01B901A70196013A
:103500000E9427262A833B834C835D83DF91CF91E2
:10351000FF90EF90DF90CF9008950F931F93CF937C
:10352000DF93EC018B01888599850297E1F4613086
:10353000710571F02CF461157105A9F460E009C002
:103540006230710551F06330710569F460E006C0C6
:1035500061E08C85C0D361E004C061E08C85BBD3A1
:1035600060E08E85B8D388859985049771F5013020
:103570001105A1F044F40115110539F561E08C85C0
:10358000AAD360E00FC00230110599F00330110595
:10359000E1F461E08C859FD360E00FC060E08C8532
:1035A0009AD361E08E8597D361E0888994D360E0F7
:1035B0000AC060E08C858FD361E08E858CD360E09B
:1035C000888989D361E08A8986D38885998505971A
:1035D00009F05EC00A30110508F05AC0F801E05841
:1035E000FF4F0C94432660E08C8575D361E041C0A9
:1035F00060E08C8570D361E08E856DD360E03CC067
:1036000060E08C8568D361E08E8565D360E0888951
:1036100062D361E034C060E001C061E08C855BD3BF
:1036200061E004C061E08C8556D360E08E8553D3A1
:1036300060E007C061E08C854ED360E08E854BD39F
:1036400061E0888948D361E00AC061E08C8543D39A
:1036500060E08E8540D361E088893DD360E08A894F
:103660003AD360E00FC061E001C060E08C8533D3E5
:1036700060E08E8530D361E088892DD360E08A894F
:103680002AD361E08C89DF91CF911F910F9123C3E1
:10369000DF91CF911F910F9108954F925F926F929A
:1036A0007F928F929F92AF92BF92CF92DF92EF92D2
:1036B000FF920F931F93CF93DF93EC01CB0177FF22
:1036C00004C088279927861B970B6C0116161706CE
:1036D0002CF481E090E09983888304C0672B11F07B
:1036E0001982188204E010E08AE0E82EF12CC1145F
:1036F000D10409F448C0B1D08E889F88A88CB98CB9
:103700002B013C01481859086A087B088A809B8075
:10371000AC80BD80481459046A047B0460F36E8B4E
:103720007F8B888F998F288139818A859B8521306D
:10373000310559F401969B878A872E813F81821734
:10374000930771F41B861A860BC0892B21F48E8196
:103750009F819B878A878A859B8501979B878A871C
:1037600081E0C81AD108288539858A859B8525304E
:10377000310511F4B70101C0B8010E94F225BC0166
:10378000CE01CBDEB4CFDF91CF911F910F91FF908F
:10379000EF90DF90CF90BF90AF909F908F907F90F1
:1037A0006F905F904F90089585E090E008951F928C
:1037B0000F920FB60F9211242F933F938F939F93E5
:1037C000AF93BF938091820890918308A091840861
:1037D000B09185083091810823E0230F2D3720F424
:1037E0000196A11DB11D05C026E8230F0296A11D5B
:1037F000B11D209381088093820890938308A09341
:103800008408B09385088091860890918708A091DC
:103810008808B09189080196A11DB11D8093860882
:1038200090938708A0938808B0938908BF91AF91BF
:103830009F918F913F912F910F900FBE0F901F90EE
:1038400018952FB7F8946091820870918308809141
:103850008408909185082FBF08953FB7F894809110
:10386000860890918708A0918808B091890826B5AC
:10387000A89B05C02F3F19F00196A11DB11D3FBFA8
:103880006627782F892F9A2F620F711D811D911D38
:1038900042E0660F771F881F991F4A95D1F7089558
:1038A0008F929F92AF92BF92CF92DF92EF92FF9250
:1038B0006B017C01D2DF4B015C01C114D104E10436
:1038C000F104E9F00E94C225C8DF681979098A0964
:1038D0009B09683E73408105910578F321E0C21A87
:1038E000D108E108F10888EE880E83E0981EA11C3B
:1038F000B11CC114D104E104F10431F7DECFFF9013
:10390000EF90DF90CF90BF90AF909F908F900895F1
:103910008230910538F0880F991F880F991F0597FD
:103920000197F1F70895789484B5826084BD84B5D9
:10393000816084BD85B5826085BD85B5816085BDAA
:10394000EEE6F0E0808181608083E1E8F0E01082C3
:10395000808182608083808181608083E0E8F0E004
:10396000808181608083E1EBF0E0808184608083EE
:10397000E0EBF0E0808181608083E1E9F0E080812C
:1039800082608083808181608083E0E9F0E08081D3
:1039900081608083E1EAF0E08081826080838081C1
:1039A00081608083E0EAF0E0808181608083E1E2F1
:1039B000F1E0808182608083808181608083E0E2A9
:1039C000F1E0808181608083EAE7F0E080818460BB
:1039D0008083808182608083808181608083808118
:1039E000806880831092C1000895863308F0865362
:1039F00020917B00982F9870277F922B90937B00CB
:103A0000877020910E0290E4299F90011124822B4F
:103A100080937C0080917A00806480937A0080910A
:103A20007A0086FDFCCF809178002091790090E0AB
:103A3000922B08951F93CF93DF93182FEB0161E032
:103A400011D1209711F460E004C0CF3FD10531F4CB
:103A500061E0812FDF91CF911F913DC1E12FF0E017
:103A6000E45AFE4F449150E0FA013197E231F105FA
:103A700008F09BC0E657FF4F0C94432684B580683E
:103A800084BDC7BD97C084B5806284BDC8BD92C0E7
:103A900080918000806880938000D0938900C093DB
:103AA000880088C080918000806280938000D093DD
:103AB0008B00C0938A007EC08091800088608093D4
:103AC0008000D0938D00C0938C0074C08091B000B2
:103AD00080688093B000C093B3006CC08091B00048
:103AE00080628093B000C093B40064C08091900065
:103AF000806880939000D0939900C09398005AC03A
:103B000080919000806280939000D0939B00C0933E
:103B10009A0050C080919000886080939000D0936C
:103B20009D00C0939C0046C08091A0008068809357
:103B3000A0008091A0008F7B8093A000D093A9006B
:103B4000C093A80037C08091A00080628093A0003D
:103B5000D093AB00C093AA002DC08091A0008860D4
:103B60008093A000D093AD00C093AC0023C080919F
:103B70002001806880932001D0932901C0932801FF
:103B800019C080912001806280932001D0932B0185
:103B9000C0932A010FC0809120018860809320018A
:103BA000D0932D01C0932C0105C0C038D1050CF075
:103BB0004FCF49CFDF91CF911F91089590E0FC0145
:103BC0003197E231F10508F04CC0E456FF4F0C94F8
:103BD0004326809180008F7703C0809180008F7D85
:103BE00080938000089580918000877FF9CF84B50D
:103BF0008F7702C084B58F7D84BD08958091B00019
:103C00008F7703C08091B0008F7D8093B0000895BE
:103C1000809190008F7707C0809190008F7D03C0C6
:103C200080919000877F8093900008958091A000FC
:103C30008F7707C08091A0008F7D03C08091A00086
:103C4000877F8093A0000895809120018F7707C01F
:103C5000809120018F7D03C080912001877F809318
:103C600020010895CF93DF9390E0FC01EE55FE4FC5
:103C70002491FC01E851FE4F8491882349F190E0A2
:103C8000880F991FFC01EE59FD4FA591B491885BF7
:103C90009D4FFC01C591D4919FB7611108C0F89464
:103CA0008C91209582238C93888182230AC0623074
:103CB00051F4F8948C91322F309583238C93888122
:103CC000822B888304C0F8948C91822B8C939FBFA5
:103CD000DF91CF9108950F931F93CF93DF931F929E
:103CE000CDB7DEB7282F30E0F901E45AFE4F8491BA
:103CF000F901EE55FE4F1491F901E851FE4F049180
:103D00000023C1F0882319F0698358DF6981E02F0F
:103D1000F0E0EE0FFF1FE85BFD4FA591B4919FB758
:103D2000F8948C91611103C01095812301C0812BFF
:103D30008C939FBF0F90DF91CF911F910F910895AA
:103D4000CF93DF93282F30E0F901E45AFE4F84919E
:103D5000F901EE55FE4FD491F901E851FE4FC4919F
:103D6000CC2389F081112ADFEC2FF0E0EE0FFF1F4A
:103D7000E25DFD4FA591B4912C912D2381E090E05F
:103D800021F480E002C080E090E0DF91CF910895BF
:103D9000FC01818D228D90E0805C9F4F821B9109F8
:103DA0008F7399270895FC01918D828D981731F0BA
:103DB000828DE80FF11D858D90E008958FEF9FEFC4
:103DC0000895FC01918D828D981761F0828DDF013D
:103DD000A80FB11D5D968C91928D9F5F9F73928FFE
:103DE00090E008958FEF9FEF089586E990E2892B88
:103DF00039F080E090E0892B19F098D1811125C02D
:103E000080E090E0892B41F080E090E0892B21F068
:103E10000E94000081111CC080E090E0892B41F0DD
:103E200080E090E0892B21F00E940000811113C0F6
:103E300080E090E0892BA1F080E090E0892B81F078
:103E40000E94000081110AC008950E940000D8CF8E
:103E50000E940000E1CF0E940000EACF0C94000015
:103E60000895FC01848DDF01A80FB11DA35ABF4F37
:103E70002C91848D90E001968F739927848FA68969
:103E8000B7892C93A089B1898C9180648C93938D90
:103E9000848D981306C00288F389E02D80818F7D80
:103EA00080830895CF93DF93EC01888D8823C1F040
:103EB000EA89FB89808185FD05C0A889B9898C9133
:103EC00086FD0EC00FB607FCF5CF808185FFF2CFCF
:103ED000A889B9898C9185FFEDCFCE01C2DFE8CFEB
:103EE000DF91CF910895CF92DF92FF920F931F93AE
:103EF000CF93DF931F92CDB7DEB76C0181E0D6017F
:103F000058968C9358975B969C915B975C968C9196
:103F10005C97981307C05096ED91FC915197808162
:103F200085FD2DC0F601038D10E00F5F1F4F0F734D
:103F30001127F02EF601848DF81210C00FB607FC81
:103F4000F9CFD6015096ED91FC915197808185FF74
:103F5000F1CFC601698385DF6981ECCF838DE80FDE
:103F6000F11DE35AFF4F6083D6015B960C935B977C
:103F70005296ED91FC915397808180620CC0D601DE
:103F80005696ED91FC91579760835096ED91FC9178
:103F9000519780818064808381E090E00F90DF9171
:103FA000CF911F910F91FF90DF90CF900895BF9216
:103FB000CF92DF92EF92FF92CF93DF93EC016A01F1
:103FC0007B01B22EE889F98982E08083411581EE78
:103FD00058076105710599F060E079E08DE390E0A4
:103FE000A701960112D62150310941095109569570
:103FF000479537952795211580E1380790F0E88996
:10400000F989108260E874E88EE190E0A7019601DA
:10401000FCD52150310941095109569547953795ED
:104020002795EC85FD853083EE85FF852083188EEE
:10403000EC89FD89B082EA89FB8980818061808377
:10404000EA89FB89808188608083EA89FB89808195
:1040500080688083EA89FB8980818F7D8083DF91FE
:10406000CF91FF90EF90DF90CF90BF9008951F9277
:104070000F920FB60F9211240BB60F922F938F93BE
:104080009F93EF93FF93E0919A08F0919B088081B2
:10409000E091A008F091A10882FD12C0908180916A
:1040A000A3088F5F8F732091A408821751F0E091CD
:1040B000A308F0E0E657F74F958F8093A30801C05F
:1040C0008081FF91EF919F918F912F910F900BBE67
:1040D0000F900FBE0F901F9018951F920F920FB662
:1040E0000F9211240BB60F922F933F934F935F9330
:1040F0006F937F938F939F93AF93BF93EF93FF93B0
:104100008AE898E0AEDEFF91EF91BF91AF919F9169
:104110008F917F916F915F914F913F912F910F9070
:104120000BBE0F900FBE0F901F9018958AE898E075
:104130002FDE21E0892B09F420E0822F08951092D0
:104140008D0810928C0888EE93E0A0E0B0E0809398
:104150008E0890938F08A0939008B093910880E305
:1041600094E090938B0880938A0885EC90E090937C
:1041700097088093960884EC90E090939908809338
:10418000980880EC90E090939B0880939A0881ECCB
:1041900090E090939D0880939C0882EC90E090932F
:1041A0009F0880939E0886EC90E09093A1088093EE
:1041B000A0081092A3081092A4081092A5081092CB
:1041C000A6080895CF92DF92EF92FF920F931F936C
:1041D000CF93DF937C016A01EB0100E010E00C1546
:1041E0001D0571F06991D701ED91FC910190F0816D
:1041F000E02DC7011995892B19F00F5F1F4FEFCFE5
:10420000C801DF91CF911F910F91FF90EF90DF9048
:10421000CF9008953F924F925F926F927F928F92CC
:104220009F92AF92BF92CF92DF92EF92FF920F9345
:104230001F93CF93DF9300D01F92CDB7DEB78B01D2
:1042400029013A0190910F02981721F09F3F09F040
:10425000B2C204C0ECE7F2E0349004C180930F02D4
:10426000ECE7F2E0E491EF3F09F4A5C2E23009F493
:1042700080C074F5EE2309F45BC0E13009F0F1C0B1
:10428000109280001092810090918100986090932C
:10429000810090918100916090938100282F30E0FF
:1042A000F901E851FE4FE491F0E0EE0FFF1FE85BEB
:1042B000FD4F459154915093450940934409F901AC
:1042C000EE55FE4F24912093430933243394CCC000
:1042D000E43009F49EC00CF474C0E53009F0C1C0AC
:1042E00010922001109221019091210198609093E9
:1042F000210190912101916090932101282F30E0BC
:10430000F901E851FE4FE491F0E0EE0FFF1FE85B8A
:10431000FD4F459154915093290940932809F90183
:10432000EE55FE4F24912093270955E0352E9CC071
:1043300014BC15BC94B5926094BD95B5916095BDC3
:10434000282F30E0F901E851FE4FE491F0E0EE0F44
:10435000FF1FE85BFD4F4591549150934C094093EA
:104360004B09F901EE55FE4F249120934A09312C57
:104370007BC01092B0001092B1009091B00092609A
:104380009093B0009091B10091609093B100282F6C
:1043900030E0F901E851FE4FE491F0E0EE0FFF1F2D
:1043A000E85BFD4F4591549150933E0940933D0980
:1043B000F901EE55FE4F249120933C0922E0322E64
:1043C00053C01092900010929100909191009860CB
:1043D0009093910090919100916090939100282F7B
:1043E00030E0F901E851FE4FE491F0E0EE0FFF1FDD
:1043F000E85BFD4F4591549150933709409336093E
:10440000F901EE55FE4F249120933509B3E03B2E80
:104410002BC01092A0001092A1009091A100986072
:104420009093A1009091A10091609093A100282FFA
:1044300030E0F901E851FE4FE491F0E0EE0FFF1F8C
:10444000E85BFD4F459154915093300940932F09FB
:10445000F901EE55FE4F249120932E0974E0372E7A
:1044600003C03E2E37FCA7C161E0FCDB4801A12C54
:10447000B12C832D8D7F09F0C1C060E072E18AE725
:1044800090E0A5019401E3D329833A834B835C83B5
:1044900069017A0181E0C81AD108E108F1089FEFAB
:1044A000C916D104E104F10409F008F495C060E4F0
:1044B00072E48FE090E0A5019401C9D369017A010B
:1044C000E1E0CE1AD108E108F108F2E03F1218C08D
:1044D0008FEFC816D104E104F10409F008F486C096
:1044E00060E970ED83E090E0A5019401B0D369012B
:1044F0007A0191E0C91AD108E108F10883E001C00E
:1045000082E0EFEFCE16D104E104F10409F008F4E3
:1045100064C068E478EE81E090E0A501940197D34F
:1045200069017A01F1E0CF1AD108E108F1083320DE
:10453000D9F082E038121AC09FEFC916D104E10405
:10454000F10409F008F435C164E274EF80E090E012
:10455000A50194017CD369017A01E1E0CE1AD1086A
:10456000E108F10885E003C083E001C084E0FFEFCB
:10457000CF16D104E104F10481F178F162E17AE728
:1045800080E090E0A501940162D369017A0181E0A5
:10459000C81AD108E108F108311002C084E001C056
:1045A00086E09FEFC916D104E104F104B1F0A8F050
:1045B000C980DA80EB80FC809AE0F594E794D79488
:1045C000C7949A95D1F7E1E0CE1AD108E108F10835
:1045D000332031F087E00BC081E0332011F007C0B9
:1045E00085E095B5987F982B95BD54C082E0909159
:1045F000B100987F982B9093B1004CC060E072E1BD
:104600008AE790E0A501940122D369017A01F1E0E3
:10461000CF1AD108E108F108C114D10481E0E806FD
:10462000F10480F068E478EE81E090E0A501940167
:104630000ED369017A0191E0C91AD108E108F108A5
:1046400093E001C091E0E1E03E1207C0809181005B
:10465000887F892B809381001DC0F3E03F1207C043
:1046600080919100887F892B8093910013C084E012
:10467000381207C08091A100887F892B8093A10008
:1046800009C0E5E03E1206C080912101887F892B98
:1046900080932101411451046104710461F0D80137
:1046A000AA0FBB1FA3019201F4D228EE33E040E031
:1046B00050E0ABD203C02FEF3FEFA901F2E03F166D
:1046C00009F443C0F315BCF0332081F181E03812C6
:1046D00072C0D0928900C09288002093460930931E
:1046E0004709409348095093490980916F008260BF
:1046F00080936F0060C094E0391609F448C0391601
:10470000A4F1E5E03E1257C0D0922901C0922801E1
:1047100020932A0930932B0940932C0950932D099B
:104720008091730082608093730045C0C7BC209362
:104730004D0930934E0940934F0950935009809191
:104740006E00826080936E0036C0C092B3002093EA
:104750003F093093400940934109509342098091A9
:10476000700082608093700026C0D0929900C09241
:104770009800209338093093390940933A095093AF
:104780003B098091710082608093710014C0D092C7
:10479000A900C092A80020933109309332094093B8
:1047A00033095093340980917200826080937200C3
:1047B00002C084E01CCF0F900F900F900F90DF91FC
:1047C000CF911F910F91FF90EF90DF90CF90BF900E
:1047D000AF909F908F907F906F905F904F903F90A1
:1047E00008958230A9F028F4882349F0813051F0EF
:1047F0000895843021F1E8F0853039F10895109260
:104800006E00089580916F008D7F80936F000895F2
:10481000809170008D7F8093700081E08093B00064
:104820008091B100887F84608093B1001092B300C2
:104830000895809171008D7F80937100089580911B
:1048400072008D7F809372000895809173008D7F38
:10485000809373000895CF93C82F80910F028C131B
:1048600007C0ECE7F2E084919FEF90930F0201C044
:104870008FEFB7DF60E08C2FCF912DCA1F920F9280
:104880000FB60F9211240BB60F922F933F934F93B5
:104890005F936F937F938F939F93AF93BF93EF93A8
:1048A000FF9380913F0990914009A0914109B091F7
:1048B0004209892B8A2B8B2B51F190913C09E09175
:1048C0003D09F0913E0980818927808380913F09CD
:1048D00090914009A0914109B0914209181619061A
:1048E0001A061B06BCF480913F0990914009A091E3
:1048F0004109B09142090197A109B10980933F098B
:1049000090934009A0934109B093420903C080915C
:104910000F02A1DFFF91EF91BF91AF919F918F9116
:104920007F916F915F914F913F912F910F900BBEAF
:104930000F900FBE0F901F9018954F925F926F923D
:104940007F92AF92BF92CF92DF92EF92FF920F933E
:104950001F93CF93DF93CDB7DEB729013A01621BD6
:10496000730B840B950B2A893B894C895D892A1925
:104970003B094C095D092A8B3B8B4C8B5D8B9B0162
:10498000AC016A897B898C899D89FDD0E418F50882
:1049900006091709A80197015AD12A0D3B1D4C1D84
:1049A0005D1DCA01B901DF91CF911F910F91FF9059
:1049B000EF90DF90CF90BF90AF907F906F905F901F
:1049C0004F900895FC018081918118C2CF93DF93AD
:1049D000EC0188819981009709F010D21982188220
:1049E0001D821C821B821A82DF91CF9108950F9342
:1049F0001F93CF93DF93EC018B016F5F7F4F888113
:104A000099818BD2009731F0998388831B830A8325
:104A100081E001C080E0DF91CF911F910F91089557
:104A2000CF93DF93EC0188819981892B29F08A81CA
:104A30009B818617970758F4CE01D9DF882341F070
:104A40008C819D81892B19F4E881F981108281E0A4
:104A5000DF91CF910895EF92FF920F931F93CF9321
:104A6000DF93EC017B018A01BA01DADF811103C017
:104A7000CE01ACDF06C01D830C83B701888199810C
:104A800039D3CE01DF91CF911F910F91FF90EF901D
:104A90000895CF93DF93EC016115710559F0FB0187
:104AA00001900020E9F7AF0141505109461B570B17
:104AB000D2DF01C08BDFCE01DF91CF9108950F933C
:104AC0001F93CF93DF93CDB7DEB7A2970FB6F894BD
:104AD000DEBF0FBECDBF8C01CB01BA01F801118240
:104AE0001082138212821582148230E0AE014F5F71
:104AF0005F4F3BD3BE016F5F7F4FC801CADFA296F5
:104B00000FB6F894DEBF0FBECDBFDF91CF911F91DE
:104B10000F9108950F931F93CF93DF93EB014115EE
:104B20005105E1F02097D1F0FC01648175812617D1
:104B3000370798F4621B730B8A0101501109601743
:104B4000710708F48B01FC0160817181620F731F92
:104B5000A801CE01D6D2C00FD11F1882DF91CF910C
:104B60001F910F91089508950E94931CFCDF0E94ED
:104B70008608C5EFDEE10E94C30D2097E1F335D929
:104B8000FACFA4C00895DB018F939F9382D0BF9189
:104B9000AF91A29F800D911DA39F900DB29F900D8C
:104BA00011240895991B79E004C0991F961708F005
:104BB000961B881F7A95C9F780950895AA1BBB1B81
:104BC00051E107C0AA1FBB1FA617B70710F0A61B0D
:104BD000B70B881F991F5A95A9F780959095BC012E
:104BE000CD01089597FB072E16F4009406D077FDAB
:104BF00008D0E4DF07FC05D03EF4909581959F4FE7
:104C00000895709561957F4F0895A1E21A2EAA1B11
:104C1000BB1BFD010DC0AA1FBB1FEE1FFF1FA2176C
:104C2000B307E407F50720F0A21BB30BE40BF50B69
:104C3000661F771F881F991F1A9469F760957095F2
:104C4000809590959B01AC01BD01CF010895052E83
:104C500097FB16F400940FD057FD05D0D6DF07FC64
:104C600002D046F408C050954095309521953F4FAD
:104C70004F4F5F4F089590958095709561957F4F48
:104C80008F4F9F4F0895EE0FFF1F0590F491E02D79
:104C900019940DD0A59F900DB49F900DA49F800DE9
:104CA000911D112408950790F691E02D1994A29F6B
:104CB000B001B39FC001A39F700D811D1124911DF0
:104CC000B29F700D811D1124911D0895CF93DF9324
:104CD0008230910510F482E090E0E0915309F09168
:104CE000540920E030E0A0E0B0E0309739F1408195
:104CF000518148175907B8F04817590771F4828154
:104D00009381109729F013969C938E9312972CC041
:104D1000909354098093530927C02115310531F030
:104D20004217530718F0A901DB0101C0EF019A01F6
:104D3000BD01DF010280F381E02DD7CF21153105C0
:104D4000F9F0281B390B2430310580F48A819B81CE
:104D50006115710521F0FB019383828304C0909358
:104D6000540980935309FE01329644C0FE01E20FBC
:104D7000F31F8193919322503109398328833AC0DC
:104D80002091510930915209232B41F420910202C4
:104D9000309103023093520920935109209100026F
:104DA000309101022115310541F42DB73EB74091F4
:104DB000040250910502241B350BE0915109F0913A
:104DC0005209E217F307A0F42E1B3F0B28173907EF
:104DD00078F0AC014E5F5F4F2417350748F04E0F57
:104DE0005F1F50935209409351098193919302C0E0
:104DF000E0E0F0E0CF01DF91CF910895CF93DF9312
:104E0000009709F487C0FC01329713821282C09187
:104E10005309D0915409209781F420813181280FC2
:104E2000391F80915109909152098217930779F5A2
:104E3000F0935209E09351096DC0DE0120E030E0AB
:104E4000AE17BF0750F412964D915C9113979D01D8
:104E50004115510509F1DA01F3CFB383A2834081F3
:104E60005181840F951F8A179B0771F48D919C9136
:104E70001197840F951F02969183808312968D91CE
:104E80009C911397938382832115310529F4F09324
:104E90005409E09353093EC0D9011396FC93EE9355
:104EA00012974D915D91A40FB51FEA17FB0779F496
:104EB00080819181840F951F0296D90111969C9350
:104EC0008E938281938113969C938E931297E0E048
:104ED000F0E08A819B81009719F0FE01EC01F9CF87
:104EE000CE01029628813981820F931F20915109AA
:104EF000309152092817390769F4309729F4109234
:104F000054091092530902C013821282D09352099D
:104F1000C0935109DF91CF9108956F927F928F9244
:104F20009F92AF92BF92CF92DF92EF92FF920F9338
:104F30001F93CF93DF93EC01CB01209779F4DF919E
:104F4000CF911F910F91FF90EF90DF90CF90BF9086
:104F5000AF909F908F907F906F90B8CEFE01E60F3C
:104F6000F71F9E0122503109E217F30708F4A8C089
:104F7000D9010D911C91119706171707B0F0053054
:104F8000110508F49BC0A801445051094617570762
:104F900008F494C002501109061B170B01931193DA
:104FA0006D937C93CF012ADF89C05B01A01AB10AFF
:104FB0004E01800E911EA0915309B0915409612CAD
:104FC000712C60E070E0109709F449C0A815B9058C
:104FD000C9F5ED90FC901197670142E0C40ED11C19
:104FE000CA14DB0478F147018A189B08640142E087
:104FF000C40ED11C1296BC9012971396AC91B5E0DA
:10500000CB16D10440F0B282A38391828082D90171
:105010008D939C9309C00E5F1F4F0E0D1F1DF9014C
:1050200011830083EB2DFA2F6115710531F0DB013F
:105030001396FC93EE93129741C0F0935409E093BA
:1050400053093CC06D917C9111976616770608F460
:105050003B01BD0112960D90BC91A02DB4CF609183
:1050600051097091520968157905E9F468167906B5
:10507000D0F440910002509101024115510541F4D4
:105080004DB75EB76091040270910502461B570B45
:10509000E417F507A8F4F0935209E0935109F901D8
:1050A000918380830BC012DE7C01009749F0A80138
:1050B000BE0117D0CE01A2DEC70104C0CE0102C0DE
:1050C00080E090E0DF91CF911F910F91FF90EF90E2
:1050D000DF90CF90BF90AF909F908F907F906F9018
:1050E0000895FB01DC0102C001900D924150504037
:1050F000D8F70895FB01DC0101900D920020E1F743
:105100000895FB01DC014150504048F001900D92A0
:105110000020C9F701C01D9241505040E0F70895AA
:10512000FC0181E090E00190061609F4CF01002017
:10513000D1F701970895FB0151915523A9F0BF01C3
:10514000DC014D9145174111E1F759F4CD01019072
:10515000002049F04D9140154111C9F3FB01411167
:10516000EFCF81E090E0019708952532310518F4E2
:10517000223008F004C0FA011082CA010895BB274A
:105180002A3051F4992342F4BDE2909580957095B0
:1051900061957F4F8F4F9F4F01C0BB27FA01A62F0C
:1051A0006217710581059105330B30FB66F0AA2764
:1051B000660F771F881F991FAA1FA21710F0A21B46
:1051C00063953850A9F7A05DAA3308F0A95DA193B3
:1051D00036F7B111B1931082CA0100C0DC01FC01A5
:1051E000672F71917723E1F7329704C07C916D931B
:1051F00070836291AE17BF07C8F30895F894FFCF8C
:105200000000550980000100000021FF130001FF8C
:105210004D617820736572766F7320617474616379
:1052200068656400556E6B6E6F776E2070696E20D6
:105230006D6F646500433A5C50726F6772616D6DAB
:105240006174696F6E5C61726475696E6F5C7065C4
:1052500072736F5C332E53637261746368322E30E5
:105260005C4669726D617461506C75735F73326115
:10527000696F2D50794D61746141494F5F333275CB
:10528000345C4669726D617461506C75735F733222
:1052900061696F2D50794D61746141494F5F3332BF
:1052A00075342E696E6F004932433A20546F6F2077
:1052B0006D616E79206279746573207265636569CA
:1052C000766564004932433A20546F6F20666577F3
:1052D0002062797465732072656365697665640020
:1052E00031302D6269742061646472657373696E14
:1052F00067206E6F7420737570706F7274656400D0
:10530000746F6F206D616E79207175657269657358
:105310000050494E475F434F4E4649472045727201
:105320006F723A204578636565646564206E756DBB
:10533000626572206F6620737570706F7274656439
:105340002070696E672064657669636573005354E5
:10535000455050455220434F4E46494720457272B2
:105360006F723A2057726F6E67204E756D6265726C
:10537000206F6620617267756D656E74730061726F
:105380006763203D200053544550504552204F50F4
:105390004552415445204572726F723A204D4F5428
:1053A0004F52204E4F5420434F4E46494755524589
:1053B000440053544550504552204649524D5741A0
:1053C00052452056455253494F4E204572726F72D6
:1053D0003A204E4F204D4F544F525320434F4E468C
:1053E0004947555245440053544550504552204377
:1053F0004F4E464947204572726F723A20554E4BC8
:105400004E4F574E205354455050455220434F4D18
:105410004D414E440078000000000068123C12111B
:105420001219122C123B122E637070000000000043
:0C543000731FE220C81EE11ED31E521F95
:00000001FF
