:100000000C94A0010C94C8010C94C8010C94C80174
:100010000C94C8010C94C8010C94C8010C94C8013C
:100020000C94C8010C9499030C9453230C941F2234
:100030000C94C8010C94C8010C94C8010C94C8011C
:100040000C94C8010C94B00D0C94C8010C94C80118
:100050000C94C8010C94C8010C94C8010C94751937
:100060000C94C8010C94C8010C94C8010C94C801EC
:100070000C94C8010C94C8010C94C8010C94C801DC
:100080000C94C31F0C94C8010C94C8010C94C801B3
:100090000C9474110C94C8010C94C8010C94C80100
:1000A0000C94C8010C94C8010C94C801D505E40552
:1000B000C805F2050B0646063806460642063E0609
:1000C0002E064006941897188A188E18B218B2187F
:1000D000B218B2189B189F18A318A918AD18CD1AFA
:1000E000D21AD71AE11AEB1A351B351B351BF51A34
:1000F000FF1A091B131B201B351B281B561B591BE2
:10010000481B4C1B521B7A1B7A1B7A1B5D1B611B05
:10011000651B6B1B6F1B7A1B751B07060504010013
:10012000080A0B0C0D090000000200090F00000373
:100130000401000C000000000000000000000000AE
:1001400000000000040802011040804010204080A0
:10015000408008020401804020100201108010201D
:1001600040400404040404030405020202020403E0
:100170000202020206060606060604040202020441
:10018000000000002300260029002C002F000000A2
:100190000000250028002B002E0031000000000088
:1001A000240027002A002D003000080B0002020264
:1001B00001000904000001020200000524001001F2
:1001C0000524010101042402060524060001070597
:1001D000810310004009040100020A000000070525
:1001E0000202400000070583024000000300C180B6
:1001F00081C112010002020000404123368000014B
:10020000010200011201000200000040412336807B
:1002100000010102000141726475696E6F204C4C4F
:10022000430041726475696E6F204C656F6E617238
:10023000646F000403090400000000000000002AAD
:100240002B2800000000000000000000000000005B
:10025000000000000000002C9EB4A0A1A2A434A6BF
:10026000A7A5AE362D3738271E1F2021222324258F
:1002700026B333B62EB7B89F8485868788898A8B44
:100280008C8D8E8F909192939495969798999A9B36
:100290009C9D2F3130A3AD350405060708090A0BD4
:1002A0000C0D0E0F101112131415161718191A1B16
:1002B0001C1DAFB1B0B5000904020001030000002D
:1002C00009210101000122650007058403400001A6
:1002D00005010902A1010901A10085010509190112
:1002E0002903150025019503750181029501750506
:1002F000810305010930093109381581257F750809
:1003000095038106C0C005010906A1018502050704
:1003100019E029E71500250175019508810295016D
:1003200075088103950675081500256505071900F0
:1003300029658100C00072079210FD15D61C222687
:1003400011241FBECFEFDAE0DEBFCDBF13E0A0E087
:10035000B1E0ECE1F3E502C005900D92AA30B107DF
:10036000D9F725E0AAE0B3E001C01D92AB3EB20789
:10037000E1F713E0C0E4D3E004C02297FE010E943D
:10038000B626C633D107C9F70E94F41C0C948C29F9
:100390000C940000843028F4E82FF0E0EE5EFB4F70
:1003A000608308951F93CF93DF93162F843008F056
:1003B0006CC0982F990F990F990F985F9F3108F093
:1003C0009EE1D82FDD0FDD0FDD0F8D2FC0E041E066
:1003D0008917C8F4E82FF0E0DF01A051BC4F2C9141
:1003E000223070F4C42BEE0FFF1FE055FC4F21E0CC
:1003F00030E0542F512311F420E030E0318320838A
:10040000440F8F5FE5CFC0FF05C0612F61708D2F56
:100410000E94B41BC1FF06C0612F627081E08D0F86
:100420000E94B41BC2FF06C0612F647082E08D0F72
:100430000E94B41BC3FF06C0612F687083E08D0F5C
:100440000E94B41BC4FF06C0612F607184E08D0F51
:100450000E94B41BC5FF06C0612F607285E08D0F3E
:100460000E94B41BC6FF06C0612F607486E08D0F2A
:100470000E94B41BC7FF09C0612F607887E08D0F11
:10048000DF91CF911F910C94B41BDF91CF911F91FD
:1004900008958C30C0F4409116045091170421E067
:1004A00030E002C0220F331F8A95E2F7672B29F450
:1004B000209530952423352302C0242B352B3093EF
:1004C0001704209316040895EF92FF920F931F9341
:1004D000CF93DF93EB018E3170F5082F10E0F80118
:1004E000E051FC4F9081933081F0943021F57801F8
:1004F000EE0CFF1C8C3038F4C701800F911F875B16
:100500009C4F0E944D0FF70112C0833051F09BEFBA
:10051000980F923030F097EF980F933010F08D30A5
:1005200019F4BE010E94A71AF801EE0FFF1FE05553
:10053000FC4FD183C083DF91CF911F910F91FF902A
:10054000EF900895CF93DF93DC01FB012283518369
:1005500040831296CD91DC91139788819381892BEA
:10056000888382818D7F813041F415968C91159717
:100570009381892B15968C931597828181508230B7
:1005800040F416968C9116979381892B16968C932E
:1005900016978091680014969C91892B809368002F
:1005A000DF91CF910895CF92DF92FF920F931F9327
:1005B000CF93DF9300D01F92CDB7DEB76C01E62F4B
:1005C000F0E0EC5BFE4FF490FC0180859185009794
:1005D00079F08C01FC0183818F1106C0B801C6013E
:1005E0000E94A20280E02FC0F80185819681EFCFA2
:1005F00087E090E02B8349835A830E94071DDC012A
:100600002B8149815A81009721F4109202008FEFCB
:100610001AC012962C93129716961C921E9215973A
:100620001396FC921397F60180859185892B19F416
:10063000B187A08703C0F801B683A583BD01C601B9
:100640000E94A20281E00F900F900F90DF91CF9156
:100650001F910F91FF90DF90CF900895242FE82FE6
:10066000F0E0EE59FE4FE491EE23D9F061157105EB
:10067000C1F0F0E03297E330F10540F4EE0FFF1FD8
:10068000E553FD4F0190F081E02D02C0E0E0F0E085
:10069000A081B1819C919783AB01682FCF010C940D
:1006A000D3028FEF0895FF920F931F93CF93DF93A1
:1006B000EC01809136049F812D813E81F82EF094CB
:1006C000F3222823F22A9827F9228F830885198597
:1006D00001151105D9F0D80113969C918F2D89230E
:1006E00089F080913604892391E009F490E0F801C3
:1006F000948380819181DC01ED91FC910190F081E6
:10070000E02D0995F80105811681E2CF8BB39C811C
:10071000892349F09BB3982B9BBBE881F9818081A9
:1007200080933604C6CFDF91CF911F910F91FF9038
:1007300008951F920F920FB60F9211242F933F939B
:100740004F935F936F937F938F939F93AF93BF93D9
:10075000EF93FF93E0912C04F0912D04808180931E
:1007600036048CE294E00E945303FF91EF91BF9115
:10077000AF919F918F917F916F915F914F913F9139
:100780002F910F900FBE0F901F9018951F93CF932E
:10079000DF93162FC82FD0E0FE01E451FC4F90816B
:1007A0001923C25FDB4F411103C09881911741F0BB
:1007B000412F50E0682F8DE195E00E9409141883C5
:1007C000DF91CF911F910895CF93DF938091120411
:1007D000882309F448C0D091EC03D0FF1DC180E00C
:1007E0000E94EA1B892B09F417C1C1E0D1FF06C0A2
:1007F00081E00E94EA1B892B09F010C1D2FF06C0DC
:1008000082E00E94EA1B892B09F00AC1D3FF06C0CF
:1008100083E00E94EA1B892B09F004C1D4FF06C0C3
:1008200084E00E94EA1B892B09F0FEC0D5FF06C0B8
:1008300085E00E94EA1B892B09F0F8C0D6FF06C0AC
:1008400086E00E94EA1B892B09F0F2C0D7FF06C0A0
:1008500087E00E94EA1B892B09F0ECC040E06C2F76
:1008600080E00E94C60380911304882309F448C0E5
:10087000D091ED03D0FFE0C088E00E94EA1B892BF5
:1008800009F4DAC0C1E0D1FF06C089E00E94EA1B8A
:10089000892B09F0D3C0D2FF06C08AE00E94EA1B70
:1008A000892B09F0CDC0D3FF06C08BE00E94EA1B64
:1008B000892B09F0C7C0D4FF06C08CE00E94EA1B58
:1008C000892B09F0C1C0D5FF06C08DE00E94EA1B4C
:1008D000892B09F0BBC0D6FF06C08EE00E94EA1B40
:1008E000892B09F0B5C0D7FF06C08FE00E94EA1B34
:1008F000892B09F0AFC040E06C2F81E00E94C60355
:1009000080911404882309F448C0D091EE03D0FFED
:10091000A3C080E10E94EA1B892B09F49DC0C1E0BD
:10092000D1FF06C081E10E94EA1B892B09F096C025
:10093000D2FF06C082E10E94EA1B892B09F090C019
:10094000D3FF06C083E10E94EA1B892B09F08AC00D
:10095000D4FF06C084E10E94EA1B892B09F084C001
:10096000D5FF06C085E10E94EA1B892B09F07EC0F5
:10097000D6FF06C086E10E94EA1B892B09F078C0E9
:10098000D7FF06C087E10E94EA1B892B09F072C0DD
:1009900040E06C2F82E00E94C603809115048823FA
:1009A00009F476C0D091EF03D0FF66C088E10E94C1
:1009B000EA1B892B09F460C0C1E0D1FF06C089E1C0
:1009C0000E94EA1B892B09F059C0D2FF06C08AE1B8
:1009D0000E94EA1B892B09F053C0D3FF06C08BE1AC
:1009E0000E94EA1B892B09F04DC0D4FF06C08CE1A0
:1009F0000E94EA1B892B09F047C0D5FF06C08DE194
:100A00000E94EA1B892B09F041C040E06C2F83E073
:100A1000DF91CF910C94C603C0E0E8CEC260EECE69
:100A2000C460F4CEC860FACEC06100CFC06206CF09
:100A3000C0640CCFC06812CFC0E025CFC2602BCFFE
:100A4000C46031CFC86037CFC0613DCFC06243CFF3
:100A5000C06449CFC0684FCFC0E062CFC26068CFEA
:100A6000C4606ECFC86074CFC0617ACFC06280CFDF
:100A7000C06486CFC0688CCFC0E09FCFC260A5CFD6
:100A8000C460ABCFC860B1CFC061B7CFC062BDCFCB
:100A9000DF91CF91089510926F038FEF80930B0138
:100AA00008956F927F929F92AF92BF92CF92DF9202
:100AB000EF92FF920F931F93CF93DF931F92CDB7C7
:100AC000DEB7982E8B01E82EF12CC70180519C4F88
:100AD0003C01FC0180815701AA0CBB1C863051F4FB
:100AE00080916F03882331F00630110509F4E6C0C8
:100AF0000E944B05FBE0F91570F00430110559F028
:100B00006501CE0CDF1CC601875B9C4F6C010E9407
:100B1000B20F8111CFC09EEE990D9C3068F461E058
:100B200070E00230110511F060E070E0892F9983C8
:100B30000E944902998103C0EDE1E915D8F0E92D41
:100B4000E695E695E695892D8770F0E0E451FC4F37
:100B500021E030E0082E01C0220F0A94EAF70115C7
:100B6000110521F48081822B808304C0209580812F
:100B700028232083F501E055FC4F118210820C30B0
:100B8000110508F083C0F801EA5AFF4F0C94B4260F
:100B90009C3008F098C060E0892D0E947B1B60E0CB
:100BA000892D0E94B41B82E06EC0FDE1F91508F4A6
:100BB0008AC060E0892D0E947B1B60E0892D0E9425
:100BC000B41BF30110827FC0FDE1F91508F47BC06E
:100BD00060E0892D0E94B41B61E0892D0E947B1B7F
:100BE00081E051C0F3E09F1659F08BEF890D823000
:100BF00038F087EF890D833018F08DE0981263C0CC
:100C000061E0892D0E947B1B60E070E0892D0E94CD
:100C1000A71A83E038C0FBE0F91508F454C084E05B
:100C2000F301808385010E0D1F1D075B1C4FC8015A
:100C30000E94B20F811147C0B701C8010F90DF9128
:100C4000CF911F910F91FF90EF90DF90CF90BF90C9
:100C5000AF909F907F906F900C94060F60E0892D6D
:100C60000E947B1B61E0892D0E94B41B8AE00BC0AF
:100C70008EEF890D823038F586E005C089E003C02B
:100C80008BE001C088E0F30180831DC06AE171E060
:100C90008DE195E00F90DF91CF911F910F91FF9023
:100CA000EF90DF90CF90BF90AF909F907F906F902C
:100CB0000C947F14C6010E940C0F2DCFFBE0F91598
:100CC00008F01ECF28CF0F90DF91CF911F910F9189
:100CD000FF90EF90DF90CF90BF90AF909F907F906C
:100CE0006F900895CF93C0E08EEF8C0F823028F480
:100CF00066E070E08C2F0E945105CF5FCE31A1F7E6
:100D000081E080936F038DE594E0CF910C945810AF
:100D1000CF93DF9380916F0381110E944B05E2E135
:100D2000F4E0CCEED3E0AEE0B4E0119219921D9263
:100D300084E0E631F807C9F7C0E08EEE8C0F8C3006
:100D400030F462E070E08C2F0E94510503C08C2FBC
:100D50000E94AE1FCF5FCE3181F710923C031092FC
:100D60003B03A5E3B3E0E7E2F3E02FE72D938081B7
:100D70009181892B11F011821082329683E0AB337E
:100D8000B807A1F7109217041092160410922103CD
:100D900010922003DF91CF91089523E042E06BE2AF
:100DA00071E08DE195E00E94431344E652E060EE6D
:100DB0008DE195E00E948D1442ED51E060E98DE1F6
:100DC00095E00E948D1449E452E060EC8DE195E0DD
:100DD0000E948D144AEC51E060ED8DE195E00E9497
:100DE0008D1441E555E064EF8DE195E00E948D148E
:100DF00048E358E060EF8DE195E00E94B01448E8C8
:100E000056E06FEF8DE195E00E94AA1410923C032A
:100E100010923B0310923E0310923D03A6E3B3E011
:100E2000E9E2F3E02FE72D9380819181892B11F086
:100E300011821082329683E0AB33B807A1F760913C
:100E40000C0170910D0188E290E00E945F26709382
:100E5000400360933F0340E051EE60E070E08DE1BD
:100E600095E00E94E7150C9488060F931F93CF938B
:100E7000DF93CDB7DEB7C654D1090FB6F894DEBF05
:100E80000FBECDBF8C012AE0CE018F5B9F4F0E9429
:100E9000942420E030E040E450E0BE016F5F7F4FDB
:100EA000CE018F5B9F4F0E94C124B8018DE195E078
:100EB0000E947F14BE016F5F7F4F8DE195E00E941D
:100EC0007F14CE018F5B9F4F0E940E24CA5BDF4FC1
:100ED0000FB6F894DEBF0FBECDBFDF91CF911F914B
:100EE0000F910895CF93DF93E4E8F1E08591949119
:100EF00090932D0480932C048BE690E090932F0424
:100F000080932E0481E0809330041092310410927B
:100F100032041092350410923404E6E8F1E0859131
:100F2000949190932304809322048CE690E0909314
:100F300025048093240482E08093260410922704E1
:100F40001092280410922B0410922A04E8E8F1E091
:100F50008591949190931904809318048DE690E004
:100F600090931B0480931A0484E080931C041092D5
:100F70001D0410921E041092210410922004C9E452
:100F8000D3E0CE010E946C0E239683E0CD36D807C5
:100F9000C1F7DF91CF910895DF92EF92FF920F9307
:100FA0001F93CF93DF93F82EEB01D42E6F3F8FEF7B
:100FB0007807B9F06F2D8DE594E00E9472106C2FC8
:100FC0008DE594E00E9419108DE594E00E948F1049
:100FD00080916D0390916E03009729F00E94161A7C
:100FE00002C0C0E0D0E04D2D6F2D8DE594E00E9451
:100FF0006F100D2D10E08DE594E00E94C10F0817D1
:101000001907B1F4F0927003C0937103E2E7EE2E7A
:10101000E3E0FE2EC0E0D0E0C017D107CCF48DE5B0
:1010200094E00E94C90FF70181937F012196F4CFCC
:101030008DE594E00E94C10F801791071CF46BE3CB
:1010400071E002C063E671E08DE195E00E947F14DB
:1010500042E04D0D20E733E067E78DE195E0DF9159
:10106000CF911F910F91FF90EF90DF900C94371468
:101070008F929F92AF92BF92CF92DF92EF92FF92A8
:101080000F931F93CF93DF93162FEA018D3609F448
:1010900008C2E8F4803609F4BBC238F4803209F49F
:1010A00064C28F3509F47DC2DDC3893609F445C2B7
:1010B0008B3609F0D7C360EF8DE195E00E94831471
:1010C0006CE68DE195E00E948314C0E0B9C18237DF
:1010D00009F4E8C238F48F3609F45AC1803709F4AC
:1010E000F8C0C0C3883709F4D4C08A3709F42FC1C7
:1010F000863709F0B7C38981982F987185FF03C09F
:101100006AE871E09FC388819830B1F148F4911189
:10111000A9C3682F8DE594E00E94721002E007C019
:10112000903109F44EC0983109F46FC09BC3011788
:1011300078F4FE01E00FF11D8181608120E8829F3B
:10114000601911248DE594E00E9419100E5FEFCF15
:101150008DE594E00E948F1086E490E0DF91CF91BE
:101160001F910F91FF90EF90DF90CF90BF90AF90C5
:101170009F908F900C94161A9B816A81163061F4AF
:101180002D814C8130E8239F40191124E0E89E9F77
:101190006019112470E007C0462FF0E89F9F4019A6
:1011A00011246FEF7FEFDF91CF911F910F91FF908F
:1011B000EF90DF90CF90BF90AF909F908F900C9466
:1011C000CC0720910B0127301CF066EB71E03AC38D
:1011D0002F5F20930B01332727FD3095F901EE0F88
:1011E000FF1FE20FF31FE057FC4F80839B818A8132
:1011F00020E8929F8019112481839D818C8130E8A1
:10120000939F8019112482832DC360910B011616C0
:1012100034F470E0462F552747FD50950FC08FEFEF
:1012200080930B011FC3F901EE0FFF1FE20FF31FA5
:10123000E057FC4F8083811123C07F5F272F30E070
:101240004217530784F770E01BC07830C0F49C014C
:101250002F5F3F4FD901AA0FBB1FA20FB31FA0578B
:10126000BC4F2C91FC01EE0FFF1FE80FF91FE05758
:10127000FC4F20838C91818312968C9182837F5FB7
:10128000872F90E04817590704F7615060930B01CE
:10129000E9C22881898140E8849FC0011124820F1E
:1012A000911D009721F090936E0380936D038091C0
:1012B0006F038111D7C2DF91CF911F910F91FF90E2
:1012C000EF90DF90CF90BF90AF909F908F900C9455
:1012D0007206653008F4C6C2F880E980DA80CB80F7
:1012E000BC808BE08F1508F4BDC20F2D10E0E80123
:1012F000CC0FDD1FC00FD11FC75BDC4FCE010E949A
:10130000B20F882319F0CE010E940C0F90E8B99E0D
:10131000900111242C0D311DE0E8DE9EA001112466
:101320004E0D511DB801CE010E94880E64E070E0A0
:101330008F2DDF91CF911F910F91FF90EF90DF9054
:10134000CF90BF90AF909F908F900C9451056230DA
:1013500008F488C228818981F0E88F9FC001112498
:10136000820F911D8A30910514F48AE090E09093E9
:101370000D0180930C0160910C0170910D0188E2C8
:1013800090E00E945F267093400360933F036AC21F
:10139000623008F467C2698170E0123091F08A818E
:1013A00020E8829FC0011124682B792B133049F06B
:1013B0008B8190E090E4899F902D88271124682BE1
:1013C000792B8881DF91CF911F910F91FF90EF9042
:1013D000DF90CF90BF90AF909F908F900C9464025D
:1013E000C33009F050C063E08DE195E00E948314A2
:1013F00068E08DE195E00E948314CC3050F464E005
:101400008DE195E00E9483146EE08DE195E00E94ED
:1014100083148EEF8C0F823050F466E08DE195E0FE
:101420000E94831461E08DE195E00E9483146FE7D0
:101430008DE195E00E948314CF5FCE3109F4ECC1B9
:1014400060E08DE195E00E94831461E08DE195E01C
:101450000E94831461E08DE195E00E94831461E0B5
:101460008DE195E00E9483148EEE8C0F8C3008F095
:10147000B7CF62E08DE195E00E9483146AE08DE1D0
:1014800095E00E9483148BEF8C0F823008F4ABCF71
:1014900087EF8C0F833008F4A6CFCD3009F0ADCFA5
:1014A000A2CF662309F4DEC1C88160EF8DE195E02B
:1014B0000E9483146EE68DE195E00E9483146C2FE8
:1014C0008DE195E00E948314CE3108F0A5C1D0E0F3
:1014D000FE01E051FC4F60818DE195E00E94831494
:1014E000CC0FDD1F8E0100551C4FF80160816F7716
:1014F0008DE195E00E948314F80160817181CB0138
:101500008078892B49F0660F672F661F770B6F77FE
:101510008DE195E00E948314C055DC4F688179818C
:10152000CB018827907C892B09F476C1770F660B55
:10153000770F762F661F6F776BC160EF8DE195E0B7
:101540000E9483146AE68DE195E00E948314CEEE3A
:10155000CC3010F06FE701C06C2F8DE195E00E9458
:101560008314CF5FCC30A1F757C148814093460325
:101570002981209345038091180381110EC08AEEC2
:1015800092E090930B0380930A0361E68AE093E074
:101590000E94C71881E08093180381E08093410383
:1015A00061C198818981911122C09C812D81F0E8CF
:1015B0002F9F90011124290F311D442737FD40959D
:1015C000542F9A816B81E0E86E9FB0011124690F5E
:1015D000711DDF91CF911F910F91FF90EF90DF90E0
:1015E000CF90BF90AF909F908F900C94311D913011
:1015F00009F038C1DF91CF911F910F91FF90EF90CB
:10160000DF90CF90BF90AF909F908F900C94AE1FC3
:1016100020913B0330913C03263031050CF03FC054
:101620008881809326039981909325039A81913232
:1016300008F491E290930A019B81CC81F0E8CF9F5E
:10164000E0011124C90FD11DF901EB5CFC4F80832F
:101650006BE070E00E9451056BE070E08091250323
:101660000E94510582E190E00E94071D8C019E01BD
:1016700040912503609126030E94011680913B034F
:1016800090913C03FC01EE0FFF1FE95DFC4F1183BD
:101690000083019690933C0380933B03E3C067EC87
:1016A00071E0D0C08881811148C08981CA8020E85A
:1016B000C29E60011124C80ED11CAB80B12C8C805D
:1016C000912C653059F48AE190E00E94071DEC01ED
:1016D0009401A501B6010E94F61610C0673099F476
:1016E0000D8110E0EE80F12C8AE190E00E94071D50
:1016F000EC019401A501B6010E941C17D0932103AF
:10170000C0932003AFC064E072E08DE195E00E94D9
:101710007F14412F50E060E070E084E392E0DF91BD
:10172000CF911F910F91FF90EF90DF90CF90BF90DE
:10173000AF909F908F900C943507813009F048C08E
:101740004A8150E060E070E0A7E0440F551F661F3B
:10175000771FAA95D1F78B8190E0A0E0B0E01EE062
:10176000880F991FAA1FBB1F1A95D1F7482B592B19
:101770006A2B7B2B8981482B8C810D8130E8039F5C
:1017800080011124080F111DCE81809120039091BA
:1017900021030097D1F00E945217C11103C0119587
:1017A00001951109B8018091200390912103DF91E7
:1017B000CF911F910F91FF90EF90DF90CF90BF904E
:1017C000AF909F908F900C94E4176CE372E03AC056
:1017D0008230B1F58091200390912103009769F147
:1017E0000E945618EC0160EF8DE195E00E94831491
:1017F00062E78DE195E00E9483146C2F6F778DE195
:1018000095E00E948314BE01660F672F661F770B59
:101810008DE195E00E94831467EF8DE195E0DF9103
:10182000CF911F910F91FF90EF90DF90CF90BF90DD
:10183000AF909F908F900C94831468E672E002C082
:101840006DE972E08DE195E0DF91CF911F910F91ED
:10185000FF90EF90DF90CF90BF90AF909F908F90D0
:101860000C947F14DF91CF911F910F91FF90EF9017
:10187000DF90CF90BF90AF909F908F9008958F9200
:101880009F92AF92BF92CF92DF92EF92FF920F930F
:101890001F93CF93DF930E94E4038DE195E00E94B4
:1018A0009513892B29F08DE195E00E94D314F5CF93
:1018B0000E94BF196093AC037093AD038093AE0395
:1018C0009093AF03C090A803D090A903E090AA031F
:1018D000F090AB0340910C0150910D014A01AA24F4
:1018E00097FCA094BA2C8B019C010C191D092E09A0
:1018F0003F0980169106A206B30608F024C1D5015F
:10190000C4018C0D9D1DAE1DBF1D8093A803909337
:10191000A903A093AA03B093AB0380913D039091D8
:101920003E039C012F5F3F4F30933E0320933D03C6
:1019300020913F0330914003281739070CF064C011
:1019400010923E0310923D0380913B0390913C0323
:10195000892B09F459C0E0913303F0913403EE0F61
:10196000FF1FE95DFC4F808191810E94C71669E3EA
:1019700070E00E944B26CB01409133035091340319
:10198000409324039A012F5F3F4F309334032093F9
:10199000330320913B0330913C032150310942171E
:1019A000530724F010923403109233036F7760933F
:1019B0002203880F892F881F990B8093230360EFE0
:1019C0008DE195E00E94831461E68DE195E00E942F
:1019D0008314E0912403F0E0EB5CFC4F60818DE127
:1019E00095E00E948314609122038DE195E00E94AE
:1019F0008314609123038DE195E00E94831467EFC7
:101A00008DE195E00E948314C0EFD3E01EEE1C3000
:101A1000C0F488818230A9F4209116043091170413
:101A2000012E02C0359527950A94E2F720FF09C0E0
:101A3000812F0E94761AAC01612F8DE195E00E9402
:101A4000F0131F5F21961C3011F780910B0187FF67
:101A500006C080914103882309F475C01AC0C0E014
:101A60008C2F90E020910B01332727FD309528170C
:101A700039077CF3FC01EE0FFF1FE80FF91FE05759
:101A8000FC4F618170E0428180810E94CC07CF5F72
:101A9000E7CF1092480310924703109242030E942E
:101AA00048190097A1F00E94681980934203209181
:101AB000430330914403181614F0882341F0280F93
:101AC000311D87FD3A953093440320934303809161
:101AD000430390914403282F2F7720934703880FC7
:101AE000892F881F990B8F778093480360EF8DE1D2
:101AF00095E00E94831461E28DE195E00E948314D9
:101B0000609146038DE195E00E9483146091470344
:101B10008DE195E00E948314609148038DE195E08A
:101B20000E94831467EF8DE195E0DF91CF911F91C3
:101B30000F91FF90EF90DF90CF90BF90AF909F906C
:101B40008F900C948314DF91CF911F910F91FF9090
:101B5000EF90DF90CF90BF90AF909F908F900895BF
:101B60001F920F920FB60F9211242F933F934F9312
:101B70005F936F937F938F939F93AF93BF93EF93F5
:101B8000FF938091380487FF05C010928500109262
:101B900084001AC020913804332727FD30958091A6
:101BA000370490E0281739077CF48091380499278E
:101BB00087FD9095FC01EE0FFF1FE80FF91FE75C12
:101BC000FB4F808186FD15C0809138048F5F809324
:101BD000380420913804332727FD3095809137044D
:101BE00090E028173907BCF4809138048C305CF100
:101BF00012C080913804992787FD9095FC01EE0F63
:101C0000FF1FE80FF91FE75CFB4F808160E08F73D7
:101C10000E94B41BD9CF80918400909185000496D6
:101C200080349C4918F480E49CE905C080918400CC
:101C300090918500049690938900809388008FEF9F
:101C40008093380438C020918400309185008091C1
:101C50003804992787FD9095FC01EE0FFF1FE80FD0
:101C6000F91FE75CFB4F81819281820F931F909354
:101C700089008093880080913804992787FD90958A
:101C8000FC01EE0FFF1FE80FF91FE75CFB4F80819F
:101C900086FF11C080913804992787FD9095FC013B
:101CA000EE0FFF1FE80FF91FE75CFB4F808161E03B
:101CB0008F730E94B41BFF91EF91BF91AF919F91E1
:101CC0008F917F916F915F914F913F912F910F90E5
:101CD0000FBE0F901F901895209137042C30A0F460
:101CE00031E0320F30933704FC012083822F90E0E3
:101CF000FC01EE0FFF1FE80FF91FE75CFB4F88EBBD
:101D00009BE09283818308952FEFFC012083089547
:101D1000DF92EF92FF920F931F93CF93DF93EC012B
:101D2000D62E7A01890188818C3008F066C061E086
:101D30008D2D0E947B1B8881A82FB0E0FD01EE0F46
:101D4000FF1FEA0FFB1FE75CFB4F2D2D2F739081C8
:101D5000907C922B908360E272E06E197F0977FF8E
:101D600002C06D5F7F4F759567957595679569831F
:101D700040E659E0401B510B57FF02C04D5F5F4FDB
:101D800055954795559547954A836CE00E943F26A7
:101D90009CE0899FB001112420E030E0A901460FAA
:101DA000571FFA01EE0FFF1FE40FF51FE75CFB4F13
:101DB000908196FD16C02F5F3F4F2C30310571F793
:101DC00081110FC01092800082E0809381001092F8
:101DD000850010928400B19A80916F008260809398
:101DE0006F00888190E0FC01EE0FFF1FE80FF91FE4
:101DF000E75CFB4F8081806480838881DF91CF9195
:101E00001F910F91FF90EF90DF90089520E639E049
:101E100040E252E00C94880EFC01808190E0FC01CD
:101E2000EE0FFF1FE80FF91FE75CFB4F80818F7BF0
:101E300080830895FC0180818C3070F5918128E8C1
:101E400030E0291B310997FD3395220F331F220FF4
:101E5000331F621773077CF0928128E532E0291B5B
:101E6000310997FD3395220F331F220F331F62175D
:101E700073070CF49B0122503109220F331F4FB717
:101E8000F89490E0FC01EE0FFF1FE80FF91FE75CEC
:101E9000FB4F328321834FBF08954F925F926F9221
:101EA0007F92AF92BF92CF92DF92EF92FF920F9309
:101EB0001F93CF93DF93EC01603282E078070CF040
:101EC00040C077FD06C0653B71052CF064EB70E007
:101ED00002C060E070E0898128E830E0281B310909
:101EE00087FD3395220F331F220F331F5901CC2456
:101EF000B7FCC094DC2C882777FD8095982F2A8129
:101F000048E552E0421B510927FD5395440F551FE8
:101F1000440F551F2A01662457FC6094762C7F924B
:101F20006F925F924F9214EBE12EF12C00E010E0E3
:101F300020E030E0A9010E94C7230F900F900F907E
:101F40000F90CE01DF91CF911F910F91FF90EF90F5
:101F5000DF90CF90BF90AF907F906F905F904F9049
:101F60000C941A0FFC01808190E0FC01EE0FFF1F22
:101F7000E80FF91FE75CFB4F808186FB882780F91B
:101F8000089580918D0490E020918E04821B910928
:101F9000089520918E0480918D04281750F4E22F2B
:101FA000F0E0E157FB4F808190E02F5F20938E049B
:101FB00008958FEF9FEF0895E0918E0480918D0436
:101FC000E81730F4F0E0E157FB4F808190E008958E
:101FD0008FEF9FEF08950895CF92DF92EF92FF92D7
:101FE0000F931F93CF93DF937C01CB018A01209144
:101FF0006904222389F0EB016B01C40ED51ECC15B8
:10200000DD0569F06991D701ED91FC910190F081B6
:10201000E02DC7010995F3CF642F0E944B11C80131
:10202000DF91CF911F910F91FF90EF90DF90CF90B4
:102030000895CF93DF931F92CDB7DEB769832091C8
:1020400069042223D1F020916A04203240F021E07B
:1020500030E0FC013383228380E090E015C0809162
:102060006B04E82FF0E0E459FB4F998190838F5F78
:1020700080936B0480936A0405C061E0CE010196F1
:102080000E944B1181E090E00F90DF91CF91089575
:10209000FC011382128248EE53E060E070E044835A
:1020A00055836683778385ED92E0918380830895DD
:1020B00010928E0410928D0410926B0410926A0498
:1020C0000C949610862F413208F040E26FE874E0DD
:1020D0000E94B41010928E0480938D04089521E024
:1020E0000C94621081E08093690460938C041092D8
:1020F0006B0410926A0408950F93062F21E040911B
:102100006A046CE674E080918C040E94F8101092CE
:102110006B0410926A04109269040F91089561E0B3
:102120000C947C108DE594E00C94481010921C05E2
:1021300081E080931A051092190561E082E00E9407
:10214000B41B61E083E00E94B41BE9EBF0E0808106
:102150008E7F808380818D7F808388E48093B80028
:1021600085E48093BC000895413208F03FC090910F
:102170001C059111FCCF91E090931C0520931A054A
:102180002FEF2093AF041092F404240F2093F30454
:1021900090931B0590911B05880F892B80931B053D
:1021A00080911905813041F41092190580911B0529
:1021B0008093BB0085EC01C085EE8093BC008091CC
:1021C0001C058130E1F38091F404841710F44091F0
:1021D000F40425EF34E0FB01D9018A2F821B841718
:1021E00018F48D918193F9CF842F089580E008959C
:1021F0000F93413208F046C090911C059111FCCF1D
:1022000092E090931C0500931A059FEF9093AF0402
:102210001092F4044093F304FB0165EF74E0DB01DA
:102220009A2F961B941718F491919D93F9CF1092C1
:102230001B0590911B05880F892B80931B058091AE
:102240001905813041F41092190580911B05809386
:10225000BB0085EC01C085EE8093BC00222321F0F9
:1022600080911C058230E1F38091AF048F3F61F0D3
:102270008091AF04803251F08091AF04803341F4FB
:1022800083E007C081E005C080E003C082E001C0B8
:1022900084E00F910895613298F420911C05243058
:1022A00089F46093D104FC0183ED94E0DC012A2FD2
:1022B000281B261718F421912D93F9CF80E008955B
:1022C00081E0089582E0089585ED8093BC008091BF
:1022D000BC0084FDFCCF10921C05089585EC809312
:1022E000BC0010921C0508951F920F920FB60F921A
:1022F00011242F933F934F935F936F937F938F930B
:102300009F93AF93BF93EF93FF938091B900887F22
:10231000803609F49CC068F5883209F45BC090F4FB
:10232000803109F454C038F4882309F4F5C08830AA
:1023300009F44DC0F5C0883109F44CC0803209F46D
:102340005DC0EEC0803409F468C048F4803309F4FD
:1023500055C0883309F0E4C08093AF04A8C080352D
:1023600009F44FC0883509F45DC0883409F0D8C03D
:10237000D5C0883909F4C6C0A8F4883709F467C005
:1023800038F4883609F463C0803709F460C0C8C0E7
:10239000883809F4B7C0803909F45FC0803809F083
:1023A000BFC05BC0803B09F485C038F4803A09F4B3
:1023B00066C0883A09F47EC0B3C0803C09F4A6C068
:1023C000883C09F4A3C0883B09F489C0A9C0809166
:1023D0001B0510C09091F4048091F304981770F5D8
:1023E000E091F40481E08E0F8093F404F0E0EB5070
:1023F000FB4F80818093BB0085EC85C08093AF0448
:102400008DC0E091F40481E08E0F8093F4048091FC
:10241000BB00F0E0EB50FB4F80839091F40480917F
:10242000F3046DC0E091F40481E08E0F8093F40416
:102430008091BB00F0E0EB50FB4F808380911A0548
:1024400081116CC081E08093190584EA60C083E04B
:1024500080931C051092B004CFCF8091B0048032DD
:1024600008F050C0E091B00481E08E0F8093B0047A
:102470008091BB00F0E0EF54FB4F8083BDCF809193
:10248000B004803230F4E091B004F0E0EF54FB4F40
:1024900010820E9464116091B00470E0E091150513
:1024A000F091160581EB94E009951092B0040E941A
:1024B0006E1136C084E080931C051092D2041092F5
:1024C000D104E0911705F091180509958091D10488
:1024D000811105C081E08093D1041092D304E09172
:1024E000D20481E08E0F8093D204F0E0ED52FB4FD6
:1024F00080818093BB009091D2048091D104981781
:1025000008F47ACF85E88093BC000AC085EC8093FC
:10251000BC0010921C0504C01092AF040E9464110C
:10252000FF91EF91BF91AF919F918F917F916F91AB
:102530005F914F913F912F910F900FBE0F901F9081
:1025400018950F931F93CF93DF93EC018B01888134
:102550009981DC01ED91FC916F770190F081E02D84
:10256000099588819981DC01ED91FC91B801660F94
:10257000672F661F770B6F770190F081E02DDF9159
:10258000CF911F910F910994DC018D919C91DC01F9
:10259000ED91FC910190F081E02D60EF0994DC0158
:1025A0008D919C91DC01ED91FC910190F081E02DE9
:1025B00067EF0994CF93DF93EC0188819981DC0167
:1025C000ED91FC910190F081E02D69EF09958881F2
:1025D0009981DC01ED91FC910190F081E02D62E0A8
:1025E000099588819981DC01ED91FC910190F08140
:1025F000E02D63E0DF91CF9109941F93CF93DF9398
:10260000EC018A818823D9F1CE010E94C41288810D
:102610009981DC01ED91FC910190F081E02D69E759
:10262000099588819981DC01ED91FC91AB81BC8198
:102630000190F081E02D6C91099588819981DC01F0
:10264000ED91FC91AB81BC810190F081E02D119660
:102650006C91099512E08A81181758F4EB81FC817E
:10266000E10FF11D608170E0CE010E94A1121F5F99
:10267000F2CFCE01DF91CF911F910C94CF12DF9159
:10268000CF911F910895AF92BF92CF92DF92EF92B8
:10269000FF920F931F93CF93DF93EC018B01A42E36
:1026A000B22E61EE72E0C8010E94EF286C016FE269
:1026B00070E0C8010E94E42801967C01C114D10495
:1026C00041F0009731F0C81AD90AC394C394CA8262
:1026D00008C0F80101900020E9F7E01BEF5FEA83F2
:1026E00078018B819C810E946C270A8110E0C801CF
:1026F0000E94D4269C838B83DC01A00FB11F1C9207
:10270000FC01A082B1824A8150E042505109B701D8
:102710000296DF91CF911F910F91FF90EF90DF9084
:10272000CF90BF90AF900C94D528DC018D919C91F7
:10273000DC01ED91FC910480F581E02D09941F935B
:10274000CF93DF93EC018885813741F08937B9F564
:10275000CE01DF91CF911F910C94FD128FA998ADFE
:10276000892BD1F129A53AA5C901019797FDC90186
:1027700095958795182F99270E94D426482FFC01FC
:1027800021E03E2F341B3117A0F4DE01A20FB11D52
:1027900018963C91308351E0520FDE01A50FB11D18
:1027A00018965C9160E8569F3019112431932E5F82
:1027B000E8CFEFA9F8ADDF91CF911F910994E9AD72
:1027C000FAAD309749F0AE01475F5F4F69A56150A0
:1027D000DF91CF911F910994DF91CF911F910895BF
:1027E0000F931F93CF93DF93EC018A018881998126
:1027F000DC01ED91FC916F70606E0190F081E02D35
:102800000995B801CE01DF91CF911F910F910C94E2
:10281000A1120F931F93CF93DF93EC018A0188815C
:102820009981DC01ED91FC916F7060690190F081FC
:10283000E02D099588819981DC01ED91FC91602F53
:102840006F770190F081E02D099588819981DC01F5
:10285000ED91FC91B801660F672F661F770B019011
:10286000F081E02DDF91CF911F910F910994CF92CC
:10287000DF92EF92FF920F931F93CF93DF9300D0DD
:102880001F92CDB7DEB78C01F42E2A833B83698378
:102890000E94C412D8018D919C91DC01ED91FC91B4
:1028A0000190F081E02D698109952A81E22EC22EE6
:1028B0003B81D32E8C2D8E198F1540F4F60161913A
:1028C0006F0170E0C8010E94A112F4CFC8010F90FF
:1028D0000F900F90DF91CF911F910F91FF90EF908C
:1028E000DF90CF900C94CF129A01FA010190002052
:1028F000E9F73197E41BF50B4E2F0C943714AB011D
:1029000061E70C947414DC018D919C91DC01ED91D4
:10291000FC910190F081E02D0994FC01603DA1F053
:1029200028F4603959F0603C61F00895603E19F078
:10293000643F69F0089554A743A7089556A745A793
:10294000089550AB47A7089552AB41AB089554ABDF
:1029500043AB08956F3F19F4FC0156AB45AB0895A6
:10296000FC0152AF41AF0895FC0115821682178217
:1029700080E090E0DF01A80FB91F18961C92019625
:1029800080329105B9F710A612A611A605A8F6A9DE
:10299000E02D309709F009940895FC011282148209
:1029A00013820C94B414CF93DF93EC018881998146
:1029B000DC01ED91FC910680F781E02D099528A5B9
:1029C0002223A1F0873F910531F418A6CE01DF91B3
:1029D000CF910C949F1329A53AA5FE01E20FF31F96
:1029E00080872F5F3F4F3AA729A789C02D812223D7
:1029F00009F44CC0803891050CF048C09FEF920F4D
:102A00009D83FE01E90FF11D8087911178C08E81B1
:102A1000882309F474C0803D79F138F48039B9F025
:102A2000803C91F5EFA5F8A929C0803E19F0843FBC
:102A3000D9F02AC0EBA5FCA5309731F188856985CE
:102A400070E0B0E88B9F600D711D11241BC0EDA5D7
:102A5000FEA53097C9F08885698570E090E8899F68
:102A6000600D711D11240EC0EBA9FCA9309761F017
:102A7000688570E0898507C0E9A9FAA9309721F037
:102A8000688570E08F8109951E8239C0803F91056D
:102A90002CF4282F2F702F83807F9927803E91055B
:102AA00011F154F4803C910501F1803D9105E9F06C
:102AB0008039910521F517C0843F9105A1F044F4B8
:102AC000803F9105E1F481E088A71AA619A617C0F6
:102AD000893F910571F08F3F910589F4CE01DF9117
:102AE000CF910C94B41492E001C091E09D838E8349
:102AF00006C08DE195E0DF91CF910C94DA12DF9161
:102B0000CF9108958F929F92AF92BF92CF92DF9212
:102B1000EF92FF921F93CF93DF93EB014A0169017C
:102B200061E08DE00E947B1B10E0EE24D7FCE09476
:102B3000FE2CAA2497FCA094BA2C812F90E08C172D
:102B40009D0794F4C701B6010E94EE1961E08DE083
:102B50000E94B41BC501B4010E94EE1960E08DE033
:102B60000E94B41B1F5FE9CFDF91CF911F91FF90AF
:102B7000EF90DF90CF90BF90AF909F908F9008958F
:102B8000CF93DF93EC0161E08DE00E947B1B22ED8F
:102B900030E048E250E062E070E0CE010E94821531
:102BA0006AEF70E080E090E00E94EE1922ED30E0E4
:102BB00048E250E063E070E0CE010E9482156DE7CC
:102BC00070E080E090E0DF91CF910C94EE19CF930C
:102BD000DF93EC0185E695E00E94D01C85E695E048
:102BE00099838883CE010E94C015CE010E94DA121B
:102BF000CE01DF91CF910C94FD128DE195E00C9404
:102C0000CD14CF93DF93DC0170E0FB01EC5BFE4F52
:102C1000E4911496EC931497842F90E0FC01EC5B04
:102C2000FE4FE4911596EC9315976E597E4FFB017C
:102C3000C491D0E0CC0FDD1FC257DE4FFE0145919D
:102C4000549117965C934E931697FC01EE59FE4FE4
:102C5000849190E0880F991F80589E4FFC01459108
:102C600054911B965C934E931A97FB016491E62F47
:102C7000F0E0EE0FFF1FE456FE4F859194911996F8
:102C80009C938E931897C901253FF1E03F0714F0FC
:102C900084EF91E049E3489F9001499F300D112452
:102CA000245E3F4F1D963C932E931C97DF91CF914E
:102CB00008950F931F93CF93DF93EC01E885F98577
:102CC00080819C81892B8083EE81FF8190818C8122
:102CD00080958923808384E090E00E94161AEE811B
:102CE000FF8180819C81892B80838AE090E00E9413
:102CF000161AEE81FF8190818C81809589238083D3
:102D0000E885F98590818C818095892380830E9454
:102D1000CB19605B794B8F4F9F4F6E877F87888B76
:102D2000998BEA85FB8580819D81892359F00E94DA
:102D3000CB190E851F85288939890617170728079B
:102D4000390778F7EA85FB8580819D81892369F4BD
:102D50000E94CB190E851F85288939890617170708
:102D60002807390778F780E00DC00E94CB192C8521
:102D70003D85620F731F811D911D6E877F87888B34
:102D8000998B81E0DF91CF911F910F9108950F935F
:102D90001F93CF93DF93EC010E945916882389F08B
:102DA000EA85FB8580819D81892371F00E94CB1982
:102DB0000E851F85288939890617170728073907BF
:102DC00078F720E030E00CC00E94CB192C853D85BF
:102DD000255031094E855F85241B350B260F371F83
:102DE000C901DF91CF911F910F910895CF93DF9388
:102DF000EC01842F1D861C861B821A821982188280
:102E00001E8A1F8A188E198E798768874E875F877A
:102E1000398B288B61E00E947B1B61E088890E94CE
:102E20007B1B1B8A1A8A1D8A1C8A82E090E09B8782
:102E30008A87DF91CF910895EF92FF920F931F93AE
:102E4000CF93DF93EC01842F1D861C861B821A8290
:102E5000198218821E8A1F8A188E198E79876887B0
:102E60004E875F87398B288B1B8B0A8BFD8AEC8AF8
:102E700061E00E947B1B61E088890E947B1B61E00E
:102E80008A890E947B1B61E08C890E947B1B84E005
:102E900090E09B878A87DF91CF911F910F91FF90E0
:102EA000EF900895CF92DF92EF92FF92CF93DF934E
:102EB000EC016A017B0128853985442737FD40955F
:102EC000542F60E67AEE80E090E00E949526CA01D9
:102ED000B901A70196010E9495262C833D834E835C
:102EE0005F83DF91CF91FF90EF90DF90CF900895B7
:102EF0000F931F93CF93DF93EC018B018A859B8502
:102F00000297F9F46130710571F02CF461157105C7
:102F1000C1F460E009C06230710559F06330710599
:102F200081F460E007C061E08E850E94B41B61E01F
:102F300005C061E08E850E94B41B60E088890E9414
:102F4000B41B8A859B850497D1F501301105A9F042
:102F500044F4012BA1F561E08E850E94B41B60E072
:102F600011C002301105B9F00330110541F561E0DF
:102F70008E850E94B41B60E013C060E08E850E94C5
:102F8000B41B61E088890E94B41B61E08A890E94B9
:102F9000B41B60E00DC060E08E850E94B41B61E050
:102FA00088890E94B41B60E08A890E94B41B61E09A
:102FB0008C89DF91CF911F910F910C94B41BDF91FD
:102FC000CF911F910F9108958F929F92AF92BF92D0
:102FD000EF92FF920F931F93CF93DF93EC018B013E
:102FE00077FF04C000271127061B170B16161706BC
:102FF0002CF481E090E09983888304C0672B11F062
:103000001982188284E0E82EF12C0115110509F4CB
:1030100042C00E94BF198E889F88A88CB98C6819FD
:1030200079098A099B098C809D80AE80BF806815D4
:1030300079058A059B0568F30E94BF196E8B7F8B0B
:10304000888F998F288139818C859D852130310524
:1030500059F401969D878C872885398582179307B7
:1030600071F41D861C860BC0892B21F488859985F7
:103070009D878C878C859D8501979D878C870150C6
:1030800011098C859D85B7010E945F26BC01CE0188
:103090000E947817BACFDF91CF911F910F91FF90C7
:1030A000EF90BF90AF909F908F90089584E090E054
:1030B0000895FC01A281B3812C919581922387818F
:1030C0008223992361F0882379F08085882321F079
:1030D00081859285890F81871086128608958111D6
:1030E00003C081E0808708952085211108C09923BD
:1030F00011F081E003C0882311F08FEF82870895DB
:1031000090E0FC013197ED30F10560F5EE59FF4F8D
:103110000C94B426809180008F7703C0809180004A
:103120008F7D80938000089584B58F7702C084B529
:103130008F7D84BD0895809190008F7707C0809126
:1031400090008F7D03C080919000877F80939000D6
:1031500008958091C0008F7703C08091C0008F7D5B
:103160008093C00008951F93CF93DF93EC01862FC7
:10317000142F41E050E0BE010E942E0341E050E0D8
:10318000BE01812FDF91CF911F910C942E03CF931D
:10319000DF93EC016B874C832E83421709F475C0D3
:1031A000483018F4283008F070C088EF840F86305B
:1031B00020F42850263060F068C04E3030F02E30B9
:1031C00008F463C0443108F060C0243108F05DC0E9
:1031D00018861986A0915A05B0915B05109729F4BD
:1031E000D0935B05C0935A050CC01C968D919C91A1
:1031F0001D97009711F0DC01F8CF1D96DC93CE935C
:103200001C971D861C8650E0FA01EE59FE4FE49192
:10321000F0E0EE0FFF1FE058FE4F859194919B83E5
:103220008A83892B09F431C0FA01EC5BFE4FE491EB
:10323000ED83FA01EA5DFE4F849181110E948018AE
:103240008E8190E0FC01EC5BFE4FE491EF83FC018A
:10325000EA5DFE4F849181110E94801860E08C81AC
:103260000E947B1B60E08E810E947B1B61E08C8151
:103270000E94B41B61E08E810E94B41B4E816C8160
:10328000CE01DF91CF910C94B318DF91CF910895C7
:1032900090915A0580915B0590935805809359054C
:1032A000E92FF82F309769F08185882331F0F0936A
:1032B0005905E0935805CF0108950484F585E02D64
:1032C000F1CF109259051092580580E090E00895D2
:1032D000FC01818587FF03C091E0980F918791855C
:1032E000191614F49150918708951F920F920FB6FA
:1032F0000F9211242F933F938F939F93AF93BF937C
:1033000080915D0590915E05A0915F05B09160058B
:1033100030915C0523E0230F2D3720F40196A11D89
:10332000B11D05C026E8230F0296A11DB11D2093F3
:103330005C0580935D0590935E05A0935F05B09357
:1033400060058091610590916205A0916305B0913F
:1033500064050196A11DB11D8093610590936205DE
:10336000A0936305B0936405BF91AF919F918F9136
:103370003F912F910F900FBE0F901F9018952FB770
:10338000F89460915D0570915E0580915F05909164
:1033900060052FBF08953FB7F89480916105909123
:1033A0006205A0916305B091640526B5A89B05C090
:1033B0002F3F19F00196A11DB11D3FBF6627782F41
:1033C000892F9A2F620F711D811D911D42E0660F9A
:1033D000771F881F991F4A95D1F70895CF92DF92E2
:1033E000EF92FF92CF93DF936B017C010E94CB1988
:1033F000EB01C114D104E104F10489F00E94EB2433
:103400000E94CB196C1B7D0B683E734090F381E0EA
:10341000C81AD108E108F108C851DC4FEACFDF91A2
:10342000CF91FF90EF90DF90CF900895019739F002
:10343000880F991F880F991F02970197F1F7089538
:10344000789484B5826084BD84B5816084BD85B57F
:10345000826085BD85B5816085BDEEE6F0E0808146
:1034600081608083E1E8F0E0108280818260808367
:10347000808181608083E0E8F0E0808181608083EA
:10348000E1E9F0E0808182608083808181608083D7
:10349000E0E9F0E0808181608083E1ECF0E0808110
:1034A000846080838081826080838081816080836A
:1034B000E3ECF0E0808181608083E0ECF0E08081EB
:1034C00082608083E2ECF0E0808181608083EAE7C3
:1034D000F0E080818460808380818260808380814D
:1034E000816080838081806880830895823108F0C4
:1034F0008251E82FF0E0E65EFE4FE49180917B0080
:10350000E3FB222720F930E095E0220F331F9A9544
:10351000E1F78F7D822B80937B00E77080910E0115
:1035200020E4829FC0011124E82BE0937C0080916D
:103530007A00806480937A0080917A0086FDFCCFC7
:10354000809178002091790090E0922B08951F934C
:10355000CF93DF93182FEB0161E00E947B1B209734
:1035600011F460E004C0CF3FD10539F461E0812F50
:10357000DF91CF911F910C94B41BE12FF0E0EA5D35
:10358000FE4F449150E0FA013197EF30F10508F019
:103590006CC0E159FF4F0C94B42684B5806884BD9B
:1035A000C7BD68C084B5806284BDC8BD63C080915A
:1035B0008000806880938000D0938900C093880049
:1035C00059C080918000806280938000D0938B00EE
:1035D000C0938A004FC080918000886080938000F3
:1035E000D0938D00C0938C0045C08091900080687E
:1035F00080939000D0939900C09398003BC0809135
:103600009000806280939000D0939B00C0939A00BA
:1036100031C080919000886080939000D0939D008D
:10362000C0939C0027C08091C00080688093C00038
:103630008091C0008F7B8093C000C093CF001AC0E0
:103640008091C00080628093C000C093D00012C0FF
:103650008091C20088608093C2008091C2008B7FFD
:103660008093C200C093D20005C0C038D1050CF0D1
:103670007DCF77CFDF91CF911F91089590E0FC012E
:103680003197EF30F105B0F5E258FF4F0C94B426B6
:10369000809180008F7703C0809180008F7D809320
:1036A0008000089580918000877FF9CF84B58F775F
:1036B00002C084B58F7D84BD0895809190008F777E
:1036C00007C0809190008F7D03C080919000877F1C
:1036D0008093900008958091C0008F7703C08091FF
:1036E000C0008F7D8093C00008958091C200877FC5
:1036F0008093C2000895CF93DF9390E0FC01EC5BD0
:10370000FE4F2491FC01EE59FE4F8491882349F12C
:1037100090E0880F991FFC01E456FE4FA591B491EB
:1037200082579E4FFC01C591D4919FB7611108C08B
:10373000F8948C91209582238C93888182230AC0EF
:10374000623051F4F8948C91322F309583238C930E
:103750008881822B888304C0F8948C91822B8C936F
:103760009FBFDF91CF9108950F931F93CF93DF9366
:103770001F92CDB7DEB7282F30E0F901EA5DFE4F8A
:103780008491F901EC5BFE4F1491F901EE59FE4F63
:1037900004910023C9F0882321F069830E943E1B15
:1037A0006981E02FF0E0EE0FFF1FE257FE4FA59179
:1037B000B4919FB7F8948C91611103C01095812347
:1037C00001C0812B8C939FBF0F90DF91CF911F91F0
:1037D0000F910895CF93DF93282F30E0F901EA5D30
:1037E000FE4F8491F901EC5BFE4FD491F901EE5943
:1037F000FE4FC491CC2391F081110E943E1BEC2F0F
:10380000F0E0EE0FFF1FE058FE4FA591B4912C9110
:103810002D2381E090E021F480E002C080E090E080
:10382000DF91CF910895CF93DF931F92CDB7DEB78D
:103830006983DC01ED91FC910280F381E02D41E090
:1038400050E0BE016F5F7F4F09950F90DF91CF91E0
:103850000895CF93DF93EC018C859D8597FF05C07C
:1038600082E00E94F4209D878C878C859D85DF9166
:10387000CF91089583E00C944923FC0184859585BC
:1038800097FD06C082E00E949C2090E0019608957A
:1038900082E00E949C2090E00895FC01848595853B
:1038A00097FD05C02FEF3FEF35872487089582E00D
:1038B0000C94F420CF93DF93EC01809116018823C0
:1038C00031F083E00E9425211816190634F081E0BA
:1038D00090E09B838A8380E090E0DF91CF91089510
:1038E000FC0120812E5F208342E450E06AEA71E00F
:1038F00080E80C94C021FC0181819081913A59F4B7
:10390000813209F03CC047E050E06FE071E080E0B8
:103910000E94C02143C0913291F5803239F467E0B2
:1039200070E08FE091E00E94F12106C0823209F040
:1039300035C082818093160180910F019091100112
:10394000A0911101B0911201803B9440A105B105F5
:10395000C1F48091160180FD14C087E797E790932A
:103960000108809300082BE088E190E00FB6F894FE
:10397000A895809360000FBE209360000FC080E088
:10398000089588E10FB6F89480936000109260006B
:103990000FBEA895109201081092000881E00895CA
:1039A0002FEF3FEFFC0135872487089510926805BB
:1039B0001092670588EE93E0A0E0B0E0809369057F
:1039C00090936A05A0936B05B0936C0580EF92E02D
:1039D00090936605809365058FEF9FEF9093720536
:1039E00080937105089508950E94201A0E94F31C87
:1039F00081ED95E00E94A9230E94CD06C0E0D0E0B1
:103A00000E943F0C2097E1F30E940000F9CF0C9434
:103A1000D426CF92DF92EF92FF920F931F93CF9312
:103A2000DF936C017A01EB01E60EF71E00E010E077
:103A3000CE15DF0561F06991D601ED91FC91019001
:103A4000F081E02DC6010995080F191FF1CFC801BB
:103A5000DF91CF911F910F91FF90EF90DF90CF906A
:103A600008953F924F925F926F927F928F929F92B2
:103A7000AF92BF92CF92DF92EF92FF920F931F937C
:103A8000CF93DF9300D000D0CDB7DEB78B012901F3
:103A90003A0190911701981721F09F3F09F022C237
:103AA00004C0ECEEF1E03490AEC080931701ECEE70
:103AB000F1E0E491EF3F09F415C2E13009F452C09E
:103AC0001CF5E1119FC014BC15BC94B5926094BD67
:103AD00095B5916095BD282F30E0F901EE59FE4F64
:103AE000E491F0E0EE0FFF1FE257FE4F4591549135
:103AF0005093CC054093CB05F901EC5BFE4F24912C
:103B00002093CA05312C81C0E33009F453C0E4305E
:103B100009F078C01092C0001092C1009091C100CD
:103B200098609093C1009091C10091609093C10002
:103B3000282F30E0F901EE59FE4FE491F0E0EE0F4E
:103B4000FF1FE257FE4F459154915093B7054093A4
:103B5000B605F901EC5BFE4F24912093B50554E0C6
:103B6000352E53C0109280001092810090918100F8
:103B70009860909381009091810091609093810072
:103B8000282F30E0F901EE59FE4FE491F0E0EE0FFE
:103B9000FF1FE257FE4F459154915093C505409346
:103BA000C405F901EC5BFE4F24912093C305332437
:103BB00033942BC01092900010929100909191003C
:103BC00098609093910090919100916090939100F2
:103BD000282F30E0F901EE59FE4FE491F0E0EE0FAE
:103BE000FF1FE257FE4F459154915093BE054093FD
:103BF000BD05F901EC5BFE4F24912093BC0573E0F9
:103C0000372E03C03E2E37FC6DC161E00E947B1B46
:103C10004801A12CB12C832D8D7F09F0BAC060E042
:103C200072E18AE790E0A50194010E94952629831C
:103C30003A834B835C8369017A0181E0C81AD10819
:103C4000E108F1089FEFC916D104E104F10409F07D
:103C500008F49AC060E472E48FE090E0A50194015A
:103C60000E94952669017A01E1E0CE1AD108E108A7
:103C7000F108F2E03F1219C08FEFC816D104E10439
:103C8000F10409F008F4C9C060E970ED83E090E048
:103C9000A50194010E94952669017A0191E0C91A53
:103CA000D108E108F10883E001C082E0EFEFCE1611
:103CB000D104E104F10409F008F467C068E478EE87
:103CC00081E090E0A50194010E94952669017A01A6
:103CD000F1E0CF1AD108E108F1083320E1F082E0E9
:103CE00038121BC09FEFC916D104E104F10409F09A
:103CF00008F493C064E274EF80E090E0A5019401C1
:103D00000E94952669017A01E1E0CE1AD108E10806
:103D1000F10885E003C083E001C084E0FFEFCF1627
:103D2000D104E104F10489F180F162E17AE780E0F5
:103D300090E0A50194010E94952669017A0181E035
:103D4000C81AD108E108F108311002C084E001C0AE
:103D500086E09FEFC916D104E104F104B1F0A8F0A8
:103D6000C980DA80EB80FC809AE0F594E794D794E0
:103D7000C7949A95D1F7E1E0CE1AD108E108F1088D
:103D800031104BC085E003C081E0311046C085BDD5
:103D900044C060E072E18AE790E0A50194010E94CE
:103DA000952669017A01F1E0CF1AD108E108F108FE
:103DB000C114D10481E0E806F10488F068E478EEEB
:103DC00081E090E0A50194010E94952669017A01A5
:103DD00091E0C91AD108E108F10893E001C091E02F
:103DE000E1E03E1207C080918100887F892B80939B
:103DF000810013C0F3E03F1207C080919100887FDB
:103E0000892B8093910009C084E0381206C080910C
:103E1000C100887F892B8093C10041145104610443
:103E2000710471F0D801AA0FBB1FA30192010E9477
:103E3000BA2628EE33E040E050E00E94732603C02B
:103E40002FEF3FEFA90191E0391649F193158CF05E
:103E5000311048C0C7BC2093CD053093CE054093A8
:103E6000CF055093D00580916E00826080936E00E4
:103E700039C0E3E03E1629F1F4E03F1233C0C092AE
:103E8000CF002093B8053093B9054093BA055093FD
:103E9000BB058091720080648093720023C0D09231
:103EA0008900C09288002093C6053093C7054093CF
:103EB000C8055093C90580916F00826080936F00A0
:103EC00011C0D0929900C09298002093BF05309302
:103ED000C0054093C1055093C20580917100826076
:103EE000809371000F900F900F900F90DF91CF9102
:103EF0001F910F91FF90EF90DF90CF90BF90AF9008
:103F00009F908F907F906F905F904F903F9008951B
:103F10008230A9F028F4882349F0813051F00895C7
:103F20008430B1F090F08530B1F0089510926E00B9
:103F3000089580916F008D7F80936F000895809128
:103F400070008D7F80937000089510927100089525
:103F5000109272000895109273000895CF93C82FA5
:103F6000809117018C1307C0ECEEF1E084919FEF74
:103F70009093170101C08FEF0E94881F60E08C2F83
:103F8000CF910C94B41B1F920F920FB60F92112475
:103F90002F933F938F939F93AF93BF93EF93FF9391
:103FA0008091BF059091C005A091C105B091C20557
:103FB000892B8A2B8B2B51F19091BC05E091BD058B
:103FC000F091BE058081892780838091BF05909103
:103FD000C005A091C105B091C205181619061A06B0
:103FE0001B0624F58091BF059091C005A091C105E5
:103FF000B091C2050197A109B1098093BF059093C3
:10400000C005A093C105B093C20510C01092710005
:104010002091BC05E091BD05F091BE05808190E046
:1040200030E020953095822393238083FF91EF9198
:10403000BF91AF919F918F913F912F910F900FBEA4
:104040000F901F9018954091D5055091D60520915D
:10405000D3053091D40542175307B4F49091E8008A
:104060009570E1F39091E80092FD19C08093F10002
:104070008091D5059091D60501968F739927892B4C
:1040800019F48EEF8093E8008091D5059091D605C4
:1040900001969093D6058093D50581E0089580E040
:1040A0000895CF92DF92FF920F931F93CF93DF93E8
:1040B0001F92CDB7DEB7082F162F862F880F8E5F81
:1040C00099830E94232083E00E942320F02EC02E9B
:1040D0009981D92E8C2D8F19811778F4F60184914E
:1040E0000E942320082F80E00E9423208023FFEFDE
:1040F000CF1ADF0A8111EECF01C081E00F90DF916E
:10410000CF911F910F91FF90DF90CF900895615054
:1041100030F02091F100FC0120830196F8CF28981F
:1041200084E68093D80508952FB7FC012083F89486
:1041300067706093E9000895CF93DF931F92CDB726
:10414000DEB7682FCE0101960E9494208091F20084
:1041500099819FBF0F90DF91CF910895FF920F93A8
:104160001F93CF93DF9300D0CDB7DEB7F62E8A0131
:104170009091D705992311F057FF03C08FEF9FEF60
:104180002BC0682FCE0101967A830E9494208091E3
:10419000F20090E0A8017A81801791070CF4AC013D
:1041A000EF2DF72FF40E84E6FE1639F02898809351
:1041B000D8059091F1009193F7CF4115510521F069
:1041C0008091F200882321F089818FBFCA0104C049
:1041D0008BE68093E800F8CF0F900F90DF91CF919E
:1041E0001F910F91FF900895CF93DF931F92CDB74A
:1041F000DEB741E050E0BE016F5F7F4F0E94AE200E
:10420000019719F4898190E002C08FEF9FEF0F9022
:10421000DF91CF910895CF93DF931F92CDB7DEB793
:10422000682FCE0101960E9494209091E800892F7A
:10423000807295FF04C09091F20080E4891B9981FF
:104240009FBF0F90DF91CF9108956F927F928F92D1
:104250009F92AF92BF92CF92DF92EF92FF920F9315
:104260001F93CF93DF931F92CDB7DEB7782E7B01DC
:10427000C42EB52E8091D705882369F0042F152F01
:104280008AEFD82E872D8072982E9AE3A92E872D3B
:104290008074882E11C08FEF9FEF57C0872D0E942A
:1042A0000B21682E81110CC0DA94A9F361E070E053
:1042B00080E090E00E94EE190115110579F73BC0EE
:1042C000282F30E0021713070CF4602E672DCE0163
:1042D00001960E9494208091E80085FF29C0262D38
:1042E00030E0021B130B992039F06A948FEF6816A7
:1042F000B1F01092F100F9CFF701862D77FE07C0DB
:10430000815058F094919093F1003196F9CF8150FB
:1043100020F091919093F100FACFE20EF31E80917C
:10432000E80085FF0FC00115110511F481100AC0C6
:1043300089818FBFC1CF5D9884E68093D9058C2D8C
:104340009B2D03C0A092E800F3CF0F90DF91CF9197
:104350001F910F91FF90EF90DF90CF90BF90AF90A3
:104360009F908F907F906F9008951092E900109227
:10437000D6051092D5059093D4058093D305089562
:10438000CF92DF92FF920F931F93CF93DF9300D0D2
:10439000CDB7DEB7F82E8A016B0101151105B1F01A
:1043A000F601F7FE02C0849101C0808149835A83DF
:1043B0000E94232001501109FFEFCF1ADF0A498123
:1043C0005A818111EACF8FEF9FEF01C0CA010F9090
:1043D0000F90DF91CF911F910F91FF90DF90CF90C1
:1043E00008951F93CF93DF931F92CDB7DEB7162F9B
:1043F0002091E80022FFFCCF612F79830E94872063
:104400008BEF8093E800812F7981972F0F90DF91B8
:10441000CF911F910895CF93DF931F92CDB7DEB751
:104420001982CE0101960E94701CCE0101960E9455
:104430000A25898190E00F90DF91CF9108951F9216
:104440000F920FB60F921124EF92FF920F931F93CA
:104450002F933F934F935F936F937F938F939F938C
:10446000AF93BF93EF93FF93CF93DF93CDB7DEB7B7
:104470006297DEBFCDBF1092E9008091E80083FF14
:10448000EBC068E0CE010A960E94872082EF8093FD
:10449000E8009A8597FF05C08091E80080FFFCCF77
:1044A00003C08EEF8093E800892F807609F0B9C0B1
:1044B0008B85811105C01092F1001092F100C5C0EA
:1044C000282F2D7F213009F4C0C0853049F4809118
:1044D000E80080FFFCCF8C8580688093E300B5C046
:1044E000863009F076C02D85E888F988223071F58C
:1044F00080E090E02A8B0E94B5210E940B2299E077
:104500008E010F5F1F4FF801392F11923A95E9F78D
:1045100099832A892A8391E09E8390E898879AEF6D
:1045200099872091D5053091D605275F3F4F3C8371
:104530002B838D83C7010E94B52149E050E0B8016B
:1045400080E00E94C0210E940B227FC0C7012A8BFD
:104550000E94B5212A89223241F482E290E00E9431
:104560001525892B09F071C074C0213069F4888940
:104570009989089711F42093D2058091D205811171
:1045800018C064E072E01AC0233009F062C08C8564
:10459000882391F0823021F460E182E292E006C04B
:1045A000813009F056C06BE086E192E00E94512014
:1045B0004AC062EF71E002C063E372E06115710509
:1045C00009F447C0FB01449150E080E80E94C021FB
:1045D0003CC0873009F43DC0883021F481E08093ED
:1045E000F10033C0893089F5937099F5EEEEF1E072
:1045F00081E021E096E38093E9002093EB00349181
:104600003093EC009093ED008F5F3196853099F7F1
:104610008EE78093EA001092EA008C858093D7059C
:1046200014C0888999890E94B5218E85811105C0A1
:10463000CE010A960E947B1C06C0823051F4CE0146
:104640000A960E943D25882321F08EEF8093E80092
:1046500003C081E28093EB0062960FB6F894DEBF50
:104660000FBECDBFDF91CF91FF91EF91BF91AF9181
:104670009F918F917F916F915F914F913F912F917A
:104680001F910F91FF90EF900F900FBE0F901F9012
:1046900018958093E9008091F200882319F08AE34D
:1046A0008093E80008951F920F920FB60F92112485
:1046B0002F933F934F935F936F937F938F939F932A
:1046C000AF93BF93EF93FF938091E1001092E100CD
:1046D00083FF0FC01092E90091E09093EB001092DD
:1046E000EC0092E39093ED001092D70598E0909340
:1046F000F00082FF1DC083E00E9449238091D9050C
:10470000882339F08091D90581508093D905882379
:1047100069F08091D805882359F08091D80581509F
:104720008093D805811104C0289A02C05D9AF1CF08
:10473000FF91EF91BF91AF919F918F917F916F9179
:104740005F914F913F912F910F900FBE0F901F904F
:1047500018951092D70581E08093D70080EA809366
:10476000D80082E189BD09B400FEFDCF61E070E0B0
:1047700080E090E00E94EE1980E98093D8008CE000
:104780008093E2001092E000559A209A08954F928B
:104790005F926F927F92AF92BF92CF92DF92EF9231
:1047A000FF920F931F93CF93DF93CDB7DEB729010D
:1047B0003A01621B730B840B950B29893A894B894B
:1047C0005C892A193B094C095D09298B3A8B4B8B73
:1047D0005C8B9B01AC0169897A898B899C890E94D9
:1047E0002F26E418F50806091709A80197010E9469
:1047F00095262A0D3B1D4C1D5D1DCA01B901DF9197
:10480000CF911F910F91FF90EF90DF90CF90BF90CD
:10481000AF907F906F905F904F900895FC018081E2
:1048200091810C946C27CF93DF93EC01888199815F
:10483000009711F00E946C27198218821D821C8239
:104840001B821A82DF91CF9108950F931F93CF930C
:10485000DF93EC018B016F5F7F4F888199810E940C
:10486000FB27009731F0998388831B830A8381E0BB
:1048700001C080E0DF91CF911F910F910895CF93F8
:10488000DF93EC0188819981892B29F08A819B81B2
:104890008617970760F4CE010E942524882341F0F3
:1048A0008C819D81892B19F4E881F981108281E046
:1048B000DF91CF910895EF92FF920F931F93CF93C3
:1048C000DF93EC017B018A01BA010E943F24811130
:1048D00004C0CE010E94132407C01D830C83B701BE
:1048E000888199810E94CE28CE01DF91CF911F91BE
:1048F0000F91FF90EF900895CF93DF93EC01611536
:10490000710561F0FB0101900020E9F7AF01415012
:104910005109461B570B0E945B2402C00E941324BE
:10492000CE01DF91CF9108950F931F93CF93DF9323
:10493000CDB7DEB7A2970FB6F894DEBF0FBECDBFDE
:104940008C01CB01BA01F80111821082138212820C
:104950001582148230E0AE014F5F5F4F0E9409293B
:10496000BE016F5F7F4FC8010E947C24A2960FB6E4
:10497000F894DEBF0FBECDBFDF91CF911F910F9195
:1049800008950F931F93CF93DF93EB0141155105CA
:10499000E9F02097D9F0FC0164817581261737076B
:1049A000A0F4621B730B8A01015011096017710793
:1049B00008F48B01FC0160817181620F731FA801F3
:1049C000CE010E94D528C00FD11F1882DF91CF9150
:1049D0001F910F9108950895FF920F931F93CF9306
:1049E000DF93EC01F62EE881F9810480F581E02D5A
:1049F00009958C01E881F9810680F781E02D6F2D02
:104A0000CE010995C8019927DF91CF911F910F9190
:104A1000FF900895FC0120812F5F208349E150E041
:104A200067EB72E080E80C94C02145E650E060ED51
:104A300072E080E80C94C021EF92FF920F931F93D5
:104A4000CF93DF931F92CDB7DEB789838B017A01B5
:104A500041E050E0BE016F5F7F4F84E00E9425215E
:104A6000A701B80184E40E9425210F90DF91CF9126
:104A70001F910F91FF90EF900895FC01918180812B
:104A8000813A31F481E0913091F0933089F411C092
:104A9000813271F49B3021F482818093190105C029
:104AA0009A3031F482818093180181E0089508954D
:104AB00080E0089548E050E082E00C941C25CF93FC
:104AC000DF93DC01683818F0E8E7E60F25C0E62F31
:104AD000F0E067FF11C0E058F10981E090E001C00B
:104AE000880FEA95EAF714969C911497982B1496E0
:104AF0009C931497E0E010C0E95CFD4FE491EE2335
:104B000009F440C0E7FF08C014968C9114978260A6
:104B100014968C931497EF7716968C9116978E17A0
:104B200041F117968C9117978E1719F118968C9161
:104B300018978E17F1F019968C9119978E17C9F066
:104B40001A968C911A978E17A1F01B968C911B9731
:104B50008E1779F080E090E0ED01C80FD91F2E810B
:104B6000211102C0EE8305C0019686309105A1F7A0
:104B700009C0BD016C5F7F4FCD010E945A2581E0C5
:104B800090E008C081E090E013969C938E9312977A
:104B900080E090E0DF91CF910895683818F0E8E761
:104BA000E60F25C0E62FF0E067FF12C0E058F109DC
:104BB00021E030E001C0220FEA95EAF72095DC0100
:104BC00014963C911497322314963C93E0E00FC066
:104BD000E95CFD4FE491EE2329F1E7FF08C0DC0119
:104BE00014962C9114972D7F14962C93EF7720E038
:104BF00030E0EE2351F0DC01A20FB31F16964C916A
:104C000016974E1302C016961C922F5F3F4F263008
:104C1000310579F7BC016C5F7F4F0E945A2581E016
:104C200090E0089580E090E00895FC0116821782DC
:104C300010861186128613861482BC016C5F7F4F2A
:104C40000C945A251092E6051092DD051092DC05B1
:104C500080E093E09093DB058093DA050895DB0113
:104C60008F939F930E94BA26BF91AF91A29F800D10
:104C7000911DA39F900DB29F900D11240895991B33
:104C800079E004C0991F961708F0961B881F7A9543
:104C9000C9F780950895AA1BBB1B51E107C0AA1F45
:104CA000BB1FA617B70710F0A61BB70B881F991FCD
:104CB0005A95A9F780959095BC01CD01089597FB71
:104CC000072E16F4009407D077FD09D00E944B26DA
:104CD00007FC05D03EF4909581959F4F08957095FF
:104CE00061957F4F0895A1E21A2EAA1BBB1BFD01FF
:104CF0000DC0AA1FBB1FEE1FFF1FA217B307E407BB
:104D0000F50720F0A21BB30BE40BF50B661F771F12
:104D1000881F991F1A9469F76095709580959095F2
:104D20009B01AC01BD01CF010895052E97FB1EF438
:104D300000940E94AC2657FD07D00E94732607FC02
:104D400003D04EF40C94AC265095409530952195A7
:104D50003F4F4F4F5F4F08959095809570956195A7
:104D60007F4F8F4F9F4F0895EE0FFF1F0590F491D7
:104D7000E02D09940E94C526A59F900DB49F900D2B
:104D8000A49F800D911D11240895A29FB001B39F8F
:104D9000C001A39F700D811D1124911DB29F700D44
:104DA000811D1124911D0895CF93DF9382309105C9
:104DB00010F482E090E0E091E905F091EA0520E04E
:104DC00030E0A0E0B0E0309739F1408151814817E0
:104DD0005907B8F04817590771F4828193811097E9
:104DE00029F013969C938E9312972CC09093EA050A
:104DF0008093E90527C02115310531F0421753078B
:104E000018F0A901DB0101C0EF019A01BD01DF012A
:104E10000280F381E02DD7CF21153105F9F0281B51
:104E2000390B2430310580F48A819B81611571052D
:104E300021F0FB019383828304C09093EA05809361
:104E4000E905FE01329644C0FE01E20FF31F819393
:104E5000919322503109398328833AC02091E70584
:104E60003091E805232B41F4209102013091030198
:104E70003093E8052093E70520910001309101016E
:104E80002115310541F42DB73EB7409104015091F1
:104E90000501241B350BE091E705F091E805E217C9
:104EA000F307A0F42E1B3F0B2817390778F0AC014D
:104EB0004E5F5F4F2417350748F04E0F5F1F50932A
:104EC000E8054093E7058193919302C0E0E0F0E0AC
:104ED000CF01DF91CF910895CF93DF93009709F42D
:104EE00087C0FC01329713821282C091E905D091EC
:104EF000EA05209781F420813181280F391F8091A4
:104F0000E7059091E8058217930779F5F093E80596
:104F1000E093E7056DC0DE0120E030E0AE17BF078B
:104F200050F412964D915C9113979D0141155105D6
:104F300009F1DA01F3CFB383A28340815181840F59
:104F4000951F8A179B0771F48D919C911197840F7F
:104F5000951F02969183808312968D919C91139751
:104F6000938382832115310529F4F093EA05E093B8
:104F7000E9053EC0D9011396FC93EE9312974D912B
:104F80005D91A40FB51FEA17FB0779F48081918129
:104F9000840F951F0296D90111969C938E9382815E
:104FA000938113969C938E931297E0E0F0E08A81B0
:104FB0009B81009719F0FE01EC01F9CFCE0102961A
:104FC00028813981820F931F2091E7053091E805F0
:104FD0002817390769F4309729F41092EA051092DE
:104FE000E90502C013821282D093E805C093E70559
:104FF000DF91CF910895A0E0B0E0E1E0F8E20C94F9
:105000005929EC01CB01209719F40E94D426B8C08D
:10501000FE01E60FF71F9E0122503109E217F30748
:1050200008F4ACC0D9010D911C9111970617170710
:10503000B8F00530110508F49FC0A801445051098B
:105040004617570708F498C002501109061B170BA2
:10505000019311936D937C93CF010E946C278CC0B8
:105060005B01A01AB10A4E01800E911EA091E905C4
:10507000B091EA05612C712C60E070E0109709F4A2
:1050800049C0A815B905C9F5ED90FC9011976701C5
:1050900042E0C40ED11CCA14DB0478F147018A181F
:1050A0009B08640142E0C40ED11C1296BC9012977A
:1050B0001396AC91B5E0CB16D10440F0B282A38335
:1050C00091828082D9018D939C9309C00E5F1F4FFE
:1050D0000E0D1F1DF90111830083EB2DFA2F6115B1
:1050E000710531F0DB011396FC93EE93129744C0E7
:1050F000F093EA05E093E9053FC06D917C9111972B
:105100006616770608F43B01BD0112960D90BC911E
:10511000A02DB4CF6091E7057091E8056815790579
:10512000E9F468167906D0F440910001509101012C
:105130004115510541F44DB75EB76091040170917E
:105140000501461B570BE417F507C0F4F093E8057B
:10515000E093E705F901918380830EC00E94D42675
:105160007C01009759F0A801BE010E94C528CE011C
:105170000E946C27C70104C0CE0102C080E090E00D
:10518000CDB7DEB7EEE00C947529FB01DC0102C05F
:1051900001900D9241505040D8F70895FB01DC0179
:1051A00001900D920020E1F70895FB01DC014150D0
:1051B000504048F001900D920020C9F701C01D92A7
:1051C00041505040E0F70895FC0181E090E00190EB
:1051D000061609F4CF010020D1F701970895FB01CD
:1051E00051915523A9F0BF01DC014D9145174111A3
:1051F000E1F759F4CD010190002049F04D9140159F
:105200004111C9F3FB014111EFCF81E090E001971B
:1052100008952532310520F4223010F00C94142921
:10522000FA011082CA010895BB272A3051F499234C
:1052300042F4BDE290958095709561957F4F8F4FB8
:105240009F4F0C942429BB27FA01A62F62177105E2
:1052500081059105330B30FB66F0AA27660F771F97
:10526000881F991FAA1FA21710F0A21B6395385020
:10527000A9F7A05DAA3308F0A95DA19336F7B11193
:10528000B1931082CA010C944529DC01FC01672FFF
:1052900071917723E1F7329704C07C916D9370830D
:1052A0006291AE17BF07C8F308952F923F924F92B5
:1052B0005F926F927F928F929F92AF92BF92CF92A6
:1052C000DF92EF92FF920F931F93CF93DF93CDB7AF
:1052D000DEB7CA1BDB0B0FB6F894DEBF0FBECDBF27
:1052E00009942A88398848885F846E847D848C84F8
:1052F0009B84AA84B984C884DF80EE80FD800C8101
:105300001B81AA81B981CE0FD11D0FB6F894DEBFE3
:0C5310000FBECDBFED010895F894FFCF53
:10531C000000EB0580000100000021FF13000100DC
:10532C00E1000000000000FF0101556E6B6E6F770D
:10533C006E2070696E206D6F6465004669726D61D8
:10534C007461506C75732E696E6F00493243205234
:10535C00656164204572726F723A20546F6F206DD4
:10536C00616E792062797465732072656365697604
:10537C006564004932432052656164204572726F46
:10538C00723A20546F6F206665772062797465736A
:10539C002072656365697665640031302D626974CD
:1053AC002061646472657373696E67206D6F6465E8
:1053BC00206973206E6F742079657420737570701A
:1053CC006F7274656400746F6F206D616E792071FB
:1053DC007565726965730050494E475F434F4E4681
:1053EC004947204572726F723A204578636565644F
:1053FC006564206E756D626572206F6620737570C2
:10540C00706F727465642070696E6720646576696C
:10541C00636573005354455050455220434F4E46DC
:10542C004947204572726F723A2057726F6E67202F
:10543C004E756D626572206F6620617267756D6561
:10544C006E74730061726763203D200053544550A5
:10545C00504552204F504552415445204572726F71
:10546C00723A204D4F544F52204E4F5420434F4EC2
:10547C0046494755524544005354455050455220D7
:10548C004649524D574152452056455253494F4E6D
:10549C00204572726F723A204E4F204D4F544F522E
:1054AC005320434F4E4649475552454400535445AB
:1054BC005050455220434F4E464947204572726F1B
:1054CC00723A20554E4B4E4F574E20535445505028
:1054DC00455220434F4D4D414E44002C042204189C
:1054EC0004000000001910EC0FC10FC90FDC0FEB0A
:1054FC000F2E6370700000000000591800000000AF
:10550C00131C5A1C3D1C4D1C291C3A1C000000008D
:0A551C00EC24091D5F25CD2515269E
:00000001FF
