:1000000048C1000077C1000075C1000073C1000045
:1000100071C100006FC100006DC100006BC1000024
:1000200069C1000031C300005FC300008DC3000040
:1000300061C100000C942A245DC100005BC1000076
:1000400059C100000C94181055C1000053C10000A4
:1000500051C100004FC100004DC100000C94D81BDD
:1000600049C100000C9425200C945B2043C1000082
:1000700041C100003FC100003DC100003BC1000084
:100080000C94451037C1000035C1000033C1000099
:1000900031C100002FC100002DC100000C94FB13E2
:1000A00029C1000027C100000C94721023C1000078
:1000B00021C100001FC100001DC100000C949F1051
:1000C00019C1000017C1000015C1000013C10000D4
:1000D00011C100000FC100000DC100000BC10000E4
:1000E00009C100009A07A8078B07B507C7070408CE
:1000F000F60704080008FC07EC07FE07E21AE51AF9
:10010000D81ADC1A1C1B1C1BE91AED1AF31AF71A71
:10011000FB1A011B051B091B1C1B0F1B131B171BA9
:100120002C1D311D361D401D4A1DC31D541D5C1D57
:10013000641D6E1D781D821D911D9B1DC31DA51D77
:10014000AF1DB91DE51DE81DD71DDB1DE11D1F1EDF
:10015000EC1DF01DF61DFA1DFE1D041E081E0C1ED2
:100160001F1E121E161E1A1E00000A0B02090C0D7D
:100170000E0807030401000000000000000000005A
:10018000000000000000000000000000000000006F
:10019000000000001211100000000000000000002C
:1001A000000000000000000000000000000001024C
:1001B0001020200808102040102040800201020179
:1001C0000804020101020408102040808040201031
:1001D000080402018004020180402010080402018A
:1001E00008040201010204081020408001020408F2
:1001F00010204080050505050705080808080202CB
:1002000002020A0A080804040404010101010101B0
:1002100001010303030303030303040707070C0C93
:100220000C0C0C0C0C0C020202020606060606065A
:1002300006060B0B0B0B0B0B0B0B00002000230017
:10024000260029002C002F003200000100000301CD
:100250000601090100002200250028002B002E00C5
:100260003100340002010000050108010B0100000B
:100270002100240027002A002D0030003300010156
:100280000000040107010A0102002E091A1369186F
:100290008D2011241FBECFEFD1E2DEBFCDBF00E025
:1002A0000CBF14E0A0E0B2E0EAEBF1E500E00BBF28
:1002B00002C007900D92A030B107D9F728E0A0E066
:1002C000B4E001C01D92A838B207E1F712E0C2E91C
:1002D000D2E000E006C022970109FE010BBF0E9498
:1002E0003026CA38D10780E00807A9F70E94D1203C
:1002F0000C94DB2885CE893028F4E82FF0E0EA5012
:10030000FA4F608308951F93CF93DF93162F8930A0
:1003100008F070C0982F990F990F990F985F973434
:1003200008F096E4D82FDD0FDD0FDD0F8D2FC0E034
:1003300041E08917E8F42EEF280F2434B0F4E82FB9
:10034000F0E0DF01A955BA4F2C91223070F4C42B94
:10035000EE0FFF1FEE5EFA4F21E030E0542F5123E5
:1003600011F420E030E031832083440F8F5FE1CF30
:10037000C0FF05C0612F61708D2F0E94591EC1FF03
:1003800006C0612F627081E08D0F0E94591EC2FF6E
:1003900006C0612F647082E08D0F0E94591EC3FF5A
:1003A00006C0612F687083E08D0F0E94591EC4FF44
:1003B00006C0612F607184E08D0F0E94591EC5FF39
:1003C00006C0612F607285E08D0F0E94591EC6FF26
:1003D00006C0612F607486E08D0F0E94591EC7FF12
:1003E00009C0612F607887E08D0FDF91CF911F9159
:1003F0000C94591EDF91CF911F9108958031C0F464
:100400004091FF055091000621E030E002C0220F2C
:10041000331F8A95E2F7672B29F420953095242322
:10042000352302C0242B352B309300062093FF0583
:1004300008950F931F93CF93DF93EB01863460F5FC
:10044000082F10E0F801E955FA4F9081933091F0B0
:10045000943011F582508033C0F498012250310954
:10046000C901880F991F820F931F815C9B4F0E94C7
:10047000DD110BC09EEF980F9C3020F094ED980F8B
:10048000933018F4BE010E94081DF801EE0FFF1F03
:10049000EE5EFA4FD183C083DF91CF911F910F9110
:1004A0000895CF93DF93DC01FB01228351834083C6
:1004B0001296CD91DC91139788819381892B888343
:1004C00082818D7F813041F415968C9115979381AF
:1004D000892B15968C93159782818150823040F438
:1004E00016968C9116979381892B16968C93169756
:1004F0008091680014969C91892B80936800DF910D
:10050000CF910895CF92DF92FF920F931F93CF93D5
:10051000DF9300D0CDB7DEB76C01E62FF0E0E255F7
:10052000FE4FF490FC0180859185009771F08C015D
:10053000FC0183818F1105C0B801C601B2DF80E0E4
:100540002EC0F80185819681F0CF87E090E02B8363
:1005500049835A830E94DD20DC012B8149815A8125
:10056000009721F4109202008FEF19C012962C937D
:10057000129716961C921E9215971396FC9213973B
:10058000F60180859185892B19F4B187A08703C076
:10059000F801B683A583BD01C60183DF81E00F901A
:1005A0000F900F90DF91CF911F910F91FF90DF90EF
:1005B000CF900895242FE82FF0E0EC50FE4FE49107
:1005C000EE23D1F061157105B9F0F0E03297EA3011
:1005D000F10540F4EE0FFF1FEF53FC4F0190F08147
:1005E000E02D02C0E0E0F0E0A081B1819C91978312
:1005F000AB01682FCF0186CF8FEF0895FF920F9345
:100600001F93CF93DF93EC0180911F069F812D8173
:100610003E81F82EF094F3222823F22A9827F9221B
:100620008F830885198501151105D9F0D801139616
:100630009C918F2D892389F080911F06892391E059
:1006400009F490E0F801948380819181DC01ED91BF
:10065000FC910190F081E02D1995F801058116813A
:10066000E2CF8BB39C81892349F09BB3982B9BBB32
:10067000E881F981808180931F06C6CFDF91CF91F9
:100680001F910F91FF9008951F920F920FB60F9236
:1006900011240BB60F922F933F934F935F936F9359
:1006A0007F938F939F93AF93BF93EF93FF93E091CB
:1006B0001506F0911606808180931F0685E196E06D
:1006C0009DDFFF91EF91BF91AF919F918F917F91AE
:1006D0006F915F914F913F912F910F900BBE0F90B3
:1006E0000FBE0F901F9018951F920F920FB60F928A
:1006F00011240BB60F922F933F934F935F936F93F9
:100700007F938F939F93AF93BF93EF93FF93E0916A
:100710000B06F0910C06808180931F068BE096E01B
:100720006DDFFF91EF91BF91AF919F918F917F917D
:100730006F915F914F913F912F910F900BBE0F9052
:100740000FBE0F901F9018951F920F920FB60F9229
:1007500011240BB60F922F933F934F935F936F9398
:100760007F938F939F93AF93BF93EF93FF93E0910A
:100770000106F0910206808180931F0681E096E0D9
:100780003DDFFF91EF91BF91AF919F918F917F914D
:100790006F915F914F913F912F910F900BBE0F90F2
:1007A0000FBE0F901F9018951F93CF93DF93162FB6
:1007B000C82FD0E0FE01E256FA4F90811923C351B1
:1007C000DA4F411103C09881911741F0412F50E059
:1007D000682F85E797E00E948C161883DF91CF91F0
:1007E0001F910895CF93DF938091F6058823B9F187
:1007F000D0919E05D2FF85C282E00E948E1E892B79
:1008000009F47FC2C4E0D3FF06C083E00E948E1EBD
:10081000892B09F078C2D4FF06C084E00E948E1EA6
:10082000892B09F072C2D5FF06C085E00E948E1E9A
:10083000892B09F06CC2D6FF06C086E00E948E1E8E
:10084000892B09F066C2D7FF06C087E00E948E1E82
:10085000892B09F060C240E06C2F80E0A5DF809119
:10086000F705882309F447C0D0919F05D0FF55C2F2
:1008700088E00E948E1E892B09F44FC2C1E0D1FF8F
:1008800006C089E00E948E1E892B09F048C2D2FF63
:1008900006C08AE00E948E1E892B09F042C2D3FF57
:1008A00006C08BE00E948E1E892B09F03CC2D4FF4B
:1008B00006C08CE00E948E1E892B09F036C2D5FF3F
:1008C00006C08DE00E948E1E892B09F030C2D6FF33
:1008D00006C08EE00E948E1E892B09F02AC2D7FF27
:1008E00006C08FE00E948E1E892B09F024C240E0D2
:1008F0006C2F81E059DF8091F805882309F447C007
:10090000D091A005D0FF19C280E10E948E1E892BD4
:1009100009F413C2C1E0D1FF06C081E10E948E1E1E
:10092000892B09F00CC2D2FF06C082E10E948E1E04
:10093000892B09F006C2D3FF06C083E10E948E1EF8
:10094000892B09F000C2D4FF06C084E10E948E1EEC
:10095000892B09F0FAC1D5FF06C085E10E948E1EE1
:10096000892B09F0F4C1D6FF06C086E10E948E1ED5
:10097000892B09F0EEC1D7FF06C087E10E948E1EC9
:10098000892B09F0E8C140E06C2F82E00DDF8091F7
:10099000F905882309F447C0D091A105D0FFDDC136
:1009A00088E10E948E1E892B09F4D7C1C1E0D1FFD6
:1009B00006C089E10E948E1E892B09F0D0C1D2FFAA
:1009C00006C08AE10E948E1E892B09F0CAC1D3FF9E
:1009D00006C08BE10E948E1E892B09F0C4C1D4FF92
:1009E00006C08CE10E948E1E892B09F0BEC1D5FF86
:1009F00006C08DE10E948E1E892B09F0B8C1D6FF7A
:100A000006C08EE10E948E1E892B09F0B2C1D7FF6D
:100A100006C08FE10E948E1E892B09F0ACC140E018
:100A20006C2F83E0C1DE8091FA05882309F447C06A
:100A3000D091A205D0FFA1C180E20E948E1E892B19
:100A400009F49BC1C1E0D1FF06C081E20E948E1E65
:100A5000892B09F094C1D2FF06C082E20E948E1E4B
:100A6000892B09F08EC1D3FF06C083E20E948E1E3F
:100A7000892B09F088C1D4FF06C084E20E948E1E33
:100A8000892B09F082C1D5FF06C085E20E948E1E27
:100A9000892B09F07CC1D6FF06C086E20E948E1E1B
:100AA000892B09F076C1D7FF06C087E20E948E1E0F
:100AB000892B09F070C140E06C2F84E075DE8091D5
:100AC000FB05882309F447C0D091A305D0FF65C179
:100AD00088E20E948E1E892B09F45FC1C1E0D1FF1C
:100AE00006C089E20E948E1E892B09F058C1D2FFF0
:100AF00006C08AE20E948E1E892B09F052C1D3FFE4
:100B000006C08BE20E948E1E892B09F04CC1D4FFD7
:100B100006C08CE20E948E1E892B09F046C1D5FFCB
:100B200006C08DE20E948E1E892B09F040C1D6FFBF
:100B300006C08EE20E948E1E892B09F03AC1D7FFB3
:100B400006C08FE20E948E1E892B09F034C140E05E
:100B50006C2F85E029DE8091FC05882309F447C0CD
:100B6000D091A405D0FF29C180E30E948E1E892B5D
:100B700009F423C1C1E0D1FF06C081E30E948E1EAB
:100B8000892B09F01CC1D2FF06C082E30E948E1E91
:100B9000892B09F016C1D3FF06C083E30E948E1E85
:100BA000892B09F010C1D4FF06C084E30E948E1E79
:100BB000892B09F00AC1D5FF06C085E30E948E1E6D
:100BC000892B09F004C1D6FF06C086E30E948E1E61
:100BD000892B09F0FEC0D7FF06C087E30E948E1E56
:100BE000892B09F0F8C040E06C2F86E0DDDD8091B4
:100BF000FD05882309F447C0D091A505D0FFEDC0BD
:100C000088E30E948E1E892B09F4E7C0C1E0D1FF62
:100C100006C089E30E948E1E892B09F0E0C0D2FF36
:100C200006C08AE30E948E1E892B09F0DAC0D3FF2A
:100C300006C08BE30E948E1E892B09F0D4C0D4FF1E
:100C400006C08CE30E948E1E892B09F0CEC0D5FF12
:100C500006C08DE30E948E1E892B09F0C8C0D6FF06
:100C600006C08EE30E948E1E892B09F0C2C0D7FFFA
:100C700006C08FE30E948E1E892B09F0BCC040E0A5
:100C80006C2F87E091DD8091FE05882309F4C1C0B7
:100C9000D091A605D0FFB1C080E40E948E1E892BA2
:100CA00009F4ABC0C1E0D1FF06C081E40E948E1EF2
:100CB000892B09F0A4C0D2FF06C082E40E948E1ED8
:100CC000892B09F09EC0D3FF06C083E40E948E1ECC
:100CD000892B09F098C0D4FF06C084E40E948E1EC0
:100CE000892B09F092C0D5FF06C085E40E948E1EB4
:100CF000892B09F08CC040E06C2F88E0DF91CF9108
:100D000053CDC0E080CDC86086CDC0618CCDC062BF
:100D100092CDC06498CDC0689ECDC0E0B0CDC26019
:100D2000B6CDC460BCCDC860C2CDC061C8CDC06204
:100D3000CECDC064D4CDC068DACDC0E0ECCDC26009
:100D4000F2CDC460F8CDC860FECDC06104CEC062F3
:100D50000ACEC06410CEC06816CEC0E028CEC260F5
:100D60002ECEC46034CEC8603ACEC06140CEC062E0
:100D700046CEC0644CCEC06852CEC0E064CEC260E5
:100D80006ACEC46070CEC86076CEC0617CCEC062D0
:100D900082CEC06488CEC0688ECEC0E0A0CEC260D5
:100DA000A6CEC460ACCEC860B2CEC061B8CEC062C0
:100DB000BECEC064C4CEC068CACEC0E0DCCEC260C5
:100DC000E2CEC460E8CEC860EECEC061F4CEC062B0
:100DD000FACEC06400CFC06806CFC0E018CFC260B2
:100DE0001ECFC46024CFC8602ACFC06130CFC0629C
:100DF00036CFC0643CCFC06842CFC0E054CFC260A1
:100E00005ACFC46060CFC86066CFC0616CCFC0628B
:100E100072CFDF91CF9108951092D1048FEF80931C
:100E20000B0208958F929F92BF92CF92DF92EF9222
:100E3000FF920F931F93CF93DF931F921F92CDB713
:100E4000DEB7B82E8B01C82ED12CC60189559A4F1A
:100E50004C01FC018081863041F48091D1048823CB
:100E600021F06630710509F0D7DF4EEF4B0D4033AE
:100E7000A0F40430110589F0C60102977C01EE0C44
:100E8000FF1CE80EF91EC701815C9B4F7C014A8361
:100E90000E9441124A818111CAC09AEC9B0D903187
:100EA00068F461E070E00230110511F060E070E07C
:100EB000892F4A839983A2DA99814A814434D8F4EC
:100EC000EB2DE695E695E6958B2D8770F0E0E256E2
:100ED000FA4F21E030E0082E01C0220F0A94EAF711
:100EE0000115110521F48081822B808304C0209597
:100EF000808128232083F601EE0FFF1FEE5EFA4F5C
:100F0000118210820C30110508F07EC0F801EE58F5
:100F1000FF4F0C942026903108F08FC0443440F4E9
:100F200060E08B2D0E94201E60E08B2D0E94591ED8
:100F300082E067C0443408F080C060E08B2D0E94DE
:100F4000201E60E08B2D0E94591EF401108275C096
:100F5000443408F072C060E08B2D0E94591E61E09D
:100F60008B2D0E94201E81E04CC04C3028F084ED77
:100F70008B0D833008F061C061E08B2D0E94201E34
:100F800060E070E08B2D0E94081D83E03AC0403382
:100F900008F053C084E0F4018083C60102978C01FD
:100FA000000F111F080F191F015C1B4FC8010E9481
:100FB0004112811142C0B601C8010F900F90DF911C
:100FC000CF911F910F91FF90EF90DF90CF90BF9046
:100FD0009F908F900C94971160E08B2D0E94201EA3
:100FE00061E08B2D0E94591E8AE00BC08CEE8B0DA8
:100FF000823018F586E005C089E003C08BE001C0AF
:1010000088E0F401808319C060E172E085E797E031
:101010000F900F90DF91CF911F910F91FF90EF9064
:10102000DF90CF90BF909F908F900C94FD16C701DA
:101030004A830E949C114A8130CF0F900F90DF911C
:10104000CF911F910F91FF90EF90DF90CF90BF90C5
:101050009F908F900895CF93C0E08CEE8C0F8230DC
:1010600020F466E070E08C2FDDDECF5FC634A9F798
:1010700081E08093D10485EB96E0CF910C94E5124A
:10108000CF93DF938091D1048111C6DEE6EFF5E0C6
:10109000CEE9D5E0ADEEB5E0119219921D9285E052
:1010A000EF3FF807C9F7C0E08AEC8C0F803118F4E5
:1010B00062E070E00AC08EEF8C0F843420F48C2F35
:1010C0000E94172404C061E070E08C2FABDECF5F7C
:1010D000C63451F71092320410923104ABE2B4E0FE
:1010E000EDE1F4E02FE72D9380819181892B11F0C0
:1010F00011821082329684E0A133B807A1F71092D2
:1011000000061092FF051092170410921604DF914A
:10111000CF91089523E042E061E272E085E797E035
:101120000E94C81549E152E060EE85E797E00E9411
:101130000A1743E851E060E985E797E00E940A1743
:101140004EEF51E060EC85E797E00E940A174BE70D
:1011500051E060ED85E797E00E940A1742E157E011
:1011600064EF85E797E00E940A1741EF59E060EFCE
:1011700085E797E00E942D1740E458E06FEF85E780
:1011800097E00E94271710923204109231041092B7
:10119000340410923304ACE2B4E0EFE1F4E02FE762
:1011A0002D9380819181892B11F0118210823296CA
:1011B00084E0A133B807A1F760910C0270910D0291
:1011C00088E290E00E94CF25709336046093350446
:1011D00040E051EE60E070E085E797E00E9456182D
:1011E0004FCF0F931F93CF93DF93CDB7DEB7C65486
:1011F000D1090FB6F894DEBF0FBECDBF8C012AE037
:10120000CE018F5B9F4F0E944B2520E030E040E4F1
:1012100050E0BE016F5F7F4FCE018F5B9F4F0E94FA
:101220007625B80185E797E00E94FD16BE016F5F45
:101230007F4F85E797E00E94FD16CE018F5B9F4FA1
:101240000E94CE24CA5BDF4F0FB6F894DEBF0FBEFC
:10125000CDBFDF91CF911F910F910895CF93DF9371
:10126000EEE3F2E085919491909316068093150633
:101270008BE690E0909318068093170681E08093A8
:10128000190610921A0610921B0610921E06109252
:101290001D06E2E5F2E08591949190930C0680930F
:1012A0000B068CE690E090930E0680930D0610924C
:1012B0000F0610921006109211061092140610924A
:1012C0001306E4E5F2E085919491909302068093F1
:1012D00001068DE690E09093040680930306109239
:1012E0000506109206061092070610920A06109242
:1012F0000906CFE3D4E0CE014FD7239684E0CF3C5C
:10130000D807C9F7DF91CF910895DF92EF92FF924E
:101310000F931F93CF93DF93F82EEB01D42E6F3FE3
:101320008FEF7807B9F06F2D85EB96E00E94FC12E5
:101330006C2F85EB96E00E94A71285EB96E00E9449
:1013400018138091CF049091D004009729F00E9447
:10135000771C02C0C0E0D0E04D2D6F2D85EB96E0EC
:101360000E94FA120D2D10E085EB96E00E945012BB
:1013700008171907B1F4F092D204C093D304C4ED56
:10138000EC2EC4E0FC2EC0E0D0E0C017D107CCF4B6
:1013900085EB96E00E945812F70181937F01219618
:1013A000F4CF85EB96E00E945012801791071CF451
:1013B00061E372E002C069E572E085E797E00E94B0
:1013C000FD1642E04D0D22ED34E067E785E797E03A
:1013D000DF91CF911F910F91FF90EF90DF900C94D0
:1013E000BA168F929F92AF92BF92CF92DF92EF92F6
:1013F000FF920F931F93CF93DF93162FEA018D3641
:1014000009F401C2E8F4803609F4B4C238F4803239
:1014100009F45DC28F3509F476C2D3C3893609F465
:101420003EC28B3609F0CDC360EF85E797E00E949E
:1014300000176CE685E797E00E940017CEEFC8C161
:10144000823709F4DFC238F48F3609F458C1803787
:1014500009F4F6C0B6C3883709F4D3C08A3709F453
:101460002DC1863709F0ADC38981982F987185FF0A
:1014700003C060E872E095C388819830B1F148F408
:1014800091119FC3682F85EB96E00E94FC1202E049
:1014900007C0903109F44DC0983109F46EC091C372
:1014A000011778F4FE01E00FF11D8181608120E8D1
:1014B000829F6019112485EB96E00E94A7120E5FAF
:1014C000EFCF85EB96E00E94181386E490E0DF9161
:1014D000CF911F910F91FF90EF90DF90CF90BF9031
:1014E000AF909F908F900C94771C9B816A811630EF
:1014F00061F42D814C8130E8239F40191124E0E8EC
:101500009E9F6019112470E007C0462FF0E89F9F4E
:10151000401911246FEF7FEFDF91CF911F910F9151
:10152000FF90EF90DF90CF90BF90AF909F908F9003
:10153000ECCE20910B0227301CF06CEA72E031C334
:101540002F5F20930B02332727FD3095F901EE0F13
:10155000FF1FE20FF31FEE50FB4F80839B818A81B8
:1015600020E8929F8019112481839D818C8130E82D
:10157000939F80191124828324C360910B02161655
:1015800034F470E0462F552747FD50950FC08FEF7C
:1015900080930B0216C3F901EE0FFF1FE20FF31F3A
:1015A000EE50FB4F8083811123C07F5F272F30E0F7
:1015B0004217530784F770E01BC07830C0F49C01D9
:1015C0002F5F3F4FD901AA0FBB1FA20FB31FAE5011
:1015D000BB4F2C91FC01EE0FFF1FE80FF91FEE50DF
:1015E000FB4F20838C91818312968C9182837F5F45
:1015F000872F90E04817590704F7615060930B025A
:10160000E0C22881898140E8849FC0011124820FB3
:10161000911D009721F09093D0048093CF04809186
:10162000D1048111CEC2DF91CF911F910F91FF9014
:10163000EF90DF90CF90BF90AF909F908F900BCDA9
:10164000653008F4BEC2F880E980DA80CB80BC80C7
:101650008EEF8F0D803308F0B4C20F2D10E0B8016B
:1016600062507109EB01CC0FDD1FC60FD71FC15CA3
:10167000DB4FCE0106D7882311F0CE015DD680E87E
:10168000B89E900111242C0D311D90E8D99EA00127
:1016900011244E0D511DB801CE019AD564E070E0C1
:1016A0008F2DDF91CF911F910F91FF90EF90DF90E1
:1016B000CF90BF90AF909F908F90B4CB623008F4E2
:1016C00080C228818981E0E88E9FC0011124820FA9
:1016D000911D8A30910514F48AE090E090930D02F8
:1016E00080930C0260910C0270910D0288E290E0F0
:1016F0000E94CF25709336046093350462C2623035
:1017000008F45FC2698170E0123091F08A81F0E8DC
:101710008F9FC0011124682B792B133049F08B81E6
:1017200090E090E4899F902D88271124682B792BD5
:101730008881DF91CF911F910F91FF90EF90DF9003
:10174000CF90BF90AF909F908F900C941902CC30A7
:1017500008F44EC086ED8C0F833008F449C0C033C6
:1017600050F464E085E797E00E9400176EE085E79B
:1017700097E00E9400178EEE8C0F823050F466E0E6
:1017800085E797E00E94001761E085E797E00E94F7
:1017900000176FE785E797E00E940017CF5FC4341A
:1017A00009F4E9C1C434A0F460E085E797E00E9441
:1017B000001761E085E797E00E94001761E085E788
:1017C00097E00E94001761E085E797E00E9400170C
:1017D0008CEC8C0F803108F0BACF62E085E797E09F
:1017E0000E9400176AE085E797E00E940017B2CFD9
:1017F00063E085E797E00E94001768E085E797E0DF
:101800000E940017ACCF662309F4DBC1C88160EFEA
:1018100085E797E00E9400176EE685E797E00E9453
:1018200000176C2F85E797E00E940017C63408F078
:10183000A2C1D0E0FE01E955FA4F608185E797E04B
:101840000E940017CC0FDD1F8E010E5E1A4FF801AB
:1018500060816F7785E797E00E940017F80160814B
:101860007181CB018078892B49F0660F672F661F45
:10187000770B6F7785E797E00E940017CE5EDA4F0F
:1018800068817981CB018827907C892B09F473C109
:10189000770F660B770F762F661F6F7768C160EF43
:1018A00085E797E00E9400176AE685E797E00E94C7
:1018B0000017CAECC03110F06FE701C06C2F85E74C
:1018C00097E00E940017CF5FC031A1F754C1488153
:1018D00040933C04298120933B0480910E048111A4
:1018E0000EC08EEE93E0909301048093000461E6B5
:1018F00080E094E00E94311B81E080930E0481E03F
:10190000809337045EC198818981911122C09C81A6
:101910002D81F0E82F9F90011124290F311D4427BC
:1019200037FD4095542F9A816B81E0E86E9FB0019E
:101930001124690F711DDF91CF911F910F91FF90BD
:10194000EF90DF90CF90BF90AF909F908F900C94CE
:101950000621913009F035C1DF91CF911F910F9190
:10196000FF90EF90DF90CF90BF90AF909F908F90BF
:101970000C94172420913104309132042630310523
:101980000CF03DC0888180931C04998190931B04C6
:101990009A81913208F491E290930A029B81CC8162
:1019A000F0E8CF9FE0011124C90FD11DF901E55DD9
:1019B000FB4F80836BE070E035DA6BE070E0809184
:1019C0001B0430DA82E190E00E94DD208C019E0150
:1019D00040911B0460911C040E946C18809131049A
:1019E00090913204FC01EE0FFF1FE35EFB4F118369
:1019F000008301969093320480933104E2C06DEB32
:101A000072E0CFC08881811147C08981CA8020E8F7
:101A1000C29E60011124C80ED11CAB80B12C8C80F9
:101A2000912C653059F48AE190E00E94DD20EC01B0
:101A30009401A501B6010E94581910C0673099F4AD
:101A40000D8110E0EE80F12C8AE190E00E94DD2013
:101A5000EC019401A501B6010E947C19D0931704F2
:101A6000C0931604AEC06AEF72E085E797E00E946B
:101A7000FD16412F50E060E070E08AE293E0DF91D4
:101A8000CF911F910F91FF90EF90DF90CF90BF907B
:101A9000AF909F908F90A5CB813009F048C04A81CC
:101AA00050E060E070E017E0440F551F661F771F9D
:101AB0001A95D1F78B8190E0A0E0B0E00EE0880F9E
:101AC000991FAA1FBB1F0A95D1F7482B592B6A2BC8
:101AD0007B2B8981482B8C810D8130E8039F80010D
:101AE0001124080F111DCE818091160490911704C6
:101AF0000097D1F00E94AE19C11103C01195019554
:101B00001109B8018091160490911704DF91CF91CB
:101B10001F910F91FF90EF90DF90CF90BF90AF900B
:101B20009F908F900C94341A62E373E03AC0823035
:101B3000B1F58091160490911704009769F10E9405
:101B4000A31AEC0160EF85E797E00E94001762E7B7
:101B500085E797E00E9400176C2F6F7785E797E085
:101B60000E940017BE01660F672F661F770B85E77F
:101B700097E00E94001767EF85E797E0DF91CF912C
:101B80001F910F91FF90EF90DF90CF90BF90AF909B
:101B90009F908F900C9400176EE573E002C063E98C
:101BA00073E085E797E0DF91CF911F910F91FF9050
:101BB000EF90DF90CF90BF90AF909F908F900C945C
:101BC000FD16DF91CF911F910F91FF90EF90DF9065
:101BD000CF90BF90AF909F908F9008958F929F92DB
:101BE000AF92BF92CF92DF92EF92FF920F931F932B
:101BF000CF93DF930E94F20385E797E00E941A16C5
:101C0000892B29F085E797E00E944F17F5CF0E94B6
:101C1000221C60930E0570930F058093100590931E
:101C20001105C0900A05D0900B05E0900C05F090CE
:101C30000D0540910C0250910D024A01AA2497FC17
:101C4000A094BA2C8B019C010C191D092E093F0987
:101C500080169106A206B30608F01CC1D501C40186
:101C60008C0D9D1DAE1DBF1D80930A0590930B0525
:101C7000A0930C05B0930D0580913304909134042A
:101C80009C012F5F3F4F3093340420933304209105
:101C9000350430913604281739070CF064C01092CF
:101CA0003404109233048091310490913204892BD2
:101CB00009F459C0E0912904F0912A04EE0FFF1FA6
:101CC000E35EFB4F808191810E942C1969E370E0F3
:101CD0000E94BB25CB014091290450912A044093D6
:101CE0001A049A012F5F3F4F30932A04209329044E
:101CF00020913104309132042150310942175307A9
:101D000024F010922A04109229046F77609318042B
:101D1000880F892F881F990B8093190460EF85E73E
:101D200097E00E94001761E685E797E00E940017A0
:101D3000E0911A04F0E0E55DFB4F608185E797E0F4
:101D40000E9400176091180485E797E00E94001731
:101D50006091190485E797E00E94001767EF85E717
:101D600097E00E940017C7EAD5E01AEC1031B8F4EA
:101D700088818230A1F42091FF0530910006012E68
:101D800002C0359527950A94E2F720FF08C0812FFD
:101D90000E94E31CAC01612F85E797E0A5D71F5F88
:101DA0002196103119F780910B0287FF06C08091B0
:101DB0003704882309F46EC019C0C0E08C2F90E06E
:101DC00020910B02332727FD3095281739077CF324
:101DD000FC01EE0FFF1FE80FF91FEE50FB4F618172
:101DE00070E04281808191DACF5FE8CF10923E04AB
:101DF00010923D04109238040E94AB1B0097A1F092
:101E00000E94CB1B809338042091390430913A040E
:101E1000181614F0882341F0280F311D87FD3A95DC
:101E200030933A04209339048091390490913A0414
:101E3000282F2F7720933D04880F892F881F990B17
:101E40008F7780933E0460EF85E797E0D9D761E212
:101E500085E797E0D5D760913C0485E797E0D0D738
:101E600060913D0485E797E0CBD760913E0485E71C
:101E700097E0C6D767EF85E797E0DF91CF911F9195
:101E80000F91FF90EF90DF90CF90BF90AF909F9019
:101E90008F90B6C7DF91CF911F910F91FF90EF9078
:101EA000DF90CF90BF90AF909F908F900895CF928A
:101EB000DF92EF92FF920F931F93CF93DF936C010A
:101EC0008B017A01EC01CF5DD94F888187FF04C077
:101ED000FB011182108223C02CE02C9DC0012D9D9E
:101EE000900D11242881AC01420F511D27FD5A95F8
:101EF0002091200630E0421753078CF42881AC0172
:101F0000420F511D27FD5A959A01FA01EE0FFF1F4E
:101F1000E20FF31FEB5DF94F208126FD19C0888188
:101F20008F5F88838CE08C9D90018D9D300D1124F6
:101F30008881A901480F511D87FD5A95809120067F
:101F400090E048175907B4F488818C303CF112C0F6
:101F50002881820F911D27FD9A95FC01EE0FFF1F2E
:101F6000E80FF91FEB5DF94F808160E08F730E94ED
:101F7000591ED5CFF80180819181049680349C4907
:101F800018F480E49CE904C0F801808191810496F2
:101F9000F701918380838FEF888341C0F8018081AE
:101FA00091814881B901640F711D47FD7A95AB019C
:101FB000FB01EE0FFF1FE40FF51FEB5DF94F4181B1
:101FC0005281840F951FF701918380838881A90135
:101FD000480F511D87FD5A95FA01EE0FFF1FE40FC0
:101FE000F51FEB5DF94F808186FF19C08881280FAE
:101FF000311D87FD3A95F901EE0FFF1FE20FF31F28
:10200000EB5DF94F808161E08F73DF91CF911F917C
:102010000F91FF90EF90DF90CF900C94591EDF91BD
:10202000CF911F910F91FF90EF90DF90CF90089587
:102030001F920F920FB60F9211240BB60F922F938F
:102040003F934F935F936F937F938F939F93AF9340
:10205000BF93EF93FF9348E850E064E870E081E0BD
:1020600090E025DFFF91EF91BF91AF919F918F910C
:102070007F916F915F914F913F912F910F900BBE88
:102080000F900FBE0F901F9018951F920F920FB6D2
:102090000F9211240BB60F922F933F934F935F93A0
:1020A0006F937F938F939F93AF93BF93EF93FF9320
:1020B00048E950E064E970E082E090E0F8DEFF91EA
:1020C000EF91BF91AF919F918F917F916F915F91B0
:1020D0004F913F912F910F900BBE0F900FBE0F901D
:1020E0001F9018951F920F920FB60F9211240BB6E6
:1020F0000F922F933F934F935F936F937F938F93A1
:102100009F93AF93BF93EF93FF9348EA50E064EA45
:1021100070E083E090E0CBDEFF91EF91BF91AF9153
:102120009F918F917F916F915F914F913F912F91EF
:102130000F900BBE0F900FBE0F901F9018951F921F
:102140000F920FB60F9211240BB60F922F933F935D
:102150004F935F936F937F938F939F93AF93BF93AF
:10216000EF93FF9348E251E064E271E080E090E099
:102170009EDEFF91EF91BF91AF919F918F917F91E3
:102180006F915F914F913F912F910F900BBE0F90E8
:102190000FBE0F901F901895209120062033A0F4B9
:1021A00031E0320F30932006FC012083822F90E033
:1021B000FC01EE0FFF1FE80FF91FEB5DF94F88EBF5
:1021C0009BE09283818308952FEFFC012083089583
:1021D000DF92EF92FF920F931F93CF93DF93EC0167
:1021E000D62E7A0189018881803308F068C061E0C9
:1021F0008D2D0E94201E8881A82FB0E0FD01EE0FDA
:10220000FF1FEA0FFB1FEB5DF94F2D2D2F73908100
:10221000907C922B908360E272E06E197F0977FFC9
:1022200002C06D5F7F4F759567957595679569835A
:1022300040E659E0401B510B57FF02C04D5F5F4F16
:1022400055954795559547954A836CE00E94AF2573
:102250009CE0899FB001112420E030E0A901460FE5
:10226000571FFA01EE0FFF1FE40FF51FEB5DF94F4B
:10227000908196FD18C02F5F3F4F2C30310571F7CC
:1022800090E08130910521F51092800082E08093EA
:1022900081001092850010928400B19A80916F00A5
:1022A000826080936F00888190E0FC01EE0FFF1F39
:1022B000E80FF91FEB5DF94F80818064808388818E
:1022C000DF91CF911F910F91FF90EF90DF900895D4
:1022D0008230910569F41092900082E08093910021
:1022E000109295001092940088BB80937100DBCF10
:1022F0008330910569F41092A00082E08093A100E0
:102300001092A5001092A40089BB80937200CBCFDD
:10231000892B49F61092200182E0809321011092CE
:102320002501109224018ABB80937300BCCF20E664
:1023300039E040E252E04CCFFC01808190E0FC01AA
:10234000EE0FFF1FE80FF91FEB5DF94F80818F7BC8
:1023500080830895FC018081803370F5918128E8A5
:1023600030E0291B310997FD3395220F331F220FCF
:10237000331F621773077CF0928128E532E0291B36
:10238000310997FD3395220F331F220F331F621738
:1023900073070CF49B0122503109220F331F4FB7F2
:1023A000F89490E0FC01EE0FFF1FE80FF91FEB5DC2
:1023B000F94F328321834FBF08954F925F926F92FE
:1023C0007F92AF92BF92CF92DF92EF92FF920F93E4
:1023D0001F93CF93DF93EC01603282E078070CF01B
:1023E00040C077FD06C0653B71052CF064EB70E0E2
:1023F00002C060E070E0898128E830E0281B3109E4
:1024000087FD3395220F331F220F331F5901CC2430
:10241000B7FCC094DC2C882777FD8095982F2A8103
:1024200048E552E0421B510927FD5395440F551FC3
:10243000440F551F2A01662457FC6094762C7F9226
:102440006F925F924F9214EBE12EF12C00E010E0BE
:1024500020E030E0A9010E9489240F900F900F9096
:102460000F90CE01DF91CF911F910F91FF90EF90D0
:10247000DF90CF90BF90AF907F906F905F904F9024
:1024800069CFFC01808190E0FC01EE0FFF1FE80F97
:10249000F91FEB5DF94F808186FB882780F908954D
:1024A0008091E50690E02091E606821B910908954F
:1024B0002091E6068091E506281750F4E22FF0E01F
:1024C000E951F94F808190E02F5F2093E60608954F
:1024D0008FEF9FEF0895E091E6068091E506E817FB
:1024E00030F4F0E0E951F94F808190E008958FEFEA
:1024F0009FEF08950895CF92DF92EF92FF920F938E
:102500001F93CF93DF937C01CB018A012091C106F9
:10251000222389F0EB016B01C40ED51ECC15DD051D
:1025200061F06991D701ED91FC910190F081E02D6E
:10253000C7011995F3CF642F35D1C801DF91CF9131
:102540001F910F91FF90EF90DF90CF900895CF9360
:10255000DF931F92CDB7DEB769832091C106222396
:10256000D1F02091C206203240F021E030E0FC01A1
:102570003383228380E090E014C08091C306E82F6B
:10258000F0E0EC53F94F998190838F5F8093C306FD
:102590008093C20604C061E0CE01019603D181E0C0
:1025A00090E00F90DF91CF910895FC011382128289
:1025B00048EE53E060E070E04483558366837783A0
:1025C00089ED93E09183808308951092E60610923E
:1025D000E5061092C3061092C2062FC0862F413224
:1025E00008F040E267EE76E046D01092E60680936F
:1025F000E506089521E0F2CF81E08093C106609363
:10260000E4061092C3061092C20608950F93062F97
:1026100021E04091C20664EC76E08091E4066FD040
:102620001092C3061092C2061092C1060F9108952F
:1026300061E0ECCF85EB96E0B8CF1092740781E0B3
:10264000809372071092710761E084E10E94591E25
:1026500061E085E10E94591EE9EBF0E080818E7F08
:10266000808380818D7F808388E48093B80085E4B7
:102670008093BC000895413208F03FC090917407E8
:102680009111FCCF91E090937407209372072FEF84
:102690002093070710924C07240F20934B07909329
:1026A000730790917307880F892B8093730780912C
:1026B0007107813041F41092710780917307809304
:1026C000BB0085EC01C085EE8093BC00809174074F
:1026D0008130E1F380914C07841710F440914C074E
:1026E0002DE437E0FB01D9018A2F821B841718F4EF
:1026F0008D918193F9CF842F089580E008950F93F1
:10270000413208F046C0909174079111FCCF92E0DD
:1027100090937407009372079FEF909307071092AE
:102720004C0740934B07FB016DE477E0DB019A2FE8
:10273000961B941718F491919D93F9CF10927307FB
:1027400090917307880F892B80937307809171078D
:10275000813041F410927107809173078093BB0020
:1027600085EC01C085EE8093BC00222321F080918E
:1027700074078230E1F3809107078F3F61F0809109
:102780000707803251F080910707803341F483E0DE
:1027900007C081E005C080E003C082E001C084E0A2
:1027A0000F910895613298F420917407243089F4D0
:1027B00060932907FC018BE297E0DC012A2F281B9C
:1027C000261718F421912D93F9CF80E0089581E028
:1027D000089582E0089585ED8093BC008091BC004F
:1027E00084FDFCCF10927407089585EC8093BC00A3
:1027F0001092740708951F920F920FB60F92112432
:102800000BB60F922F933F934F935F936F937F93EA
:102810008F939F93AF93BF93EF93FF938091B900F2
:10282000887F803609F49CC068F5883209F45BC063
:1028300090F4803109F454C038F4882309F4F3C0CB
:10284000883009F44DC0F2C0883109F44CC08032A0
:1028500009F45DC0EBC0803409F468C048F48033EB
:1028600009F455C0883309F0E1C080930707A7C079
:10287000803509F44FC0883509F45DC0883409F00B
:10288000D5C0D3C0883909F4C4C0A8F4883709F486
:1028900067C038F4883609F463C0803709F460C033
:1028A000C5C0883809F4B5C0803909F45FC08038E4
:1028B00009F0BCC05BC0803B09F483C038F4803AA7
:1028C00009F466C0883A09F47CC0B0C0803C09F4C1
:1028D000A4C0883C09F4A1C0883B09F487C0A6C005
:1028E0008091730710C090914C0780914B07981707
:1028F00070F5E0914C0781E08E0F80934C07F0E07B
:10290000E35BF84F80818093BB0085EC83C08093AC
:1029100007078BC0E0914C0781E08E0F80934C0736
:102920008091BB00F0E0E35BF84F808390914C070F
:1029300080914B076BC0E0914C0781E08E0F809334
:102940004C078091BB00F0E0E35BF84F80838091FF
:10295000720781116AC081E08093710784EA5EC0CA
:1029600083E08093740710920807CFCF8091080707
:10297000803208F04EC0E091080781E08E0F80930E
:1029800008078091BB00F0E0E75FF84F8083BDCF80
:1029900080910807803230F4E0910807F0E0E75FAB
:1029A000F84F108218DF6091080770E0E0916D0722
:1029B000F0916E0789E097E019951092080715DFEE
:1029C00035C084E08093740710922A07109229077B
:1029D000E0916F07F0917007199580912907811197
:1029E00005C081E08093290710922B07E0912A0708
:1029F00081E08E0F80932A07F0E0E55DF84F80813B
:102A00008093BB0090912A0780912907981708F4BA
:102A10007CCF85E88093BC0009C085EC8093BC0026
:102A20001092740703C010920707D5DEFF91EF9153
:102A3000BF91AF919F918F917F916F915F914F91D6
:102A40003F912F910F900BBE0F900FBE0F901F90D4
:102A500018950F931F93CF93DF93EC018B0188811F
:102A60009981DC01ED91FC916F770190F081E02D6F
:102A7000199588819981DC01ED91FC91B801660F6F
:102A8000672F661F770B6F770190F081E02DDF9144
:102A9000CF911F910F911994DC018D919C91DC01D4
:102AA000ED91FC910190F081E02D60EF1994DC0133
:102AB0008D919C91DC01ED91FC910190F081E02DD4
:102AC00067EF1994CF93DF93EC0188819981DC0142
:102AD000ED91FC910190F081E02D69EF19958881CD
:102AE0009981DC01ED91FC910190F081E02D62E093
:102AF000199588819981DC01ED91FC910190F0811B
:102B0000E02D63E0DF91CF9119941F93CF93DF9372
:102B1000EC018A818823C1F1CE01BEDF88819981D1
:102B2000DC01ED91FC910190F081E02D69E71995B0
:102B300088819981DC01ED91FC91AB81BC81019090
:102B4000F081E02D6C91199588819981DC01ED91DE
:102B5000FC91AB81BC810190F081E02D11966C91CC
:102B6000199512E08A81181750F4EB81FC81E10F6E
:102B7000F11D608170E0CE016CDF1F5FF3CFCE01ED
:102B8000DF91CF911F9193CFDF91CF911F91089546
:102B9000AF92BF92CF92DF92EF92FF920F931F936B
:102BA000CF93DF93EC018B01A42EB22E65EE73E080
:102BB000C8010E9478286C016FE270E0C8010E9491
:102BC0006D2801967C01C114D10441F0009731F0C9
:102BD000C81AD90AC394C394CA8208C0F8010190E4
:102BE0000020E9F7E01BEF5FEA8378018B819C818D
:102BF0000E94DB260A8110E0C8010E9443269C83C4
:102C00008B83DC01A00FB11F1C92FC01A082B1825A
:102C10004A8150E042505109B7010296DF91CF91AD
:102C20001F910F91FF90EF90DF90CF90BF90AF90EA
:102C30000C945E28DC018D919C91DC01ED91FC915E
:102C40000480F581E02D19941F93CF93DF93EC015D
:102C50008885813739F08937B1F5CE01DF91CF9181
:102C60001F9153CF8FA998AD892BD1F129A53AA5F2
:102C7000C901019797FDC90195958795182F992747
:102C80000E944326482FFC0121E03E2F341B3117C0
:102C9000A0F4DE01A20FB11D18963C91308351E0E3
:102CA000520FDE01A50FB11D18965C9160E8569F8A
:102CB0003019112431932E5FE8CFEFA9F8ADDF91E1
:102CC000CF911F911994E9ADFAAD309749F0AE015B
:102CD000475F5F4F69A56150DF91CF911F911994B4
:102CE000DF91CF911F9108950F931F93CF93DF939F
:102CF000EC018A0188819981DC01ED91FC916F7072
:102D0000606E0190F081E02D1995B801CE01DF9140
:102D1000CF911F910F919DCE0F931F93CF93DF9370
:102D2000EC018A0188819981DC01ED91FC916F7041
:102D300060690190F081E02D199588819981DC010D
:102D4000ED91FC91602F6F770190F081E02D199546
:102D500088819981DC01ED91FC91B801660F672FA4
:102D6000661F770B0190F081E02DDF91CF911F91CD
:102D70000F911994CF92DF92EF92FF920F931F93CE
:102D8000CF93DF9300D0CDB7DEB78C01F42E2A832A
:102D90003B83698381DED8018D919C91DC01ED91AB
:102DA000FC910190F081E02D698119952A81E22E34
:102DB000C22E3B81D32E8C2D8E198F1538F4F6013F
:102DC00061916F0170E0C80144DEF5CFC8010F903A
:102DD0000F900F90DF91CF911F910F91FF90EF9087
:102DE000DF90CF9064CE9A01FA0101900020E9F7BC
:102DF0003197E41BF50B4E2FBDCFAB0161E7F3CF4D
:102E0000DC018D919C91DC01ED91FC910190F081B0
:102E1000E02D1994FC01603DA1F028F4603959F0CF
:102E2000603C61F00895603E19F0643F69F00895D8
:102E300054A743A7089556A745A7089550AB47A7A1
:102E4000089552AB41AB089554AB43AB08956F3F27
:102E500019F4FC0156AB45AB0895FC0152AF41AFEC
:102E60000895FC0115821682178280E090E0DF0150
:102E7000A80FB91F18961C92019680329105B9F7D8
:102E800010A612A611A605A8F6A9E02D309709F004
:102E900019940895FC01128214821382E2CFCF9319
:102EA000DF93EC0188819981DC01ED91FC91068032
:102EB000F781E02D199528A5222399F0873F9105E8
:102EC00029F418A6CE01DF91CF91BECE29A53AA54F
:102ED000FE01E20FF31F80872F5F3F4F3AA729A71C
:102EE00087C02D81222309F44CC0803891050CF055
:102EF00048C09FEF920F9D83FE01E90FF11D80876F
:102F0000911176C08E81882309F472C0803D79F1D9
:102F100038F48039B9F0803C91F5EFA5F8A929C0C3
:102F2000803E19F0843FD9F02AC0EBA5FCA530976C
:102F300031F18885698570E0B0E88B9F600D711D67
:102F400011241BC0EDA5FEA53097C9F088856985C1
:102F500070E090E8899F600D711D11240EC0EBA9EF
:102F6000FCA9309761F0688570E0898507C0E9A900
:102F7000FAA9309721F0688570E08F8119951E823B
:102F800037C0803F91052CF4282F2F702F83807F2E
:102F90009927803E910509F154F4803C9105F9F0A0
:102FA000803D9105E1F08039910511F516C0843F0F
:102FB000910599F044F4803F9105D1F481E088A710
:102FC0001AA619A615C0893F910569F08F3F910592
:102FD00079F4CE01DF91CF9144CF92E001C091E02E
:102FE0009D838E8305C085E797E0DF91CF916ACD01
:102FF000DF91CF9108958F929F92AF92BF92CF921F
:10300000DF92EF92FF921F93CF93DF93EB014A0180
:10301000690161E08DE014D610E0EE24D7FCE09465
:10302000FE2CAA2497FCA094BA2C812F90E08C1738
:103030009D0774F4C701B60134D461E08DE039D640
:10304000C501B4012ED460E08DE033D61F5FEDCF13
:10305000DF91CF911F91FF90EF90DF90CF90BF90C5
:10306000AF909F908F900895CF93DF93EC0161E034
:103070008DE0E6D522ED30E048E250E062E070E01D
:10308000CE01B9DF6AEF70E080E090E00AD422ED73
:1030900030E048E250E063E070E0CE01ACDF6DE785
:1030A00070E080E090E0DF91CF91FBC3CF93DF939E
:1030B000EC0126E08DEB97E068D78DEB97E09983E4
:1030C0008883CE01D1DFCE01FDDCCE01DF91CF912F
:1030D0001CCD85E797E0DECECF93DF93DC0170E077
:1030E000FB01E255FE4FE4911496EC931497842F64
:1030F00090E0FC01E255FE4FE4911596EC93159794
:103100006C507E4FFB01C491D0E0CC0FDD1FCC5A38
:10311000DD4FFE014591549117965C934E9316979F
:10312000FC01EC50FE4F849190E0880F991F865C63
:103130009D4FFC01459154911B965C934E931A97B9
:10314000FB016491E62FF0E0EE0FFF1FE259FD4F07
:103150008591949119969C938E931897C901253F58
:10316000F1E03F0714F084EF91E049E3489F9001BC
:10317000499F300D1124245E3F4F1D963C932E93A2
:103180001C97DF91CF9108950F931F93CF93DF93F7
:10319000EC01E885F98580819C81892B8083EE8113
:1031A000FF8190818C8180958923808384E090E0E9
:1031B0009ED3EE81FF8180819C81892B80838AE070
:1031C00090E095D3EE81FF8190818C818095892359
:1031D0008083E885F98590818C818095892380831F
:1031E0003DD3605B794B8F4F9F4F6E877F87888B76
:1031F000998BEA85FB8580819D81892351F02ED3AF
:103200000E851F852889398906171707280739076A
:1032100080F7EA85FB8580819D81892361F41ED337
:103220000E851F852889398906171707280739074A
:1032300080F780E00CC012D32C853D85620F731F90
:10324000811D911D6E877F87888B998B81E0DF912F
:10325000CF911F910F9108950F931F93CF93DF93F9
:10326000EC0192DF882381F0EA85FB8580819D81D6
:10327000892369F0F3D20E851F85288939890617BD
:1032800017072807390780F720E030E00BC0E6D2A7
:103290002C853D85255031094E855F85241B350BD6
:1032A000260F371FC901DF91CF911F910F9108950C
:1032B000CF93DF93EC01842F1D861C861B821A821C
:1032C000198218821E8A1F8A188E198E798768873C
:1032D0004E875F87398B288B61E0B2D461E08889A3
:1032E000AFD41B8A1A8A1D8A1C8A82E090E09B87D1
:1032F0008A87DF91CF910895EF92FF920F931F93EA
:10330000CF93DF93EC01842F1D861C861B821A82CB
:10331000198218821E8A1F8A188E198E79876887EB
:103320004E875F87398B288B1B8B0A8BFD8AEC8A33
:1033300061E086D461E0888983D461E08A8980D4A1
:1033400061E08C897DD484E090E09B878A87DF915F
:10335000CF911F910F91FF90EF900895CF92DF9240
:10336000EF92FF92CF93DF93EC016A017B012885F6
:103370003985442737FD4095542F60E67AEE80E08A
:1033800090E00E940426CA01B901A70196010E949B
:1033900004262C833D834E835F83DF91CF91FF9082
:1033A000EF90DF90CF9008950F931F93CF93DF930B
:1033B000EC018B018A859B850297E1F461307105F0
:1033C00071F02CF461157105A9F460E009C0623058
:1033D000710551F06330710569F460E006C061E089
:1033E0008E8567D461E004C061E08E8562D460E0C0
:1033F00088895FD48A859B85049789F501301105FA
:1034000099F03CF4012B59F561E08E8552D460E0CF
:103410000FC00230110599F00330110501F561E08C
:103420008E8547D460E00FC060E08E8542D461E0B5
:1034300088893FD461E08A893CD460E00AC060E0BA
:103440008E8537D461E0888934D460E08A8931D4AC
:1034500061E08C89DF91CF911F910F912AC4DF9198
:10346000CF911F910F9108958F929F92AF92BF922B
:10347000EF92FF920F931F93CF93DF93EC018B0199
:1034800077FF04C000271127061B170B1616170617
:103490002CF481E090E09983888304C0672B11F0BD
:1034A0001982188284E0E82EF12C0115110509F427
:1034B0003FC0C8D18E889F88A88CB98C68197909BB
:1034C0008A099B098C809D80AE80BF806815790534
:1034D0008A059B0570F3B6D16E8B7F8B888F998F91
:1034E000288139818C859D852130310559F40196DB
:1034F0009D878C87288539858217930771F41D86EF
:103500001C860BC0892B21F4888599859D878C8723
:103510008C859D8501979D878C87015011098C852D
:103520009D85B7010E94CF25BC01CE013DDFBDCFF7
:10353000DF91CF911F910F91FF90EF90BF90AF90CF
:103540009F908F90089584E090E00895FC01A281FF
:10355000B3812C919581922387818223992361F0F5
:10356000882379F08085882321F081859285890FD1
:103570008187108612860895811103C081E08087BB
:1035800008952085211108C0992311F081E003C01E
:10359000882311F08FEF8287089590E0FC01319726
:1035A000E231F10508F048C0E258FF4F0C942026A4
:1035B000809180008F7703C0809180008F7D809301
:1035C0008000089584B58F7702C084B58F7D84BD57
:1035D00008958091B0008F7703C08091B0008F7DF7
:1035E0008093B0000895809190008F7707C08091FC
:1035F00090008F7D03C080919000877F8093900022
:1036000008958091A0008F7707C08091A0008F7DE2
:1036100003C08091A000877F8093A00008958091CF
:1036200020018F7707C0809120018F7D03C080919A
:103630002001877F8093200108951F93CF93DF930C
:10364000EC01862F142F41E050E0BE010E94DA0207
:1036500041E050E0BE01812FDF91CF911F910C948A
:10366000DA02CF93DF93EC016B874C832E834217F2
:1036700009F46EC0483018F4283008F069C088EFAB
:10368000840F863020F42850263060F061C04E3020
:1036900030F02E3008F45CC0443108F059C02431B9
:1036A00008F056C018861986A091B207B091B307EA
:1036B000109729F4D093B307C093B2070CC01C969F
:1036C0008D919C911D97009711F0DC01F8CF1D960C
:1036D000DC93CE931C971D861C8650E0FA01EC50BB
:1036E000FE4FE491F0E0EE0FFF1FE65CFD4F859189
:1036F00094919B838A83892B09F42AC0FA01E255AD
:10370000FE4FE491ED83FA01E859FE4F8491811157
:1037100044DF8E8190E0FC01E255FE4FE491EF839F
:10372000FC01E859FE4F8491811137DF60E08C8104
:1037300087D260E08E8184D261E08C81BAD261E070
:103740008E81B7D24E816C81CE01DF91CF9175CF42
:10375000DF91CF9108959091B2078091B307909334
:10376000B0078093B107E92FF82F309769F0818572
:10377000882331F0F093B107E093B007CF010895AB
:103780000484F585E02DF1CF1092B1071092B007B7
:1037900080E090E00895FC01818587FF03C091E0FF
:1037A000980F91879185191614F491509187089577
:1037B0001F920F920FB60F9211242F933F938F9366
:1037C0009F93AF93BF938091B5079091B607A09157
:1037D000B707B091B8073091B40723E0230F2D3716
:1037E00020F40196A11DB11D05C026E8230F029605
:1037F000A11DB11D2093B4078093B5079093B60720
:10380000A093B707B093B8078091B9079091BA0712
:10381000A091BB07B091BC070196A11DB11D80937B
:10382000B9079093BA07A093BB07B093BC07BF91A9
:10383000AF919F918F913F912F910F900FBE0F905D
:103840001F9018952FB7F8946091B5077091B6073F
:103850008091B7079091B8072FBF08953FB7F894AC
:103860008091B9079091BA07A091BB07B091BC07AE
:1038700026B5A89B05C02F3F19F00196A11DB11DCB
:103880003FBF6627782F892F9A2F620F711D811DE8
:10389000911D42E0660F771F881F991F4A95D1F747
:1038A0000895CF92DF92EF92FF92CF93DF936B0157
:1038B0007C01D4DFEB01C114D104E104F10481F0F7
:1038C0000E949F25CBDF6C1B7D0B683E734098F3F5
:1038D00081E0C81AD108E108F108C851DC4FEBCFEC
:1038E000DF91CF91FF90EF90DF90CF9008950197F7
:1038F00039F0880F991F880F991F02970197F1F7E8
:103900000895789484B5826084BD84B5816084BD57
:1039100085B5826085BD85B5816085BDEEE6F0E048
:10392000808181608083E1E8F0E0108280818260A4
:103930008083808181608083E0E8F0E08081816025
:103940008083E1EBF0E0808184608083E0EBF0E055
:10395000808181608083E1E9F0E080818260808302
:10396000808181608083E0E9F0E0808181608083F4
:10397000E1EAF0E0808182608083808181608083E1
:10398000E0EAF0E0808181608083E1E2F1E0808123
:1039900082608083808181608083E0E2F1E08081C9
:1039A00081608083EAE7F0E08081846080838081A9
:1039B0008260808380818160808380818068808351
:1039C0001092C1000895863308F0865320917B0041
:1039D000982F9870277F922B90937B00877020916F
:1039E0000E0290E4299F90011124822B80937C0089
:1039F00080917A00806480937A0080917A0086FDBD
:103A0000FCCF809178002091790090E0922B08956E
:103A10001F93CF93DF93182FEB0161E011D1209713
:103A200011F460E004C0CF3FD10531F461E0812F93
:103A3000DF91CF911F913DC1E12FF0E0E859FE4F9A
:103A4000449150E0FA013197E231F10508F09BC052
:103A5000E057FF4F0C94202684B5806884BDC7BD15
:103A600097C084B5806284BDC8BD92C0809180003B
:103A7000806880938000D0938900C093880088C0BC
:103A800080918000806280938000D0938B00C093EF
:103A90008A007EC080918000886080938000D093EF
:103AA0008D00C0938C0074C08091B00080688093BA
:103AB000B000C093B3006CC08091B000806280936E
:103AC000B000C093B40064C080919000806880937F
:103AD0009000D0939900C09398005AC080919000B4
:103AE000806280939000D0939B00C0939A0050C056
:103AF00080919000886080939000D0939D00C09347
:103B00009C0046C08091A00080688093A0008091B6
:103B1000A0008F7B8093A000D093A900C093A80041
:103B200037C08091A00080628093A000D093AB004A
:103B3000C093AA002DC08091A00088608093A0004F
:103B4000D093AD00C093AC0023C080912001806869
:103B500080932001D0932901C093280119C080913E
:103B60002001806280932001D0932B01C0932A0111
:103B70000FC080912001886080932001D0932D0197
:103B8000C0932C0105C0C038D1050CF04FCF49CFF0
:103B9000DF91CF911F91089590E0FC013197E231C0
:103BA000F10508F04CC0EE55FF4F0C942026809193
:103BB00080008F7703C0809180008F7D809380008C
:103BC000089580918000877FF9CF84B58F7702C0F8
:103BD00084B58F7D84BD08958091B0008F7703C038
:103BE0008091B0008F7D8093B00008958091900007
:103BF0008F7707C0809190008F7D03C080919000E7
:103C0000877F8093900008958091A0008F7707C0F0
:103C10008091A0008F7D03C08091A000877F80935A
:103C2000A0000895809120018F7707C08091200126
:103C30008F7D03C080912001877F809320010895AC
:103C4000CF93DF9390E0FC01E255FE4F2491FC01FD
:103C5000EC50FE4F8491882349F190E0880F991F22
:103C6000FC01E259FD4FA591B4918C5A9D4FFC0186
:103C7000C591D4919FB7611108C0F8948C9120959B
:103C800082238C93888182230AC0623051F4F89495
:103C90008C91322F309583238C938881822B88835B
:103CA00004C0F8948C91822B8C939FBFDF91CF91AD
:103CB00008950F931F93CF93DF931F92CDB7DEB775
:103CC000282F30E0F901E859FE4F8491F901E255BF
:103CD000FE4F1491F901EC50FE4F04910023C1F006
:103CE000882319F0698358DF6981E02FF0E0EE0F37
:103CF000FF1FEC5AFD4FA591B4919FB7F8948C919A
:103D0000611103C01095812301C0812B8C939FBF4B
:103D10000F90DF91CF911F910F910895CF93DF9373
:103D2000282F30E0F901E859FE4F8491F901E2555E
:103D3000FE4FD491F901EC50FE4FC491CC2389F091
:103D400081112ADFEC2FF0E0EE0FFF1FE65CFD4F44
:103D5000A591B4912C912D2381E090E021F480E095
:103D600002C080E090E0DF91CF910895FC01818D49
:103D7000228D90E0805C9F4F821B91098F73992761
:103D80000895FC01918D828D981731F0828DE80F96
:103D9000F11D858D90E008958FEF9FEF0895FC0150
:103DA000918D828D981761F0828DDF01A80FB11D72
:103DB0005D968C91928D9F5F9F73928F90E0089596
:103DC0008FEF9FEF089584E890E2892B39F080E02F
:103DD00090E0892B19F098D1811125C080E090E006
:103DE000892B41F080E090E0892B21F00E940000B7
:103DF00081111CC080E090E0892B41F080E090E0D0
:103E0000892B21F00E940000811113C080E090E016
:103E1000892BA1F080E090E0892B81F00E940000C6
:103E200081110AC008950E940000D8CF0E940000AE
:103E3000E1CF0E940000EACF0C9400000895FC013D
:103E4000848DDF01A80FB11DA35ABF4F2C91848D23
:103E500090E001968F739927848FA689B7892C9358
:103E6000A089B1898C9180648C93938D848D9813F3
:103E700006C00288F389E02D80818F7D80830895BC
:103E8000CF93DF93EC01888D8823C1F0EA89FB8909
:103E9000808185FD05C0A889B9898C9186FD0EC0F9
:103EA0000FB607FCF5CF808185FFF2CFA889B989CD
:103EB0008C9185FFEDCFCE01C2DFE8CFDF91CF91AE
:103EC0000895CF92DF92FF920F931F93CF93DF93CA
:103ED0001F92CDB7DEB76C01DC015B969C915B97BE
:103EE0005C968C915C97981307C05096ED91FC916D
:103EF0005197808185FD31C0F601038D10E00F5F81
:103F00001F4F0F731127F02EF601848DF81210C089
:103F10000FB607FCF9CFD6015096ED91FC91519761
:103F2000808185FFF1CFC601698389DF6981ECCF8C
:103F3000838DE80FF11DE35AFF4F6083D6015B9636
:103F40000C935B975296ED91FC9153978081806220
:103F5000808381E058968C930DC0D6015696ED91E2
:103F6000FC91579760835096ED91FC915197808119
:103F70008064808381E090E00F90DF91CF911F916A
:103F80000F91FF90DF90CF900895BF92CF92DF9274
:103F9000EF92FF92CF93DF93EC016A017B01B22E87
:103FA000E889F98982E08083411581EE580761052F
:103FB000710599F060E079E08DE390E0A70196014A
:103FC00001D6215031094109510956954795379538
:103FD0002795211580E1380790F0E889F98910824A
:103FE00060E874E88EE190E0A7019601EBD52150DE
:103FF0003109410951095695479537952795EC8523
:10400000FD853083EE85FF852083188EEC89FD8940
:10401000B082EA89FB89808180618083EA89FB899B
:10402000808188608083EA89FB89808180688083C1
:10403000EA89FB8980818F7D8083DF91CF91FF901A
:10404000EF90DF90CF90BF9008951F920F920FB620
:104050000F9211240BB60F922F938F939F93EF9390
:10406000FF93E091CD07F091CE078081E091D307D7
:10407000F091D40782FD12C090818091D6078F5FA6
:104080008F732091D707821751F0E091D607F0E0A7
:10409000E354F84F958F8093D60701C08081FF913C
:1040A000EF919F918F912F910F900BBE0F900FBEAC
:1040B0000F901F9018951F920F920FB60F92112418
:1040C0000BB60F922F933F934F935F936F937F9312
:1040D0008F939F93AF93BF93EF93FF938DEB97E0F5
:1040E000AEDEFF91EF91BF91AF919F918F917F9144
:1040F0006F915F914F913F912F910F900BBE0F9059
:104100000FBE0F901F9018958DEB97E02FDE21E0EA
:10411000892B09F420E0822F08951092C007109295
:10412000BF0788EE93E0A0E0B0E08093C1079093D2
:10413000C207A093C307B093C40784EF93E09093A2
:10414000BE078093BD0785EC90E09093CA078093EB
:10415000C90784EC90E09093CC078093CB0780EC68
:1041600090E09093CE078093CD0781EC90E0909300
:10417000D0078093CF0782EC90E09093D207809392
:10418000D10786EC90E09093D4078093D3071092E8
:10419000D6071092D7071092D8071092D907089522
:1041A0000895AFDBFDDF0E948A08C3EEDEE10E94C6
:1041B000EE0D2097E1F307DEFACF65C5CF92DF92CF
:1041C000EF92FF920F931F93CF93DF936C017A01CD
:1041D000EB01E60EF71E00E010E0CE15DF0561F002
:1041E0006991D601ED91FC910190F081E02DC6011D
:1041F0001995080F191FF1CFC801DF91CF911F91B9
:104200000F91FF90EF90DF90CF9008953F924F92E3
:104210005F926F927F928F929F92AF92BF92CF9256
:10422000DF92EF92FF920F931F93CF93DF9300D013
:104230001F92CDB7DEB78B0129013A0190910F0291
:10424000981721F09F3F09F0ABC204C0E8E8F2E004
:10425000349004C180930F02E8E8F2E0E491EF3F6C
:1042600009F49EC2E23009F480C074F5EE2309F42B
:104270005BC0E13009F0F1C0109280001092810023
:10428000909181009860909381009091810091605D
:1042900090938100282F30E0F901EC50FE4FE4911B
:1042A000F0E0EE0FFF1FEC5AFD4F459154915093F3
:1042B000780840937708F901E255FE4F2491209346
:1042C000760833243394CCC0E43009F49EC00CF457
:1042D00074C0E53009F0C1C0109220011092210194
:1042E000909121019860909321019091210191601A
:1042F00090932101282F30E0F901EC50FE4FE4911A
:10430000F0E0EE0FFF1FEC5AFD4F45915491509392
:104310005C0840935B08F901E255FE4F249120931D
:104320005A0855E0352E9CC014BC15BC94B592605B
:1043300094BD95B5916095BD282F30E0F901EC5002
:10434000FE4FE491F0E0EE0FFF1FEC5AFD4F459158
:10435000549150937F0840937E08F901E255FE4F37
:10436000249120937D08312C7BC01092B0001092D4
:10437000B1009091B00092609093B0009091B10024
:1043800091609093B100282F30E0F901EC50FE4F7E
:10439000E491F0E0EE0FFF1FEC5AFD4F4591549170
:1043A0005093710840937008F901E255FE4F249133
:1043B00020936F0822E0322E53C01092900010928A
:1043C000910090919100986090939100909191004C
:1043D000916090939100282F30E0F901EC50FE4F4E
:1043E000E491F0E0EE0FFF1FEC5AFD4F4591549120
:1043F00050936A0840936908F901E255FE4F2491F1
:1044000020936808B3E03B2E2BC01092A0001092BE
:10441000A1009091A10098609093A1009091A100BB
:1044200091609093A100282F30E0F901EC50FE4FED
:10443000E491F0E0EE0FFF1FEC5AFD4F45915491CF
:104440005093630840936208F901E255FE4F2491AE
:104450002093610874E0372E03C03E2E37FCA0C1C4
:1044600061E0EEDB4801A12CB12C832D8D7F09F09A
:10447000BAC060E072E18AE790E0A5019401C4D37C
:1044800029833A834B835C8369017A0181E0C81AEE
:10449000D108E108F1089FEFC916D104E104F10445
:1044A00009F008F495C060E472E48FE090E0A501A3
:1044B0009401AAD369017A01E1E0CE1AD108E1089A
:1044C000F108F2E03F1218C08FEFC816D104E104E2
:1044D000F10409F008F483C060E970ED83E090E036
:1044E000A501940191D369017A0191E0C91AD1081B
:1044F000E108F10883E001C082E0EFEFCE16D104BD
:10450000E104F10409F008F464C068E478EE81E0A5
:1045100090E0A501940178D369017A01F1E0CF1A06
:10452000D108E108F1083320D9F082E038121AC02E
:104530009FEFC916D104E104F10409F008F42EC17B
:1045400064E274EF80E090E0A50194015DD369011D
:104550007A01E1E0CE1AD108E108F10885E003C054
:1045600083E001C084E0FFEFCF16D104E104F10441
:1045700081F178F162E17AE780E090E0A5019401B1
:1045800043D369017A0181E0C81AD108E108F10832
:10459000311002C084E001C086E09FEFC916D1044B
:1045A000E104F104B1F0A8F0C980DA80EB80FC806E
:1045B0009AE0F594E794D794C7949A95D1F7E1E0FF
:1045C000CE1AD108E108F108332031F087E008C0A5
:1045D00081E0332011F004C085E085BD50C082E049
:1045E0008093B1004CC060E072E18AE790E0A501E1
:1045F00094010AD369017A01F1E0CF1AD108E108E8
:10460000F108C114D10481E0E806F10480F068E407
:1046100078EE81E090E0A5019401F6D269017A017B
:1046200091E0C91AD108E108F10893E001C091E0D6
:10463000E1E03E1207C080918100887F892B809342
:1046400081001DC0F3E03F1207C080919100887F78
:10465000892B8093910013C084E0381207C08091A9
:10466000A100887F892B8093A10009C0E5E03E125C
:1046700006C080912101887F892B809321014114FC
:1046800051046104710461F0D801AA0FBB1FA3019A
:104690009201DCD228EE33E040E050E093D203C038
:1046A0002FEF3FEFA901F2E03F1609F443C0F315E5
:1046B000BCF0332081F181E0381272C0D0928900C1
:1046C000C09288002093790830937A0840937B0841
:1046D00050937C0880916F00826080936F0060C06F
:1046E00094E0391609F448C03916A4F1E5E03E1209
:1046F00057C0D0922901C092280120935D083093C1
:104700005E0840935F085093600880917300826058
:104710008093730045C0C7BC209380083093810804
:10472000409382085093830880916E00826080934A
:104730006E0036C0C092B3002093720830937308A5
:104740004093740850937508809170008260809344
:10475000700026C0D0929900C092980020936B08F8
:1047600030936C0840936D0850936E0880917100EF
:1047700082608093710014C0D092A900C092A800FA
:104780002093640830936508409366085093670847
:104790008091720082608093720002C084E020CF1A
:1047A0000F900F900F900F90DF91CF911F910F916D
:1047B000FF90EF90DF90CF90BF90AF909F908F9041
:1047C0007F906F905F904F903F9008958230A9F056
:1047D00028F4882349F0813051F00895843009F19C
:1047E000E8F0853009F1089510926E0008958091E7
:1047F0006F008D7F80936F000895809170008D7F92
:104800008093700081E08093B0008091B100887F38
:1048100084608093B1001092B300089510927100EB
:104820000895109272000895109273000895CF9326
:10483000C82F80910F028C1307C0E8E8F2E0849142
:104840009FEF90930F0201C08FEFC0DF60E08C2FCD
:10485000CF912FCA1F920F920FB60F9211240BB651
:104860000F922F933F934F935F936F937F938F9309
:104870009F93AF93BF93EF93FF93809172089091B2
:104880007308A0917408B0917508892B8A2B8B2B23
:1048900051F190916F08E0917008F091710880815A
:1048A000892780838091720890917308A091740881
:1048B000B0917508181619061A061B06BCF48091EB
:1048C000720890917308A0917408B09175080197CF
:1048D000A109B1098093720890937308A09374089A
:1048E000B093750803C080910F02A1DFFF91EF9193
:1048F000BF91AF919F918F917F916F915F914F91F8
:104900003F912F910F900BBE0F900FBE0F901F90F5
:1049100018954F925F926F927F92AF92BF92CF9213
:10492000DF92EF92FF920F931F93CF93DF93CDB758
:10493000DEB729013A01621B730B840B950B2A89A0
:104940003B894C895D892A193B094C095D092A8BF1
:104950003B8B4C8B5D8B9B01AC016A897B898C897D
:104960009D89EED0E418F50806091709A8019701FA
:104970004BD12A0D3B1D4C1D5D1DCA01B901DF91B4
:10498000CF911F910F91FF90EF90DF90CF90BF904C
:10499000AF907F906F905F904F900895FC01808161
:1049A000918109C2CF93DF93EC01888199810097AF
:1049B00009F001D2198218821D821C821B821A8280
:1049C000DF91CF9108950F931F93CF93DF93EC0165
:1049D0008B016F5F7F4F888199817CD2009731F086
:1049E000998388831B830A8381E001C080E0DF9183
:1049F000CF911F910F910895CF93DF93EC018881A0
:104A00009981892B29F08A819B818617970758F411
:104A1000CE01D9DF882341F08C819D81892B19F447
:104A2000E881F981108281E0DF91CF910895EF92C2
:104A3000FF920F931F93CF93DF93EC017B018A01C9
:104A4000BA01DADF811103C0CE01ACDF06C01D83DD
:104A50000C83B701888199812AD3CE01DF91CF9150
:104A60001F910F91FF90EF900895CF93DF93EC018A
:104A70006115710559F0FB0101900020E9F7AF01C4
:104A800041505109461B570BD2DF01C08BDFCE01CD
:104A9000DF91CF9108950F931F93CF93DF93CDB7FD
:104AA000DEB7A2970FB6F894DEBF0FBECDBF8C0164
:104AB000CB01BA01F8011182108213821282158291
:104AC000148230E0AE014F5F5F4F2CD3BE016F5FA9
:104AD0007F4FC801CADFA2960FB6F894DEBF0FBEA3
:104AE000CDBFDF91CF911F910F9108950F931F9329
:104AF000CF93DF93EB0141155105E1F02097D1F001
:104B0000FC01648175812617370798F4621B730BCB
:104B10008A01015011096017710708F48B01FC012B
:104B200060817181620F731FA801CE01C7D2C00FCF
:104B3000D11F1882DF91CF911F910F910895089591
:104B4000DB018F939F9382D0BF91AF91A29F800D85
:104B5000911DA39F900DB29F900D11240895991B54
:104B600079E004C0991F961708F0961B881F7A9564
:104B7000C9F780950895AA1BBB1B51E107C0AA1F66
:104B8000BB1FA617B70710F0A61BB70B881F991FEE
:104B90005A95A9F780959095BC01CD01089597FB92
:104BA000072E16F4009406D077FD08D0E4DF07FC4A
:104BB00005D03EF4909581959F4F0895709561952D
:104BC0007F4F0895A1E21A2EAA1BBB1BFD010DC049
:104BD000AA1FBB1FEE1FFF1FA217B307E407F507AD
:104BE00020F0A21BB30BE40BF50B661F771F881F89
:104BF000991F1A9469F760957095809590959B011F
:104C0000AC01BD01CF010895052E97FB16F4009469
:104C10000FD057FD05D0D6DF07FC02D046F408C000
:104C200050954095309521953F4F4F4F5F4F0895D8
:104C300090958095709561957F4F8F4F9F4F089508
:104C4000EE0FFF1F0590F491E02D19940DD0A59F54
:104C5000900DB49F900DA49F800D911D1124089577
:104C60000790F691E02D1994A29FB001B39FC00167
:104C7000A39F700D811D1124911DB29F700D811D88
:104C80001124911D0895CF93DF938230910510F484
:104C900082E090E0E0918608F091870820E030E023
:104CA000A0E0B0E0309739F14081518148175907B1
:104CB000B8F04817590771F482819381109729F051
:104CC00013969C938E9312972CC090938708809391
:104CD000860827C02115310531F04217530718F017
:104CE000A901DB0101C0EF019A01BD01DF010280D2
:104CF000F381E02DD7CF21153105F9F0281B390BB1
:104D00002430310580F48A819B816115710521F081
:104D1000FB019383828304C0909387088093860865
:104D2000FE01329644C0FE01E20FF31F819391937E
:104D300022503109398328833AC020918408309168
:104D40008508232B41F42091020230910302309315
:104D500085082093840820910002309101022115DA
:104D6000310541F42DB73EB7409104025091050240
:104D7000241B350BE0918408F0918508E217F307B6
:104D8000A0F42E1B3F0B2817390778F0AC014E5FBB
:104D90005F4F2417350748F04E0F5F1F509385086B
:104DA000409384088193919302C0E0E0F0E0CF014A
:104DB000DF91CF910895CF93DF93009709F487C0D7
:104DC000FC01329713821282C0918608D091870825
:104DD000209781F420813181280F391F8091840828
:104DE000909185088217930779F5F0938508E093F1
:104DF00084086DC0DE0120E030E0AE17BF0750F43C
:104E000012964D915C9113979D014115510509F141
:104E1000DA01F3CFB383A28340815181840F951FC0
:104E20008A179B0771F48D919C911197840F951FA0
:104E300002969183808312968D919C911397938310
:104E400082832115310529F4F0938708E0938608C1
:104E50003EC0D9011396FC93EE9312974D915D914C
:104E6000A40FB51FEA17FB0779F480819181840FA5
:104E7000951F0296D90111969C938E9382819381FE
:104E800013969C938E931297E0E0F0E08A819B81C9
:104E9000009719F0FE01EC01F9CFCE0102962881AE
:104EA0003981820F931F209184083091850828173B
:104EB000390769F4309729F4109287081092860810
:104EC00002C013821282D0938508C0938408DF91B8
:104ED000CF9108956F927F928F929F92AF92BF92DF
:104EE000CF92DF92EF92FF920F931F93CF93DF93B6
:104EF000EC01CB01209779F4DF91CF911F910F91B5
:104F0000FF90EF90DF90CF90BF90AF909F908F90E9
:104F10007F906F90B8CEFE01E60FF71F9E012250E2
:104F20003109E217F30708F4A8C0D9010D911C91CB
:104F3000119706171707B0F00530110508F49BC04C
:104F4000A801445051094617570708F494C002506D
:104F50001109061B170B019311936D937C93CF01DD
:104F60002ADF89C05B01A01AB10A4E01800E911E92
:104F7000A0918608B0918708612C712C60E070E0E8
:104F8000109709F449C0A815B905C9F5ED90FC9032
:104F90001197670142E0C40ED11CCA14DB0478F1FA
:104FA00047018A189B08640142E0C40ED11C129686
:104FB000BC9012971396AC91B5E0CB16D10440F09B
:104FC000B282A38391828082D9018D939C9309C080
:104FD0000E5F1F4F0E0D1F1DF90111830083EB2D76
:104FE000FA2F6115710531F0DB011396FC93EE93F6
:104FF000129741C0F0938708E09386083CC06D91FA
:105000007C9111976616770608F43B01BD01129654
:105010000D90BC91A02DB4CF60918408709185084B
:1050200068157905E9F468167906D0F44091000214
:10503000509101024115510541F44DB75EB76091A1
:10504000040270910502461B570BE417F507A8F4FC
:10505000F0938508E0938408F901918380830BC065
:1050600012DE7C01009749F0A801BE0117D0CE01E5
:10507000A2DEC70104C0CE0102C080E090E0DF9153
:10508000CF911F910F91FF90EF90DF90CF90BF9045
:10509000AF909F908F907F906F900895FB01DC01FF
:1050A00002C001900D9241505040D8F70895FB0185
:1050B000DC0101900D920020E1F70895FB01DC0175
:1050C0004150504048F001900D920020C9F701C0B6
:1050D0001D9241505040E0F70895FC0181E090E0BE
:1050E0000190061609F4CF010020D1F70197089529
:1050F000FB0151915523A9F0BF01DC014D914517EA
:105100004111E1F759F4CD010190002049F04D9192
:1051100040154111C9F3FB014111EFCF81E090E04F
:10512000019708952532310518F4223008F004C0A3
:10513000FA011082CA010895BB272A3051F499233D
:1051400042F4BDE290958095709561957F4F8F4FA9
:105150009F4F01C0BB27FA01A62F62177105810579
:105160009105330B30FB66F0AA27660F771F881F67
:10517000991FAA1FA21710F0A21B63953850A9F718
:10518000A05DAA3308F0A95DA19336F7B111B193E0
:105190001082CA0100C0DC01FC01672F71917723E6
:1051A000E1F7329704C07C916D9370836291AE17E2
:0A51B000BF07C8F30895F894FFCF7D
:1051BA000000880880000100000021FF130001FFA1
:1051CA00556E6B6E6F776E2070696E206D6F6465B9
:1051DA00004669726D617461506C75732E696E6FE9
:1051EA00004932432052656164204572726F723AF7
:1051FA0020546F6F206D616E792062797465732017
:10520A007265636569766564004932432052656157
:10521A0064204572726F723A20546F6F2066657708
:10522A0020627974657320726563656976656400C6
:10523A0031302D6269742061646472657373696EBA
:10524A0067206D6F6465206973206E6F74207965BD
:10525A007420737570706F7274656400746F6F2058
:10526A006D616E7920717565726965730050494E7A
:10527A00475F434F4E464947204572726F723A2044
:10528A004578636565646564206E756D6265722034
:10529A006F6620737570706F727465642070696EC2
:1052AA0067206465766963657300535445505045B9
:1052BA005220434F4E464947204572726F723A2038
:1052CA0057726F6E67204E756D626572206F662029
:1052DA00617267756D656E74730061726763203DF4
:1052EA00200053544550504552204F504552415486
:1052FA0045204572726F723A204D4F544F52204EDC
:10530A004F5420434F4E4649475552454400535443
:10531A004550504552204649524D57415245205614
:10532A00455253494F4E204572726F723A204E4F82
:10533A00204D4F544F525320434F4E4649475552E2
:10534A004544005354455050455220434F4E464918
:10535A0047204572726F723A20554E4B4E4F574E48
:10536A00205354455050455220434F4D4D414E44D1
:10537A000015060000000000000000000000000008
:10538A00000B06010600000000A7127B12501258FB
:10539A00126B127A122E6370700000000000A61AB7
:1053AA0000000000611FDE20B61ECF1EC11E401F76
:00000001FF
