:100000000C947E000C94A6000C94A6000C94DB02C9
:100010000C9408030C9435030C94A6000C94E72070
:100020000C94A6000C94A6000C94A6000C94410D10
:100030000C94A6000C94A6000C94A6000C94A600A8
:100040000C94841A0C94A6000C94D61D0C94081ED3
:100050000C94A6000C94A6000C94A6000C94A60088
:100060000C9461110C94A600D304FE04C7040B0584
:1000700021054B053F054B0549054B054505470542
:100080006905E50477187D188718951897189D1845
:10009000A718B518C718C918000000080002010009
:1000A0000003040700000000000000000102040833
:1000B00010204080010204081020010204081020D2
:1000C00004040404040404040202020202020303FE
:1000D00003030303000000002300260029000000A2
:1000E0000000250028002B0000000000240027004D
:1000F0002A0002006E0677108A16381E11241FBED1
:10010000CFEFD8E0DEBFCDBF13E0A0E0B1E0E2EB7F
:10011000FBE402C005900D92AC33B107D9F726E09D
:10012000ACE3B3E001C01D92A83AB207E1F710E0DA
:10013000CCEFD0E004C02297FE010E940123C43F0F
:10014000D107C9F70E9468220C94D7250C940000AF
:100150000F931F93CF93DF931F92CDB7DEB7182F66
:10016000062F8EEF810F8231C0F4612F8BE495E072
:1001700079830E94DF145981813079F4402F612FF7
:100180008BE495E00E94FA14602F812F0F90DF918D
:10019000CF911F910F910C945B1C0F90DF91CF9129
:1001A0001F910F9108951F93CF93DF93182FEB01A9
:1001B0008431A8F5682F8BE495E00E94DF1483302A
:1001C000F9F0843061F58EEF810F823180F4E12FF8
:1001D000F0E0E757FC4F408150E0CA01880F991FBB
:1001E000840F951FBE0183569C4F0E94DE0EAE0108
:1001F000612F8BE495E0DF91CF911F910C94FA145D
:10020000133041F08BEF810F823020F087EF810FA8
:10021000833068F7BE01812F0E949A1BE8CFDF91DF
:10022000CF911F910895DF92EF92FF920F931F934A
:10023000CF93DF93082FE62E833008F08CC0182F61
:10024000110F110F110F185F153108F014E1C02FB5
:10025000CC0FCC0FCC0FD0E0FF24F394C11758F58E
:100260008EEF8C0F823120F56C2F8BE495E00E948D
:10027000DF14813039F06C2F8BE495E00E94DF149D
:10028000811116C0DD24D3948F2D8E2109F4D12C39
:100290006C2F8BE495E00E94DF14813009F044C09C
:1002A000DF294D2D50E06C2F8BE495E00E94FA146D
:1002B000FF0CCF5FD3CF01110AC0DC7FF8949BB154
:1002C0008D2F80958923DE218D2B8BB92BC001309A
:1002D000E1F42D2F2E21F89495B18D2F8F738095F9
:1002E0008923922F9F73892B85B988B1E22EE294DE
:1002F000E694E69433E0E322D295D695D695D37072
:10030000D095D823ED2AE8B80DC0DF70F89498B1E5
:100310008D2F880F880F80958923ED22EE0CEE0C2F
:100320008E2988B9789417C06C2F8BE495E00E94D1
:10033000DF148111B6CFDD2009F4B3CF6C2F8BE42D
:1003400095E00E94F014019709F4ABCF62E08C2F86
:100350000E94221CA6CFDF91CF911F910F91FF9099
:10036000EF90DF900895CF93C82F863058F54091D5
:1003700044045091450421E030E0082E02C0220FD1
:10038000331F0A94E2F7672B49F420953095242314
:100390003523309345042093440414C0242B352B7B
:1003A00030934504209344048091C10381110AC015
:1003B0008C2F0E947D1BAC016C2F8BE495E0CF91BC
:1003C0000C940914CF910895CF93DF93DC01FB01C6
:1003D0002283518340831296CD91DC9113978881BB
:1003E0009381892B888382818D7F813041F415969A
:1003F0008C9115979381892B15968C9315978281F3
:100400008150823040F416968C9116979381892BF7
:1004100016968C9316978091680014969C91892B60
:1004200080936800DF91CF910895CF92DF92FF9281
:100430000F931F93CF93DF9300D01F92CDB7DEB7FA
:100440006C01E62FF0E0E455FF4FF490FC0180854D
:100450009185009779F08C01FC0183818F1106C092
:10046000B801C6010E94E40180E02FC0F801858137
:100470009681EFCF87E090E02B8349835A830E94D7
:100480007722DC012B8149815A81009721F4109257
:1004900002008FEF1AC012962C93129716961C9298
:1004A0001E9215971396FC921397F60180859185FD
:1004B000892B19F4B187A08703C0F801B683A583FF
:1004C000BD01C6010E94E40181E00F900F900F90E2
:1004D000DF91CF911F910F91FF90DF90CF90089502
:1004E000242FE82FF0E0E054FF4FE491EE23D9F001
:1004F00061157105C1F0F0E03297E330F10540F489
:10050000EE0FFF1FE55FFC4F0190F081E02D02C070
:10051000E0E0F0E0A081B1819C919783AB01682F6E
:10052000CF010C9415028FEF0895FF920F931F9344
:10053000CF93DF93EC01809164049F812D813E81F4
:10054000F82EF094F3222823F22A9827F9228F8399
:100550000885198501151105D9F0D80113969C91CC
:100560008F2D892389F080916404892391E009F417
:1005700090E0F801948380819181DC01ED91FC9100
:100580000190F081E02D0995F80105811681E2CFF7
:100590008BB39C81892349F09BB3982B9BBBE8814B
:1005A000F981808180936404C6CFDF91CF911F9140
:1005B0000F91FF9008951F920F920FB60F92112482
:1005C0002F933F934F935F936F937F938F939F935B
:1005D000AF93BF93EF93FF93E0915A04F0915B04C4
:1005E0008081809364048AE594E00E949502FF91E3
:1005F000EF91BF91AF919F918F917F916F915F919B
:100600004F913F912F910F900FBE0F901F90189513
:100610001F920F920FB60F9211242F933F934F9377
:100620005F936F937F938F939F93AF93BF93EF935A
:10063000FF93E0915004F091510480818093640411
:1006400080E594E00E949502FF91EF91BF91AF91F8
:100650009F918F917F916F915F914F913F912F91DA
:100660000F900FBE0F901F9018951F920F920FB60C
:100670000F9211242F933F934F935F936F937F9328
:100680008F939F93AF93BF93EF93FF93E0914604B3
:10069000F091470480818093640486E494E00E9492
:1006A0009502FF91EF91BF91AF919F918F917F91B3
:1006B0006F915F914F913F912F910F900FBE0F90CF
:1006C0001F901895DB019A0190917B039C30D0F527
:1006D00040917C03682F70E0442369F0E42FF0E040
:1006E000E458FC4F8081FB01E757FC4F8083415069
:1006F00040937C0307C0FB01E757FC4F90839F5F4B
:1007000090937B03FB01E757FC4F1A161B067CF402
:100710001216130664F4408150E0CA01880F991F35
:10072000840F951FAD0183569C4F0C94190E2081A8
:1007300030E0C901880F991F820F931F83569C4F89
:100740000C94970E60E171E08BE495E00C949B149F
:10075000CF93DF93C82FD0E0C757DC4F288130E01C
:10076000C901880F991F820F931F83569C4F0E94C7
:100770009D0E888190917B03891306C0882379F0B0
:10078000815080937B030BC0992349F0E0917C0357
:10079000EF5FE0937C03F0E0E458FC4F80838FEF41
:1007A0008883DF91CF9108951F93CF93DF93162F06
:1007B000C82FD0E0FE01E55CFB4F90811923C25C9D
:1007C000DB4F411103C09881911741F0412F50E058
:1007D000682F8BE495E00E9422141883DF91CF915B
:1007E0001F910895833020F5282F30E0F901EF5B49
:1007F000FB4F6083672BE1F0F901E55CFB4F9081D3
:10080000811103C069B16C7F0FC0813049F463B1BD
:1008100026B140E4249F900111246F73622B04C021
:1008200066B16C7366956695692341E00C94D403B8
:10083000089580914104882349F069B180913B0477
:1008400068236C7F40E080E00E94D40380914204E2
:10085000882379F063B186B120E4829FC00111241E
:100860006F73682B80913C04682340E081E00E9414
:10087000D40380914304882359F066B16C73669564
:10088000669580913D04682340E082E00C94D40397
:1008900008951092C4038FEF80930B010895FF9287
:1008A0000F931F93CF93DF93182FEB01682F8BE4E7
:1008B00095E00E94DF148F3709F40BC1612F8BE4A0
:1008C00095E00E94DF14863041F48091C4038823B0
:1008D00021F0C630D10509F0E9C00EEF010F023159
:1008E000B8F4C430D105A1F0E12FF0E0E757FC4F98
:1008F00080818C3068F490E09C01220F331F280F18
:10090000391FC90183569C4F0E94430F8111D1C0EA
:1009100082EFF82EF10E85E08F1550F061E070E067
:10092000C230D10511F060E070E08F2D0E94B3015C
:100930000231E8F4E12FE695E695E695812F877080
:10094000F0E0E55CFB4F21E030E0082E01C0220F13
:100950000A94EAF7209719F0CD30D10521F480816F
:10096000822B808304C0209580812823208340E04F
:1009700050E0612F8BE495E00E94FA14CE30D1054F
:1009800008F089C0FE01EC5CFF4F0C94FF2285E06B
:100990008F1508F49EC0023120F460E0812F0E9480
:1009A000221C42E008C0023108F093C060E0812FB1
:1009B0000E94221C40E0612F8BE495E0DF91CF91F3
:1009C0001F910F91FF900C94E614023108F081C042
:1009D00062E0812F0E94221C4DE0612F8BE495E0A4
:1009E0000E94E61441E050E0612F8BE495E0DF9136
:1009F000CF911F910F91FF900C94FA14023108F0DF
:100A000068C060E0812F0E945B1C61E0812F0E9422
:100A1000221C41E0D0CF133049F08BEF810F8230A0
:100A200028F087EF810F833008F053C061E0812FF9
:100A30000E94221C60E070E0812F0E949A1B43E01C
:100A4000BACF023108F045C044E0612F8BE495E055
:100A50000E94E614E12FF0E0E757FC4F80818F3FC2
:100A600061F190E09C01220F331F280F391FC9014B
:100A700083569C4F0E94430F81112BC01EC08EEEE7
:100A8000810F823030F546E096CF4AE094CF4BE0BC
:100A900092CF48E090CF64E271E08BE495E0DF9183
:100AA000CF911F910F91FF900C949B140E944904C9
:100AB00014CF812F0E94A8032BCF4FEF5FEF6FEF72
:100AC0007FEF812FDF91CF911F910F91FF900C94B9
:100AD0006203DF91CF911F910F91FF900895CF9303
:100AE000C0E08EEE8C0F823028F466E070E08C2F30
:100AF0000E944F04CF5FC431A1F781E08093C4030B
:100B00008BE894E0CF910C94E90F0F931F93CF9350
:100B1000DF9381E08093C1038091C40381110E941F
:100B200049041092410410923B0410923E0410922A
:100B3000420410923C0410923F041092430410921D
:100B40003D0410924004C9E8D3E010E00FEF82EFBB
:100B5000810F863018F462E070E00AC08EEF810FDA
:100B6000823120F4812F0E94D22005C061E070E024
:100B7000812F0E944F0409931F5F143141F7109297
:100B80006E0310926D03A7E6B3E0E9E5F3E02FE70B
:100B90002D9380819181892B11F0118210823296E0
:100BA00083E0AD36B807A1F71092450410924404D3
:100BB00010927C0310927B03109253031092520305
:100BC0001092C103DF91CF911F910F91089525E0FD
:100BD00042E065E371E08BE495E00E94301343ED61
:100BE00050E060EE8BE495E00E94A91443E151E0EF
:100BF00060E98BE495E00E94A91443EB51E060ECBE
:100C00008BE495E00E94A91442EF53E060ED8BE481
:100C100095E00E94A9144FE454E064EF8BE495E062
:100C20000E94A91448EA50E065EF8BE495E00E9429
:100C3000A9144DE457E060EF8BE495E00E94D914CD
:100C400045E855E06FEF8BE495E00E94D11440E059
:100C500051EE60E070E08BE495E00E9473160C9416
:100C600085050F931F93CF93DF93CDB7DEB7C6549F
:100C7000D1090FB6F894DEBF0FBECDBF8C012AE0BC
:100C8000CE018F5B9F4F0E94102220E030E040E4B5
:100C900050E0BE016F5F7F4FCE018F5B9F4F0E9480
:100CA0003D22B8018BE495E00E949B14BE016F5F6A
:100CB0007F4F8BE495E00E949B14CE018F5B9F4F8A
:100CC0000E948A21CA5BDF4F0FB6F894DEBF0FBEC9
:100CD000CDBFDF91CF911F910F910895CF93DF93F7
:100CE000E8EDF0E08591949190935B0480935A0431
:100CF0008BE690E090935D0480935C0481E08093A8
:100D00005E0410925F0410926004109263041092CB
:100D10006204EAEDF0E08591949190935104809300
:100D200050048CE690E0909353048093520482E048
:100D30008093540410925504109256041092590452
:100D400010925804ECEDF0E0859194919093470453
:100D5000809346048DE690E0909349048093480484
:100D600084E080934A0410924B0410924C04109239
:100D70004F0410924E04CDE9D3E0CE010E94FD0D48
:100D8000239683E0C13CD807C1F7DF91CF91089546
:100D9000682F8BE894E00C94AA0F8BE894E00E94F3
:100DA0005A0F0895AF92BF92DF92EF92FF920F9386
:100DB0001F93CF93DF931F92CDB7DEB7F82E5B0161
:100DC000D42E6F3F8FEF7807C1F06F2D8BE894E042
:100DD00029830E94F30F8A2D0E94C8062981622F61
:100DE0008BE894E00E94FD0F8091C2039091C303B1
:100DF000009729F00E94371B02C0A12CB12C4D2D69
:100E00006F2D8BE894E00E9471100D2D10E08BE89F
:100E100094E00E94520F081719071CF46DE971E065
:100E200009C08BE894E00E94520F8017910734F4B8
:100E30006AEB71E08BE495E00E949B14F092C5038D
:100E4000A092C60357ECE52E53E0F52EA12CB12C51
:100E5000A016B1069CF042E04D0D25EC33E067E7AB
:100E60008BE495E00F90DF91CF911F910F91FF9050
:100E7000EF90DF90BF90AF900C9450148BE894E00B
:100E80000E94520F892B39F30E94CD06F7018193FE
:100E90007F01FFEFAF1ABF0ADBCF8F929F92AF9215
:100EA000BF92CF92DF92EF92FF920F931F93CF9357
:100EB000DF93162FEA018D3609F440C2A8F480367C
:100EC00009F4ADC238F4803509F465C18F3509F4F1
:100ED000C2C226C4893609F48AC28B3609F4BAC163
:100EE000823609F01DC4EEC2823709F435C338F4E6
:100EF0008F3609F487C1803709F40DC111C48837D2
:100F000009F4E9C08A3709F45DC1863709F008C4DD
:100F10002981922F987125FF03C066ED71E0ECC323
:100F2000888126FB222720F931E023279830A1F180
:100F300048F49111F5C3682F8BE894E00E94F30FF9
:100F400002E007C0903109F44BC0983109F475C034
:100F5000E7C3011768F4FE01E00FF11D9181808164
:100F600020E8929F801911240E94C8060E5FF1CFDD
:100F70008BE894E00E94741086E490E0DF91CF91BA
:100F80001F910F91FF90EF90DF90CF90BF90AF90A7
:100F90009F908F900C94371B4A816B8130E81630FC
:100FA00061F4639FB0011124640F711D9D814C8118
:100FB000E0E89E9F4019112405C0639F4019112449
:100FC0006FEF7FEFDF91CF911F910F91FF90EF9027
:100FD000DF90CF90BF90AF909F908F900C94D206EF
:100FE000E0910B01E7301CF066EF71E085C39A8158
:100FF0004B81663069F460E8469FA0011124490FD7
:10100000511D3D819C8160E8369F9019112406C0D6
:1010100030E8439F901911244FEF5FEFEF5FE093AB
:101020000B0165E0E602F0011124EB5FFB4F8083CA
:10103000528341839383248373C360910B011616FB
:101040003CF470E0262F332727FD309595E00FC044
:101050008FEF80930B0164C3949FF001959FF00D77
:101060001124EB5FFB4F4081481739F07F5F472F1A
:1010700050E02417350784F770E0C5E0872F90E033
:101080002817390724F1783000F5AC014F5F5F4F26
:10109000C49FD001C59FB00D1124AB5FBB4F4C91D5
:1010A000C89FF001C99FF00D1124EB5FFB4F4083F7
:1010B00011968D919C9112979283818313968C91B6
:1010C0001397838314968C9184837F5FD7CF61506D
:1010D00060930B0125C328818981E0E88E9FC001C0
:1010E0001124820F911D009721F09093C3038093E8
:1010F000C2038091C403811113C3DF91CF911F916B
:101100000F91FF90EF90DF90CF90BF90AF909F90A6
:101110008F900C946F05653008F402C31881098123
:10112000FA80EB80CC818EEF810F823108F0F8C21B
:10113000E12FF0E0E757FC4FE081EC3060F4F0E0A5
:10114000CF01880F991F8E0F9F1F83569C4F0E94BF
:10115000430F8111E1C220E8C29FA00111244E0D6E
:10116000511D30E8F39EB0011124600F711D812FD5
:101170000E94620364E070E0812FDF91CF911F91A4
:101180000F91FF90EF90DF90CF90BF90AF909F9026
:101190008F900C944F042881898140E8849FC0017E
:1011A0001124820F911D90932E0480932D040E9490
:1011B000CE1A60932F04709330048093310490937F
:1011C0003204AEC2623008F4ABC22881898160E883
:1011D000869FC0011124820F911D009711F481E0B8
:1011E00090E090930D0180930C0160910C0170913F
:1011F0000D0188E290E00E94962270937203609342
:1012000071038EC2623008F48BC2698170E01230C3
:1012100091F08A81E0E88E9FC0011124682B792B20
:10122000133049F08B8190E090E4899F902D8827BE
:101230001124682B792B8881DF91CF911F910F9119
:10124000FF90EF90DF90CF90BF90AF909F908F90E6
:101250000C94D30060EF8BE495E00E949F146CE641
:101260008BE495E00E949F14CEEF84EF8C0F8630C4
:1012700058F462E08BE495E00E949F146AE08BE4EE
:1012800095E00E949F140DC0C13059F463E08BE4D7
:1012900095E00E949F1468E08BE495E00E949F1403
:1012A00008C08DEF8C0F823088F389EF8C0F83306C
:1012B00068F3C23150F464E08BE495E00E949F141F
:1012C0006EE08BE495E00E949F1480EF8C0F8230DB
:1012D00050F466E08BE495E00E949F1461E08BE49B
:1012E00095E00E949F146FE78BE495E00E949F14A5
:1012F000CF5FC23109F4EAC1C23108F0B6CF60E075
:101300008BE495E00E949F1461E08BE495E00E94DD
:101310009F146DE08BE495E00E949F1461E08BE4E4
:1013200095E00E949F1461E08BE495E00E949F1479
:1013300061E08BE495E00E949F1497CF662309F447
:10134000EFC1C88160EF8BE495E00E949F146EE6C8
:101350008BE495E00E949F146C2F8BE495E00E9433
:101360009F14C43108F0B2C16C2F8BE495E00E9449
:10137000DF14682F8BE495E00E949F146C2F8BE4A0
:1013800095E00E94F014682F6F778BE495E00E943F
:101390009F146C2F8BE495E00E94F0148078892BC9
:1013A00079F06C2F8BE495E00E94F014880F892F60
:1013B000881F990B682F6F778BE495E00E949F142C
:1013C0006C2F8BE495E00E94F0148827907C892B89
:1013D00009F47CC16C2F8BE495E00E94F014990F06
:1013E000880B990F982F881F682F6F776BC160EF5C
:1013F0008BE495E00E949F146AE68BE495E00E94DE
:101400009F14C2EFC63010F06FE701C06C2F8BE461
:1014100095E00E949F14CF5FC630A1F757C1488165
:101420004093780329812093770380914A038111A7
:101430000EC08AE293E090933D0380933C0361E603
:101440008CE393E00E94D61981E080934A0381E007
:101450008093730365C198818981911122C09C8119
:101460002D8140E8249F90011124290F311D44272C
:1014700037FD4095542F9A816B81E0E86E9FB00153
:101480001124690F711DDF91CF911F910F91FF9072
:10149000EF90DF90CF90BF90AF909F908F900C9483
:1014A000A31E913009F03CC1DF91CF911F910F91A4
:1014B000FF90EF90DF90CF90BF90AF909F908F9074
:1014C0000C94D22020916D0330916E0326303105AB
:1014D0000CF03FC088818093580399819093570303
:1014E0009A81913208F491E290930A019B81CC8118
:1014F00040E8C49FE0011124C90FD11DF901E95949
:10150000FC4F80836BE070E00E944F046BE070E062
:10151000809157030E944F0482E190E00E9477225D
:101520008C019E0140915703609158030E948E16D2
:1015300080916D0390916E03FC01EE0FFF1FE75A3F
:10154000FC4F11830083019690936E0380936D038B
:10155000E7C067E072E0D0C08881811148C089810E
:10156000CA8060E8C69E60011124C80ED11CAB8001
:10157000B12C8C80912C153059F48AE190E00E94B6
:101580007722EC019401A501B6010E94831710C0D7
:10159000173099F40D8110E0EE80F12C8AE190E093
:1015A0000E947722EC019401A501B6010E94A917BF
:1015B000D0935303C0935203B3C064E472E08BE44E
:1015C00095E00E949B14412F50E060E070E084E7BA
:1015D00092E0DF91CF911F910F91FF90EF90DF90FC
:1015E000CF90BF90AF909F908F900C943106813038
:1015F00009F048C04A8150E060E070E0F7E0440F35
:10160000551F661F771FFA95D1F78B8190E0A0E0F8
:10161000B0E01EE0880F991FAA1FBB1F1A95D1F7D3
:10162000482B592B6A2B7B2B8981482B8C810D8170
:1016300090E8099F80011124080F111DCE8180912F
:101640005203909153030097D1F00E94DF17C1110C
:1016500003C0119501951109B80180915203909131
:101660005303DF91CF911F910F91FF90EF90DF9087
:10167000CF90BF90AF909F908F900C94E6186CE73E
:1016800072E03AC08230B1F58091520390915303D9
:10169000009769F10E946F19EC0160EF8BE495E00F
:1016A0000E949F1462E78BE495E00E949F146C2FC8
:1016B0006F778BE495E00E949F14BE01660F672F41
:1016C000661F770B8BE495E00E949F1467EF8BE415
:1016D00095E0DF91CF911F910F91FF90EF90DF90F8
:1016E000CF90BF90AF909F908F900C949F1468EA1A
:1016F00072E002C06DED72E08BE495E0DF91CF9176
:101700001F910F91FF90EF90DF90CF90BF90AF901F
:101710009F908F900C949B14812F0E94A8031BCD47
:10172000DF91CF911F910F91FF90EF90DF90CF90BD
:10173000BF90AF909F908F9008958F929F92AF929D
:10174000BF92CF92DF92EF92FF920F931F930E946E
:1017500019048BE495E00E949013892B29F08BE407
:1017600095E00E94E515F5CF0E94CE1A60933704EC
:10177000709338048093390490933A04C0903304F2
:10178000D0903404E0903504F090360440910C0180
:1017900050910D014A01A12CB12C8B019C010C1917
:1017A0001D092E093F0980169106A206B30608F00E
:1017B0005DC1D501C4018C0D9D1DAE1DBF1D809363
:1017C000330490933404A0933504B093360480918D
:1017D0006F03909170039C012F5F3F4F3093700314
:1017E00020936F03209171033091720328173907FA
:1017F0000CF064C01092700310926F0380916D031F
:1018000090916E03892B09F459C0E0916503F09122
:101810006603EE0FFF1FE75AFC4F808191810E9403
:10182000541769E370E00E949622CB014091650352
:1018300050916603409356039A012F5F3F4F3093B8
:1018400066032093650320916D0330916E03215050
:1018500031094217530724F0109266031092650372
:101860006F7760935403880F892F881F990B80939B
:10187000550360EF8BE495E00E949F1463E68BE4D0
:1018800095E00E949F14E0915603F0E0E959FC4F67
:1018900060818BE495E00E949F14609154038BE477
:1018A00095E00E949F14609155038BE495E00E949F
:1018B0009F1467EF8BE495E00E949F1412EF6EE097
:1018C000610F1630D8F48BE495E00E94DF1482306B
:1018D000A9F42091440430914504012E02C03595AD
:1018E00027950A94E2F720FF09C0812F0E947D1BF3
:1018F000AC01612F8BE495E00E9409141F5F163044
:10190000F1F680910B0187FF06C080917303882355
:1019100009F46BC01CC010E005E0812F90E020911D
:101920000B01332727FD30952817390774F3089FDB
:10193000F001099FF00D1124EB5FFB4F6181728173
:101940002481438180810E94D2061F5FE6CF1092DE
:101950007A0310927903109274030E94571A009729
:10196000A1F00E94771A809374032091750330913F
:101970007603181614F0882341F0280F311D87FDD7
:101980003A95309376032093750380917503909177
:101990007603282F2F7720937903880F892F881FAC
:1019A000990B8F7780937A0360EF8BE495E00E9428
:1019B0009F1461E68BE495E00E949F146091780388
:1019C0008BE495E00E949F14609179038BE495E08D
:1019D0000E949F1460917A038BE495E00E949F140B
:1019E00067EF8BE495E00E949F1480912D04909105
:1019F0002E04892B09F43AC00E94CE1A6093370452
:101A0000709338048093390490933A0400912F0422
:101A1000109130042091310430913204AB01BC01AB
:101A2000401B510B620B730BE0912D04F0912E04BF
:101A300028EE33E0E29FC001E39F900DF29F900DEE
:101A40001124A0E0B0E084179507A607B70770F44B
:101A50000E94850528E088E190E00FB6F894A895EB
:101A6000809360000FBE20936000FFCF1F910F9105
:101A7000FF90EF90DF90CF90BF90AF909F908F90AE
:101A800008951F920F920FB60F9211242F933F9338
:101A90004F935F936F937F938F939F93AF93BF9376
:101AA000EF93FF938091660487FF05C01092850035
:101AB000109284001AC020916604332727FD3095C8
:101AC0008091650490E0281739077CF480916604C2
:101AD000992787FD9095FC01EE0FFF1FE80FF91F76
:101AE000E959FB4F808186FD15C0809166048F5FA8
:101AF0008093660420916604332727FD30958091FA
:101B0000650490E028173907BCF4809166048C3096
:101B10005CF112C080916604992787FD9095FC01C5
:101B2000EE0FFF1FE80FF91FE959FB4F808160E0BE
:101B30008F730E945B1CD9CF8091840090918500A7
:101B4000049680349C4918F480E49CE905C0809197
:101B5000840090918500049690938900809388007A
:101B60008FEF8093660438C0209184003091850007
:101B700080916604992787FD9095FC01EE0FFF1F69
:101B8000E80FF91FE959FB4F81819281820F931F62
:101B9000909389008093880080916604992787FD3F
:101BA0009095FC01EE0FFF1FE80FF91FE959FB4F5D
:101BB000808186FF11C080916604992787FD9095EA
:101BC000FC01EE0FFF1FE80FF91FE959FB4F808161
:101BD00061E08F730E945B1CFF91EF91BF91AF9109
:101BE0009F918F917F916F915F914F913F912F9135
:101BF0000F900FBE0F901F901895209165042C3008
:101C0000A0F431E0320F30936504FC012083822F71
:101C100090E0FC01EE0FFF1FE80FF91FE959FB4FA1
:101C200088EB9BE09283818308952FEFFC01208352
:101C30000895DF92EF92FF920F931F93CF93DF935C
:101C4000EC01D62E7A01890188818C3008F066C0BB
:101C500061E08D2D0E94221C8881A82FB0E0FD013B
:101C6000EE0FFF1FEA0FFB1FE959FB4F2D2D2F73BE
:101C70009081907C922B908360E272E06E197F09D4
:101C800077FF02C06D5F7F4F759567957595679576
:101C9000698340E659E0401B510B57FF02C04D5F7E
:101CA0005F4F55954795559547954A836CE00E943F
:101CB0008A229CE0899FB001112420E030E0A90134
:101CC000460F571FFA01EE0FFF1FE40FF51FE959EA
:101CD000FB4F908196FD16C02F5F3F4F2C30310592
:101CE00071F781110FC01092800082E08093810013
:101CF0001092850010928400B19A80916F008260EA
:101D000080936F00888190E0FC01EE0FFF1FE80FC9
:101D1000F91FE959FB4F8081806480838881DF91BE
:101D2000CF911F910F91FF90EF90DF90089520E6E3
:101D300039E040E252E00C94190EFC01808190E001
:101D4000FC01EE0FFF1FE80FF91FE959FB4F8081DF
:101D50008F7B80830895FC0180818C3070F59181A8
:101D600028E830E0291B310997FD3395220F331FF6
:101D7000220F331F621773077CF0928128E532E04F
:101D8000291B310997FD3395220F331F220F331F73
:101D9000621773070CF49B0122503109220F331F85
:101DA0004FB7F89490E0FC01EE0FFF1FE80FF91F0A
:101DB000E959FB4F328321834FBF08954F925F92C1
:101DC0006F927F92AF92BF92CF92DF92EF92FF928B
:101DD0000F931F93CF93DF93EC01603282E078077B
:101DE0000CF040C077FD06C0653B71052CF064EB3C
:101DF00070E002C060E070E0898128E830E0281BD4
:101E0000310987FD3395220F331F220F331F5901EC
:101E1000CC24B7FCC094DC2C882777FD8095982FC4
:101E20002A8148E552E0421B510927FD5395440F92
:101E3000551F440F551F2A01662457FC6094762CC9
:101E40007F926F925F924F9214EBE12EF12C00E0A3
:101E500010E020E030E0A9010E9443210F900F9094
:101E60000F900F90CE01DF91CF911F910F91FF90B6
:101E7000EF90DF90CF90BF90AF907F906F905F908A
:101E80004F900C94AB0EFC01808190E0FC01EE0FB2
:101E9000FF1FE80FF91FE959FB4F808186FB882758
:101EA00080F908958091BB0490E02091BC04821BCE
:101EB000910908952091BC048091BB04281750F427
:101EC000E22FF0E0E354FB4F808190E02F5F2093FE
:101ED000BC0408958FEF9FEF0895E091BC048091BA
:101EE000BB04E81730F4F0E0E354FB4F808190E04E
:101EF00008958FEF9FEF08950895CF92DF92EF92AC
:101F0000FF920F931F93CF93DF937C01CB018A0144
:101F100020919704222389F0EB016B01C40ED51E9A
:101F2000CC15DD0569F06991D701ED91FC91019027
:101F3000F081E02DC7010995F3CF642F0E9438117D
:101F4000C801DF91CF911F910F91FF90EF90DF902B
:101F5000CF900895CF93DF931F92CDB7DEB76983FB
:101F6000209197042223D1F020919804203240F050
:101F700021E030E0FC013383228380E090E015C053
:101F800080919904E82FF0E0E656FB4F9981908309
:101F90008F5F809399048093980405C061E0CE011F
:101FA00001960E94381181E090E00F90DF91CF916F
:101FB0000895FC011382128248EE53E060E070E065
:101FC000448355836683778385E193E0918380839F
:101FD00008951092BC041092BB04109299041092C0
:101FE00098040C947B1081E0809397046093BA046A
:101FF000109299041092980408950F93062F21E0EF
:10200000409198046AE974E08091BA040E94E1105A
:102010001092990410929804109297040F910895C9
:102020008F929F92AF92BF92CF92DF92EF92FF92E8
:102030000F931F93CF93DF93EC01F62ED42E48011C
:102040005901EE2019F10E94F30F1E2D143008F0F3
:1020500013E01150B8F0E881F98128E0129FB00137
:102060001124A501940104C05695479537952795ED
:102070006A95D2F7CA01B9010190F081E02DCE0135
:102080000995E7CF60E0CE010E94FD0F4D2D413252
:1020900008F040E22C2D6DEB74E08F2D0E9499101A
:1020A0001092BC048093BB04DF91CF911F910F91DC
:1020B000FF90EF90DF90CF90BF90AF909F908F9068
:1020C0000895CF92EF920F931F93C22EE12C00E060
:1020D00010E098010E9410101F910F91EF90CF9087
:1020E000089521E00C94611061E00C94FD0F8BE8E1
:1020F00094E00C94D90F10924A0581E08093480532
:102100001092470561E082E10E945B1C61E083E17F
:102110000E945B1CE9EBF0E080818E7F80838081F0
:102120008D7F808388E48093B80085E48093BC0031
:102130000895413208F043C090914A059111FCCFB7
:1021400091E090934A05209348052FEF2093DD04FA
:1021500010922205240F2093210590934905909118
:102160004905880F892B8093490580914705813067
:1021700061F410924705809149058093BB008091DE
:10218000BC0083FDF8CF85EC01C085EE8093BC00D8
:1021900080914A058130E1F380912205841710F483
:1021A0004091220523E235E0FB01D9018A2F821BF1
:1021B000841718F48D918193F9CF842F089580E0CE
:1021C00008950F93413208F04AC090914A05911149
:1021D000FCCF92E090934A05009348059FEF9093BF
:1021E000DD041092220540932105FB0163E275E0B6
:1021F000DB019A2F961B941718F491919D93F9CFB8
:102200001092490590914905880F892B80934905C3
:1022100080914705813061F410924705809149050E
:102220008093BB008091BC0083FDF8CF85EC01C09A
:1022300085EE8093BC00222321F080914A058230F4
:10224000E1F38091DD048F3F61F08091DD04803205
:1022500051F08091DD04803341F483E007C081E0D8
:1022600005C080E003C082E001C084E00F910895C2
:10227000613298F420914A05243089F46093FF0478
:10228000FC0181E095E0DC012A2F281B261718F4B9
:1022900021912D93F9CF80E0089581E0089582E0A7
:1022A000089585ED8093BC008091BC0084FDFCCF37
:1022B00010924A05089585EC8093BC0010924A055F
:1022C00008951F920F920FB60F9211242F933F93F0
:1022D0004F935F936F937F938F939F93AF93BF932E
:1022E000EF93FF938091B900887F803609F49EC0F8
:1022F00078F5883209F45DC090F4803109F456C055
:1023000038F4882309F4F5C0883009F44FC0F5C0CB
:10231000883109F44EC0803209F45FC0EEC08034C9
:1023200009F46AC058F4803309F457C0883309F0BF
:10233000E4C08093DD040E945B11DFC0803509F4A6
:102340004FC0883509F45DC0883409F0D6C0D3C0C9
:10235000883909F4C4C0A8F4883709F467C038F490
:10236000883609F463C0803709F460C0C6C0883875
:1023700009F4B5C0803909F45FC0803809F0BDC0E8
:102380005BC0803B09F483C038F4803A09F466C02E
:10239000883A09F47CC0B1C0803C09F4A4C0883CF0
:1023A00009F4A1C0883B09F487C0A7C08091490502
:1023B00010C09091220580912105981770F5E09149
:1023C000220581E08E0F80932205F0E0ED5DFA4F4B
:1023D00080818093BB0085EC83C08093DD048BC03B
:1023E000E091220581E08E0F809322058091BB0051
:1023F000F0E0ED5DFA4F80839091220580912105F8
:102400006BC0E091220581E08E0F809322058091C0
:10241000BB00F0E0ED5DFA4F8083809148058111AB
:102420006AC081E08093470584EA5EC083E08093C0
:102430004A051092DE04CFCF8091DE04803208F08E
:102440004EC0E091DE0481E08E0F8093DE04809127
:10245000BB00F0E0E152FB4F8083BDCF0E945B11D7
:102460008091DE04803230F4E091DE04F0E0E1524D
:10247000FB4F10826091DE0470E0E0914305F09123
:1024800044058FED94E009951092DE0436C084E097
:1024900080934A05109200051092FF04E0914505D3
:1024A000F091460509958091FF04811105C081E0F6
:1024B0008093FF0410920105E091000581E08E0FEA
:1024C00080930005F0E0EF5FFA4F80818093BB00BE
:1024D000909100058091FF04981708F47CCF85E85F
:1024E0008093BC000AC085EC8093BC0010924A0522
:1024F00004C01092DD040E945111FF91EF91BF9131
:10250000AF919F918F917F916F915F914F913F918B
:102510002F910F900FBE0F901F9018950F931F9340
:10252000CF93DF93EC018B0188819981DC01ED91E0
:10253000FC916F770190F081E02D09958881998158
:10254000DC01ED91FC91B801660F672F661F770BD8
:102550006F770190F081E02DDF91CF911F910F9166
:102560000994DC018D919C91DC01ED91FC9101902D
:10257000F081E02D60EF0994DC018D919C91DC01EC
:10258000ED91FC910190F081E02D67EF0994CF93DC
:10259000DF93EC0188819981DC01ED91FC91019040
:1025A000F081E02D69EF099588819981DC01ED9139
:1025B000FC910190F081E02D62E00995888199817C
:1025C000DC01ED91FC910190F081E02D65E0DF915F
:1025D000CF9109941F93CF93DF93EC018A818823D5
:1025E000D9F1CE010E94B11288819981DC01ED916F
:1025F000FC910190F081E02D69E70995888199812E
:10260000DC01ED91FC91AB81BC810190F081E02D6A
:102610006C91099588819981DC01ED91FC91AB81E8
:10262000BC810190F081E02D11966C91099512E02A
:102630008A81181758F4EB81FC81E10FF11D60814C
:1026400070E0CE010E948E121F5FF2CFCE01DF91AB
:10265000CF911F910C94BC12DF91CF911F910895DF
:10266000CF92DF92EF92FF920F931F93CF93DF935E
:102670008C01EB01C42ED22E61E273E0CE010E94E8
:102680003A257C016FE270E0CE010E942F25009771
:1026900039F46CE570E0CE010E942F25009711F00F
:1026A000EC012196E114F10451F4FE0101900020A7
:1026B000E9F7EC1BEF5FD8011296EC9306C0EC1A19
:1026C000FD0AE394E394F801E282D80113968D9118
:1026D0009C9114970E94B723F801E280F12CC70166
:1026E00001960E941F23D80114969C938E931397F2
:1026F000FC01EE0DFF1D1082FC01C082D1821296FA
:102700004C9150E042505109BE010296DF91CF91A9
:102710001F910F91FF90EF90DF90CF900C942025A8
:10272000DC018D919C91DC01ED91FC910480F5819F
:10273000E02D09940F931F93CF93DF93FC01208525
:10274000213749F0293709F049C0DF91CF911F9116
:102750000F910C94EA12FC01EB56FF4F0190F081AF
:10276000E02D309709F450C0DC01A75BBF4F4D91BD
:102770005C919A012150310937FD9A01B901759593
:102780006795062F40E050E020E030E04E5F5F4F5D
:102790002017A0F4EC01C40FD51F1F81DC01A20F8C
:1027A000B31F18961C931897C885D0E8CD9F1019B1
:1027B000112418961C932F5F3F4FE8CFDC01A60F22
:1027C000B11D17962C911797222311F018961C9281
:1027D0000896DF91CF911F910F910994FC01E95662
:1027E000FF4F0190F081E02D309771F0AC01475F11
:1027F0005F4FDC01A75BBF4F6C916150822FDF916F
:10280000CF911F910F910994DF91CF911F910F915B
:1028100008950F931F93CF93DF93EC018A01888172
:102820009981DC01ED91FC916F70606E0190F081F7
:10283000E02D0995B801CE01DF91CF911F910F9145
:102840000C948E120F931F93CF93DF93EC018A01A8
:1028500088819981DC01ED91FC916F706069019034
:10286000F081E02D099588819981DC01ED91FC9141
:10287000602F6F770190F081E02D09958881998113
:10288000DC01ED91FC91B801660F672F661F770B95
:102890000190F081E02DDF91CF911F910F9109946C
:1028A000CF92DF92EF92FF920F931F93CF93DF931C
:1028B00000D01F92CDB7DEB78C01F42E2A833B8364
:1028C00069830E94B112D8018D919C91DC01ED9138
:1028D000FC910190F081E02D698109952A81E22E19
:1028E000C22E3B81D32E8C2D8E198F1540F4F6010C
:1028F00061916F0170E0C8010E948E12F4CFC8018F
:102900000F900F900F90DF91CF911F910F91FF903B
:10291000EF90DF90CF900C94BC129A01613751F484
:10292000FA0101900020E9F73197E41BF50B4E2FD7
:102930000C9450140895AB0161E70C948D14DC01E4
:102940008D919C91DC01ED91FC910190F081E02D45
:102950000994603DC1F028F4603969F0603C79F079
:102960000895643FA1F0653FB1F0603EC9F4FC01F9
:10297000E957FF4F13C0FC01E757FF4F0FC0FC01A1
:10298000E557FF4F0BC0FC01E357FF4F07C0FC01A9
:10299000E157FF4F03C0FC01EF56FF4F51834083C7
:1029A00008956F3F29F4FC01ED56FF4F518340839A
:1029B000089589569F4FFC01518340830895860FE7
:1029C000911DFC01E55BFF4F80810895860F911DED
:1029D000FC01E55BFF4F80818F3709F0408308954C
:1029E000860F911D860F911DFC01E15AFF4F8081DA
:1029F00091810895860F911D860F911DFC01E15A6A
:102A0000FF4F518340830895FC011582168217827F
:102A100080E090E0DF01A80FB91F18961C92019684
:102A200080349105B9F7DF01A85BBF4F1C92119666
:102A30001D921C92ED56FF4F0190F081E02D3097D2
:102A400009F009940895FC01E756FF4F1082FC013C
:102A50001282148213820C940415CF93DF93EC013D
:102A6000FC01E85BFF4F80818823A1F0673F31F4D0
:102A70001082CE01DF91CF910C949A13FE01E75B97
:102A8000FF4F80819181C80FD91F6887019691837C
:102A9000808398C08D81882309F452C067FD50C09F
:102AA00081508D83FE01E80FF11D608781118AC07E
:102AB0008E81882309F486C0803DA1F140F48039DD
:102AC00081F0803CD9F5FE01E557FF4F2EC0843FD1
:102AD000C9F0853FD9F0803E89F5FE01E957FF4FE7
:102AE00003C0FE01E757FF4F0190F081E02D3097C2
:102AF00029F18885698570E090E8899F600D711DD6
:102B000011241AC0FE01E157FF4F03C0FE01EF562A
:102B1000FF4F0190F081E02D309781F0688570E0E3
:102B200089850BC0FE01E357FF4F0190F081E02D36
:102B3000309721F0688570E08F8109951E8242C030
:102B4000862F603F28F4807F90E06F706F8301C014
:102B500090E0803F910549F17CF4803C910509F1BA
:102B600024F480399105D9F02DC0803D9105C9F03C
:102B7000803E9105A1F026C0893F9105E9F03CF423
:102B80009C01245F31092230310548F01BC08F3F82
:102B90009105C1F4CE01DF91CF910C94041592E020
:102BA00001C091E09D838E830DC081E08083C75B6F
:102BB000DF4F1982188206C08BE495E0DF91CF9138
:102BC0000C94C712DF91CF910895CF93DF93EC015E
:102BD00088819981DC01ED91FC910680F781E02DDF
:102BE00009958F3FBFEF9B0731F0682FCE01DF9132
:102BF000CF910C942D15DF91CF9108957F928F92F4
:102C00009F92AF92BF92CF92DF92EF92FF920F937B
:102C10001F93CF93DF93762EEA01680110E0EE2434
:102C2000D7FCE094FE2C4901AA2497FCA094BA2C6E
:102C3000212F30E02C173D0794F4C701B6010E9404
:102C4000FD1A61E0872D0E945B1CC501B4010E9442
:102C5000FD1A60E0872D0E945B1C1F5FE9CFDF91AA
:102C6000CF911F910F91FF90EF90DF90CF90BF9089
:102C7000AF909F908F907F9008950F931F93CF9365
:102C8000DF93EC01FC01E756FF4F8081811126C0E4
:102C900061E08DE00E94221C02ED10E028E230E0AD
:102CA00042E050E06DE0CE010E94FE156AEF70E058
:102CB00080E090E00E94FD1A28E230E045E050E01C
:102CC0006DE0CE010E94FE156DE770E080E090E0BF
:102CD000DF91CF911F910F910C94FD1ADF91CF914D
:102CE0001F910F910895CF93DF93EC0126E082EFBF
:102CF00095E00E94741D82EF95E099838883CE0150
:102D00000E943D16CE010E94C712CE01DF91CF91E5
:102D10000C94EA128BE495E00C942315CF93DF9387
:102D2000DC0170E0FB01E455FF4FE4911496EC9355
:102D30001497842F90E0FC01E455FF4FE491159621
:102D4000EC93159760547F4FFB01C491D0E0CC0FFA
:102D5000DD1FC252DF4FFE014591549117965C93DF
:102D60004E931697FC01E054FF4F849190E0880F3A
:102D7000991F8C529F4FFC01459154911B965C9377
:102D80004E931A97FB016491E62FF0E0EE0FFF1FC0
:102D9000E851FF4F8591949119969C938E931897C3
:102DA000C901253FF1E03F0714F084EF91E049E3CA
:102DB000489F9001499F300D1124245E3F4F1D967E
:102DC0003C932E931C97DF91CF9108950F931F93FF
:102DD000CF93DF93EC01E885F98580819C81892B75
:102DE0008083EE81FF8190818C818095892380830F
:102DF00084E090E00E94371BEE81FF8180819C81FE
:102E0000892B80838AE090E00E94371BEE81FF814E
:102E100090818C81809589238083E885F9859081D4
:102E20008C818095892380830E94DA1A605B794BBC
:102E30008F4F9F4F6E877F87888B998BEA85FB85A5
:102E400080819D81892359F00E94DA1A0E851F85A1
:102E500028893989061717072807390778F7EA8577
:102E6000FB8580819D81892369F40E94DA1A0E8591
:102E70001F8528893989061717072807390778F722
:102E800080E00DC00E94DA1A2C853D85620F731F09
:102E9000811D911D6E877F87888B998B81E0DF91E3
:102EA000CF911F910F9108950F931F93CF93DF93AD
:102EB000EC010E94E616882389F0EA85FB85808173
:102EC0009D81892371F00E94DA1A0E851F85288959
:102ED0003989061717072807390778F720E030E007
:102EE0000CC00E94DA1A2C853D85255031094E858B
:102EF0005F85241B350B260F371FC901DF91CF914A
:102F00001F910F910895CF93DF93EC01842F1B86BF
:102F10001A86198218821E8A1F8A188E198E7F833C
:102F20006E834C875D873F872E8761E00E94221C5D
:102F300061E08E850E94221C198A188A1B8A1A8ACF
:102F40001D8A1C8A82E090E099878887DF91CF9163
:102F50000895EF92FF920F931F93CF93DF93EC01AD
:102F6000842F1B861A86198218821E8A1F8A188E41
:102F7000198E7F836E834C875D873F872E87198BE1
:102F8000088BFB8AEA8A61E00E94221C61E08E8540
:102F90000E94221C61E088890E94221C61E08A89CB
:102FA0000E94221C1D8A1C8A84E090E099878887F1
:102FB000DF91CF911F910F91FF90EF900895CF92E5
:102FC000DF92EF92FF92CF93DF93EC016A017B01D6
:102FD0002E813F81442737FD4095542F60E077E8EC
:102FE00083E993E00E94E022CA01B901A70196019A
:102FF0000E94E0222A833B834C835D83DF91CF9143
:10300000FF90EF90DF90CF9008950F931F93CF9391
:10301000DF93EC018B01888599850297F9F4613083
:10302000710571F02CF461157105C1F460E009C0FF
:103030006230710559F06330710581F460E007C0BA
:1030400061E08C850E945B1C61E005C061E08C85BD
:103050000E945B1C60E08E850E945B1C88859985C0
:103060000497B9F501301105B1F04CF401151105C3
:1030700081F561E08C850E945B1C60E011C002302C
:103080001105B9F00330110521F561E08C850E942E
:103090005B1C60E013C060E08C850E945B1C61E0FB
:1030A0008E850E945B1C61E088890E945B1C60E049
:1030B0000DC060E08C850E945B1C61E08E850E94E3
:1030C0005B1C60E088890E945B1C61E08A890E9429
:1030D0005B1C88859985059709F073C00A30110536
:1030E00008F06FC0F801EE5BFF4F0C94FF2260E028
:1030F0008C850E945B1C61E051C060E08C850E9461
:103100005B1C61E08E850E945B1C60E04BC060E050
:103110008C850E945B1C61E08E850E945B1C60E0D8
:1031200088890E945B1C61E041C060E001C061E0F1
:103130008C850E945B1C61E005C061E08C850E946B
:103140005B1C60E08E850E945B1C60E009C061E052
:103150008C850E945B1C60E08E850E945B1C61E098
:1031600088890E945B1C61E00DC061E08C850E9433
:103170005B1C60E08E850E945B1C61E088890E9478
:103180005B1C60E08A890E945B1C60E013C061E008
:1031900001C060E08C850E945B1C60E08E850E940F
:1031A0005B1C61E088890E945B1C60E08A890E9448
:1031B0005B1C61E08C89DF91CF911F910F910C9482
:1031C0005B1CDF91CF911F910F9108954F925F92F9
:1031D0006F927F928F929F92AF92BF92CF92DF9227
:1031E000EF92FF920F931F93CF93DF93EC01CB01EC
:1031F00077FF04C088279927861B970B6C0116164A
:1032000017062CF481E090E09983888304C0672B33
:1032100011F01982188204E010E08AE0E82EF12C07
:10322000C114D10409F44AC00E94DA1A8E889F881A
:10323000A88CB98C2B013C01481859086A087B08F6
:103240008A809B80AC80BD80481459046A047B044A
:1032500058F36E8B7F8B888F998F288139818A856F
:103260009B852130310559F401969B878A872E81F1
:103270003F818217930771F41B861A860BC0892B36
:1032800021F48E819F819B878A878A859B85019700
:103290009B878A8781E0C81AD108288539858A8565
:1032A0009B852530310511F4B70101C0B8010E949A
:1032B000AA22BC01CE010E940518B2CFDF91CF91A6
:1032C0001F910F91FF90EF90DF90CF90BF90AF9044
:1032D0009F908F907F906F905F904F90089585E0C2
:1032E00090E00895FC01A281B3812C9195819223F5
:1032F00087818223992361F0882379F08085882350
:1033000021F081859285890F818710861286089524
:10331000811103C081E0808708952085211108C0B4
:10332000992311F081E003C0882311F08FEF828789
:103330000895833081F028F4813099F08230A1F033
:1033400008958730A9F08830B9F08430D1F48091A5
:1033500080008F7D03C0809180008F7780938000F4
:10336000089584B58F7702C084B58F7D84BD08959C
:103370008091B0008F7703C08091B0008F7D8093E3
:10338000B00008951F93CF93DF93EC01862F142F85
:1033900041E050E0BE010E94700241E050E0BE01F9
:1033A000812FDF91CF911F910C947002CF93DF9307
:1033B000EC016B874C832E83421709F475C04830AB
:1033C00018F4283008F070C088EF840F863020F49D
:1033D0002850263060F068C04E3030F02E3008F4AF
:1033E00063C0443108F060C0243108F05DC0188625
:1033F0001986A091E705B091E805109729F4D093BC
:10340000E805C093E7050CC01C968D919C911D9713
:10341000009711F0DC01F8CF1D96DC93CE931C973A
:103420001D861C8650E0FA01E054FF4FE491F0E065
:10343000EE0FFF1FEC52FF4F859194919B838A837F
:10344000892B09F431C0FA01E455FF4FE491ED8373
:10345000FA01E856FF4F849181110E9499198E81DB
:1034600090E0FC01E455FF4FE491EF83FC01E85646
:10347000FF4F849181110E94991960E08C810E9414
:10348000221C60E08E810E94221C61E08C810E94DF
:103490005B1C61E08E810E945B1C4E816C81CE01C1
:1034A000DF91CF910C94C219DF91CF910895909143
:1034B000E7058091E8059093E5058093E605E92FFF
:1034C000F82F309769F08185882331F0F093E60575
:1034D000E093E505CF0108950484F585E02DF1CF53
:1034E0001092E6051092E50580E090E00895FC0159
:1034F000818587FF03C091E0980F91879185191608
:1035000014F49150918708951F920F920FB60F9265
:1035100011242F933F938F939F93AF93BF938091E9
:10352000EA059091EB05A091EC05B091ED05309185
:10353000E90523E0230F2D3720F40196A11DB11DCD
:1035400005C026E8230F0296A11DB11D2093E905B1
:103550008093EA059093EB05A093EC05B093ED05FD
:103560008091EE059091EF05A091F005B091F105E5
:103570000196A11DB11D8093EE059093EF05A093D8
:10358000F005B093F105BF91AF919F918F913F915D
:103590002F910F900FBE0F901F9018952FB7F89492
:1035A0006091EA057091EB058091EC059091ED0535
:1035B0002FBF08953FB7F8948091EE059091EF05E5
:1035C000A091F005B091F10526B5A89B05C02F3F4D
:1035D00019F00196A11DB11D3FBF6627782F892FD5
:1035E0009A2F620F711D811D911D42E0660F771F9A
:1035F000881F991F4A95D1F708958F929F92AF9295
:10360000BF92CF92DF92EF92FF926B017C010E94FA
:10361000DA1A4B015C01C114D104E104F104F1F0A8
:103620000E9479220E94DA1A681979098A099B098D
:10363000683E73408105910570F321E0C21AD108FC
:10364000E108F10888EE880E83E0981EA11CB11CE9
:10365000C114D104E104F10429F7DDCFFF90EF900C
:10366000DF90CF90BF90AF909F908F900895823061
:10367000910538F0880F991F880F991F05970197BA
:10368000F1F70895789484B5826084BD84B5816033
:1036900084BD85B5826085BD85B5816085BDEEE65A
:1036A000F0E0808181608083E1E8F0E01082808139
:1036B00082608083808181608083E0E8F0E08081A7
:1036C00081608083E1EBF0E0808184608083E0EBC7
:1036D000F0E0808181608083EAE7F0E080818460AF
:1036E000808380818260808380818160808380810B
:1036F000806880831092C10008958E3008F08E504B
:10370000877020910E0190E4299F90011124822B53
:1037100080937C0080917A00806480937A0080910D
:103720007A0086FDFCCF809178002091790090E0AE
:10373000922B08951F93CF93DF93182FEB0161E035
:103740000E94221C209711F460E004C0CF3FD105F5
:1037500039F461E0812FDF91CF911F910C945B1CB4
:10376000E12FF0E0E856FF4FE491E330F9F048F440
:10377000E130B9F0E230A1F584B5806284BDC8BD06
:1037800034C0E730E9F0E83019F1E43049F58091D0
:103790008000806280938000D0938B00C0938A0069
:1037A00024C084B5806884BDC7BD1FC080918000DF
:1037B000806880938000D0938900C093880015C0F2
:1037C0008091B00080688093B000C093B3000DC0BA
:1037D0008091B00080628093B000C093B40005C0B7
:1037E000C038D1050CF0B5CFAFCFDF91CF911F918D
:1037F0000895833081F028F4813099F08230A1F06F
:1038000008958730A9F08830B9F08430D1F48091E0
:1038100080008F7D03C0809180008F77809380002F
:10382000089584B58F7702C084B58F7D84BD0895D7
:103830008091B0008F7703C08091B0008F7D80931E
:10384000B0000895CF93DF9390E0FC01E455FF4F63
:103850002491FC01E054FF4F8491882349F190E0CA
:10386000880F991FFC01E851FF4FA591B491825236
:103870009F4FFC01C591D4919FB7611108C0F89486
:103880008C91209582238C93888182230AC0623098
:1038900051F4F8948C91322F309583238C93888146
:1038A000822B888304C0F8948C91822B8C939FBFC9
:1038B000DF91CF9108950F931F93CF93DF931F92C2
:1038C000CDB7DEB7282F30E0F901E856FF4F8491DD
:1038D000F901E455FF4F1491F901E054FF4F0491B1
:1038E0000023C9F0882321F069830E94F91B6981B4
:1038F000E02FF0E0EE0FFF1FE252FF4FA591B491D1
:103900009FB7F8948C91611103C01095812301C079
:10391000812B8C939FBF0F90DF91CF911F910F91BF
:103920000895FC01818D228D90E0805C9F4F821B69
:1039300091098F7399270895FC01918D828D9817B5
:1039400031F0828DE80FF11D858D90E008958FEFA5
:103950009FEF0895FC01918D828D981761F0828D03
:10396000DF01A80FB11D5D968C91928D9F5F9F73B3
:10397000928F90E008958FEF9FEF08958EE29EE181
:10398000892B49F080E090E0892B29F00E942E1EBF
:1039900081110C9400000895FC01848DDF01A80FB3
:1039A000B11DA35ABF4F2C91848D90E001968F7367
:1039B0009927848FA689B7892C93A089B1898C9186
:1039C00080648C93938D848D981306C00288F3894C
:1039D000E02D80818F7D80830895CF93DF93EC016C
:1039E000888D8823C9F0EA89FB89808185FD05C01F
:1039F000A889B9898C9186FD0FC00FB607FCF5CF59
:103A0000808185FFF2CFA889B9898C9185FFEDCFA0
:103A1000CE010E94CC1CE7CFDF91CF910895CF92C9
:103A2000DF92FF920F931F93CF93DF931F92CDB737
:103A3000DEB76C0181E0D60158968C9358975B965F
:103A40009C915B975C968C915C97981307C05096FD
:103A5000ED91FC915197808185FD2EC0F601038D7B
:103A600010E00F5F1F4F0F731127F02EF601848DAA
:103A7000F81211C00FB607FCF9CFD6015096ED91A0
:103A8000FC915197808185FFF1CFC60169830E9427
:103A9000CC1C6981EBCF838DE80FF11DE35AFF4FFA
:103AA0006083D6015B960C935B975296ED91FC91E7
:103AB0005397808180620CC0D6015696ED91FC919F
:103AC000579760835096ED91FC9151978081806467
:103AD000808381E090E00F90DF91CF911F910F9153
:103AE000FF90DF90CF900895BF92CF92DF92EF9238
:103AF000FF92CF93DF93EC016A017B01B22EE8893C
:103B0000F98982E08083411581EE580761057105CE
:103B1000A1F060E079E08DE390E0A70196010E94BA
:103B2000BE222150310941095109569547953795D3
:103B30002795211580E1380798F0E889F9891082E6
:103B400060E874E88EE190E0A70196010E94BE2231
:103B500021503109410951095695479537952795C7
:103B6000EC85FD853083EE85FF852083188EEC89FA
:103B7000FD89B082EA89FB89808180618083EA893E
:103B8000FB89808188608083EA89FB8980818068E5
:103B90008083EA89FB8980818F7D8083DF91CF914B
:103BA000FF90EF90DF90CF90BF9008951F920F92FB
:103BB0000FB60F9211242F938F939F93EF93FF9340
:103BC000E0910206F09103068081E0910806F091F1
:103BD000090682FD12C0908180910B068F5F8F7362
:103BE00020910C06821751F0E0910B06F0E0EE50A8
:103BF000FA4F958F80930B0601C08081FF91EF9162
:103C00009F918F912F910F900FBE0F901F9018953D
:103C10001F920F920FB60F9211242F933F934F9341
:103C20005F936F937F938F939F93AF93BF93EF9324
:103C3000FF9382EF95E00E94CC1CFF91EF91BF9122
:103C4000AF919F918F917F916F915F914F913F9134
:103C50002F910F900FBE0F901F90189582EF95E057
:103C60000E94911C21E0892B09F420E0822F089505
:103C70001092F5051092F40588EE93E0A0E0B0E014
:103C80008093F6059093F705A093F805B093F90596
:103C900080E393E09093F3058093F20585EC90E048
:103CA0009093FF058093FE0584EC90E090930106CD
:103CB0008093000680EC90E09093030680930206C8
:103CC00081EC90E0909305068093040682EC90E0EE
:103CD000909307068093060686EC90E09093090681
:103CE0008093080610920B0610920C0610920D0697
:103CF00010920E060895CF92DF92EF92FF920F93EB
:103D00001F93CF93DF937C016A01EB0100E010E089
:103D10000C151D0571F06991D701ED91FC91019091
:103D2000F081E02DC7010995892B19F00F5F1F4F16
:103D3000EFCFC801DF91CF911F910F91FF90EF90CE
:103D4000DF90CF9008953F924F925F926F927F9253
:103D50008F929F92AF92BF92CF92DF92EF92FF929B
:103D60000F931F93CF93DF9300D000D0CDB7DEB772
:103D70008B0129013A0190910F01981721F09F3F83
:103D800009F0DAC104C0E2EFF0E0349081C0809322
:103D90000F01E2EFF0E0E491EF3F09F4CDC1E13033
:103DA00031F1E23009F44BC0E11171C014BC15BC13
:103DB00094B5926094BD95B5916095BD282F30E083
:103DC000F901E054FF4FE491F0E0EE0FFF1FE252E3
:103DD000FF4F4591549150939F0640939E06F901E1
:103DE000E455FF4F249120939D06312C53C010922F
:103DF00080001092810090918100986090938100E2
:103E000090918100916090938100282F30E0F9011A
:103E1000E054FF4FE491F0E0EE0FFF1FE252FF4F3E
:103E2000459154915093980640939706F901E455B3
:103E3000FF4F249120939606332433942BC0109285
:103E4000B0001092B1009091B00092609093B000D9
:103E50009091B10091609093B100282F30E0F9016A
:103E6000E054FF4FE491F0E0EE0FFF1FE252FF4FEE
:103E7000459154915093910640939006F901E45571
:103E8000FF4F249120938F0652E0352E03C03E2E23
:103E900037FC52C161E00E94221C4801A12CB12CC8
:103EA000832D8D7F09F0C7C060E072E18AE790E062
:103EB000A50194010E94E02229833A834B835C830D
:103EC00069017A0181E0C81AD108E108F1089FEF81
:103ED000C916D104E104F10409F008F49AC060E4C1
:103EE00072E48FE090E0A50194010E94E022690154
:103EF0007A01E1E0CE1AD108E108F108F2E03F12C0
:103F000019C08FEFC816D104E104F10409F008F4D8
:103F10008AC060E970ED83E090E0A50194010E9401
:103F2000E02269017A0191E0C91AD108E108F1089B
:103F300083E001C082E0EFEFCE16D104E104F1048A
:103F400009F008F467C068E478EE81E090E0A5012C
:103F500094010E94E02269017A01F1E0CF1AD108B0
:103F6000E108F1083320E1F082E038121BC09FEF36
:103F7000C916D104E104F10409F008F4DBC064E2DD
:103F800074EF80E090E0A50194010E94E0226901B5
:103F90007A01E1E0CE1AD108E108F10885E003C01A
:103FA00083E001C084E0FFEFCF16D104E104F10407
:103FB00089F180F162E17AE780E090E0A501940167
:103FC0000E94E02269017A0181E0C81AD108E10863
:103FD000F108311002C084E001C086E09FEFC916ED
:103FE000D104E104F104B1F0A8F0C980DA80EB80DB
:103FF000FC809AE0F594E794D794C7949A95D1F70A
:10400000E1E0CE1AD108E108F108332031F087E071
:104010000BC081E0332011F007C085E095B5987F93
:10402000982B95BD38C082E09091B100987F982B75
:104030009093B10030C060E072E18AE790E0A501A2
:1040400094010E94E02269017A01F1E0CF1AD108BF
:10405000E108F108C114D10481E0E806F10488F018
:1040600068E478EE81E090E0A50194010E94E022EE
:1040700069017A0191E0C91AD108E108F10893E0D9
:1040800001C091E0E1E03E1206C080918100887F8E
:10409000892B80938100411451046104710471F0F3
:1040A000D801AA0FBB1FA30192010E94052328EE8D
:1040B00033E040E050E00E94BE2203C02FEF3FEF0C
:1040C000A901F1E03F16A1F082E0381619F1311094
:1040D00033C0C7BC2093A0063093A1064093A2062C
:1040E0005093A30680916E00826080936E0024C07E
:1040F000D0928900C09288002093990630939A0646
:1041000040939B0650939C0680916F008260809341
:104110006F0012C0C092B3002093920630939306B2
:10412000409394065093950680917000826080932E
:10413000700002C084E078CF0F900F900F900F9026
:10414000DF91CF911F910F91FF90EF90DF90CF9073
:10415000BF90AF909F908F907F906F905F904F90A7
:104160003F900895813039F018F0823051F0089571
:1041700010926E00089580916F008D7F80936F0084
:104180000895809170008D7F8093700081E080930E
:10419000B0008091B100887F84608093B10010925C
:1041A000B3000895CF93C82F80910F018C1307C0DF
:1041B000E2EFF0E084919FEF90930F0101C08FEF49
:1041C0000E94B22060E08C2FCF910C945B1C1F9258
:1041D0000F920FB60F9211242F933F934F935F933B
:1041E0006F937F938F939F93AF93BF93EF93FF93BF
:1041F0008091920690919306A0919406B0919506B5
:10420000892B8A2B8B2B51F190918F06E091900690
:10421000F091910680818927808380919206909108
:104220009306A0919406B0919506181619061A06E1
:104230001B06C4F48091920690919306A091940677
:10424000B09195060197A109B109809392069093C8
:104250009306A0939406B093950604C080910F0135
:104260000E94D220FF91EF91BF91AF919F918F91CA
:104270007F916F915F914F913F912F910F900FBE62
:104280000F901F9018954F925F926F927F92AF920E
:10429000BF92CF92DF92EF92FF920F931F93CF9333
:1042A000DF93CDB7DEB729013A01621B730B840B94
:1042B000950B29893A894B895C892A193B094C0954
:1042C0005D09298B3A8B4B8B5C8B9B01AC01698917
:1042D0007A898B899C890E947A22E418F50806095C
:1042E0001709A80197010E94E0222A0D3B1D4C1DD1
:1042F0005D1DCA01B901DF91CF911F910F91FF9010
:10430000EF90DF90CF90BF90AF907F906F905F90D5
:104310004F900895FC01808191810C94B723CF9335
:10432000DF93EC0188819981009711F00E94B723F7
:10433000198218821D821C821B821A82DF91CF9102
:1043400008950F931F93CF93DF93EC018B016F5F61
:104350007F4F888199810E944624009731F099838C
:1043600088831B830A8381E001C080E0DF91CF91C5
:104370001F910F910895CF93DF93EC01888199816C
:10438000892B29F08A819B818617970760F4CE01DB
:104390000E94A121882341F08C819D81892B19F4F1
:1043A000E881F981108281E0DF91CF910895EF9249
:1043B000FF920F931F93CF93DF93EC017B018A0150
:1043C000BA010E94BB21811104C0CE010E948F213D
:1043D00007C01D830C83B701888199810E9419252C
:1043E000CE01DF91CF911F910F91FF90EF90089533
:1043F000CF93DF93EC016115710561F0FB01019032
:104400000020E9F7AF0141505109461B570B0E94AC
:10441000D72102C00E948F21CE01DF91CF91089554
:104420000F931F93CF93DF93CDB7DEB7A2970FB64D
:10443000F894DEBF0FBECDBF8C01CB01BA01F801ED
:1044400011821082138212821582148230E0AE0132
:104450004F5F5F4F0E945425BE016F5F7F4FC801C1
:104460000E94F821A2960FB6F894DEBF0FBECDBF12
:10447000DF91CF911F910F9108950F931F93CF93C9
:10448000DF93EB0141155105E9F02097D9F0FC01CC
:104490006481758126173707A0F4621B730B8A01AC
:1044A000015011096017710708F48B01FC0160814C
:1044B0007181620F731FA801CE010E942025C00FD9
:1044C000D11F1882DF91CF911F910F910895089508
:1044D0000E94421B0E9467220E94E705CEEBDCE1AE
:1044E0000E949D0B2097E1F30E94BE1CF9CF0C9413
:1044F0001F230895DB018F939F930E940523BF9193
:10450000AF91A29F800D911DA39F900DB29F900D22
:1045100011240895991B79E004C0991F961708F09B
:10452000961B881F7A95C9F780950895AA1BBB1B17
:1045300051E107C0AA1FBB1FA617B70710F0A61BA3
:10454000B70B881F991F5A95A9F780959095BC01C4
:10455000CD01089597FB072E16F4009407D077FD40
:1045600009D00E94962207FC05D03EF490958195D3
:104570009F4F0895709561957F4F0895A1E21A2E7F
:10458000AA1BBB1BFD010DC0AA1FBB1FEE1FFF1FF7
:10459000A217B307E407F50720F0A21BB30BE40B47
:1045A000F50B661F771F881F991F1A9469F760958E
:1045B0007095809590959B01AC01BD01CF01089548
:1045C000052E97FB1EF400940E94F72257FD07D09A
:1045D0000E94BE2207FC03D04EF40C94F7225095A3
:1045E0004095309521953F4F4F4F5F4F08959095DF
:1045F0008095709561957F4F8F4F9F4F0895EE0F77
:10460000FF1F0590F491E02D09940E941023A59FAF
:10461000900DB49F900DA49F800D911D11240895BD
:10462000A29FB001B39FC001A39F700D811D1124F3
:10463000911DB29F700D811D1124911D0895CF937E
:10464000DF938230910510F482E090E0E091A606BD
:10465000F091A70620E030E0A0E0B0E0309739F11B
:104660004081518148175907B8F04817590771F42C
:1046700082819381109729F013969C938E931297C1
:104680002CC09093A7068093A60627C0211531055C
:1046900031F04217530718F0A901DB0101C0EF0107
:1046A0009A01BD01DF010280F381E02DD7CF2115F2
:1046B0003105F9F0281B390B2430310580F48A814B
:1046C0009B816115710521F0FB019383828304C0F6
:1046D0009093A7068093A606FE01329644C0FE0181
:1046E000E20FF31F8193919322503109398328837C
:1046F0003AC02091A4063091A506232B41F42091C5
:104700000201309103013093A5062093A406209165
:104710000001309101012115310541F42DB73EB75B
:104720004091040150910501241B350BE091A40632
:10473000F091A506E217F307A0F42E1B3F0B2817F4
:10474000390778F0AC014E5F5F4F2417350748F00A
:104750004E0F5F1F5093A5064093A406819391933B
:1047600002C0E0E0F0E0CF01DF91CF910895CF9358
:10477000DF93009709F487C0FC01329713821282FD
:10478000C091A606D091A706209781F4208131819F
:10479000280F391F8091A4069091A50682179307D0
:1047A00079F5F093A506E093A4066DC0DE0120E044
:1047B00030E0AE17BF0750F412964D915C911397FD
:1047C0009D014115510509F1DA01F3CFB383A283AD
:1047D00040815181840F951F8A179B0771F48D9139
:1047E0009C911197840F951F029691838083129656
:1047F0008D919C911397938382832115310529F420
:10480000F093A706E093A6063EC0D9011396FC9349
:10481000EE9312974D915D91A40FB51FEA17FB0718
:1048200079F480819181840F951F0296D9011196A8
:104830009C938E938281938113969C938E9312976F
:10484000E0E0F0E08A819B81009719F0FE01EC0125
:10485000F9CFCE01029628813981820F931F2091D2
:10486000A4063091A5062817390769F4309729F472
:104870001092A7061092A60602C013821282D0934D
:10488000A506C093A406DF91CF910895A0E0B0E003
:10489000ECE4F4E20C94A425EC01CB01209719F48C
:1048A0000E941F23B8C0FE01E60FF71F9E01225091
:1048B0003109E217F30708F4ACC0D9010D911C913E
:1048C000119706171707B8F00530110508F49FC0B7
:1048D000A801445051094617570708F498C00250E0
:1048E0001109061B170B019311936D937C93CF0154
:1048F0000E94B7238CC05B01A01AB10A4E01800E42
:10490000911EA091A606B091A706612C712C60E0C3
:1049100070E0109709F449C0A815B905C9F5ED90E4
:10492000FC901197670142E0C40ED11CCA14DB044D
:1049300078F147018A189B08640142E0C40ED11C3B
:104940001296BC9012971396AC91B5E0CB16D10499
:1049500040F0B282A38391828082D9018D939C938F
:1049600009C00E5F1F4F0E0D1F1DF901118300833B
:10497000EB2DFA2F6115710531F0DB011396FC93D5
:10498000EE93129744C0F093A706E093A6063FC0AB
:104990006D917C9111976616770608F43B01BD0175
:1049A00012960D90BC91A02DB4CF6091A406709189
:1049B000A50668157905E9F468167906D0F44091E2
:1049C0000001509101014115510541F44DB75EB709
:1049D0006091040170910501461B570BE417F50720
:1049E000C0F4F093A506E093A406F90191838083B7
:1049F0000EC00E941F237C01009759F0A801BE0140
:104A00000E941025CE010E94B723C70104C0CE0129
:104A100002C080E090E0CDB7DEB7EEE00C94C02598
:104A2000FB01DC0102C001900D9241505040D8F7CB
:104A30000895FB01DC0101900D920020E1F708953B
:104A4000FB01DC014150504048F001900D920020E4
:104A5000C9F701C01D9241505040E0F70895FC0194
:104A600081E090E00190061609F4CF010020D1F713
:104A700001970895FB0151915523A9F0BF01DC0175
:104A80004D9145174111E1F759F4CD0101900020F6
:104A900049F04D9140154111C9F3FB014111EFCF90
:104AA00081E090E0019708952532310520F422300D
:104AB00010F00C945F25FA011082CA010895BB27FB
:104AC0002A3051F4992342F4BDE290958095709577
:104AD00061957F4F8F4F9F4F0C946F25BB27FA0135
:104AE000A62F6217710581059105330B30FB66F027
:104AF000AA27660F771F881F991FAA1FA21710F0F9
:104B0000A21B63953850A9F7A05DAA3308F0A95DF0
:104B1000A19336F7B111B1931082CA010C9490257C
:104B2000DC01FC01672F71917723E1F7329704C014
:104B30007C916D9370836291AE17BF07C8F308959F
:104B40002F923F924F925F926F927F928F929F929D
:104B5000AF92BF92CF92DF92EF92FF920F931F938B
:104B6000CF93DF93CDB7DEB7CA1BDB0B0FB6F8943C
:104B7000DEBF0FBECDBF09942A88398848885F847C
:104B80006E847D848C849B84AA84B984C884DF80ED
:104B9000EE80FD800C811B81AA81B981CE0FD11DD1
:104BA0000FB6F894DEBF0FBECDBFED010895F894A7
:024BB000FFCF35
:104BB2000000A80680000100000021FF130001FF91
:104BC2004D617820736572766F73206174746163CE
:104BD20068656400556E6B6E6F776E2070696E202B
:104BE2006D6F646500433A5C50726F6772616D6D00
:104BF2006174696F6E5C61726475696E6F5C706519
:104C020072736F5C332E53637261746368322E3039
:104C12005C4669726D617461506C75735F73326169
:104C2200696F2D50794D61746141494F5C466972DB
:104C32006D617461506C75735F733261696F2D5071
:104C4200794D61746141494F2E696E6F004932435B
:104C52003A20546F6F206D616E79206279746573AA
:104C6200207265636569766564004932433A20546F
:104C72006F6F206665772062797465732072656351
:104C820065697665640031302D62697420616464FF
:104C920072657373696E67206E6F742073757070BE
:104CA2006F7274656400746F6F206D616E7920712C
:104CB2007565726965730050494E475F434F4E46B2
:104CC2004947204572726F723A2045786365656480
:104CD2006564206E756D626572206F6620737570F3
:104CE200706F727465642070696E6720646576699E
:104CF200636573005354455050455220434F4E460E
:104D02004947204572726F723A2057726F6E672060
:104D12004E756D626572206F6620617267756D6592
:104D22006E74730061726763203D200053544550D6
:104D3200504552204F504552415445204572726FA2
:104D4200723A204D4F544F52204E4F5420434F4EF3
:104D52004649475552454400535445505045522008
:104D62004649524D574152452056455253494F4E9E
:104D7200204572726F723A204E4F204D4F544F525F
:104D82005320434F4E4649475552454400535445DC
:104D92005050455220434F4E464947204572726F4C
:104DA200723A20554E4B4E4F574E20535445505059
:104DB200455220434F4D4D414E44005A0450044643
:104DC2000400000000AA0F7D0F520F5A0F6D0F7CD6
:104DD2000F2E6370700000000000721900000000C6
:0C4DE2000F1D7B1E911CAA1C9C1CED1CCC
:107E0000112484B714BE81FFF0D085E080938100F7
:107E100082E08093C00088E18093C10086E0809377
:107E2000C20080E18093C4008EE0C9D0259A86E02C
:107E300020E33CEF91E0309385002093840096BBD3
:107E4000B09BFECF1D9AA8958150A9F7CC24DD24C4
:107E500088248394B5E0AB2EA1E19A2EF3E0BF2EE7
:107E6000A2D0813461F49FD0082FAFD0023811F036
:107E7000013811F484E001C083E08DD089C08234E0
:107E800011F484E103C0853419F485E0A6D080C0E4
:107E9000853579F488D0E82EFF2485D0082F10E0AE
:107EA000102F00270E291F29000F111F8ED06801E7
:107EB0006FC0863521F484E090D080E0DECF843638
:107EC00009F040C070D06FD0082F6DD080E0C81688
:107ED00080E7D80618F4F601B7BEE895C0E0D1E017
:107EE00062D089930C17E1F7F0E0CF16F0E7DF06D8
:107EF00018F0F601B7BEE89568D007B600FCFDCFD4
:107F0000A601A0E0B1E02C9130E011968C91119780
:107F100090E0982F8827822B932B1296FA010C0160
:107F200087BEE89511244E5F5F4FF1E0A038BF0790
:107F300051F7F601A7BEE89507B600FCFDCF97BE46
:107F4000E89526C08437B1F42ED02DD0F82E2BD052
:107F50003CD0F601EF2C8F010F5F1F4F84911BD097
:107F6000EA94F801C1F70894C11CD11CFA94CF0C13
:107F7000D11C0EC0853739F428D08EE10CD085E9AC
:107F80000AD08FE07ACF813511F488E018D01DD067
:107F900080E101D065CF982F8091C00085FFFCCF94
:107FA0009093C60008958091C00087FFFCCF809118
:107FB000C00084FD01C0A8958091C6000895E0E648
:107FC000F0E098E1908380830895EDDF803219F02E
:107FD00088E0F5DFFFCF84E1DECF1F93182FE3DFCA
:107FE0001150E9F7F2DF1F91089580E0E8DFEE27F6
:047FF000FF270994CA
:027FFE00040479
:0400000300007E007B
:00000001FF
