:100000000C9427010C944F010C944F010C944F0158
:100010000C944F010C944F010C944F010C944F0120
:100020000C944F010C942B030C9417260C94A924C8
:100030000C944F010C944F010C944F010C944F0100
:100040000C944F010C94B10E0C944F010C944F0181
:100050000C944F010C944F010C944F010C94B31B62
:100060000C944F010C944F010C944F010C944F01D0
:100070000C944F010C944F010C944F010C944F01C0
:100080000C94FF210C944F010C944F010C944F01E0
:100090000C94D1120C944F010C944F010C944F010D
:1000A0000C944F010C944F010C944F01650674069B
:1000B000580682069B06CE06C006CE06CA06B606BF
:1000C000C606C8069C19A219AC19BA19BC19C219DE
:1000D000CC19DA19EC19EE19D21AD51AC81ACC1A99
:1000E000F01AF01AF01AF01AD91ADD1AE11AE71A02
:1000F000EB1A1E1D231D281D321D3C1D861D861D4D
:10010000861D461D501D5A1D641D711D861D791DBD
:10011000A71DAA1D991D9D1DA31DCB1DCB1DCB1D6C
:10012000AE1DB21DB61DBC1DC01DCB1DC61D0706D4
:1001300005040100080A0B0C0D090000000200096B
:100140000F0000030401000C00000000000000008C
:1001500000000000000000000004080201104080C0
:10016000401020408040800802040180402010029E
:1001700001108010204040200404040404030405FE
:100180000202020204030202020206060606060634
:1001900004040202020404000000002300260029D7
:1001A000002C002F0000000000250028002B002E4E
:1001B00000310000000000240027002A002D00303C
:1001C00000080B0002020201000904000001020203
:1001D0000000052400100105240101010424020689
:1001E00005240600010705810310004009040100F1
:1001F000020A000000070502024000000705830212
:100200004000000312010002EF0201404123378049
:10021000000101020301120100020000004041231D
:10022000378000010102030141726475696E6F201D
:100230004C4C430041726475696E6F204D69637266
:100240006F00040309042708E711AF174B1F11249F
:100250001FBECFEFDAE0DEBFCDBF13E0A0E0B1E01C
:10026000E8ECF7E502C005900D92A634B107D9F786
:1002700026E0A6E4B3E001C01D92AC38B207E1F776
:1002800012E0CEE4D2E004C02297FE010E940C29C5
:10029000C634D107C9F70E94D4270C94E22B0C94E2
:1002A00000001F93CF93DF93162F843008F06CC0AB
:1002B000982F990F990F990F985F9F3108F09EE141
:1002C000D82FDD0FDD0FDD0F8D2FC0E041E0891746
:1002D000C8F4E82FF0E0DF01A059BB4F2C91223089
:1002E00070F4C42BEE0FFF1FE05DFB4F21E030E008
:1002F000542F512311F420E030E031832083440F48
:100300008F5FE5CFC0FF05C0612F61708D2F0E9408
:10031000051EC1FF06C0612F627081E08D0F0E9433
:10032000051EC2FF06C0612F647082E08D0F0E941F
:10033000051EC3FF06C0612F687083E08D0F0E9409
:10034000051EC4FF06C0612F607184E08D0F0E94FE
:10035000051EC5FF06C0612F607285E08D0F0E94EB
:10036000051EC6FF06C0612F607486E08D0F0E94D7
:10037000051EC7FF09C0612F607887E08D0FDF91F0
:10038000CF911F910C94051EDF91CF911F9108957D
:100390000F931F93CF93DF93EB018E3178F5082FE6
:1003A00010E0F801E059FB4F9081933089F09430D0
:1003B00029F5F801EB56FC4F208130E0C901880F88
:1003C000991F820F931F8D549C4F0E944E100FC097
:1003D000833051F09BEF980F923030F097EF980FE9
:1003E000933010F08D3019F4BE010E94F81CF80112
:1003F000EE0FFF1FE05DFB4FD183C083DF91CF91F4
:100400001F910F910895CF93C82F8C3058F54091CC
:1004100096045091970421E030E0082E02C0220F8C
:10042000331F0A94E2F7672B49F420953095242373
:100430003523309397042093960414C0242B352B36
:10044000309397042093960480915D0381110AC034
:100450008C2F0E94C71CAC016C2F8DE995E0CF91C9
:100460000C947915CF910895CF93DF93DC01FB01B4
:100470002283518340831296CD91DC91139788811A
:100480009381892B888382818D7F813041F41596F9
:100490008C9115979381892B15968C931597828152
:1004A0008150823040F416968C9116979381892B57
:1004B00016968C9316978091680014969C91892BC0
:1004C00080936800DF91CF910895CF92DF92FF92E1
:1004D0000F931F93CF93DF9300D01F92CDB7DEB75A
:1004E0006C01E62FF0E0E75AFE4FF490FC018085A6
:1004F0009185009779F08C01FC0183818F1106C0F2
:10050000B801C6010E94340280E02FC0F801858145
:100510009681EFCF87E090E02B8349835A830E9436
:10052000E727DC012B8149815A81009721F4109241
:1005300002008FEF1AC012962C93129716961C92F7
:100540001E9215971396FC921397F601808591855C
:10055000892B19F4B187A08703C0F801B683A5835E
:10056000BD01C6010E94340281E00F900F900F90F0
:10057000DF91CF911F910F91FF90DF90CF90089561
:10058000242FE82FF0E0E858FE4FE491EE23D9F055
:1005900061157105C1F0F0E03297E330F10540F4E8
:1005A000EE0FFF1FEB5EFC4F0190F081E02D02C0CB
:1005B000E0E0F0E0A081B1819C919783AB01682FCE
:1005C000CF010C9465028FEF0895FF920F931F9354
:1005D000CF93DF93EC018091B6049F812D813E8102
:1005E000F82EF094F3222823F22A9827F9228F83F9
:1005F0000885198501151105D9F0D80113969C912C
:100600008F2D892389F08091B604892391E009F424
:1006100090E0F801948380819181DC01ED91FC915F
:100620000190F081E02D0995F80105811681E2CF56
:100630008BB39C81892349F09BB3982B9BBBE881AA
:10064000F98180818093B604C6CFDF91CF911F914D
:100650000F91FF9008951F920F920FB60F921124E1
:100660002F933F934F935F936F937F938F939F93BA
:10067000AF93BF93EF93FF93E091AC04F091AD047F
:1006800080818093B6048CEA94E00E94E502FF9199
:10069000EF91BF91AF919F918F917F916F915F91FA
:1006A0004F913F912F910F900FBE0F901F90189573
:1006B000DB019A01909187039C30D0F5409188032B
:1006C000682F70E0442369F0E42FF0E0E857FC4F16
:1006D0008081FB01EB56FC4F80834150409388039F
:1006E00007C0FB01EB56FC4F90839F5F90938703FD
:1006F000FB01EB56FC4F1A161B067CF41216130670
:1007000064F4408150E0CA01880F991F840F951F3F
:10071000AD018D549C4F0C94890F208130E0C901AC
:10072000880F991F820F931F8D549C4F0C940710B4
:1007300063E271E08DE995E00C940816CF93DF93A6
:10074000C82FD0E0CB56DC4F288130E0C901880F9C
:10075000991F820F931F8D549C4F0E940D1088810A
:1007600090918703891306C0882379F08150809384
:1007700087030BC0992349F0E0918803EF5FE09372
:100780008803F0E0E857FC4F80838FEF8883DF9188
:10079000CF9108951F93CF93DF93162FC82FD0E0EA
:1007A000FE01E459FB4F90811923C257DB4F4111E1
:1007B00003C09881911741F0412F50E0682F8DE9D7
:1007C00095E00E9492151883DF91CF911F910895B3
:1007D000EF92FF920F931F93CF93DF93E82E83E066
:1007E0008E1508F475C02E2D30E0F901EE56FB4F42
:1007F0006083672B09F46CC0F901E459FB4FF0806A
:100800000E2D000F000F000FF0FE52C0802F0E942F
:100810003B1E892B09F44CC011E0C02FD0E0F1FE43
:1008200007C081E0800F0E943B1E892B09F042C067
:10083000F2FE06C082E0800F0E943B1E892BE1F58C
:10084000F3FE06C083E0800F0E943B1E892BB1F5AA
:10085000F4FE06C084E0800F0E943B1E892B81F5C8
:10086000F5FE06C085E0800F0E943B1E892B51F5E6
:10087000C831D10541F0F6FE06C086E0800F0E9427
:100880003B1E892B09F5679744F4F7FE06C087E005
:10089000800F0E943B1E892BC9F441E0612F8E2DF1
:1008A000DF91CF911F910F91FF90EF900C94CA03AD
:1008B00010E0B3CF1260BCCF1460C2CF1860C8CFB5
:1008C0001061CECF1062D4CF1064DDCF1068E5CFB9
:1008D000DF91CF911F910F91FF90EF900895CF93EB
:1008E000DF9380919204882309F448C0D0916C046E
:1008F000D0FF1DC180E00E943B1E892B09F417C167
:10090000C1E0D1FF06C081E00E943B1E892B09F0A7
:1009100010C1D2FF06C082E00E943B1E892B09F065
:100920000AC1D3FF06C083E00E943B1E892B09F059
:1009300004C1D4FF06C084E00E943B1E892B09F04D
:10094000FEC0D5FF06C085E00E943B1E892B09F042
:10095000F8C0D6FF06C086E00E943B1E892B09F036
:10096000F2C0D7FF06C087E00E943B1E892B09F02A
:10097000ECC040E06C2F80E00E94CA038091930499
:10098000882309F448C0D0916D04D0FFE0C088E00E
:100990000E943B1E892B09F4DAC0C1E0D1FF06C0DA
:1009A00089E00E943B1E892B09F0D3C0D2FF06C00C
:1009B0008AE00E943B1E892B09F0CDC0D3FF06C000
:1009C0008BE00E943B1E892B09F0C7C0D4FF06C0F4
:1009D0008CE00E943B1E892B09F0C1C0D5FF06C0E8
:1009E0008DE00E943B1E892B09F0BBC0D6FF06C0DC
:1009F0008EE00E943B1E892B09F0B5C0D7FF06C0D0
:100A00008FE00E943B1E892B09F0AFC040E06C2FA5
:100A100081E00E94CA0380919404882309F448C0AD
:100A2000D0916E04D0FFA3C080E10E943B1E892BB1
:100A300009F49DC0C1E0D1FF06C081E10E943B1EC8
:100A4000892B09F096C0D2FF06C082E10E943B1EAE
:100A5000892B09F090C0D3FF06C083E10E943B1EA2
:100A6000892B09F08AC0D4FF06C084E10E943B1E96
:100A7000892B09F084C0D5FF06C085E10E943B1E8A
:100A8000892B09F07EC0D6FF06C086E10E943B1E7E
:100A9000892B09F078C0D7FF06C087E10E943B1E72
:100AA000892B09F072C040E06C2F82E00E94CA03DB
:100AB00080919504882309F476C0D0916F04D0FF0B
:100AC00066C088E10E943B1E892B09F460C0C1E02A
:100AD000D1FF06C089E10E943B1E892B09F059C055
:100AE000D2FF06C08AE10E943B1E892B09F053C049
:100AF000D3FF06C08BE10E943B1E892B09F04DC03D
:100B0000D4FF06C08CE10E943B1E892B09F047C030
:100B1000D5FF06C08DE10E943B1E892B09F041C024
:100B200040E06C2F83E0DF91CF910C94CA03C0E0CA
:100B3000E8CEC260EECEC460F4CEC860FACEC0612A
:100B400000CFC06206CFC0640CCFC06812CFC0E037
:100B500025CFC2602BCFC46031CFC86037CFC06112
:100B60003DCFC06243CFC06449CFC0684FCFC0E023
:100B700062CFC26068CFC4606ECFC86074CFC061FE
:100B80007ACFC06280CFC06486CFC0688CCFC0E00F
:100B90009FCFC260A5CFC460ABCFC860B1CFC061EA
:100BA000B7CFC062BDCFDF91CF9108951092D90326
:100BB0008FEF80930B010895AF92BF92DF92EF9277
:100BC000FF920F931F93CF93DF931F92CDB7DEB7A2
:100BD000D82E8B01E82EF12CC70180599B4F5C0168
:100BE000FC0180818F3709F403C1863051F4809174
:100BF000D903882331F06630710509F4F4C00E94EE
:100C0000D605FDE1FD15A8F00430110591F0F701BE
:100C1000EB56FC4F20812C3060F430E0C901880F86
:100C2000991F820F931F8D549C4F0E94B310811106
:100C3000C5C09EEE9D0D9C3068F461E070E002300E
:100C4000110511F060E070E0892F99830E94030282
:100C5000998103C08DE18D15D8F0ED2DE695E695CF
:100C6000E6958D2D8770F0E0E459FB4F21E030E0F0
:100C7000082E01C0220F0A94EAF70115110521F48C
:100C80008081822B808304C020958081282320834B
:100C9000F701EE0FFF1FE05DFB4F118210820C3059
:100CA000110508F07BC0F801EA5AFF4F0C940A299D
:100CB0009C3008F09DC060E08D2D0E94CC1D60E04E
:100CC0008D2D0E94051E82E066C0FDE1FD1508F431
:100CD0008FC060E08D2D0E94CC1D60E08D2D0E94A4
:100CE000051EF501108284C0FDE1FD1508F480C0E9
:100CF00060E08D2D0E94051E61E08D2D0E94CC1DAF
:100D000081E049C0F3E0DF1659F08BEF8D0D8230A2
:100D100038F087EF8D0D833018F08DE0D81268C061
:100D200061E08D2D0E94CC1D60E070E08D2D0E9451
:100D3000F81C83E030C0FDE1FD1508F459C084E0E3
:100D4000F5018083F701EB56FC4F80818F3FD1F195
:100D500090E09C01220F331F280F391FC9018D54C9
:100D60009C4F0E94B310811143C02CC060E08D2DB8
:100D70000E94CC1D61E08D2D0E94051E89E00BC0F4
:100D80008EEF8D0D8230A0F586E005C08AE003C0AD
:100D90008BE001C088E0F50180832AC067E371E041
:100DA0008DE995E00F90DF91CF911F910F91FF900A
:100DB000EF90DF90BF90AF900C9408168D2D0E949D
:100DC0009E0337CF4FEF5FEF6FEF7FEF8D2D0F90CB
:100DD000DF91CF911F910F91FF90EF90DF90BF9027
:100DE000AF900C945803FDE1FD1508F010CF21CF12
:100DF0000F90DF91CF911F910F91FF90EF90DF90B7
:100E0000BF90AF900895CF93C0E08EEF8C0F8230EB
:100E100028F466E070E08C2F0E94DC05CF5FCE31B5
:100E2000A1F781E08093D9038DED94E0CF910C94EC
:100E300059110F931F93CF93DF9381E080935D034C
:100E40008091D90381110E94D605E2E9F4E0CCE655
:100E5000D4E0AEE8B4E0119219921D9284E0E63934
:100E6000F807C9F7C5E9D3E010E00FEF8EEE810F68
:100E70008C3030F462E070E0812F0E94DC0503C00A
:100E8000812F0E94EA2109931F5F1E3179F710928A
:100E90007A0310927903A3E7B3E0E5E6F3E02FE7E6
:100EA0002D9380819181892B11F0118210823296CD
:100EB00083E0A937B807A1F710929704109296041F
:100EC00010925F0310925E031092880310928703C2
:100ED00010925D0380915C03811108C081E08093D2
:100EE0005C03DF91CF911F910F91089528E088E175
:100EF00090E00FB6F894A895809360000FBE209301
:100F00006000FFCF24E042E068E471E08DE995E005
:100F10000E94A01448EC51E060EE8DE995E00E943B
:100F2000161641E551E060E98DE995E00E9416163C
:100F300043E052E060EC8DE995E00E94161648EE21
:100F400053E060ED8DE995E00E9416164CED55E0FA
:100F500064EF8DE995E00E9416164FEF58E060EFC0
:100F60008DE995E00E94411649E157E06FEF8DE968
:100F700095E00E94391610927A031092790310922C
:100F80007C0310927B03A4E7B3E0E7E6F3E02FE7EE
:100F90002D9380819181892B11F0118210823296DC
:100FA00083E0A937B807A1F760910C0170910D019A
:100FB00088E290E00E94A12870937E0360937D03F5
:100FC00040E051EE60E070E08DE995E00E949917F5
:100FD0000C9419070F931F93CF93DF93CDB7DEB710
:100FE000C654D1090FB6F894DEBF0FBECDBF8C0139
:100FF0002AE0CE018F5B9F4F0E947C2720E030E0EB
:1010000040E450E0BE016F5F7F4FCE018F5B9F4F8A
:101010000E94A927B8018DE995E00E940816BE013B
:101020006F5F7F4F8DE995E00E940816CE018F5BC0
:101030009F4F0E94F626CA5BDF4F0FB6F894DEBFC3
:101040000FBECDBFDF91CF911F910F910895CF9328
:10105000DF93EBE9F1E0859194919093AD04809357
:10106000AC048BE690E09093AF048093AE0481E0F3
:101070008093B0041092B1041092B2041092B5049F
:101080001092B404EDE9F1E0859194919093A3045A
:101090008093A2048CE690E09093A5048093A4042E
:1010A00082E08093A6041092A7041092A8041092E4
:1010B000AB041092AA04EFE9F1E08591949190932A
:1010C0009904809398048DE690E090939B0480931C
:1010D0009A0484E080939C0410929D0410929E04D4
:1010E0001092A1041092A004C3EBD3E0CE010E94A1
:1010F0006D0F239683E0C73DD807C1F7DF91CF91ED
:101100000895682F8DED94E00C941A11AF92BF9260
:10111000DF92EF92FF920F931F93CF93DF931F9273
:10112000CDB7DEB7F82E5B01D42E6F3F8FEF780777
:10113000D1F06F2D8DED94E029830E9463116A2D0B
:101140008DED94E00E941A112981622F8DED94E0BB
:101150000E946D118091D7039091D803009729F0D8
:101160000E94661C02C0A12CB12C4D2D6F2D8DED5F
:1011700094E00E94E1110D2D10E08DED94E00E94AD
:10118000C21008171907C1F4F092DA03A092DB032A
:101190005CEDE52E53E0F52EA12CB12CA016B10686
:1011A000DCF48DED94E00E94CA10F70181937F0179
:1011B000FFEFAF1ABF0AF2CF8DED94E00E94C2108C
:1011C000801791071CF468EA71E002C065EC71E0D9
:1011D0008DE995E00E94081642E04D0D2AED33E0BE
:1011E00067E78DE995E00F90DF91CF911F910F9107
:1011F000FF90EF90DF90BF90AF900C94C0156F926E
:101200007F928F929F92AF92BF92CF92DF92EF9296
:10121000FF920F931F93CF93DF93CDB7DEB727973E
:101220000FB6F894DEBF0FBECDBF162F7A018D36F4
:1012300009F413C2A8F4803609F476C238F4803574
:1012400009F446C18F3509F48DC2D1C3893609F43A
:1012500053C28B3609F49AC1823609F0C8C3A8C2BA
:10126000823709F4F4C238F48F3609F46CC1803740
:1012700009F4FAC0BCC3883709F4DFC08A3709F41F
:1012800040C1863709F0B3C3DA0111962C91922F31
:10129000987125FF03C061EE71E0A0C3FA0180815F
:1012A00026FB222720F931E02327983041F148F42A
:1012B00091119DC3682F8DED94E00E94631102E0AF
:1012C00006C09031B9F1983109F469C090C3011793
:1012D00068F4F701E00FF11D91818081F0E89F9F94
:1012E000801911240E9481080E5FF1CF8DED94E0EA
:1012F0000E94E41186E490E00E94661C78C342815B
:101300006381163071F4B0E86B9FB0011124640F53
:10131000711DF70195814481F0E89F9F40191124C8
:1013200006C030E8639F401911246FEF7FEF0E94E1
:1013300086085DC3E0910B01E7301CF061E072E0CC
:101340004DC3DA0112969C91129713964C91663018
:1013500089F4B0E84B9FA0011124490F511DD7011A
:1013600015963C91159714969C91B0E83B9F901967
:10137000112406C0F0E84F9F901911244FEF5FEF42
:10138000EF5FE0930B0135E0E302F0011124E6503A
:10139000FC4F8083528341839383248328C36091CD
:1013A0000B0116163CF470E0262F332727FD3095ED
:1013B00095E00FC08FEF80930B0119C3949FF0014C
:1013C000959FF00D1124E650FC4F4081481739F0ED
:1013D0007F5F472F50E02417350784F770E015E052
:1013E000872F90E02817390724F1783000F5AC01F9
:1013F0004F5F5F4F149FD001159FB00D1124A65071
:10140000BC4F4C91189FF001199FF00D1124E6502C
:10141000FC4F408311968D919C911297928381830A
:1014200013968C911397838314968C9184837F5F9A
:10143000D7CF615060930B01DAC2DA012C9111967B
:101440008C91B0E88B9FC0011124820F911D0097F1
:1014500021F09093D8038093D7038091D903811111
:10146000C6C20E940307C3C2653008F4C0C2FA01B5
:1014700010810181D280C380F4801E3108F0B7C290
:10148000E12FF0E0EB56FC4FE081EC3060F4F0E04F
:10149000CF01880F991F8E0F9F1F8D549C4F0E9464
:1014A000B3108111A0C2F0E8FF9EA00111244C0DE1
:1014B000511D20E8D29EB0011124600F711D812FB3
:1014C0000E94580364E070E0812F0E94DC058FC207
:1014D000DA012C9111968C91B0E88B9FC0011124F8
:1014E000820F911D90932304809322040E94FD1B80
:1014F000609324047093250480932604909327041A
:1015000076C2623008F473C2FA0120818181F0E86A
:101510008F9FC0011124820F911D8A30910510F414
:101520008AE090E090930D0180930C0160910C0192
:1015300070910D0188E290E00E94A12870937E03D3
:1015400060937D0354C2623008F451C2DA011196EF
:101550006C91119770E01230A1F012968C91B0E866
:101560008B9FC0011124682B792B133051F0FA01A5
:10157000838190E090E4899F902D88271124682B27
:10158000792BD7018C910E94C80131C260EF8DE99F
:1015900095E00E940C166CE68DE995E00E940C1611
:1015A00010E060E08DE995E00E940C1661E08DE9A5
:1015B00095E00E940C1661E08DE995E00E940C1602
:1015C00061E08DE995E00E940C168EEE810F8C3063
:1015D00058F462E08DE995E00E940C166AE08DE90E
:1015E00095E00E940C160DC0133059F463E08DE9AC
:1015F00095E00E940C1668E08DE995E00E940C16BB
:101600000AC08BEF810F823088F387EF810F833020
:1016100068F31D3059F364E08DE995E00E940C16E3
:101620006EE08DE995E00E940C168EEF810F8230FE
:1016300050F466E08DE995E00E940C1661E08DE9BA
:1016400095E00E940C166FE78DE995E00E940C165C
:101650001F5F1E3109F0A5CFB6C1662309F4C7C1CB
:10166000FA01008160EF8DE995E00E940C166EE6AC
:101670008DE995E00E940C16602F8DE995E00E949F
:101680000C160E3108F09FC110E0F801E059FB4F35
:1016900060818DE995E00E940C16000F111F9801E2
:1016A000205D3B4F7901D9016C916F778DE995E011
:1016B0000E940C16F70160817181CB018078892B23
:1016C00049F0660F672F661F770B6F778DE995E0FE
:1016D0000E940C16F801E05DFB4F60817181CB0127
:1016E0008827907C892B09F46EC1770F660B770FE2
:1016F000762F661F6F7763C160EF8DE995E00E94DA
:101700000C166AE68DE995E00E940C161EEE1C3060
:1017100010F06FE701C0612F8DE995E00E940C1673
:101720001F5F1C30A1F74FC1DA014C914093840335
:1017300011962C91209383038091540381110EC044
:1017400084E393E0909347038093460361E686E445
:1017500093E00E94051B81E08093540381E0809315
:101760007F0345C1FA019081818191111BC0948151
:101770002581F0E82F9F90011124290F311D442766
:1017800037FD4095542FD70112969C9112971396CE
:101790006C91B0E86B9FB0011124690F711D0E941C
:1017A000681F25C1913009F022C10E94EA211FC1A2
:1017B0002091790330917A03263031050CF044C032
:1017C000FA018081809364039181909363039281F5
:1017D000913208F491E290930A01D70113969C91FB
:1017E000139714960C91B0E80B9F80011124090FF8
:1017F000111DF901ED58FC4F80836BE070E00E94F1
:10180000DC056BE070E0809163030E94DC0582E1FF
:1018100090E00E94E7277C0198014091630360916A
:1018200064030E94B3178091790390917A03FC01BD
:10183000EE0FFF1FEB59FC4FF182E082019690936F
:101840007A0380937903D3C062E172E0C7C0FA01E2
:10185000808181114FC08181C280F0E8CF9E6001FC
:101860001124C80ED11CDA0113968C901397912C79
:1018700014966C90712C653079F48AE190E00E94A6
:10188000E7278C019301A401B6010E94A8181093C8
:101890005F0300935E03ABC06730A1F4FA010581DA
:1018A00010E0E680F12C8AE190E00E94E7275C01DD
:1018B0009301A401B6010E94CE18B0925F03A092DA
:1018C0005E0395C087E0EEE0F3E0DE011196019043
:1018D0000D928A95E1F76FE472E08DE995E00E9440
:1018E0000816412F50E060E070E0CE0101960E94A2
:1018F000EA077DC0813009F042C0DA01428150E040
:1019000060E070E0F7E0440F551F661F771FFA95FF
:10191000D1F713968C9190E0A0E0B0E01EE0880F24
:10192000991FAA1FBB1F1A95D1F7482B592B6A2B59
:101930007B2BF7018181482B84810581F0E80F9F83
:1019400080011124080F111DD7011696FC9080917B
:101950005E0390915F03009779F00E940419F110E3
:1019600003C0119501951109B80180915E03909112
:101970005F030E940B1A3BC06FE772E02FC08230FA
:1019800059F580915E0390915F03009711F10E94D9
:10199000941A8C0160EF8DE995E00E940C1662E7C5
:1019A0008DE995E00E940C16602F6F778DE995E028
:1019B0000E940C16B801660F672F661F770B8DE922
:1019C00095E00E940C1667EF8DE995E00E940C16D9
:1019D0000EC06BEA72E002C060EE72E08DE995E045
:1019E0000E94081604C0812F0E949E035CCD27969A
:1019F0000FB6F894DEBF0FBECDBFDF91CF911F9120
:101A00000F91FF90EF90DF90CF90BF90AF909F909D
:101A10008F907F906F9008958F929F92AF92BF9218
:101A2000CF92DF92EF92FF920F931F93CF93DF93AA
:101A30000E946F048DE995E00E940015892B29F022
:101A40008DE995E00E946C16F5CF0E94FD1B609316
:101A50002C0470932D0480932E0490932F04C09037
:101A60002804D0902904E0902A04F0902B0440919F
:101A70000C0150910D014A01A12CB12C8B019C014C
:101A80000C191D092E093F0980169106A206B306FE
:101A900008F05AC1D501C4018C0D9D1DAE1DBF1D9E
:101AA0008093280490932904A0932A04B0932B04D4
:101AB00080917B0390917C039C012F5F3F4F30937B
:101AC0007C0320937B0320917D0330917E032817B4
:101AD00039070CF064C010927C0310927B03809154
:101AE000790390917A03892B09F459C0E09171032D
:101AF000F0917203EE0FFF1FEB59FC4F8081918133
:101B00000E94791869E370E00E94A128CB014091FE
:101B1000710350917203409362039A012F5F3F4F0C
:101B200030937203209371032091790330917A03EB
:101B3000215031094217530724F01092720310927A
:101B400071036F7760936003880F892F881F990B4B
:101B50008093610360EF8DE995E00E940C1663E6C7
:101B60008DE995E00E940C16E0916203F0E0ED58DB
:101B7000FC4F60818DE995E00E940C166091600336
:101B80008DE995E00E940C16609161038DE995E066
:101B90000E940C1667EF8DE995E00E940C16C0E7D5
:101BA000D4E01EEE1C30C0F488818230A9F420916C
:101BB000960430919704012E02C0359527950A941A
:101BC000E2F720FF09C0812F0E94C71CAC01612FE2
:101BD0008DE995E00E9479151F5F21961C3011F761
:101BE00080910B0187FF06C080917F03882309F451
:101BF0006BC01CC0C0E0D5E08C2F90E020910B01A1
:101C0000332727FD30952817390774F3D89FF00143
:101C1000D99FF00D1124E650FC4F6181728124811F
:101C2000438180810E948608CF5FE6CF10928603B1
:101C300010928503109280030E94861B0097A1F0EA
:101C40000E94A61B80938003209181033091820320
:101C5000181614F0882341F0280F311D87FD3A959E
:101C600030938203209381038091810390918203BA
:101C7000282F2F7720938503880F892F881F990B92
:101C80008F778093860360EF8DE995E00E940C16B4
:101C900061E68DE995E00E940C16609184038DE960
:101CA00095E00E940C16609185038DE995E00E94F5
:101CB0000C16609186038DE995E00E940C1667EF83
:101CC0008DE995E00E940C168091220490912304E6
:101CD000892BD1F10E94FD1B60932C0470932D047D
:101CE00080932E0490932F040091240410912504D6
:101CF0002091260430912704AB01BC01401B510BFD
:101D0000620B730BE0912204F091230428EE33E080
:101D1000E29FC001E39F900DF29F900D1124A0E07F
:101D2000B0E084179507A607B70770F4DF91CF914D
:101D30001F910F91FF90EF90DF90CF90BF90AF90E9
:101D40009F908F900C941907DF91CF911F910F9165
:101D5000FF90EF90DF90CF90BF90AF909F908F90CB
:101D600008951F920F920FB60F9211242F933F9355
:101D70004F935F936F937F938F939F93AF93BF9393
:101D8000EF93FF938091B80487FF05C01092850000
:101D9000109284001AC02091B804332727FD309593
:101DA0008091B70490E0281739077CF48091B8043B
:101DB000992787FD9095FC01EE0FFF1FE80FF91F93
:101DC000E754FB4F808186FD15C08091B8048F5F7A
:101DD0008093B8042091B804332727FD3095809173
:101DE000B70490E028173907BCF48091B8048C3010
:101DF0005CF112C08091B804992787FD9095FC0191
:101E0000EE0FFF1FE80FF91FE754FB4F808160E0E2
:101E10008F730E94051ED9CF809184009091850018
:101E2000049680349C4918F480E49CE905C08091B4
:101E30008400909185000496909389008093880097
:101E40008FEF8093B80438C02091840030918500D2
:101E50008091B804992787FD9095FC01EE0FFF1F34
:101E6000E80FF91FE754FB4F81819281820F931F86
:101E700090938900809388008091B804992787FD0A
:101E80009095FC01EE0FFF1FE80FF91FE754FB4F81
:101E9000808186FF11C08091B804992787FD9095B5
:101EA000FC01EE0FFF1FE80FF91FE754FB4F808185
:101EB00061E08F730E94051EFF91EF91BF91AF917A
:101EC0009F918F917F916F915F914F913F912F9152
:101ED0000F900FBE0F901F9018952091B7042C30D3
:101EE000A0F431E0320F3093B704FC012083822F3D
:101EF00090E0FC01EE0FFF1FE80FF91FE754FB4FC6
:101F000088EB9BE09283818308952FEFFC0120836F
:101F10000895DF92EF92FF920F931F93CF93DF9379
:101F2000EC01D62E7A01890188818C3008F066C0D8
:101F300061E08D2D0E94CC1D8881A82FB0E0FD01AD
:101F4000EE0FFF1FEA0FFB1FE754FB4F2D2D2F73E2
:101F50009081907C922B908360E272E06E197F09F1
:101F600077FF02C06D5F7F4F759567957595679593
:101F7000698340E659E0401B510B57FF02C04D5F9B
:101F80005F4F55954795559547954A836CE00E945C
:101F900095289CE0899FB001112420E030E0A90140
:101FA000460F571FFA01EE0FFF1FE40FF51FE7540E
:101FB000FB4F908196FD16C02F5F3F4F2C303105AF
:101FC00071F781110FC01092800082E08093810030
:101FD0001092850010928400B19A80916F00826007
:101FE00080936F00888190E0FC01EE0FFF1FE80FE7
:101FF000F91FE754FB4F8081806480838881DF91E3
:10200000CF911F910F91FF90EF90DF90089520E600
:1020100039E040E252E00C94890FFC01808190E0AD
:10202000FC01EE0FFF1FE80FF91FE754FB4F808103
:102030008F7B80830895FC0180818C3070F59181C5
:1020400028E830E0291B310997FD3395220F331F13
:10205000220F331F621773077CF0928128E532E06C
:10206000291B310997FD3395220F331F220F331F90
:10207000621773070CF49B0122503109220F331FA2
:102080004FB7F89490E0FC01EE0FFF1FE80FF91F27
:10209000E754FB4F328321834FBF08954F925F92E5
:1020A0006F927F92AF92BF92CF92DF92EF92FF92A8
:1020B0000F931F93CF93DF93EC01603282E0780798
:1020C0000CF040C077FD06C0653B71052CF064EB59
:1020D00070E002C060E070E0898128E830E0281BF1
:1020E000310987FD3395220F331F220F331F59010A
:1020F000CC24B7FCC094DC2C882777FD8095982FE2
:102100002A8148E552E0421B510927FD5395440FAF
:10211000551F440F551F2A01662457FC6094762CE6
:102120007F926F925F924F9214EBE12EF12C00E0C0
:1021300010E020E030E0A9010E94AF260F900F9040
:102140000F900F90CE01DF91CF911F910F91FF90D3
:10215000EF90DF90CF90BF90AF907F906F905F90A7
:102160004F900C941B10FC01808190E0FC01EE0F5D
:10217000FF1FE80FF91FE754FB4F808186FB88277C
:1021800080F9089580910D0590E020910E05821B45
:102190009109089520910E0580910D05281750F49E
:1021A000E22FF0E0E15FFA4F808190E02F5F209313
:1021B0000E0508958FEF9FEF0895E0910E05809131
:1021C0000D05E81730F4F0E0E15FFA4F808190E010
:1021D00008958FEF9FEF08950895CF92DF92EF92C9
:1021E000FF920F931F93CF93DF937C01CB018A0162
:1021F0002091E904222389F0EB016B01C40ED51E66
:10220000CC15DD0569F06991D701ED91FC91019044
:10221000F081E02DC7010995F3CF642F0E94A81229
:10222000C801DF91CF911F910F91FF90EF90DF9048
:10223000CF900895CF93DF931F92CDB7DEB7698318
:102240002091E9042223D1F02091EA04203240F0C9
:1022500021E030E0FC013383228380E090E015C070
:102260008091EB04E82FF0E0E451FB4F99819083DB
:102270008F5F8093EB048093EA0405C061E0CE0198
:1022800001960E94A81281E090E00F90DF91CF911B
:102290000895FC011382128248EE53E060E070E082
:1022A00044835583668377838FE193E091838083B2
:1022B000089510920E0510920D051092EB041092E5
:1022C000EA040C94EB1181E08093E90460930C051F
:1022D0001092EB041092EA0408950F93062F21E068
:1022E0004091EA046CEE74E080910C050E9451125A
:1022F0001092EB041092EA041092E9040F910895F1
:102300008F929F92AF92BF92CF92DF92EF92FF9205
:102310000F931F93CF93DF93EC01F62ED42E480139
:102320005901EE2019F10E9463111E2D143008F09E
:1023300013E01150B8F0E881F98128E0129FB00154
:102340001124A501940104C056954795379527950A
:102350006A95D2F7CA01B9010190F081E02DCE0152
:102360000995E7CF60E0CE010E946D114D2D4132FD
:1023700008F040E22C2D6FE075E08F2D0E940912CD
:1023800010920E0580930D05DF91CF911F910F9153
:10239000FF90EF90DF90CF90BF90AF909F908F9085
:1023A0000895CF92EF920F931F93C22EE12C00E07D
:1023B00010E098010E9480111F910F91EF90CF9033
:1023C000089521E00C94D11161E00C946D118DED14
:1023D00094E00C94491110929C0581E080939A0539
:1023E0001092990561E082E00E94051E61E083E0A1
:1023F0000E94051EE9EBF0E080818E7F8083808162
:102400008D7F808388E48093B80085E48093BC004E
:102410000895413208F043C090919C059111FCCF82
:1024200091E090939C0520939A052FEF20932F0520
:1024300010927405240F2093730590939B0590913F
:102440009B05880F892B80939B058091990581308E
:1024500061F41092990580919B058093BB00809157
:10246000BC0083FDF8CF85EC01C085EE8093BC00F5
:1024700080919C058130E1F380917405841710F4FC
:102480004091740525E735E0FB01D9018A2F821BB5
:10249000841718F48D918193F9CF842F089580E0EB
:1024A00008950F93413208F04AC090919C05911114
:1024B000FCCF92E090939C0500939A059FEF909338
:1024C0002F051092740540937305FB0165E775E0D5
:1024D000DB019A2F961B941718F491919D93F9CFD5
:1024E00010929B0590919B05880F892B80939B05EB
:1024F00080919905813061F41092990580919B0536
:102500008093BB008091BC0083FDF8CF85EC01C0B7
:1025100085EE8093BC00222321F080919C058230BF
:10252000E1F380912F058F3F61F080912F0580327C
:1025300051F080912F05803341F483E007C081E0A2
:1025400005C080E003C082E001C084E00F910895DF
:10255000613298F420919C05243089F460935105F0
:10256000FC0183E595E0DC012A2F281B261718F4CF
:1025700021912D93F9CF80E0089581E0089582E0C4
:10258000089585ED8093BC008091BC0084FDFCCF54
:1025900010929C05089585EC8093BC0010929C05D8
:1025A00008951F920F920FB60F9211242F933F930D
:1025B0004F935F936F937F938F939F93AF93BF934B
:1025C000EF93FF938091B900887F803609F49EC015
:1025D00078F5883209F45DC090F4803109F456C072
:1025E00038F4882309F4F5C0883009F44FC0F5C0E9
:1025F000883109F44EC0803209F45FC0EEC08034E7
:1026000009F46AC058F4803309F457C0883309F0DC
:10261000E4C080932F050E94CB12DFC0803509F4FF
:102620004FC0883509F45DC0883409F0D6C0D3C0E6
:10263000883909F4C4C0A8F4883709F467C038F4AD
:10264000883609F463C0803709F460C0C6C0883892
:1026500009F4B5C0803909F45FC0803809F0BDC005
:102660005BC0803B09F483C038F4803A09F466C04B
:10267000883A09F47CC0B1C0803C09F4A4C0883C0D
:1026800009F4A1C0883B09F487C0A7C080919B05CD
:1026900010C09091740580917305981770F5E091C2
:1026A000740581E08E0F80937405F0E0EB58FA4FCB
:1026B00080818093BB0085EC83C080932F058BC005
:1026C000E091740581E08E0F809374058091BB00CA
:1026D000F0E0EB58FA4F8083909174058091730578
:1026E0006BC0E091740581E08E0F8093740580913A
:1026F000BB00F0E0EB58FA4F808380919A0581117E
:102700006AC081E08093990584EA5EC083E080938B
:102710009C0510923005CFCF80913005803208F0B3
:102720004EC0E091300581E08E0F8093300580919E
:10273000BB00F0E0EF5CFA4F8083BDCF0E94CB126C
:1027400080913005803230F4E0913005F0E0EF5CAC
:10275000FA4F10826091300570E0E0919505F0919C
:10276000960581E395E009951092300536C084E026
:1027700080939C051092520510925105E0919705A7
:10278000F0919805099580915105811105C081E06E
:102790008093510510925305E091520581E08E0F10
:1027A00080935205F0E0ED5AFA4F80818093BB0090
:1027B0009091520580915105981708F47CCF85E8D7
:1027C0008093BC000AC085EC8093BC0010929C05ED
:1027D00004C010922F050E94C112FF91EF91BF918A
:1027E000AF919F918F917F916F915F914F913F91A9
:1027F0002F910F900FBE0F901F9018950F931F935E
:10280000CF93DF93EC018B0188819981DC01ED91FD
:10281000FC916F770190F081E02D09958881998175
:10282000DC01ED91FC91B801660F672F661F770BF5
:102830006F770190F081E02DDF91CF911F910F9183
:102840000994DC018D919C91DC01ED91FC9101904A
:10285000F081E02D60EF0994DC018D919C91DC0109
:10286000ED91FC910190F081E02D67EF0994CF93F9
:10287000DF93EC0188819981DC01ED91FC9101905D
:10288000F081E02D69EF099588819981DC01ED9156
:10289000FC910190F081E02D62E009958881998199
:1028A000DC01ED91FC910190F081E02D64E0DF917D
:1028B000CF9109941F93CF93DF93EC018A818823F2
:1028C000D9F1CE010E94211488819981DC01ED911A
:1028D000FC910190F081E02D69E70995888199814B
:1028E000DC01ED91FC91AB81BC810190F081E02D88
:1028F0006C91099588819981DC01ED91FC91AB8106
:10290000BC810190F081E02D11966C91099512E047
:102910008A81181758F4EB81FC81E10FF11D608169
:1029200070E0CE010E94FE131F5FF2CFCE01DF9157
:10293000CF911F910C942C14DF91CF911F9108958A
:10294000CF92DF92EF92FF920F931F93CF93DF937B
:102950008C01EB01C42ED22E6BE273E0CE010E94FB
:10296000452B7C016FE270E0CE010E943A2B00976C
:1029700039F46CE570E0CE010E943A2B009711F01B
:10298000EC012196E114F10451F4FE0101900020C4
:10299000E9F7EC1BEF5FD8011296EC9306C0EC1A36
:1029A000FD0AE394E394F801E282D80113968D9135
:1029B0009C9114970E94C229F801E280F12CC70172
:1029C00001960E942A29D80114969C938E931397FE
:1029D000FC01EE0DFF1D1082FC01C082D182129617
:1029E0004C9150E042505109BE010296DF91CF91C7
:1029F0001F910F91FF90EF90DF90CF900C942B2BB5
:102A0000DC018D919C91DC01ED91FC910480F581BC
:102A1000E02D09940F931F93CF93DF93FC01208542
:102A2000213749F0293709F049C0DF91CF911F9133
:102A30000F910C945A14FC01E95AFF4F0190F08158
:102A4000E02D309709F450C0DC01A75BBF4F4D91DA
:102A50005C919A012150310937FD9A01B9017595B0
:102A60006795062F40E050E020E030E04E5F5F4F7A
:102A70002017A0F4EC01C40FD51F1F81DC01A20FA9
:102A8000B31F18961C931897C885D0E8CD9F1019CE
:102A9000112418961C932F5F3F4FE8CFDC01A60F3F
:102AA000B11D17962C911797222311F018961C929E
:102AB0000896DF91CF911F910F910994FC01E75A7D
:102AC000FF4F0190F081E02D309771F0AC01475F2E
:102AD0005F4FDC01A75BBF4F6C916150822FDF918C
:102AE000CF911F910F910994DF91CF911F910F9179
:102AF00008950F931F93CF93DF93EC018A01888190
:102B00009981DC01ED91FC916F70606E0190F08114
:102B1000E02D0995B801CE01DF91CF911F910F9162
:102B20000C94FE130F931F93CF93DF93EC018A0154
:102B300088819981DC01ED91FC916F706069019051
:102B4000F081E02D099588819981DC01ED91FC915E
:102B5000602F6F770190F081E02D09958881998130
:102B6000DC01ED91FC91B801660F672F661F770BB2
:102B70000190F081E02DDF91CF911F910F91099489
:102B8000CF92DF92EF92FF920F931F93CF93DF9339
:102B900000D01F92CDB7DEB78C01F42E2A833B8381
:102BA00069830E942114D8018D919C91DC01ED91E3
:102BB000FC910190F081E02D698109952A81E22E36
:102BC000C22E3B81D32E8C2D8E198F1540F4F60129
:102BD00061916F0170E0C8010E94FE13F4CFC8013B
:102BE0000F900F900F90DF91CF911F910F91FF9059
:102BF000EF90DF90CF900C942C149A01FA01019081
:102C00000020E9F73197E41BF50B4E2F0C94C0150B
:102C1000AB0161E70C94FD15DC018D919C91DC0109
:102C2000ED91FC910190F081E02D0994603DB9F0A7
:102C300028F4603961F0603C71F00895603E19F04D
:102C4000643F89F00895FC01E55BFF4F0FC0FC0174
:102C5000E35BFF4F0BC0FC01E15BFF4F07C0FC01D2
:102C6000EF5AFF4F03C0FC01ED5AFF4F51834083E1
:102C700008956F3F29F4FC01EB5AFF4F51834083C5
:102C80000895875A9F4FFC01518340830895FC01AA
:102C900015821682178280E090E0DF01A80FB91F2D
:102CA00018961C92019680349105B9F7DF01A85B54
:102CB000BF4F1C9211961D921C92EB5AFF4F019030
:102CC000F081E02D309709F009940895FC011282FB
:102CD000148213820C944716CF93DF93EC01888102
:102CE0009981DC01ED91FC910680F781E02D099539
:102CF000FE01E85BFF4F20812223B1F0873F910561
:102D000031F41082CE01DF91CF910C940A15FE01AF
:102D1000E75BFF4F20813181C20FD31F88872F5F70
:102D20003F4F318320839DC02D81222309F45EC053
:102D3000803891050CF05AC09FEF920F9D83FE01E1
:102D4000E90FF11D808791118CC08E81882309F4D1
:102D500088C0803DE9F148F48039E9F0803C09F011
:102D600043C0FE01E15BFF4F36C0803E19F0843F57
:102D700019F13AC0FE01E55BFF4F0190F081E02DB3
:102D8000309791F18885698570E0B0E88B9F600D80
:102D9000711D112427C0FE01E35BFF4F0190F081FC
:102DA000E02D309709F18885698570E090E8899F6A
:102DB000600D711D112416C0FE01ED5AFF4F0190E8
:102DC000F081E02D309781F0688570E089850BC037
:102DD000FE01EF5AFF4F0190F081E02D309721F076
:102DE000688570E08F8109951E823BC0803F910508
:102DF0002CF4282F2F702F83807F9927803E9105F8
:102E000021F154F4803C910511F1803D9105F9F0D8
:102E10008039910531F519C0843F9105B1F054F422
:102E2000803F9105F1F481E08083C75BDF4F198219
:102E3000188217C0893F910571F08F3F910589F481
:102E4000CE01DF91CF910C94471692E001C091E042
:102E50009D838E8306C08DE995E0DF91CF910C9420
:102E60003714DF91CF9108958F929F92AF92BF92C6
:102E7000CF92DF92EF92FF921F93CF93DF93EB01FC
:102E80004A01690161E08DE00E94CC1D10E0EE2452
:102E9000D7FCE094FE2CAA2497FCA094BA2C812F96
:102EA00090E08C179D0794F4C701B6010E942C1C7A
:102EB00061E08DE00E94051EC501B4010E942C1C3A
:102EC00060E08DE00E94051E1F5FE9CFDF91CF918A
:102ED0001F91FF90EF90DF90CF90BF90AF909F90A9
:102EE0008F900895CF93DF93EC0161E08DE00E9415
:102EF000CC1D22ED30E048E250E062E070E0CE010F
:102F00000E9434176AEF70E080E090E00E942C1C71
:102F100022ED30E048E250E064E070E0CE010E9433
:102F200034176DE770E080E090E0DF91CF910C9472
:102F30002C1CCF93DF93EC0185E096E00E94451FA7
:102F400085E096E099838883CE010E947217CE01B6
:102F50000E943714CE01DF91CF910C945A148DE961
:102F600095E00C946616CF93DF93DC0170E0FB01D3
:102F7000E75AFE4FE4911496EC931497842F90E057
:102F8000FC01E75AFE4FE4911596EC9315976858AB
:102F90007E4FFB01C491D0E0CC0FDD1FCB55DE4F3F
:102FA000FE014591549117965C934E931697FC0140
:102FB000E858FE4F849190E0880F991F89569E4FE4
:102FC000FC01459154911B965C934E931A97FB011B
:102FD0006491E62FF0E0EE0FFF1FED54FE4F859158
:102FE000949119969C938E931897C901253FF1E00F
:102FF0003F0714F084EF91E049E3489F9001499F17
:10300000300D1124245E3F4F1D963C932E931C9748
:10301000DF91CF9108950F931F93CF93DF93EC012E
:10302000E885F98580819C81892B8083EE81FF81F1
:1030300090818C8180958923808384E090E00E9438
:10304000661CEE81FF8180819C81892B80838AE0D0
:1030500090E00E94661CEE81FF8190818C818095BA
:1030600089238083E885F98590818C8180958923E7
:1030700080830E94091C605B794B8F4F9F4F6E8746
:103080007F87888B998BEA85FB8580819D81892349
:1030900059F00E94091C0E851F8528893989061759
:1030A00017072807390778F7EA85FB8580819D8116
:1030B000892369F40E94091C0E851F852889398996
:1030C000061717072807390778F780E00DC00E9418
:1030D000091C2C853D85620F731F811D911D6E8714
:1030E0007F87888B998B81E0DF91CF911F910F9122
:1030F00008950F931F93CF93DF93EC010E940B1859
:10310000882389F0EA85FB8580819D81892371F080
:103110000E94091C0E851F85288939890617170703
:103120002807390778F720E030E00CC00E94091C1E
:103130002C853D85255031094E855F85241B350B37
:10314000260F371FC901DF91CF911F910F9108956D
:10315000CF93DF93EC01842F1B861A861982188285
:103160001E8A1F8A188E198E7F836E834C875D8717
:103170003F872E8761E00E94CC1D61E08E850E9412
:10318000CC1D198A188A1B8A1A8A1D8A1C8A82E019
:1031900090E099878887DF91CF910895EF92FF9211
:1031A0000F931F93CF93DF93EC01842F1B861A8616
:1031B000198218821E8A1F8A188E198E7F836E8349
:1031C0004C875D873F872E87198B088BFB8AEA8A9D
:1031D00061E00E94CC1D61E08E850E94CC1D61E003
:1031E00088890E94CC1D61E08A890E94CC1D1D8ABD
:1031F0001C8A84E090E099878887DF91CF911F91A6
:103200000F91FF90EF900895CF92DF92EF92FF928F
:10321000CF93DF93EC016A017B012E813F8144272C
:1032200037FD4095542F60E077E883E993E00E94F2
:10323000EB28CA01B901A70196010E94EB282A8355
:103240003B834C835D83DF91CF91FF90EF90DF90C4
:10325000CF9008950F931F93CF93DF93EC018B01D1
:10326000888599850297F9F46130710571F02CF425
:1032700061157105C1F460E009C06230710559F053
:103280006330710581F460E007C061E08C850E94C5
:10329000051E61E005C061E08C850E94051E60E0AE
:1032A0008E850E94051E888599850497B9F50130A1
:1032B0001105B1F04CF40115110581F561E08C8523
:1032C0000E94051E60E011C002301105B9F0033004
:1032D000110521F561E08C850E94051E60E013C098
:1032E00060E08C850E94051E61E08E850E94051EAF
:1032F00061E088890E94051E60E00DC060E08C8559
:103300000E94051E61E08E850E94051E60E088898E
:103310000E94051E61E08A890E94051E88859985A4
:10332000059709F073C00A30110508F06FC0F80165
:10333000EE59FF4F0C940A2960E08C850E94051E0F
:1033400061E051C060E08C850E94051E61E08E85C1
:103350000E94051E60E04BC060E08C850E94051E47
:1033600061E08E850E94051E60E088890E94051E2E
:1033700061E041C060E001C061E08C850E94051EF3
:1033800061E005C061E08C850E94051E60E08E85CD
:103390000E94051E60E009C061E08C850E94051E48
:1033A00060E08E850E94051E61E088890E94051EEE
:1033B00061E00DC061E08C850E94051E60E08E8595
:1033C0000E94051E61E088890E94051E60E08A89CE
:1033D0000E94051E60E013C061E001C060E08C85C2
:1033E0000E94051E60E08E850E94051E61E08889AE
:1033F0000E94051E60E08A890E94051E61E08C899A
:10340000DF91CF911F910F910C94051EDF91CF9109
:103410001F910F9108954F925F926F927F928F92BA
:103420009F92AF92BF92CF92DF92EF92FF920F9353
:103430001F93CF93DF93EC01CB0177FF04C0882764
:103440009927861B970B6C01161617062CF481E042
:1034500090E09983888304C0672B11F01982188249
:1034600004E010E08AE0E82EF12CC114D10409F444
:103470004AC00E94091C8E889F88A88CB98C2B0199
:103480003C01481859086A087B088A809B80AC80F8
:10349000BD80481459046A047B0458F36E8B7F8BFB
:1034A000888F998F288139818A859B8521303105C4
:1034B00059F401969B878A872E813F818217930753
:1034C00071F41B861A860BC0892B21F48E819F8193
:1034D0009B878A878A859B8501979B878A8781E05E
:1034E000C81AD108288539858A859B8525303105FC
:1034F00011F4B70101C0B8010E94B528BC01CE018A
:103500000E942A19B2CFDF91CF911F910F91FF90A6
:10351000EF90DF90CF90BF90AF909F908F907F9073
:103520006F905F904F90089585E090E00895FC01C2
:10353000A281B3812C919581922387818223992343
:1035400061F0882379F08085882321F08185928538
:10355000890F8187108612860895811103C081E04A
:10356000808708952085211108C0992311F081E0FA
:1035700003C0882311F08FEF8287089590E0FC014B
:103580003197ED30F10560F5E459FF4F0C940A29AD
:10359000809180008F7703C0809180008F7D809321
:1035A0008000089584B58F7702C084B58F7D84BD77
:1035B0000895809190008F7707C0809190008F7D53
:1035C00003C080919000877F809390000895809140
:1035D000C0008F7703C08091C0008F7D8093C000B2
:1035E00008951F93CF93DF93EC01862F142F41E0B2
:1035F00050E0BE010E94C00241E050E0BE01812FB8
:10360000DF91CF911F910C94C002CF93DF93EC0117
:103610006B874C832E83421709F475C0483018F429
:10362000283008F070C088EF840F863020F42850CE
:10363000263060F068C04E3030F02E3008F463C0A1
:10364000443108F060C0243108F05DC01886198646
:10365000A091FA05B091FB05109729F4D093FB05D2
:10366000C093FA050CC01C968D919C911D970097F4
:1036700011F0DC01F8CF1D96DC93CE931C971D86CC
:103680001C8650E0FA01E858FE4FE491F0E0EE0F9E
:10369000FF1FE956FE4F859194919B838A83892B66
:1036A00009F431C0FA01E75AFE4FE491ED83FA01C3
:1036B000E65CFE4F849181110E94BE1A8E8190E0DB
:1036C000FC01E75AFE4FE491EF83FC01E65CFE4FFC
:1036D000849181110E94BE1A60E08C810E94CC1DF1
:1036E00060E08E810E94CC1D61E08C810E94051EED
:1036F00061E08E810E94051E4E816C81CE01DF91BA
:10370000CF910C94F11ADF91CF9108959091FA0521
:103710008091FB059093F8058093F905E92FF82F28
:10372000309769F08185882331F0F093F905E093B3
:10373000F805CF0108950484F585E02DF1CF1092AE
:10374000F9051092F80580E090E00895FC0181856C
:1037500087FF03C091E0980F91879185191614F4A3
:103760009150918708951F920F920FB60F921124D6
:103770002F933F938F939F93AF93BF938091FD05BA
:103780009091FE05A091FF05B09100063091FC05D7
:1037900023E0230F2D3720F40196A11DB11D05C094
:1037A00026E8230F0296A11DB11D2093FC058093EE
:1037B000FD059093FE05A093FF05B0930006809150
:1037C000010690910206A0910306B09104060196AD
:1037D000A11DB11D8093010690930206A0930306DC
:1037E000B0930406BF91AF919F918F913F912F911C
:1037F0000F900FBE0F901F9018952FB7F8946091FF
:10380000FD057091FE058091FF05909100062FBF88
:1038100008953FB7F8948091010690910206A09117
:103820000306B091040626B5A89B05C02F3F19F0EA
:103830000196A11DB11D3FBF6627782F892F9A2FB2
:10384000620F711D811D911D42E0660F771F881F59
:10385000991F4A95D1F708958F929F92AF92BF9288
:10386000CF92DF92EF92FF926B017C010E94091CC4
:103870004B015C01C114D104E104F104F1F00E9498
:10388000E9270E94091C681979098A099B09683E81
:1038900073408105910570F321E0C21AD108E10857
:1038A000F10888EE880E83E0981EA11CB11CC1149B
:1038B000D104E104F10429F7DDCFFF90EF90DF9010
:1038C000CF90BF90AF909F908F90089582309105D8
:1038D00038F0880F991F880F991F05970197F1F706
:1038E0000895789484B5826084BD84B5816084BD78
:1038F00085B5826085BD85B5816085BDEEE6F0E069
:10390000808181608083E1E8F0E0108280818260C4
:103910008083808181608083E0E8F0E08081816045
:103920008083E1E9F0E08081826080838081816032
:103930008083E0E9F0E0808181608083E1ECF0E069
:1039400080818460808380818260808380818160C7
:103950008083E3ECF0E0808181608083E0ECF0E044
:10396000808182608083E2ECF0E0808181608083EE
:10397000EAE7F0E0808184608083808182608083D8
:103980008081816080838081806880830895823116
:1039900008F08251E82FF0E0E25DFE4FE491809163
:1039A0007B00E3FB222720F930E095E0220F331F54
:1039B0009A95E1F78F7D822B80937B00E770809151
:1039C0000E0120E4829FC0011124E82BE0937C00CB
:1039D00080917A00806480937A0080917A0086FDDD
:1039E000FCCF809178002091790090E0922B08958F
:1039F0001F93CF93DF93182FEB0161E00E94CC1D42
:103A0000209711F460E004C0CF3FD10539F461E0A4
:103A1000812FDF91CF911F910C94051EE12FF0E0D3
:103A2000E65CFE4F449150E0FA013197EF30F1052A
:103A300008F06CC0E758FF4F0C940A2984B58068E1
:103A400084BDC7BD68C084B5806284BDC8BD63C085
:103A500080918000806880938000D0938900C0931B
:103A6000880059C080918000806280938000D0934C
:103A70008B00C0938A004FC0809180008860809343
:103A80008000D0938D00C0938C0045C08091900041
:103A9000806880939000D0939900C09398003BC0B9
:103AA00080919000806280939000D0939B00C0939F
:103AB0009A0031C080919000886080939000D093EC
:103AC0009D00C0939C0027C08091C00080688093B7
:103AD000C0008091C0008F7B8093C000C093CF0056
:103AE0001AC08091C00080628093C000C093D00053
:103AF00012C08091C20088608093C2008091C20091
:103B00008B7F8093C200C093D20005C0C038D1051E
:103B10000CF07DCF77CFDF91CF911F91089590E08A
:103B2000FC013197EF30F105B0F5E857FF4F0C94E9
:103B30000A29809180008F7703C0809180008F7D5B
:103B400080938000089580918000877FF9CF84B5AD
:103B50008F7702C084B58F7D84BD089580919000D9
:103B60008F7707C0809190008F7D03C08091900077
:103B7000877F8093900008958091C0008F7703C065
:103B80008091C0008F7D8093C00008958091C20015
:103B9000877F8093C2000895CF93DF9390E0FC016C
:103BA000E75AFE4F2491FC01E858FE4F8491882388
:103BB00049F190E0880F991FFC01ED54FE4FA5914B
:103BC000B4918B559E4FFC01C591D4919FB7611163
:103BD00008C0F8948C91209582238C93888182234D
:103BE0000AC0623051F4F8948C91322F30958323BF
:103BF0008C938881822B888304C0F8948C91822BCB
:103C00008C939FBFDF91CF9108950F931F93CF9314
:103C1000DF931F92CDB7DEB7282F30E0F901E65CC5
:103C2000FE4F8491F901E75AFE4F1491F901E858CB
:103C3000FE4F04910023C9F0882321F069830E947C
:103C40008F1D6981E02FF0E0EE0FFF1FEB55FE4F57
:103C5000A591B4919FB7F8948C91611103C0109510
:103C6000812301C0812B8C939FBF0F90DF91CF9157
:103C70001F910F910895CF93DF93282F30E0F90122
:103C8000E65CFE4F8491F901E75AFE4FD491F901A9
:103C9000E858FE4FC491CC2391F081110E948F1DF2
:103CA000EC2FF0E0EE0FFF1FE956FE4FA591B49107
:103CB0002C912D2381E090E021F480E002C080E08F
:103CC00090E0DF91CF910895CF93DF931F92CDB70E
:103CD000DEB76983DC01ED91FC910280F381E02D78
:103CE00041E050E0BE016F5F7F4F09950F90DF917B
:103CF000CF910895CF93DF93EC018C859D8597FF3D
:103D000005C082E00E9479239D878C878C859D85E4
:103D1000DF91CF91089583E00C940D26FC018485FA
:103D2000958597FD06C082E00E94212390E00196D0
:103D3000089582E00E94212390E00895FC0184858B
:103D4000958597FD05C02FEF3FEF358724870895B0
:103D500082E00C947923CF93DF93EC0180911A01D8
:103D6000882331F083E00E94AA231816190634F044
:103D700081E090E09B838A8380E090E0DF91CF91A7
:103D80000895FC0120812E5F208342E450E061EC25
:103D900071E080E80C944524FC0121818081813A06
:103DA00059F4213209F05CC047E050E063E171E072
:103DB00080E00E94452467C0813209F051C023325F
:103DC00089F4838190E0982F88273281832BA0E0AB
:103DD000B0E080930F0190931001A0931101B09374
:103DE00012010FC0203239F467E070E083E191E006
:103DF0000E9476240AC0223221F4828180931A0123
:103E000004C02D7F203209F03EC0809113019091B3
:103E10001401A0911501B0911601803B9440A105B9
:103E2000B10501F580911A0180FD1CC08091000848
:103E3000909101089093FF0A8093FE0A87E797E725
:103E400090930108809300082BE088E190E00FB682
:103E5000F894A895809360000FBE2093600013C073
:103E600080E0089588E10FB6F89480936000109286
:103E700060000FBEA8958091FE0A9091FF0A909372
:103E800001088093000881E008952FEF3FEFFC01C7
:103E9000358724870895109208061092070688EE49
:103EA00093E0A0E0B0E08093090690930A06A09307
:103EB0000B06B0930C068AE393E09093060680937A
:103EC00005068FEF9FEF90931206809311060895D9
:103ED0003F924F925F926F927F928F929F92AF929A
:103EE000BF92CF92DF92EF92FF920F931F93CF93E7
:103EF000DF9300D000D0CDB7DEB78B0129013A01A6
:103F000090911B01981721F09F3F09F025C204C032
:103F1000E3E0F2E03490AEC080931B01E3E0F2E016
:103F2000E491EF3F09F418C2E13009F452C01CF5E6
:103F3000E1119FC014BC15BC94B5926094BD95B5B9
:103F4000916095BD282F30E0F901E858FE4FE491CB
:103F5000F0E0EE0FFF1FEB55FE4F4591549150934B
:103F60006C0640936B06F901E75AFE4F24912093AB
:103F70006A06312C81C0E33009F453C0E43009F003
:103F800078C01092C0001092C1009091C10098605A
:103F90009093C1009091C10091609093C100282F2F
:103FA00030E0F901E858FE4FE491F0E0EE0FFF1F1A
:103FB000EB55FE4F4591549150935706409356064A
:103FC000F901E75AFE4F24912093550654E0352E0F
:103FD00053C01092800010928100909181009860EF
:103FE0009093810090918100916090938100282F9F
:103FF00030E0F901E858FE4FE491F0E0EE0FFF1FCA
:10400000EB55FE4F459154915093650640936406DD
:10401000F901E75AFE4F2491209363063324339429
:104020002BC0109290001092910090919100986096
:104030009093910090919100916090939100282F1E
:1040400030E0F901E858FE4FE491F0E0EE0FFF1F79
:10405000EB55FE4F4591549150935E0640935D069B
:10406000F901E75AFE4F249120935C0673E0372E46
:1040700003C03E2E37FC70C161E00E94CC1D480198
:10408000A12CB12C832D8D7F09F0BDC060E072E1C1
:104090008AE790E0A50194010E94EB2829833A83E6
:1040A0004B835C8369017A0181E0C81AD108E10879
:1040B000F1089FEFC916D104E104F10409F008F4F6
:1040C0009AC060E472E48FE090E0A50194010E9440
:1040D000EB2869017A01E1E0CE1AD108E108F10884
:1040E000F2E03F1219C08FEFC816D104E104F104C9
:1040F00009F008F4CCC060E970ED83E090E0A50120
:1041000094010E94EB2869017A0191E0C91AD10853
:10411000E108F10883E001C082E0EFEFCE16D104A0
:10412000E104F10409F008F467C068E478EE81E086
:1041300090E0A50194010E94EB2869017A01F1E069
:10414000CF1AD108E108F1083320E1F082E03812FB
:104150001BC09FEFC916D104E104F10409F008F473
:1041600096C064E274EF80E090E0A50194010E94A3
:10417000EB2869017A01E1E0CE1AD108E108F108E3
:1041800085E003C083E001C084E0FFEFCF16D104D7
:10419000E104F10489F180F162E17AE780E090E0E6
:1041A000A50194010E94EB2869017A0181E0C81AF7
:1041B000D108E108F108311002C084E001C086E0B6
:1041C0009FEFC916D104E104F104B1F0A8F0C98051
:1041D000DA80EB80FC809AE0F594E794D794C7945A
:1041E0009A95D1F7E1E0CE1AD108E108F108311033
:1041F0004EC085E003C081E0311049C095B5987F7D
:10420000982B95BD44C060E072E18AE790E0A5017B
:1042100094010E94EB2869017A01F1E0CF1AD108DC
:10422000E108F108C114D10481E0E806F10488F046
:1042300068E478EE81E090E0A50194010E94EB280B
:1042400069017A0191E0C91AD108E108F10893E007
:1042500001C091E0E1E03E1207C080918100887FBB
:10426000892B8093810013C0F3E03F1207C0809137
:104270009100887F892B8093910009C084E03812D7
:1042800006C08091C100887F892B8093C1004114B2
:1042900051046104710471F0D801AA0FBB1FA3017E
:1042A00092010E94102928EE33E040E050E00E9485
:1042B000C92803C02FEF3FEFA90191E0391649F15A
:1042C00093158CF0311048C0C7BC20936D06309315
:1042D0006E0640936F065093700680916E00826068
:1042E00080936E0039C0E3E03E1629F1F4E03F12FE
:1042F00033C0C092CF0020935806309359064093A4
:104300005A0650935B06809172008064809372001D
:1043100023C0D0928900C092880020936606309313
:104320006706409368065093690680916F0082602B
:1043300080936F0011C0D0929900C0929800209392
:104340005F06309360064093610650936206809149
:1043500071008260809371000F900F900F900F900A
:10436000DF91CF911F910F91FF90EF90DF90CF9051
:10437000BF90AF909F908F907F906F905F904F9085
:104380003F9008958230A1F028F4882341F08130D5
:1043900049F00895833091F08430B1F0089510927F
:1043A0006E00089580916F008D7F80936F00089557
:1043B000809170008D7F80937000089580917100CE
:1043C0008D7F809371000895809172008F7B809320
:1043D00072000895CF93C82F80911B018C1307C0E2
:1043E000E3E0F2E084919FEF90931B0101C08FEF17
:1043F0000E94C22160E08C2FCF910C94051E1F9269
:104400000F920FB60F9211242F933F934F935F9308
:104410006F937F938F939F93AF93BF93EF93FF938C
:1044200080915F0690916006A0916106B09162064E
:10443000892B8A2B8B2B51F190915C06E0915D06C4
:10444000F0915E0680818927808380915F0690913C
:104450006006A0916106B0916206181619061A0648
:104460001B062CF580915F0690916006A091610675
:10447000B09162060197A109B10980935F069093FC
:104480006006A0936106B093620611C083E00E94AB
:10449000C22120915C06E0915D06F0915E0680816C
:1044A00090E030E020953095822393238083FF9124
:1044B000EF91BF91AF919F918F917F916F915F919C
:1044C0004F913F912F910F900FBE0F901F90189515
:1044D000615030F02091F100FC0120830196F8CF6B
:1044E000289A84E680937A06089540917506509143
:1044F0007606209173063091740642175307B4F480
:104500009091E8009570E1F39091E80092FD19C058
:104510008093F100809175069091760601968F73D5
:104520009927892B19F48EEF8093E8008091750606
:10453000909176060196909376068093750681E0B9
:10454000089580E00895CF92DF92EF92FF920F934B
:104550001F93CF93DF931F92CDB7DEB7082F162F8F
:10456000F42E862F880F8E5F99830E94752283E038
:104570000E947522E02EC02E9981D92E8C2D8E1985
:10458000811798F4F601F7FE02C0849101C0808182
:104590000E947522082F80E00E9475228023FFEF81
:1045A000CF1ADF0A8111EACF01C081E00F90DF91BD
:1045B000CF911F910F91FF90EF90DF90CF900895D2
:1045C0008091D70081608093D70080EA8093D800E3
:1045D00089B5806189BD89B5826089BD09B400FE55
:1045E000FDCF61E070E080E090E00E942C1C8091A3
:1045F000D8008F7C80618093D8008091E000807F1C
:104600008093E0000895CF93DF931F92CDB7DEB77C
:104610001982CE0101960E94C11E0E947128BE011E
:104620006F5F7F4F0E94EA2789810F90DF91CF91C2
:1046300008952FB7FC012083F89467706093E90018
:104640000895CF93DF931F92CDB7DEB7682FCE01C9
:1046500001960E9419238091F20099819FBF0F90CB
:10466000DF91CF910895FF920F931F93CF93DF9324
:1046700000D0CDB7DEB7F62E8A0190917906992346
:1046800011F057FF03C08FEF9FEF2BC0682FCE01B3
:1046900001967A830E9419238091F20090E0A8018C
:1046A0007A81801791070CF4AC01EF2DF72FF40EEF
:1046B00084E6FE1639F0289A80937A069091F100EC
:1046C0009193F7CF4115510521F08091F200882395
:1046D00021F089818FBFCA0104C08BE68093E80076
:1046E000F8CF0F900F90DF91CF911F910F91FF9016
:1046F0000895CF93DF931F92CDB7DEB741E050E02E
:10470000BE016F5F7F4F0E943323019719F48981A7
:1047100090E002C08FEF9FEF0F90DF91CF9108954F
:10472000CF93DF931F92CDB7DEB7682FCE010196EE
:104730000E9419239091E800892F807295FF04C090
:104740009091F20080E4891B99819FBF0F90DF91C7
:10475000CF9108956F927F928F929F92AF92BF9266
:10476000CF92DF92EF92FF920F931F93CF93DF933D
:104770001F92CDB7DEB7782E7B01C42EB52E809167
:104780007906882369F0042F152F8AEFD82E872DFC
:104790008072982E9AE3A92E872D8074882E11C0DE
:1047A0008FEF9FEF57C0872D0E949023682E8111B5
:1047B0000CC0DA94A9F361E070E080E090E00E9420
:1047C0002C1C0115110579F73BC0282F30E002178A
:1047D00013070CF4602E672DCE0101960E94192359
:1047E0008091E80085FF29C0262D30E0021B130BC5
:1047F000992039F06A948FEF6816B1F01092F100A9
:10480000F9CFF701862D77FE07C0815058F09491BB
:104810009093F1003196F9CF815020F091919093CF
:10482000F100FACFE20EF31E8091E80085FF0FC081
:104830000115110511F481100AC089818FBFC1CF04
:104840005D9A84E680937B068C2D9B2D03C0A092FD
:10485000E800F3CF0F90DF91CF911F910F91FF9060
:10486000EF90DF90CF90BF90AF909F908F907F9010
:104870006F9008951092E9001092760610927506D6
:1048800090937406809373060895CF92DF92FF92FF
:104890000F931F93CF93DF9300D0CDB7DEB7F82EE1
:1048A0008A016B0101151105B1F0F601F7FE02C096
:1048B000849101C0808149835A830E9475220150EE
:1048C0001109FFEFCF1ADF0A49815A818111EACF1E
:1048D0008FEF9FEF01C0CA010F900F90DF91CF9132
:1048E0001F910F91FF90DF90CF900895BF92CF92CC
:1048F000DF92EF92FF920F931F93CF93DF936C01A0
:104900008B01EB013BEFB32E2097C1F07E01C13448
:10491000D1051CF020E4E22EF12C8091E80082FF0A
:10492000FCCFC8018C1B9D0B6E2D8C0D9D1D0E9414
:104930006822B092E800CE19DF09E6CFC801DF9106
:10494000CF911F910F91FF90EF90DF90CF90BF908C
:1049500008951F920F920FB60F921124DF92EF92DB
:10496000FF920F931F932F933F934F935F936F93F8
:104970007F938F939F93AF93BF93EF93FF93CF93C7
:10498000DF93CDB7DEB76C97DEBFCDBF1092E900E5
:104990008091E80083FF23C168E0CE0145960E9424
:1049A000682282EF8093E8003D8937FF05C080913F
:1049B000E80080FFFCCF03C08EEF8093E800832FD8
:1049C000807609F0F0C02E894F89D88C21110CC057
:1049D000303829F4809178068093F10002C010925B
:1049E000F1001092F100F4C0842F90E09D29213055
:1049F00049F43111EDC0019709F0EAC080917806C1
:104A00008D7F0AC0233059F43111E2C0019709F0BB
:104A1000DFC080917806826080937806D9C0253007
:104A200041F48091E80080FFFCCF40684093E300B0
:104A3000CFC0263009F08DC0EB8CFC8C22E0D21266
:104A40002CC080E090E00E943A240E94032399E069
:104A50008E010F5F1F4FF801292F11922A95E9F758
:104A60009983DA8291E09E8390EA98879AEF9987FA
:104A70002091750630917606275F3F4F3C832B834C
:104A80008D83C7010E943A2449E050E0B80180E0DC
:104A90000E9445240E9403239BC0C7010E943A2420
:104AA0000E947128BE016B5E7F4F0E941328009701
:104AB00019F00CF08DC090C081E0D8120EC08B8D23
:104AC0009C8D089719F481E080937206809172069C
:104AD00081112FC066E172E031C0E3E0DE127CC0DC
:104AE0008F89882349F1823029F440E86DE084E31E
:104AF00092E01CC0813029F440E86BE088E292E04B
:104B000015C0833009F068C00E9471288E010F5FC4
:104B10001F4FB8010E943228F80101900020E9F7E8
:104B20003197E01BF10B40E06E2FC8010E94A322D9
:104B30004DC064E072E002C062E472E0611571058C
:104B400009F44AC0FB01449150E080E80E944524EA
:104B50003FC0273009F440C0283021F481E0809321
:104B6000F10036C02930A1F53370B1F5EDE1F1E087
:104B700081E021E036E39081992361F08093E900A0
:104B80002093EB0091919093EC003093ED008F5FB8
:104B9000873089F78EE78093EA001092EA008F89C8
:104BA0008093790615C08B8D9C8D0E943A24898D47
:104BB000811105C0CE0145960E94CC1E07C00E94FF
:104BC0007128BE016B5E7F4F0E945128882321F01F
:104BD0008EEF8093E80003C081E28093EB006C9637
:104BE0000FB6F894DEBF0FBECDBFDF91CF91FF911E
:104BF000EF91BF91AF919F918F917F916F915F9155
:104C00004F913F912F911F910F91FF90EF90DF9067
:104C10000F900FBE0F901F9018958093E900809120
:104C2000F200882319F08AE38093E80008951F9228
:104C30000F920FB60F9211242F933F934F935F93D0
:104C40006F937F938F939F93AF93BF93CF93EF9384
:104C5000FF93C091E1008091E100837F8093E100A8
:104C60008093E100C3FF0FC01092E90081E08093C0
:104C7000EB001092EC0082E38093ED001092790635
:104C800088E08093F000C2FF19C083E00E940D26E7
:104C900080917B06882339F080917B068150809338
:104CA0007B06882389F180917A06882339F08091E8
:104CB0007A06815080937A06882341F1C4FF10C0A0
:104CC0008091E2008E7E81608093E2008091E1001D
:104CD0008F7E8093E100809177068E7E806111C087
:104CE000C0FF16C08091E2008E7E80618093E2005A
:104CF0008091E1008E7E8093E100809177068E7E28
:104D000081608093770604C05D98CDCF2898D6CF78
:104D1000FF91EF91CF91BF91AF919F918F917F9133
:104D20006F915F914F913F912F910F900FBE0F9018
:104D30001F901895109279061092780610927706B7
:104D40000E94E022E1EEF0E080818E7E80838DE0A3
:104D50008093E200559A209A5D98289808954F9282
:104D60005F926F927F92AF92BF92CF92DF92EF925B
:104D7000FF920F931F93CF93DF93CDB7DEB7290137
:104D80003A01621B730B840B950B29893A894B8975
:104D90005C892A193B094C095D09298B3A8B4B8B9D
:104DA0005C8B9B01AC0169897A898B899C890E9403
:104DB0008528E418F50806091709A80197010E943B
:104DC000EB282A0D3B1D4C1D5D1DCA01B901DF9169
:104DD000CF911F910F91FF90EF90DF90CF90BF90F8
:104DE000AF907F906F905F904F900895FC0180810D
:104DF00091810C94C229CF93DF93EC018881998132
:104E0000009711F00E94C229198218821D821C820B
:104E10001B821A82DF91CF9108950F931F93CF9336
:104E2000DF93EC018B016F5F7F4F888199810E9436
:104E3000512A009731F0998388831B830A8381E08C
:104E400001C080E0DF91CF911F910F910895CF9322
:104E5000DF93EC0188819981892B29F08A819B81DC
:104E60008617970760F4CE010E940D27882341F032
:104E70008C819D81892B19F4E881F981108281E070
:104E8000DF91CF910895EF92FF920F931F93CF93ED
:104E9000DF93EC017B018A01BA010E94272781116F
:104EA00004C0CE010E94FB2607C01D830C83B701FE
:104EB000888199810E94242BCE01DF91CF911F918F
:104EC0000F91FF90EF900895CF93DF93EC01611560
:104ED000710561F0FB0101900020E9F7AF0141503D
:104EE0005109461B570B0E94432702C00E94FB2614
:104EF000CE01DF91CF9108950F931F93CF93DF934E
:104F0000CDB7DEB7A2970FB6F894DEBF0FBECDBF08
:104F10008C01CB01BA01F801118210821382128236
:104F20001582148230E0AE014F5F5F4F0E945F2B0D
:104F3000BE016F5F7F4FC8010E946427A2960FB623
:104F4000F894DEBF0FBECDBFDF91CF911F910F91BF
:104F500008950F931F93CF93DF93EB0141155105F4
:104F6000E9F02097D9F0FC01648175812617370795
:104F7000A0F4621B730B8A010150110960177107BD
:104F800008F48B01FC0160817181620F731FA8011D
:104F9000CE010E942B2BC00FD11F1882DF91CF9121
:104FA0001F910F91089508950E94711C0E94D327AC
:104FB00081E796E00E949A260E948207C0E0D0E036
:104FC0000E940C0D2097E1F30E940000F9CF0C9491
:104FD0002A290895EF92FF920F931F93CF93DF93A7
:104FE0007B01FC01C281D38100E010E0209781F0B9
:104FF000E881F9810280F381E02DB701CE010995A6
:1050000097FD08C0080F191F0884D985C02DEECF61
:10501000C80102C08FEF9FEFDF91CF911F910F91D9
:10502000FF90EF9008950F931F93CF93DF938B0121
:10503000FC01C281D381209771F0E881F98104805D
:10504000F581E02DB801CE010995009731F408846F
:10505000D985C02DF0CF80E090E0DF91CF911F91F6
:105060000F9108950F931F93CF93DF938B01FC0152
:10507000C281D381209771F0E881F9810680F781A0
:10508000E02DB801CE010995080F111D0884D985BE
:10509000C02DF0CFF8011082DF91CF911F910F91B9
:1050A00008950F931F93CF93DF938B01FC01C2816F
:1050B000D381209771F0E881F9810190F081E02D92
:1050C000B801CE010995811106C00884D985C02D8B
:1050D000F0CF80E001C081E0DF91CF911F910F916F
:1050E00008958091800681110DC082E080937C0636
:1050F00084E080937D0610927F0610927E0681E008
:10510000809380068CE796E00895DB018F939F9350
:105110000E941029BF91AF91A29F800D911DA39F66
:10512000900DB29F900D11240895991B79E004C051
:10513000991F961708F0961B881F7A95C9F78095D6
:105140000895AA1BBB1B51E107C0AA1FBB1FA617CE
:10515000B70710F0A61BB70B881F991F5A95A9F720
:1051600080959095BC01CD01089597FB072E16F40C
:10517000009407D077FD09D00E94A12807FC05D034
:105180003EF4909581959F4F0895709561957F4F5E
:105190000895A1E21A2EAA1BBB1BFD010DC0AA1F78
:1051A000BB1FEE1FFF1FA217B307E407F50720F090
:1051B000A21BB30BE40BF50B661F771F881F991F0B
:1051C0001A9469F760957095809590959B01AC0154
:1051D000BD01CF010895052E97FB1EF400940E9497
:1051E000022957FD07D00E94C92807FC03D04EF4BE
:1051F0000C94022950954095309521953F4F4F4F83
:105200005F4F089590958095709561957F4F8F4F72
:105210009F4F0895EE0FFF1F0590F491E02D099424
:105220000E941B29A59F900DB49F900DA49F800DF7
:10523000911D11240895A29FB001B39FC001A39FA7
:10524000700D811D1124911DB29F700D811D1124BF
:10525000911D0895CF93DF938230910510F482E081
:1052600090E0E0918A06F0918B0620E030E0A0E02B
:10527000B0E0309739F14081518148175907B8F0B3
:105280004817590771F482819381109729F013967A
:105290009C938E9312972CC090938B0680938A06D2
:1052A00027C02115310531F04217530718F0A90125
:1052B000DB0101C0EF019A01BD01DF010280F38132
:1052C000E02DD7CF21153105F9F0281B390B2430FB
:1052D000310580F48A819B816115710521F0FB0104
:1052E0009383828304C090938B0680938A06FE0189
:1052F000329644C0FE01E20FF31F81939193225036
:105300003109398328833AC0209188063091890673
:10531000232B41F42091020130910301309389063F
:10532000209388062091000130910101211531055B
:1053300041F42DB73EB74091040150910501241B63
:10534000350BE0918806F0918906E217F307A0F487
:105350002E1B3F0B2817390778F0AC014E5F5F4FCB
:105360002417350748F04E0F5F1F5093890640936E
:1053700088068193919302C0E0E0F0E0CF01DF91D5
:10538000CF910895CF93DF93009709F487C0FC0174
:10539000329713821282C0918A06D0918B06209791
:1053A00081F420813181280F391F809188069091E6
:1053B00089068217930779F5F0938906E0938806AA
:1053C0006DC0DE0120E030E0AE17BF0750F412964A
:1053D0004D915C9113979D014115510509F1DA0139
:1053E000F3CFB383A28340815181840F951F8A1725
:1053F0009B0771F48D919C911197840F951F0296D4
:105400009183808312968D919C91139793838283CD
:105410002115310529F4F0938B06E0938A063EC0EE
:10542000D9011396FC93EE9312974D915D91A40FC1
:10543000B51FEA17FB0779F480819181840F951FCE
:105440000296D90111969C938E9382819381139633
:105450009C938E931297E0E0F0E08A819B81009705
:1054600019F0FE01EC01F9CFCE01029628813981B5
:10547000820F931F209188063091890628173907DB
:1054800069F4309729F410928B0610928A0602C0B4
:1054900013821282D0938906C0938806DF91CF9140
:1054A0000895A0E0B0E0E7E5FAE20C94AF2BEC0140
:1054B000CB01209719F40E942A29B8C0FE01E60FFB
:1054C000F71F9E0122503109E217F30708F4ACC020
:1054D000D9010D911C91119706171707B8F00530E7
:1054E000110508F49FC0A8014450510946175707F9
:1054F00008F498C002501109061B170B0193119371
:105500006D937C93CF010E94C2298CC05B01A01ACD
:10551000B10A4E01800E911EA0918A06B0918B06B1
:10552000612C712C60E070E0109709F449C0A81557
:10553000B905C9F5ED90FC901197670142E0C40EE2
:10554000D11CCA14DB0478F147018A189B08640156
:1055500042E0C40ED11C1296BC9012971396AC91E7
:10556000B5E0CB16D10440F0B282A3839182808251
:10557000D9018D939C9309C00E5F1F4F0E0D1F1D07
:10558000F90111830083EB2DFA2F6115710531F0BC
:10559000DB011396FC93EE93129744C0F0938B06B5
:1055A000E0938A063FC06D917C911197661677064D
:1055B00008F43B01BD0112960D90BC91A02DB4CF13
:1055C000609188067091890668157905E9F4681676
:1055D0007906D0F440910001509101014115510527
:1055E00041F44DB75EB76091040170910501461B0F
:1055F000570BE417F507C0F4F0938906E09388068B
:10560000F901918380830EC00E942A297C010097B2
:1056100059F0A801BE010E941B2BCE010E94C22995
:10562000C70104C0CE0102C080E090E0CDB7DEB774
:10563000EEE00C94CB2BFB01DC0102C001900D923B
:1056400041505040D8F70895FB01DC0101900D92C4
:105650000020E1F70895FB01DC014150504048F083
:1056600001900D920020C9F701C01D924150504099
:10567000E0F70895FC0181E090E00190061609F43E
:10568000CF010020D1F701970895FB0151915523D7
:10569000A9F0BF01DC014D9145174111E1F759F423
:1056A000CD010190002049F04D9140154111C9F301
:1056B000FB014111EFCF81E090E001970895253281
:1056C000310520F4223010F00C946A2BFA0110827C
:1056D000CA010895BB272A3051F4992342F4BDE250
:1056E00090958095709561957F4F8F4F9F4F0C944B
:1056F0007A2BBB27FA01A62F621771058105910548
:10570000330B30FB66F0AA27660F771F881F991F9F
:10571000AA1FA21710F0A21B63953850A9F7A05D2D
:10572000AA3308F0A95DA19336F7B111B1931082A5
:10573000CA010C949B2BDC01FC01672F719177232C
:10574000E1F7329704C07C916D9370836291AE173C
:10575000BF07C8F308952F923F924F925F926F92C6
:105760007F928F929F92AF92BF92CF92DF92EF92F1
:10577000FF920F931F93CF93DF93CDB7DEB7CA1B72
:10578000DB0B0FB6F894DEBF0FBECDBF09942A889D
:10579000398848885F846E847D848C849B84AA8445
:1057A000B984C884DF80EE80FD800C811B81AA81D2
:1057B000B981CE0FD11D0FB6F894DEBF0FBECDBF9D
:0857C000ED010895F894FFCFFC
:1057C80000008C0680000100000021FF130001FF8B
:1057D800FFFFFF00E1000000000000FF00C1808122
:1057E8000000004D617820736572766F73206174D4
:1057F80074616368656400556E6B6E6F776E2070B8
:10580800696E206D6F646500533A5C506572736F02
:105818005C4769744875625C746563686E6F6C6F29
:10582800676965735C61726475696E6F5C706572D7
:10583800736F5C332E53637261746368322E305C0D
:10584800733261696F2D4669726D617461506C7550
:10585800735C733261696F2D4669726D6174615052
:105868006C75732E696E6F004932433A20546F6F1E
:10587800206D616E79206279746573207265636545
:1058880069766564004932433A20546F6F20666533
:1058980077206279746573207265636569766564DB
:1058A8000031302D626974206164647265737369B4
:1058B8006E67206E6F7420737570706F7274656494
:1058C80000746F6F206D616E7920717565726965FE
:1058D800730050494E475F434F4E46494720457233
:1058E800726F723A204578636565646564206E75E9
:1058F8006D626572206F6620737570706F72746563
:10590800642070696E672064657669636573005307
:1059180054455050455220434F4E46494720457202
:10592800726F723A2057726F6E67204E756D62659E
:1059380072206F6620617267756D656E74730053AF
:10594800544550504552204F5045524154452045EA
:1059580072726F723A204D4F544F52204E4F54205E
:10596800434F4E46494755524544005354455050BD
:105978004552204649524D574152452056455253AB
:10598800494F4E204572726F723A204E4F204D4F4C
:10599800544F525320434F4E4649475552454400B1
:1059A8005354455050455220434F4E464947204591
:1059B80072726F723A20554E4B4E4F574E205354C9
:1059C800455050455220434F4D4D414E4400617261
:1059D8006763203D00AC04A2049804000000001A8C
:1059E80011ED10C210CA10DD10EC102E637070009B
:1059F80000000000971A00000000641EAB1E8E1EF7
:065A08009E1E7A1E8B1E9B
:00000001FF
