:1000000052C1000081C100007FC100007DC100001D
:100010007BC1000079C1000077C1000075C10000FC
:1000200073C100004BC3000079C30000A7C30000E8
:100030006BC100000C94FD2667C1000065C1000083
:1000400063C100000C94B0115FC100005DC10000ED
:100050005BC1000059C1000057C100000C94961EFE
:1000600053C100000C94F6220C942C234DC10000C7
:100070004BC1000049C1000047C1000045C100005C
:100080000C94DD1141C100003FC100003DC10000E2
:100090003BC1000039C1000037C100000C94EC15D1
:1000A00033C1000031C100000C940A122DC10000C0
:1000B0002BC1000029C1000027C100000C94371299
:1000C00023C1000021C100001FC100001DC10000AC
:1000D0001BC1000019C1000017C1000015C10000BC
:1000E00013C10000B908C708AA08D408E60818090F
:1000F0000A0918091409000910091209801C851C35
:100100008D1C981C9A1C9F1CA71CB21CC01CC21CD6
:10011000A01DA31D961D9A1DDA1DDA1DA71DAB1D7E
:10012000B11DB51DB91DBF1DC31DC71DDA1DCD1DD8
:10013000D11DD51DFD1F0220072011201B2094205A
:1001400025202D2035203F204920532062206C207F
:100150009420762080208A20B620B920A820AC20C8
:10016000B220F020BD20C120C720CB20CF20D52039
:10017000D920DD20F020E320E720EB2000000A0B4F
:1001800002090C0D0E080703040100000000000026
:10019000000000000000000000000000000000005F
:1001A000000000000000000012111000000000001C
:1001B000000000000000000000000000000000003F
:1001C000000001021020200808102040102040806C
:1001D000020102010804020101020408102040800B
:1001E0008040201008040201800402018040201099
:1001F00008040201080402010102040810204080E2
:1002000001020408102040800505050507050808BF
:100210000808020202020A0A080804040404010190
:1002200001010101010103030303030303030407A5
:1002300007070C0C0C0C0C0C0C0C0202020206063C
:100240000606060606060B0B0B0B0B0B0B0B000032
:1002500020002300260029002C002F00320000017E
:10026000000003010601090100002200250028000A
:100270002B002E00310034000201000005010801AE
:100280000B0100002100240027002A002D0030006F
:10029000330001010000040107010A010200720A93
:1002A0000315AF1A5E2311241FBECFEFD1E2DEBFCC
:1002B000CDBF00E00CBF14E0A0E0B2E0EEE7F7E550
:1002C00000E00BBF02C007900D92A234B107D9F72E
:1002D00029E0A2E4B4E001C01D92AA37B207E1F719
:1002E00012E0C6EAD2E000E006C022970109FE0152
:1002F0000BBF0E941229CE39D10780E00807A9F769
:100300000E9473280C94BD2B7BCE1F93CF93DF9359
:10031000162F893008F070C0982F990F990F990FF8
:10032000985F973408F096E4D82FDD0FDD0FDD0FCE
:100330008D2FC0E041E08917E8F42EEF280F243418
:10034000B0F4E82FF0E0DF01A758B94F2C9122302C
:1003500070F4C42BEE0FFF1FEC51FA4F21E030E098
:10036000542F512311F420E030E031832083440FD7
:100370008F5FE1CFC0FF05C0612F61708D2F0E949C
:100380002A21C1FF06C0612F627081E08D0F0E949B
:100390002A21C2FF06C0612F647082E08D0F0E9487
:1003A0002A21C3FF06C0612F687083E08D0F0E9471
:1003B0002A21C4FF06C0612F607184E08D0F0E9466
:1003C0002A21C5FF06C0612F607285E08D0F0E9453
:1003D0002A21C6FF06C0612F607486E08D0F0E943F
:1003E0002A21C7FF09C0612F607887E08D0FDF9158
:1003F000CF911F910C942A21DF91CF911F910895E5
:100400000F931F93CF93DF93EB01863470F5082F82
:1004100010E0F801E758F94F90819330A1F0943043
:1004200021F582508434D0F4F801EB54FB4F208145
:1004300030E0C901880F991F820F931F85509B4F91
:100440000E9475130BC09EEF980F9C3020F094ED26
:10045000980F933018F4BE010E94D91FF801EE0FD7
:10046000FF1FEC51FA4FD183C083DF91CF911F91D1
:100470000F910895CF93C82F803158F54091D10640
:100480005091D20621E030E0082E02C0220F331F27
:100490000A94E2F7672B49F42095309524233523FD
:1004A0003093D2062093D10614C0242B352B3093E1
:1004B000D2062093D1068091590481110AC08C2F55
:1004C0000E94B41FAC016C2F87E498E0CF910C948C
:1004D0009118CF910895CF93DF93DC01FB01228324
:1004E000518340831296CD91DC911397888193813B
:1004F000892B888382818D7F813041F415968C9180
:1005000015979381892B15968C931597828181502D
:10051000823040F416968C9116979381892B16960B
:100520008C9316978091680014969C91892B8093E8
:100530006800DF91CF910895CF92DF92FF920F93E1
:100540001F93CF93DF9300D0CDB7DEB76C01E62FBA
:10055000F0E0EE53FE4FF490FC018085918500970A
:1005600071F08C01FC0183818F1105C0B801C601B7
:10057000B2DF80E02EC0F80185819681F0CF87E060
:1005800090E02B8349835A830E948028DC012B81D1
:1005900049815A81009721F4109202008FEF19C00F
:1005A00012962C93129716961C921E9215971396DC
:1005B000FC921397F60180859185892B19F4B187F8
:1005C000A08703C0F801B683A583BD01C60183DF00
:1005D00081E00F900F900F90DF91CF911F910F91BD
:1005E000FF90DF90CF900895242FE82FF0E0E85F90
:1005F000FD4FE491EE23D1F061157105B9F0F0E003
:100600003297EA30F10540F4EE0FFF1FEE5FFB4F2B
:100610000190F081E02D02C0E0E0F0E0A081B18126
:100620009C919783AB01682FCF0186CF8FEF089500
:10063000FF920F931F93CF93DF93EC018091F1060C
:100640009F812D813E81F82EF094F3222823F22AF7
:100650009827F9228F830885198501151105D9F08E
:10066000D80113969C918F2D892389F08091F106F2
:10067000892391E009F490E0F801948380819181CD
:10068000DC01ED91FC910190F081E02D1995F801CC
:1006900005811681E2CF8BB39C81892349F09BB3FE
:1006A000982B9BBBE881F98180818093F106C6CFAE
:1006B000DF91CF911F910F91FF9008951F920F929C
:1006C0000FB60F9211240BB60F922F933F934F93B7
:1006D0005F936F937F938F939F93AF93BF93EF93AA
:1006E000FF93E091E706F091E80680818093F106A0
:1006F00087EE96E09DDFFF91EF91BF91AF919F91C3
:100700008F917F916F915F914F913F912F910F90BA
:100710000BBE0F900FBE0F901F9018951F920F9257
:100720000FB60F9211240BB60F922F933F934F9356
:100730005F936F937F938F939F93AF93BF93EF9349
:10074000FF93E091DD06F091DE0680818093F10653
:100750008DED96E06DDFFF91EF91BF91AF919F918D
:100760008F917F916F915F914F913F912F910F905A
:100770000BBE0F900FBE0F901F9018951F920F92F7
:100780000FB60F9211240BB60F922F933F934F93F6
:100790005F936F937F938F939F93AF93BF93EF93E9
:1007A000FF93E091D306F091D40680818093F10607
:1007B00083ED96E03DDFFF91EF91BF91AF919F9167
:1007C0008F917F916F915F914F913F912F910F90FA
:1007D0000BBE0F900FBE0F901F901895DB019A0172
:1007E000909183049033D0F540918404682F70E099
:1007F000442369F0E42FF0E0EC57FB4F8081FB01CC
:10080000EB54FB4F808341504093840407C0FB01AD
:10081000EB54FB4F90839F5F90938304FB01EB5459
:10082000FB4F1A161B067CF41216130664F4408163
:1008300050E0CA01880F991F840F951FAD018550A4
:100840009B4F0C948012208130E0C901880F991FC2
:10085000820F931F85509B4F0C942F1360E172E021
:1008600087E498E00C941A19CF93DF93C82FD0E057
:10087000CB54DB4F288130E0C901880F991F820FCC
:10088000931F85509B4F0E9434138881909183045D
:10089000891306C0882379F08150809383040BC0AC
:1008A000992349F0E0918404EF5FE0938404F0E041
:1008B000EC57FB4F80838FEF8883DF91CF910895B2
:1008C0001F93CF93DF93162FC82FD0E0FE01E0597E
:1008D000F94F90811923C154D94F411103C0988118
:1008E000911741F0412F50E0682F87E498E00E9473
:1008F000A9181883DF91CF911F910895EF92FF926D
:100900000F931F93CF93DF93E82E88E08E1508F4A2
:100910007DC02E2D30E0F901E853F94F6083672B3D
:1009200009F474C0F901E059F94FF0800E2D000F61
:10093000000F000F8EEF800F843408F057C0F0FED8
:1009400055C0802F0E945F21892B09F44FC011E010
:100950008FEF800F843448F4F1FE07C081E0800FF0
:100960000E945F21892B09F043C0C02FD0E0F2FE26
:1009700006C082E0800F0E945F21892BD9F5F3FE2B
:1009800006C083E0800F0E945F21892BA9F5F4FE49
:1009900006C084E0800F0E945F21892B79F5F5FE67
:1009A00006C085E0800F0E945F21892B49F5C03485
:1009B000D10541F0F6FE06C086E0800F0E945F215F
:1009C000892B01F5EF9744F4F7FE06C087E0800F0E
:1009D0000E945F21892BC1F441E0612F8E2DDF91B0
:1009E000CF911F910F91FF90EF906ACF10E0B0CFA1
:1009F0001260BBCF1460C3CF1860C9CF1061CFCFD6
:100A00001062D5CF1064DECF1068E6CFDF91CF91B2
:100A10001F910F91FF90EF900895CF93DF938091F6
:100A2000C8068823B9F1D0917006D2FF85C282E052
:100A30000E945F21892B09F47FC2C4E0D3FF06C066
:100A400083E00E945F21892B09F078C2D4FF06C0A1
:100A500084E00E945F21892B09F072C2D5FF06C095
:100A600085E00E945F21892B09F06CC2D6FF06C089
:100A700086E00E945F21892B09F066C2D7FF06C07D
:100A800087E00E945F21892B09F060C240E06C2F53
:100A900080E016DF8091C906882309F447C0D09111
:100AA0007106D0FF55C288E00E945F21892B09F4AE
:100AB0004FC2C1E0D1FF06C089E00E945F21892BAF
:100AC00009F048C2D2FF06C08AE00E945F21892B4C
:100AD00009F042C2D3FF06C08BE00E945F21892B40
:100AE00009F03CC2D4FF06C08CE00E945F21892B34
:100AF00009F036C2D5FF06C08DE00E945F21892B28
:100B000009F030C2D6FF06C08EE00E945F21892B1B
:100B100009F02AC2D7FF06C08FE00E945F21892B0F
:100B200009F024C240E06C2F81E0CADE8091CA0641
:100B3000882309F447C0D0917206D0FF19C280E122
:100B40000E945F21892B09F413C2C1E0D1FF06C0C6
:100B500081E10E945F21892B09F00CC2D2FF06C0FF
:100B600082E10E945F21892B09F006C2D3FF06C0F3
:100B700083E10E945F21892B09F000C2D4FF06C0E7
:100B800084E10E945F21892B09F0FAC1D5FF06C0DC
:100B900085E10E945F21892B09F0F4C1D6FF06C0D0
:100BA00086E10E945F21892B09F0EEC1D7FF06C0C4
:100BB00087E10E945F21892B09F0E8C140E06C2F9A
:100BC00082E07EDE8091CB06882309F447C0D09175
:100BD0007306D0FFDDC188E10E945F21892B09F4F3
:100BE000D7C1C1E0D1FF06C089E10E945F21892BF6
:100BF00009F0D0C1D2FF06C08AE10E945F21892B93
:100C000009F0CAC1D3FF06C08BE10E945F21892B86
:100C100009F0C4C1D4FF06C08CE10E945F21892B7A
:100C200009F0BEC1D5FF06C08DE10E945F21892B6E
:100C300009F0B8C1D6FF06C08EE10E945F21892B62
:100C400009F0B2C1D7FF06C08FE10E945F21892B56
:100C500009F0ACC140E06C2F83E032DE8091CC061D
:100C6000882309F447C0D0917406D0FFA1C180E267
:100C70000E945F21892B09F49BC1C1E0D1FF06C00E
:100C800081E20E945F21892B09F094C1D2FF06C046
:100C900082E20E945F21892B09F08EC1D3FF06C03A
:100CA00083E20E945F21892B09F088C1D4FF06C02E
:100CB00084E20E945F21892B09F082C1D5FF06C022
:100CC00085E20E945F21892B09F07CC1D6FF06C016
:100CD00086E20E945F21892B09F076C1D7FF06C00A
:100CE00087E20E945F21892B09F070C140E06C2FE0
:100CF00084E0E6DD8091CD06882309F447C0D091D9
:100D00007506D0FF65C188E20E945F21892B09F436
:100D10005FC1C1E0D1FF06C089E20E945F21892B3B
:100D200009F058C1D2FF06C08AE20E945F21892BD8
:100D300009F052C1D3FF06C08BE20E945F21892BCC
:100D400009F04CC1D4FF06C08CE20E945F21892BC0
:100D500009F046C1D5FF06C08DE20E945F21892BB4
:100D600009F040C1D6FF06C08EE20E945F21892BA8
:100D700009F03AC1D7FF06C08FE20E945F21892B9C
:100D800009F034C140E06C2F85E09ADD8091CE06F9
:100D9000882309F447C0D0917606D0FF29C180E3AB
:100DA0000E945F21892B09F423C1C1E0D1FF06C055
:100DB00081E30E945F21892B09F01CC1D2FF06C08C
:100DC00082E30E945F21892B09F016C1D3FF06C080
:100DD00083E30E945F21892B09F010C1D4FF06C074
:100DE00084E30E945F21892B09F00AC1D5FF06C068
:100DF00085E30E945F21892B09F004C1D6FF06C05C
:100E000086E30E945F21892B09F0FEC0D7FF06C050
:100E100087E30E945F21892B09F0F8C040E06C2F26
:100E200086E04EDD8091CF06882309F447C0D0913B
:100E30007706D0FFEDC088E30E945F21892B09F47B
:100E4000E7C0C1E0D1FF06C089E30E945F21892B82
:100E500009F0E0C0D2FF06C08AE30E945F21892B1F
:100E600009F0DAC0D3FF06C08BE30E945F21892B13
:100E700009F0D4C0D4FF06C08CE30E945F21892B07
:100E800009F0CEC0D5FF06C08DE30E945F21892BFB
:100E900009F0C8C0D6FF06C08EE30E945F21892BEF
:100EA00009F0C2C0D7FF06C08FE30E945F21892BE3
:100EB00009F0BCC040E06C2F87E002DD8091D006D5
:100EC000882309F4C1C0D0917806D0FFB1C080E476
:100ED0000E945F21892B09F4ABC0C1E0D1FF06C09D
:100EE00081E40E945F21892B09F0A4C0D2FF06C0D3
:100EF00082E40E945F21892B09F09EC0D3FF06C0C7
:100F000083E40E945F21892B09F098C0D4FF06C0BA
:100F100084E40E945F21892B09F092C0D5FF06C0AE
:100F200085E40E945F21892B09F08CC040E06C2F82
:100F300088E0DF91CF91C4CCC0E080CDC86086CD81
:100F4000C0618CCDC06292CDC06498CDC0689ECD8A
:100F5000C0E0B0CDC260B6CDC460BCCDC860C2CD6B
:100F6000C061C8CDC062CECDC064D4CDC068DACD7A
:100F7000C0E0ECCDC260F2CDC460F8CDC860FECD5B
:100F8000C06104CEC0620ACEC06410CEC06816CE66
:100F9000C0E028CEC2602ECEC46034CEC8603ACE47
:100FA000C06140CEC06246CEC0644CCEC06852CE56
:100FB000C0E064CEC2606ACEC46070CEC86076CE37
:100FC000C0617CCEC06282CEC06488CEC0688ECE46
:100FD000C0E0A0CEC260A6CEC460ACCEC860B2CE27
:100FE000C061B8CEC062BECEC064C4CEC068CACE36
:100FF000C0E0DCCEC260E2CEC460E8CEC860EECE17
:10100000C061F4CEC062FACEC06400CFC06806CF23
:10101000C0E018CFC2601ECFC46024CFC8602ACF02
:10102000C06130CFC06236CFC0643CCFC06842CF11
:10103000C0E054CFC2605ACFC46060CFC86066CFF2
:10104000C0616CCFC06272CFDF91CF9108951092D2
:101050008D058FEF80930B020895AF92BF92DF92C0
:10106000EF92FF920F931F93CF93DF931F921F92E4
:10107000CDB7DEB7D82E8B01E82EF12CC7018758EB
:10108000994F5C01FC0180818F3709F4F8C08630EC
:1010900041F480918D05882321F06630710509F0B7
:1010A000D6DF4EEF4D0D4434B8F404301105A1F0F5
:1010B000F701EB54FB4F2081203370F430E0C9017D
:1010C000880F991F820F931F85509B4F4A830E9460
:1010D000D9134A818111BDC09AEC9D0D903168F4FD
:1010E00061E070E00230110511F060E070E0892FDE
:1010F0004A839983BFD999814A814434D8F4ED2D2C
:10110000E695E695E6958D2D8770F0E0E059F94F6C
:1011100021E030E0082E01C0220F0A94EAF7011501
:10112000110521F48081822B808304C02095808169
:1011300028232083F701EE0FFF1FEC51FA4F118295
:1011400010820C30110508F073C0F801EE58FF4F03
:101150000C940229903108F092C0443440F460E0CD
:101160008D2D0E94F12060E08D2D0E942A2182E0C9
:101170005CC0443408F083C060E08D2D0E94F120F3
:1011800060E08D2D0E942A21F501108278C0443440
:1011900008F075C060E08D2D0E942A2161E08D2D40
:1011A0000E94F12081E041C04C3028F084ED8D0D8B
:1011B000833008F064C061E08D2D0E94F12060E072
:1011C00070E08D2D0E94D91F83E02FC0443408F0B9
:1011D00056C084E0F5018083F701EB54FB4F80811A
:1011E0008F3FE1F190E09C01220F331F280F391F40
:1011F000C90185509B4F0E94D913811140C02EC058
:1012000060E08D2D0E94F12061E08D2D0E942A2149
:1012100089E00BC08CEE8D0D823088F586E005C02C
:101220008AE003C08BE001C088E0F501808327C01D
:1012300064E272E087E498E00F900F90DF91CF9125
:101240001F910F91FF90EF90DF90BF90AF900C94A3
:101250001A198D2D4A8308DB4A813ECF4FEF5FEF8D
:101260006FEF7FEF8D2D0F900F90DF91CF911F913A
:101270000F91FF90EF90DF90BF90AF90AFCA0F90AB
:101280000F90DF91CF911F910F91FF90EF90DF9022
:10129000BF90AF900895CF93C0E08CEE8C0F82305A
:1012A00020F466E070E08C2FD8DECF5FC634A9F75B
:1012B00081E080938D0587E897E0CF910C947D14B1
:1012C0000F931F93CF93DF9381E080935904809114
:1012D0008D058111BCDEE8ECF6E0C0E7D6E0AFEBAF
:1012E000B6E0119219921D9286E0E13DF807C9F728
:1012F000C5EBD4E010E00FEF8AEC810F803118F4D9
:1013000062E070E00AC08EEF810F843420F4812FF8
:101310000E94EA2604C061E070E0812F9EDE0993FE
:101320001F5F163449F71092760410927504AFE6E9
:10133000B4E0E1E6F4E02FE72D9380819181892BE1
:1013400011F011821082329684E0A537B807A1F718
:101350001092D2061092D10610925B0410925A0499
:1013600010928404109283041092590480915804BE
:10137000811108C081E080935804DF91CF911F91C3
:101380000F91089528E088E190E00FB6F894A895B1
:10139000809360000FBE20936000FFCF24E042E006
:1013A00065E372E087E498E00E94B91740E052E0FC
:1013B00060EE87E498E00E94271945E851E060E973
:1013C00087E498E00E9427194AE352E060EC87E442
:1013D00098E00E9427194EE754E060ED87E498E01A
:1013E0000E9427194DE258E064EF87E498E00E94DC
:1013F000271947E45BE060EF87E498E00E94521908
:1014000040E659E06FEF87E498E00E944A19109295
:101410007604109275041092780410927704A0E775
:10142000B4E0E3E6F4E02FE72D9380819181892BEE
:1014300011F011821082329684E0A537B807A1F727
:1014400060910C0270910D0288E290E00E949D284C
:1014500070937A046093790440E051EE60E070E0AC
:1014600087E498E00E949C1A2BCF0F931F93CF9391
:10147000DF93CDB7DEB7C654D1090FB6F894DEBFFF
:101480000FBECDBF8C012AE0CE018F5B9F4F0E9423
:101490001E2820E030E040E450E0BE016F5F7F4F47
:1014A000CE018F5B9F4F0E944928B80187E498E0E6
:1014B0000E941A19BE016F5F7F4F87E498E00E9477
:1014C0001A19CE018F5B9F4F0E94A127CA5BDF4F85
:1014D0000FB6F894DEBF0FBECDBFDF91CF911F9145
:1014E0000F910895CF93DF93E2E5F2E08591949117
:1014F0009093E8068093E7068BE690E09093EA06E7
:101500008093E90681E08093EB061092EC0610923E
:10151000ED061092F0061092EF06E6E6F2E08591F5
:1015200094919093DE068093DD068CE690E0909394
:10153000E0068093DF061092E1061092E206109218
:10154000E3061092E6061092E506E8E6F2E08591E1
:1015500094919093D4068093D3068DE690E0909377
:10156000D6068093D5061092D7061092D806109210
:10157000D9061092DC061092DB06CBEFD4E0CE0148
:10158000A3D7239685E0CB38D807C9F7DF91CF9151
:101590000895682F87E897E00C943F14AF92BF92AC
:1015A000DF92EF92FF920F931F93CF93DF931F92DF
:1015B000CDB7DEB7F82E5B01D42E6F3F8FEF7807E3
:1015C000D1F06F2D87E897E029830E9486146A2D59
:1015D00087E897E00E943F142981622F87E897E00F
:1015E0000E94901480918B0590918C05009729F0B2
:1015F0000E94471F02C0A12CB12C4D2D6F2D87E8F2
:1016000097E00E94FF140D2D10E087E897E00E94FC
:10161000E81308171907C1F4F0928E05A0928F0500
:1016200060E9E62E65E0F62EA12CB12CA016B106DD
:10163000DCF487E897E00E94F013F70181937F01C3
:10164000FFEFAF1ABF0AF2CF87E897E00E94E813D6
:10165000801791071CF465E972E002C062EB72E04A
:1016600087E498E00E941A1942E04D0D2EE835E01B
:1016700067E787E498E00F90DF91CF911F910F917A
:10168000FF90EF90DF90BF90AF900C94D7186F92BF
:101690007F928F929F92AF92BF92CF92DF92EF9202
:1016A000FF920F931F93CF93DF93CDB7DEB72797AA
:1016B0000FB6F894DEBF0FBECDBF162F7A018D3660
:1016C00009F40EC2A8F4803609F471C238F48035EA
:1016D00009F443C18F3509F488C2C9C3893609F4B6
:1016E0004EC28B3609F497C1823609F0C0C3A3C23B
:1016F000823709F4EDC238F48F3609F469C18037B6
:1017000009F4F7C0B4C3883709F4DDC08A3709F497
:101710003DC1863709F0ABC3DA0111962C91922FA7
:10172000987125FF03C06EEC72E098C3FA018081C6
:1017300026FB222720F931E02327983039F148F49D
:10174000911195C3682F87E897E00E94861402E004
:1017500006C09031A9F1983109F467C088C3011718
:1017600060F4F701E00FF11D91818081F0E89F9F07
:10177000801911240EDF0E5FF2CF87E897E00E94F8
:10178000011586E490E00E94471F71C34281638186
:10179000163071F4B0E86B9FB0011124640F711D15
:1017A000F70195814481F0E89F9F4019112406C0FC
:1017B00030E8639F401911246FEF7FEFEFDE57C3CE
:1017C000E0910B02E7301CF06EEE72E047C3DA01E5
:1017D00012969C91129713964C91663089F4B0E85A
:1017E0004B9FA0011124490F511DD70115963C9123
:1017F000159714969C91B0E83B9F9019112406C050
:10180000F0E84F9F901911244FEF5FEFEF5FE093E7
:101810000B0235E0E302F0011124E255FA4F808318
:10182000528341839383248322C360910B02161653
:101830003CF470E0262F332727FD309595E00FC04C
:101840008FEF80930B0213C3949FF001959FF00DCF
:101850001124E255FA4F4081481739F07F5F472F36
:1018600050E02417350784F770E015E0872F90E0EB
:101870002817390724F1783000F5AC014F5F5F4F2E
:10188000149FD001159FB00D1124A255BA4F4C9151
:10189000189FF001199FF00D1124E255FA4F408373
:1018A00011968D919C9112979283818313968C91BE
:1018B0001397838314968C9184837F5FD7CF615075
:1018C00060930B02D4C2DA012C9111968C91B0E88E
:1018D0008B9FC0011124820F911D009721F09093DE
:1018E0008C0580938B0580918D058111C0C2D3DC5E
:1018F000BEC2653008F4BBC2FA0110810181D280FA
:10190000C380F4808EEF810F843408F0B0C2E12FE1
:10191000F0E0EB54FB4FE081E03358F4F0E0CF010E
:10192000880F991F8E0F9F1F85509B4F42D78111A3
:101930009AC2F0E8FF9EA00111244C0D511D20E831
:10194000D29EB0011124600F711D812F0E94EE0301
:1019500064E070E0812F81DB8AC2DA012C9111965C
:101960008C91B0E88B9FC0011124820F911D909340
:10197000D7058093D6050E94E01E6093D80570932A
:10198000D9058093DA059093DB0571C2623008F4C3
:101990006EC2FA0120818181F0E88F9FC00111247D
:1019A000820F911D8A30910510F48AE090E09093A7
:1019B0000D0280930C0260910C0270910D0288E27E
:1019C00090E00E949D2870937A04609379044FC23E
:1019D000623008F44CC2DA0111966C91119770E0F4
:1019E0001230A1F012968C91B0E88B9FC0011124A7
:1019F000682B792B133051F0FA01838190E090E449
:101A0000899F902D88271124682B792BD7018C91E1
:101A10000E9400022CC260EF87E498E00E941D192A
:101A20006CE687E498E00E941D191EEF8CEC810F94
:101A3000803158F462E087E498E00E941D196AE062
:101A400087E498E00E941D1902C01C3020F086ED4A
:101A5000810F833050F463E087E498E00E941D1901
:101A600068E087E498E00E941D19143450F464E0A3
:101A700087E498E00E941D196EE087E498E00E94D8
:101A80001D198EEE810F823050F466E087E498E0F5
:101A90000E941D1961E087E498E00E941D196FE71C
:101AA00087E498E00E941D191F5F143409F4CBC12C
:101AB000143408F0BBCF60E087E498E00E941D1961
:101AC00061E087E498E00E941D1961E087E498E0F6
:101AD0000E941D1961E087E498E00E941D19A6CFBD
:101AE000662309F4C4C1FA01008160EF87E498E03D
:101AF0000E941D196EE687E498E00E941D19602F70
:101B000087E498E00E941D19063408F09CC110E09B
:101B1000F801E758F94F608187E498E00E941D19A9
:101B2000000F111F98012C513A4F7901D9016C9186
:101B30006F7787E498E00E941D19F7016081718139
:101B4000CB018078892B49F0660F672F661F770BD2
:101B50006F7787E498E00E941D19F801EC51FA4F65
:101B600060817181CB018827907C892B09F46BC13E
:101B7000770F660B770F762F661F6F7760C160EF68
:101B800087E498E00E941D196AE687E498E00E94C5
:101B90001D191AEC103110F06FE701C0612F87E4B6
:101BA00098E00E941D191F5F1031A1F74CC1DA01A6
:101BB0004C914093800411962C9120937F04809146
:101BC000500481110EC08FE294E0909343048093FF
:101BD000420461E682E494E00E94EF1D81E080937C
:101BE000500481E080937B0442C1FA01908181819D
:101BF00091111BC094812581F0E82F9F9001112441
:101C0000290F311D442737FD4095542FD7011296D7
:101C10009C91129713966C91B0E86B9FB0011124C0
:101C2000690F711D0E94C92322C1913009F01FC1A3
:101C30000E94EA261CC1209175043091760426305A
:101C400031050CF042C0FA018081809360049181DB
:101C500090935F049281913208F491E290930A028A
:101C6000D70113969C91139714960C91B0E80B9F93
:101C700080011124090F111DF901E159FB4F8083E7
:101C80006BE070E0EAD96BE070E080915F04E5D929
:101C900082E190E00E9480287C01980140915F04DD
:101CA000609160040E94B21A80917504909176044C
:101CB000FC01EE0FFF1FEF59FB4FF182E08201960E
:101CC0009093760480937504D2C06FEF72E0C6C023
:101CD000FA01808181114EC08181C280F0E8CF9EDF
:101CE00060011124C80ED11CDA0113968C90139751
:101CF000912C14966C90712C653079F48AE190E007
:101D00000E9480288C019301A401B6010E949E1BB1
:101D100010935B0400935A04AAC06730A1F4FA013F
:101D2000058110E0E680F12C8AE190E00E94802895
:101D30005C019301A401B6010E94C21BB0925B0436
:101D4000A0925A0494C087E0EBEFF3E0DE01119615
:101D500001900D928A95E1F76CE373E087E498E0D7
:101D60000E941A19412F50E060E070E0CE01019608
:101D70007CDB7DC0813009F042C0DA01428150E055
:101D800060E070E0F7E0440F551F661F771FFA957B
:101D9000D1F713968C9190E0A0E0B0E01EE0880FA0
:101DA000991FAA1FBB1F1A95D1F7482B592B6A2BD5
:101DB0007B2BF7018181482B84810581F0E80F9FFF
:101DC00080011124080F111DD7011696FC908091F7
:101DD0005A0490915B04009779F00E94F41BF11073
:101DE00003C0119501951109B80180915A04909191
:101DF0005B040E94DA1C3BC06CE673E02FC08230AB
:101E000059F580915A0490915B04009711F10E945A
:101E1000611D8C0160EF87E498E00E941D1962E764
:101E200087E498E00E941D19602F6F7787E498E09F
:101E30000E941D19B801660F672F661F770B87E494
:101E400098E00E941D1967EF87E498E00E941D1931
:101E50000EC068E973E002C06DEC73E087E498E0BF
:101E60000E941A1904C0812F0E94340462CD279663
:101E70000FB6F894DEBF0FBECDBFDF91CF911F919B
:101E80000F91FF90EF90DF90CF90BF90AF909F9019
:101E90008F907F906F9008958F929F92AF92BF9294
:101EA000CF92DF92EF92FF920F931F93CF93DF9326
:101EB0000E940D0587E498E00E941918892B29F0EB
:101EC00087E498E00E947C19F5CF0E94E01E6093A1
:101ED000E0057093E1058093E2059093E305C090DF
:101EE000DC05D090DD05E090DE05F090DF05409147
:101EF0000C0250910D024A01A12CB12C8B019C01C6
:101F00000C191D092E093F0980169106A206B30679
:101F100008F058C1D501C4018C0D9D1DAE1DBF1D1B
:101F20008093DC059093DD05A093DE05B093DF057B
:101F300080917704909178049C012F5F3F4F3093FC
:101F40007804209377042091790430917A0428173B
:101F500039070CF064C010927804109277048091D5
:101F6000750490917604892B09F459C0E0916D04B1
:101F7000F0916E04EE0FFF1FEF59FB4F80819181AE
:101F80000E94721B69E370E00E949D28CB01409182
:101F90006D0450916E0440935E049A012F5F3F4F91
:101FA00030936E0420936D04209175043091760473
:101FB000215031094217530724F010926E041092F9
:101FC0006D046F7760935C04880F892F881F990BCD
:101FD00080935D0460EF87E498E00E941D1963E63A
:101FE00087E498E00E941D19E0915E04F0E0E15959
:101FF000FB4F608187E498E00E941D1960915C04AA
:1020000087E498E00E941D1960915D0487E498E0E0
:102010000E941D1967EF87E498E00E941D19C9E727
:10202000D6E01AEC1031C0F488818230A9F42091F6
:10203000D1063091D206012E02C0359527950A941B
:10204000E2F720FF09C0812F0E94B41FAC01612F6D
:1020500087E498E00E9491181F5F2196103111F7D4
:1020600080910B0287FF06C080917B04882309F4CE
:102070006AC01BC0C0E0D5E08C2F90E020910B021D
:10208000332727FD30952817390774F3D89FF001BF
:10209000D99FF00D1124E255FA4F6181728124819C
:1020A000438180817BDACF5FE7CF10928204109268
:1020B000810410927C040E94691E0097A1F00E9486
:1020C000891E80937C0420917D0430917E04181633
:1020D00014F0882341F0280F311D87FD3A95309385
:1020E0007E0420937D0480917D0490917E04282FAE
:1020F0002F7720938104880F892F881F990B8F7762
:102100008093820460EF87E498E00E941D1961E6E5
:1021100087E498E00E941D196091800487E498E0AC
:102120000E941D196091810487E498E00E941D19A6
:102130006091820487E498E00E941D1967EF87E4AC
:1021400098E00E941D198091D6059091D705892BA2
:10215000C9F10E94E01E6093E0057093E105809351
:10216000E2059093E3050091D8051091D9052091DF
:10217000DA053091DB05AB01BC01401B510B620B52
:10218000730BE091D605F091D70528EE33E0E29F7E
:10219000C001E39F900DF29F900D1124A0E0B0E0EC
:1021A00084179507A607B70768F4DF91CF911F91B1
:1021B0000F91FF90EF90DF90CF90BF90AF909F90E6
:1021C0008F907EC8DF91CF911F910F91FF90EF907C
:1021D000DF90CF90BF90AF909F908F900895CF9257
:1021E000DF92EF92FF920F931F93CF93DF936C01D7
:1021F0008B017A01EC01CD50D94F888187FF04C053
:10220000FB011182108223C02CE02C9DC0012D9D6A
:10221000900D11242881AC01420F511D27FD5A95C4
:102220002091F20630E0421753078CF42881AC016C
:10223000420F511D27FD5A959A01FA01EE0FFF1F1B
:10224000E20FF31FE950F94F208126FD19C0888164
:102250008F5F88838CE08C9D90018D9D300D1124C3
:102260008881A901480F511D87FD5A958091F2067A
:1022700090E048175907B4F488818C303CF112C0C3
:102280002881820F911D27FD9A95FC01EE0FFF1FFB
:10229000E80FF91FE950F94F808160E08F730E94C9
:1022A0002A21D5CFF80180819181049680349C4900
:1022B00018F480E49CE904C0F801808191810496BF
:1022C000F701918380838FEF888341C0F80180817B
:1022D00091814881B901640F711D47FD7A95AB0169
:1022E000FB01EE0FFF1FE40FF51FE950F94F41818D
:1022F0005281840F951FF701918380838881A90102
:10230000480F511D87FD5A95FA01EE0FFF1FE40F8C
:10231000F51FE950F94F808186FF19C08881280F89
:10232000311D87FD3A95F901EE0FFF1FE20FF31FF4
:10233000E950F94F808161E08F73DF91CF911F9158
:102340000F91FF90EF90DF90CF900C942A21DF91B6
:10235000CF911F910F91FF90EF90DF90CF90089554
:102360001F920F920FB60F9211240BB60F922F935C
:102370003F934F935F936F937F938F939F93AF930D
:10238000BF93EF93FF9348E850E064E870E081E08A
:1023900090E025DFFF91EF91BF91AF919F918F91D9
:1023A0007F916F915F914F913F912F910F900BBE55
:1023B0000F900FBE0F901F9018951F920F920FB69F
:1023C0000F9211240BB60F922F933F934F935F936D
:1023D0006F937F938F939F93AF93BF93EF93FF93ED
:1023E00048E950E064E970E082E090E0F8DEFF91B7
:1023F000EF91BF91AF919F918F917F916F915F917D
:102400004F913F912F910F900BBE0F900FBE0F90E9
:102410001F9018951F920F920FB60F9211240BB6B2
:102420000F922F933F934F935F936F937F938F936D
:102430009F93AF93BF93EF93FF9348EA50E064EA12
:1024400070E083E090E0CBDEFF91EF91BF91AF9120
:102450009F918F917F916F915F914F913F912F91BC
:102460000F900BBE0F900FBE0F901F9018951F92EC
:102470000F920FB60F9211240BB60F922F933F932A
:102480004F935F936F937F938F939F93AF93BF937C
:10249000EF93FF9348E251E064E271E080E090E066
:1024A0009EDEFF91EF91BF91AF919F918F917F91B0
:1024B0006F915F914F913F912F910F900BBE0F90B5
:1024C0000FBE0F901F9018952091F2062033A0F4B4
:1024D00031E0320F3093F206FC012083822F90E02E
:1024E000FC01EE0FFF1FE80FF91FE950F94F88EBD1
:1024F0009BE09283818308952FEFFC012083089550
:10250000DF92EF92FF920F931F93CF93DF93EC0133
:10251000D62E7A0189018881803308F068C061E095
:102520008D2D0E94F1208881A82FB0E0FD01EE0FD3
:10253000FF1FEA0FFB1FE950F94F2D2D2F739081DC
:10254000907C922B908360E272E06E197F0977FF96
:1025500002C06D5F7F4F7595679575956795698327
:1025600040E659E0401B510B57FF02C04D5F5F4FE3
:1025700055954795559547954A836CE00E9491285B
:102580009CE0899FB001112420E030E0A901460FB2
:10259000571FFA01EE0FFF1FE40FF51FE950F94F27
:1025A000908196FD18C02F5F3F4F2C30310571F799
:1025B00090E08130910521F51092800082E08093B7
:1025C00081001092850010928400B19A80916F0072
:1025D000826080936F00888190E0FC01EE0FFF1F06
:1025E000E80FF91FE950F94F80818064808388816A
:1025F000DF91CF911F910F91FF90EF90DF900895A1
:102600008230910569F41092900082E080939100ED
:10261000109295001092940088BB80937100DBCFDC
:102620008330910569F41092A00082E08093A100AC
:102630001092A5001092A40089BB80937200CBCFAA
:10264000892B49F61092200182E08093210110929B
:102650002501109224018ABB80937300BCCF20E631
:1026600039E040E252E04CCFFC01808190E0FC0177
:10267000EE0FFF1FE80FF91FE950F94F80818F7BA4
:1026800080830895FC018081803370F5918128E872
:1026900030E0291B310997FD3395220F331F220F9C
:1026A000331F621773077CF0928128E532E0291B03
:1026B000310997FD3395220F331F220F331F621705
:1026C00073070CF49B0122503109220F331F4FB7BF
:1026D000F89490E0FC01EE0FFF1FE80FF91FE9509E
:1026E000F94F328321834FBF08954F925F926F92CB
:1026F0007F92AF92BF92CF92DF92EF92FF920F93B1
:102700001F93CF93DF93EC01603282E078070CF0E7
:1027100040C077FD06C0653B71052CF064EB70E0AE
:1027200002C060E070E0898128E830E0281B3109B0
:1027300087FD3395220F331F220F331F5901CC24FD
:10274000B7FCC094DC2C882777FD8095982F2A81D0
:1027500048E552E0421B510927FD5395440F551F90
:10276000440F551F2A01662457FC6094762C7F92F3
:102770006F925F924F9214EBE12EF12C00E010E08B
:1027800020E030E0A9010E945C270F900F900F908D
:102790000F90CE01DF91CF911F910F91FF90EF909D
:1027A000DF90CF90BF90AF907F906F905F904F90F1
:1027B00069CFFC01808190E0FC01EE0FFF1FE80F64
:1027C000F91FE950F94F808186FB882780F9089529
:1027D0008091B70790E02091B807821B9109089576
:1027E0002091B8078091B707281750F4E22FF0E046
:1027F000E754F84F808190E02F5F2093B807089549
:102800008FEF9FEF0895E091B8078091B707E81721
:1028100030F4F0E0E754F84F808190E008958FEFB6
:102820009FEF08950895CF92DF92EF92FF920F935A
:102830001F93CF93DF937C01CB018A0120919307F3
:10284000222389F0EB016B01C40ED51ECC15DD05EA
:1028500061F06991D701ED91FC910190F081E02D3B
:10286000C7011995F3CF642F8ED1C801DF91CF91A5
:102870001F910F91FF90EF90DF90CF900895CF932D
:10288000DF931F92CDB7DEB7698320919307222390
:10289000D1F020919407203240F021E030E0FC019B
:1028A0003383228380E090E014C080919507E82F65
:1028B000F0E0EA56F84F998190838F5F80939507F7
:1028C0008093940704C061E0CE0101965CD181E061
:1028D00090E00F90DF91CF910895FC011382128256
:1028E00048EE53E060E070E044835583668377836D
:1028F0008AE194E09183808308951092B807109242
:10290000B707109295071092940780C081E08093DA
:1029100093076093B6071092950710929407089555
:102920000F93062F21E04091940766E977E08091AC
:10293000B607D2D010929507109294071092930781
:102940000F9108958F929F92AF92BF92CF92DF9294
:10295000EF92FF920F931F93CF93DF93EC01F62E2C
:10296000D42E48015901EE2009F1D0DF1E2D14307C
:1029700008F013E01150B8F0E881F98128E0129FC7
:10298000B0011124A501940104C0569547953795CF
:1029900027956A95D2F7CA01B9010190F081E02D1F
:1029A000CE011995E7CF60E0CE01BADF4D2D41325F
:1029B00008F040E22C2D69EB77E08F2D45D0109286
:1029C000B8078093B707DF91CF911F910F91FF90C8
:1029D000EF90DF90CF90BF90AF909F908F90089531
:1029E000CF92EF920F931F93C22EE12C00E010E0E4
:1029F0009801A8DF1F910F91EF90CF90089521E0EB
:102A0000EFCF61E08DCF87E897E067CF109246085F
:102A100081E0809344081092430861E084E10E94C1
:102A20002A2161E085E10E942A21E9EBF0E0808122
:102A30008E7F808380818D7F808388E48093B8003F
:102A400085E48093BC000895413208F043C0909122
:102A500046089111FCCF91E09093460820934408DA
:102A60002FEF2093D90710921E08240F20931D08E2
:102A70009093450890914508880F892B80934508CD
:102A800080914308813061F4109243088091450899
:102A90008093BB008091BC0083FDF8CF85EC01C022
:102AA00085EE8093BC00809146088130E1F38091EF
:102AB0001E08841710F440911E082FE138E0FB0136
:102AC000D9018A2F821B841718F48D918193F9CF35
:102AD000842F089580E008950F93413208F04AC092
:102AE000909146089111FCCF92E090934608009394
:102AF00044089FEF9093D90710921E0840931D0839
:102B0000FB016FE178E0DB019A2F961B941718F414
:102B100091919D93F9CF1092450890914508880FA7
:102B2000892B8093450880914308813061F410928D
:102B30004308809145088093BB008091BC0083FDD1
:102B4000F8CF85EC01C085EE8093BC00222321F0F4
:102B5000809146088230E1F38091D9078F3F61F080
:102B60008091D907803251F08091D907803341F4A8
:102B700083E007C081E005C080E003C082E001C0BF
:102B800084E00F910895613298F420914608243032
:102B900089F46093FB07FC018DEF97E0DC012A2F9D
:102BA000281B261718F421912D93F9CF80E0089562
:102BB00081E0089582E0089585ED8093BC008091C6
:102BC000BC0084FDFCCF10924608089585EC8093EC
:102BD000BC001092460808951F920F920FB60F92F4
:102BE00011240BB60F922F933F934F935F936F93E4
:102BF0007F938F939F93AF93BF93EF93FF938091B6
:102C0000B900887F803609F49DC070F5883209F4D8
:102C10005CC090F4803109F455C038F4882309F47D
:102C2000F3C0883009F44EC0F2C0883109F44DC0B9
:102C3000803209F45EC0EBC0803409F469C050F4FE
:102C4000803309F456C0883309F0E1C08093D90776
:102C5000BDDFDDC0803509F44FC0883509F45DC0A3
:102C6000883409F0D4C0D2C0883909F4C3C0A8F4AC
:102C7000883709F467C038F4883609F463C08037B0
:102C800009F460C0C4C0883809F4B4C0803909F4BC
:102C90005FC0803809F0BBC05BC0803B09F482C0D4
:102CA00038F4803A09F466C0883A09F47BC0AFC0B2
:102CB000803C09F4A3C0883C09F4A0C0883B09F417
:102CC00086C0A5C08091450810C090911E088091D3
:102CD0001D08981770F5E0911E0881E08E0F809313
:102CE0001E08F0E0E15EF74F80818093BB0085EC29
:102CF00082C08093D9078AC0E0911E0881E08E0FC0
:102D000080931E088091BB00F0E0E15EF74F808366
:102D100090911E0880911D086AC0E0911E0881E014
:102D20008E0F80931E088091BB00F0E0E15EF74FAC
:102D3000808380914408811169C081E080934308B9
:102D400084EA5DC083E0809346081092DA07CFCF13
:102D50008091DA07803208F04DC0E091DA0781E017
:102D60008E0F8093DA078091BB00F0E0E552F84FB8
:102D70008083BDCF2BDF8091DA07803230F4E09181
:102D8000DA07F0E0E552F84F10826091DA0770E060
:102D9000E0913F08F09140088BED97E01995109273
:102DA000DA0735C084E0809346081092FC07109241
:102DB000FB07E0914108F091420819958091FB07CB
:102DC000811105C081E08093FB071092FD07E0911F
:102DD000FC0781E08E0F8093FC07F0E0E350F84F92
:102DE00080818093BB009091FC078091FB0798172E
:102DF00008F47DCF85E88093BC0009C085EC809302
:102E0000BC001092460803C01092D907D5DEFF918E
:102E1000EF91BF91AF919F918F917F916F915F9152
:102E20004F913F912F910F900BBE0F900FBE0F90BF
:102E30001F9018950F931F93CF93DF93EC018B0195
:102E400088819981DC01ED91FC916F770190F0818F
:102E5000E02D199588819981DC01ED91FC91B801F3
:102E6000660F672F661F770B6F770190F081E02D5B
:102E7000DF91CF911F910F911994DC018D919C915D
:102E8000DC01ED91FC910190F081E02D60EF19944F
:102E9000DC018D919C91DC01ED91FC910190F08120
:102EA000E02D67EF1994CF93DF93EC01888199812E
:102EB000DC01ED91FC910190F081E02D69EF199515
:102EC00088819981DC01ED91FC910190F081E02DE8
:102ED00062E0199588819981DC01ED91FC91019066
:102EE000F081E02D64E0DF91CF9119941F93CF938F
:102EF000DF93EC018A818823C1F1CE01BEDF888196
:102F00009981DC01ED91FC910190F081E02D69E760
:102F1000199588819981DC01ED91FC91AB81BC818F
:102F20000190F081E02D6C91199588819981DC01E7
:102F3000ED91FC91AB81BC810190F081E02D119667
:102F40006C91199512E08A81181750F4EB81FC817D
:102F5000E10FF11D608170E0CE016CDF1F5FF3CFE8
:102F6000CE01DF91CF911F9193CFDF91CF911F9130
:102F70000895CF92DF92EF92FF920F931F93CF931A
:102F8000DF938C01EB01C42ED22E66E274E0CE01F9
:102F90000E945A2B7C016FE270E0CE010E944F2B01
:102FA000009739F46CE570E0CE010E944F2B00973A
:102FB00011F0EC012196E114F10451F4FE010190AD
:102FC0000020E9F7EC1BEF5FD8011296EC9306C0E6
:102FD000EC1AFD0AE394E394F801E282D801139617
:102FE0008D919C9114970E94BD29F801E280F12CEB
:102FF000C70101960E942529D80114969C938E93AF
:103000001397FC01EE0DFF1D1082FC01C082D182DE
:1030100012964C9150E042505109BE010296DF9148
:10302000CF911F910F91FF90EF90DF90CF900C9474
:10303000402BDC018D919C91DC01ED91FC91048091
:10304000F581E02D19940F931F93CF93DF93FC012B
:103050002085213741F0293709F048C0DF91CF9111
:103060001F910F9143CFFC01E95AFF4F0190F0816E
:10307000E02D309709F450C0DC01A75BBF4F4D91A4
:103080005C919A012150310937FD9A01B90175957A
:103090006795062F40E050E020E030E04E5F5F4F44
:1030A0002017A0F4EC01C40FD51F1F81DC01A20F73
:1030B000B31F18961C931897C885D0E8CD9F101998
:1030C000112418961C932F5F3F4FE8CFDC01A60F09
:1030D000B11D17962C911797222311F018961C9268
:1030E0000896DF91CF911F910F911994FC01E75A37
:1030F000FF4F0190F081E02D309771F0AC01475FF8
:103100005F4FDC01A75BBF4F6C916150822FDF9155
:10311000CF911F910F911994DF91CF911F910F9132
:1031200008950F931F93CF93DF93EC018A01888159
:103130009981DC01ED91FC916F70606E0190F081DE
:10314000E02D1995B801CE01DF91CF911F910F911C
:1031500071CE0F931F93CF93DF93EC018A01888187
:103160009981DC01ED91FC916F7060690190F081B3
:10317000E02D199588819981DC01ED91FC91602FFA
:103180006F770190F081E02D199588819981DC019C
:10319000ED91FC91B801660F672F661F770B0190C8
:1031A000F081E02DDF91CF911F910F911994CF9273
:1031B000DF92EF92FF920F931F93CF93DF9300D094
:1031C000CDB7DEB78C01F42E2A833B83698355DEAD
:1031D000D8018D919C91DC01ED91FC910190F081E1
:1031E000E02D698119952A81E22EC22E3B81D32ED2
:1031F0008C2D8E198F1538F4F60161916F0170E0F6
:10320000C80118DEF5CFC8010F900F900F90DF9125
:10321000CF911F910F91FF90EF90DF90CF9038CE1C
:103220009A01FA0101900020E9F73197E41BF50BB0
:103230004E2FBDCFAB0161E7F3CFDC018D919C91A7
:10324000DC01ED91FC910190F081E02D1994603D3D
:10325000B9F028F4603961F0603C71F00895603E87
:1032600019F0643F89F00895FC01E55BFF4F0FC042
:10327000FC01E35BFF4F0BC0FC01E15BFF4F07C0AC
:10328000FC01EF5AFF4F03C0FC01ED5AFF4F518381
:10329000408308956F3F29F4FC01EB5AFF4F51839F
:1032A00040830895875A9F4FFC01518340830895BE
:1032B000FC0115821682178280E090E0DF01A80FE2
:1032C000B91F18961C92019680349105B9F7DF0159
:1032D000A85BBF4F1C9211961D921C92EB5AFF4F98
:1032E0000190F081E02D309709F019940895FC01C8
:1032F000128214821382DCCFCF93DF93EC0188819A
:103300009981DC01ED91FC910680F781E02D199502
:10331000FE01E85BFF4F20812223A9F0873F910542
:1033200029F41082CE01DF91CF918DCEFE01E75BB3
:10333000FF4F20813181C20FD31F88872F5F3F4FFE
:10334000318320839BC02D81222309F45EC0803805
:1033500091050CF05AC09FEF920F9D83FE01E90F7B
:10336000F11D808791118AC08E81882309F486C05F
:10337000803DE9F148F48039E9F0803C09F043C030
:10338000FE01E15BFF4F36C0803E19F0843F19F12A
:103390003AC0FE01E55BFF4F0190F081E02D3097D0
:1033A00091F18885698570E0B0E88B9F600D711D93
:1033B000112427C0FE01E35BFF4F0190F081E02D57
:1033C000309709F18885698570E090E8899F600DE4
:1033D000711D112416C0FE01ED5AFF4F0190F081BE
:1033E000E02D309781F0688570E089850BC0FE0183
:1033F000EF5AFF4F0190F081E02D309721F0688562
:1034000070E08F8119951E8239C0803F91052CF4A0
:10341000282F2F702F83807F9927803E910519F1E7
:1034200054F4803C910509F1803D9105F1F080391B
:10343000910521F518C0843F9105A9F054F4803F0F
:103440009105E1F481E08083C75BDF4F1982188228
:1034500015C0893F910569F08F3F910579F4CE0140
:10346000DF91CF9125CF92E001C091E09D838E83C3
:1034700005C087E498E0DF91CF9115CDDF91CF9122
:1034800008958F929F92AF92BF92CF92DF92EF9268
:10349000FF921F93CF93DF93EB014A01690161E033
:1034A0008DE09FD610E0EE24D7FCE094FE2CAA24F9
:1034B00097FCA094BA2C812F90E08C179D0774F490
:1034C000C701B601ACD461E08DE0C4D6C501B4013A
:1034D000A6D460E08DE0BED61F5FEDCFDF91CF9127
:1034E0001F91FF90EF90DF90CF90BF90AF909F9093
:1034F0008F900895CF93DF93EC0161E08DE071D65A
:1035000022ED30E048E250E062E070E0CE01B9DF49
:103510006AEF70E080E090E082D422ED30E048E293
:1035200050E064E070E0CE01ACDF6DE770E080E079
:1035300090E0DF91CF9173C4CF93DF93EC0126E04D
:103540008FEA98E0F3D78FEA98E099838883CE01D9
:10355000D1DFCE01A8DCCE01DF91CF91C7CC87E4CB
:1035600098E0C5CECF93DF93DC0170E0FB01EE5312
:10357000FE4FE4911496EC931497842F90E0FC0195
:10358000EE53FE4FE4911596EC931597685F7D4FCF
:10359000FB01C491D0E0CC0FDD1FC859DD4FFE0107
:1035A0004591549117965C934E931697FC01E85FF2
:1035B000FD4F849190E0880F991F825B9D4FFC0125
:1035C000459154911B965C934E931A97FB0164911D
:1035D000E62FF0E0EE0FFF1FEE57FD4F859194911F
:1035E00019969C938E931897C901253FF1E03F07E8
:1035F00014F084EF91E049E3489F9001499F300D1A
:103600001124245E3F4F1D963C932E931C97DF910F
:10361000CF9108950F931F93CF93DF93EC01E8852B
:10362000F98580819C81892B8083EE81FF81908147
:103630008C8180958923808384E090E028D4EE817A
:10364000FF8180819C81892B80838AE090E01FD458
:10365000EE81FF8190818C81809589238083E8852C
:10366000F98590818C81809589238083B5D3605BB7
:10367000794B8F4F9F4F6E877F87888B998BEA8519
:10368000FB8580819D81892351F0A6D30E851F85FE
:1036900028893989061717072807390780F7EA8527
:1036A000FB8580819D81892361F496D30E851F85DA
:1036B00028893989061717072807390780F780E016
:1036C0000CC08AD32C853D85620F731F811D911D0F
:1036D0006E877F87888B998B81E0DF91CF911F91D7
:1036E0000F9108950F931F93CF93DF93EC0192DF17
:1036F000882381F0EA85FB8580819D81892369F09B
:103700006BD30E851F852889398906171707280767
:10371000390780F720E030E00BC05ED32C853D8573
:10372000255031094E855F85241B350B260F371F29
:10373000C901DF91CF911F910F910895CF93DF932E
:10374000EC01842F1B861A86198218821E8A1F8A12
:10375000188E198E7F836E834C875D873F872E87F7
:1037600061E03FD561E08E853CD5198A188A1B8AB5
:103770001A8A1D8A1C8A82E090E099878887DF91E7
:10378000CF910895EF92FF920F931F93CF93DF9302
:10379000EC01842F1B861A86198218821E8A1F8AC2
:1037A000188E198E7F836E834C875D873F872E87A7
:1037B000198B088BFB8AEA8A61E013D561E08E855C
:1037C00010D561E088890DD561E08A890AD51D8A06
:1037D0001C8A84E090E099878887DF91CF911F91C0
:1037E0000F91FF90EF900895CF92DF92EF92FF92AA
:1037F000CF93DF93EC016A017B012E813F81442747
:1038000037FD4095542F60E077E883E993E00E940C
:10381000E628CA01B901A70196010E94E6282A8379
:103820003B834C835D83DF91CF91FF90EF90DF90DE
:10383000CF9008950F931F93CF93DF93EC018B01EB
:10384000888599850297E1F46130710571F02CF457
:1038500061157105A9F460E009C06230710551F08D
:103860006330710569F460E006C061E08C85F2D4D4
:1038700061E004C061E08C85EDD460E08E85EAD41F
:1038800088859985049771F501301105A1F044F4FC
:103890000115110539F561E08C85DCD460E00FC0BD
:1038A0000230110599F003301105E1F461E08C85D7
:1038B000D1D460E00FC060E08C85CCD461E08E850F
:1038C000C9D461E08889C6D460E00AC060E08C8514
:1038D000C1D461E08E85BED460E08889BBD461E04C
:1038E0008A89B8D488859985059709F05EC00A3021
:1038F000110508F05AC0F801E258FF4F0C94022954
:1039000060E08C85A7D461E041C060E08C85A2D4E2
:1039100061E08E859FD460E03CC060E08C859AD4E5
:1039200061E08E8597D460E0888994D461E034C0EA
:1039300060E001C061E08C858DD461E004C061E08D
:103940008C8588D460E08E8585D460E007C061E016
:103950008C8580D460E08E857DD461E088897AD4BE
:1039600061E00AC061E08C8575D460E08E8572D418
:1039700061E088896FD460E08A896CD460E00FC010
:1039800061E001C060E08C8565D460E08E8562D422
:1039900061E088895FD460E08A895CD461E08C89C9
:1039A000DF91CF911F910F9155C4DF91CF911F915E
:1039B0000F9108954F925F926F927F928F929F9294
:1039C000AF92BF92CF92DF92EF92FF920F931F932D
:1039D000CF93DF93EC01CB0177FF04C088279927B1
:1039E000861B970B6C01161617062CF481E090E0ED
:1039F0009983888304C0672B11F01982188204E030
:103A000010E08AE0E82EF12CC114D10409F448C07A
:103A1000E3D18E889F88A88CB98C2B013C01481873
:103A200059086A087B088A809B80AC80BD80481456
:103A300059046A047B0460F36E8B7F8B888F998FA7
:103A4000288139818A859B852130310559F4019679
:103A50009B878A872E813F818217930771F41B868B
:103A60001A860BC0892B21F48E819F819B878A87C0
:103A70008A859B8501979B878A8781E0C81AD10830
:103A8000288539858A859B852530310511F4B70154
:103A900001C0B8010E94B128BC01CE01CBDEB4CF79
:103AA000DF91CF911F910F91FF90EF90DF90CF901A
:103AB000BF90AF909F908F907F906F905F904F904E
:103AC000089585E090E00895FC01A281B3812C91D6
:103AD0009581922387818223992361F0882379F04D
:103AE0008085882321F081859285890F81871086C2
:103AF00012860895811103C081E080870895208592
:103B0000211108C0992311F081E003C0882311F02E
:103B10008FEF8287089590E0FC013197E231F10543
:103B200008F048C0E857FF4F0C94022980918000AC
:103B30008F7703C0809180008F7D809380000895EF
:103B400084B58F7702C084B58F7D84BD0895809140
:103B5000B0008F7703C08091B0008F7D8093B0005C
:103B60000895809190008F7707C0809190008F7D9D
:103B700003C080919000877F80939000089580918A
:103B8000A0008F7707C08091A0008F7D03C0809137
:103B9000A000877F8093A0000895809120018F77F7
:103BA00007C0809120018F7D03C080912001877F15
:103BB0008093200108951F93CF93DF93EC01862F0C
:103BC000142F41E050E0BE010E94F40241E050E0B9
:103BD000BE01812FDF91CF911F910C94F402CF93FE
:103BE000DF93EC016B874C832E83421709F46EC080
:103BF000483018F4283008F069C088EF840F863008
:103C000020F42850263060F061C04E3030F02E3065
:103C100008F45CC0443108F059C0243108F056C0A3
:103C200018861986A091A408B091A508109729F4C8
:103C3000D093A508C093A4080CC01C968D919C91AC
:103C40001D97009711F0DC01F8CF1D96DC93CE9301
:103C50001C971D861C8650E0FA01E85FFD4FE49139
:103C6000F0E0EE0FFF1FE25BFD4F859194919B8387
:103C70008A83892B09F42AC0FA01EE53FE4FE4919E
:103C8000ED83FA01E458FE4F8491811144DF8E8167
:103C900090E0FC01EE53FE4FE491EF83FC01E45809
:103CA000FE4F8491811137DF60E08C819AD260E011
:103CB0008E8197D261E08C81CDD261E08E81CAD2B3
:103CC0004E816C81CE01DF91CF9175CFDF91CF9185
:103CD00008959091A4088091A5089093A2088093DC
:103CE000A308E92FF82F309769F08185882331F0F8
:103CF000F093A308E093A208CF0108950484F5850A
:103D0000E02DF1CF1092A3081092A20880E090E07D
:103D10000895FC01818587FF03C091E0980F91878A
:103D20009185191614F49150918708951F920F925E
:103D30000FB60F9211242F933F938F939F93AF93BE
:103D4000BF938091A7089091A808A091A908B0916D
:103D5000AA083091A60823E0230F2D3720F40196FE
:103D6000A11DB11D05C026E8230F0296A11DB11D9E
:103D70002093A6088093A7089093A808A093A90869
:103D8000B093AA088091AB089091AC08A091AD08BF
:103D9000B091AE080196A11DB11D8093AB08909320
:103DA000AC08A093AD08B093AE08BF91AF919F91BE
:103DB0008F913F912F910F900FBE0F901F901895EC
:103DC0002FB7F8946091A7087091A8088091A9086E
:103DD0009091AA082FBF08953FB7F8948091AB083F
:103DE0009091AC08A091AD08B091AE0826B5A89B03
:103DF00005C02F3F19F00196A11DB11D3FBF6627D9
:103E0000782F892F9A2F620F711D811D911D42E01D
:103E1000660F771F881F991F4A95D1F708958F92D3
:103E20009F92AF92BF92CF92DF92EF92FF926B017F
:103E30007C01D2DF4B015C01C114D104E104F10427
:103E4000E9F00E948128C8DF681979098A099B096D
:103E5000683E73408105910578F321E0C21AD108CC
:103E6000E108F10888EE880E83E0981EA11CB11CC1
:103E7000C114D104E104F10431F7DECFFF90EF90DB
:103E8000DF90CF90BF90AF909F908F900895823039
:103E9000910538F0880F991F880F991F0597019792
:103EA000F1F70895789484B5826084BD84B581600B
:103EB00084BD85B5826085BD85B5816085BDEEE632
:103EC000F0E0808181608083E1E8F0E01082808111
:103ED00082608083808181608083E0E8F0E080817F
:103EE00081608083E1EBF0E0808184608083E0EB9F
:103EF000F0E0808181608083E1E9F0E08081826090
:103F00008083808181608083E0E9F0E0808181604E
:103F10008083E1EAF0E0808182608083808181603B
:103F20008083E0EAF0E0808181608083E1E2F1E07B
:103F3000808182608083808181608083E0E2F1E023
:103F4000808181608083EAE7F0E080818460808303
:103F500080818260808380818160808380818068AD
:103F600080831092C1000895863308F08653209113
:103F70007B00982F9870277F922B90937B008770FF
:103F800020910E0290E4299F90011124822B8093AE
:103F90007C0080917A00806480937A0080917A001E
:103FA00086FDFCCF809178002091790090E0922BE3
:103FB00008951F93CF93DF93182FEB0161E011D188
:103FC000209711F460E004C0CF3FD10531F461E0E7
:103FD000812FDF91CF911F913DC1E12FF0E0E45897
:103FE000FE4F449150E0FA013197E231F10508F0BB
:103FF0009BC0E656FF4F0C94022984B5806884BDAF
:10400000C7BD97C084B5806284BDC8BD92C0809191
:104010008000806880938000D0938900C0938800DE
:1040200088C080918000806280938000D0938B0054
:10403000C0938A007EC08091800088608093800059
:10404000D0938D00C0938C0074C08091B0008068C4
:104050008093B000C093B3006CC08091B0008062C8
:104060008093B000C093B40064C0809190008068D9
:1040700080939000D0939900C09398005AC080918B
:104080009000806280939000D0939B00C0939A0030
:1040900050C080919000886080939000D0939D00E4
:1040A000C0939C0046C08091A00080688093A000CF
:1040B0008091A0008F7B8093A000D093A900C09333
:1040C000A80037C08091A00080628093A000D093A8
:1040D000AB00C093AA002DC08091A000886080939F
:1040E000A000D093AD00C093AC0023C0809120010C
:1040F000806880932001D0932901C093280119C0C2
:1041000080912001806280932001D0932B01C09385
:104110002A010FC080912001886080932001D093F4
:104120002D01C0932C0105C0C038D1050CF04FCF34
:1041300049CFDF91CF911F91089590E0FC01319715
:10414000E231F10508F04CC0E455FF4F0C94022910
:10415000809180008F7703C0809180008F7D809355
:104160008000089580918000877FF9CF84B58F7794
:1041700002C084B58F7D84BD08958091B0008F7793
:1041800003C08091B0008F7D8093B000089580912E
:1041900090008F7707C0809190008F7D03C0809141
:1041A0009000877F8093900008958091A0008F7782
:1041B00007C08091A0008F7D03C08091A000877F01
:1041C0008093A0000895809120018F7707C080918F
:1041D00020018F7D03C080912001877F8093200183
:1041E0000895CF93DF9390E0FC01EE53FE4F2491AE
:1041F000FC01E85FFD4F8491882349F190E0880F2E
:10420000991FFC01EE57FD4FA591B49188599D4F20
:10421000FC01C591D4919FB7611108C0F8948C91AD
:10422000209582238C93888182230AC0623051F4C6
:10423000F8948C91322F309583238C938881822B34
:10424000888304C0F8948C91822B8C939FBFDF915C
:10425000CF9108950F931F93CF93DF931F92CDB704
:10426000DEB7282F30E0F901E458FE4F8491F901C0
:10427000EE53FE4F1491F901E85FFD4F04910023C6
:10428000C1F0882319F0698358DF6981E02FF0E0DD
:10429000EE0FFF1FE859FD4FA591B4919FB7F89419
:1042A0008C91611103C01095812301C0812B8C93E7
:1042B0009FBF0F90DF91CF911F910F910895CF93E2
:1042C000DF93282F30E0F901E458FE4F8491F90183
:1042D000EE53FE4FD491F901E85FFD4FC491CC231A
:1042E00089F081112ADFEC2FF0E0EE0FFF1FE25B77
:1042F000FD4FA591B4912C912D2381E090E021F404
:1043000080E002C080E090E0DF91CF910895FC0151
:10431000818D228D90E0805C9F4F821B91098F736D
:1043200099270895FC01918D828D981731F0828D27
:10433000E80FF11D858D90E008958FEF9FEF0895B0
:10434000FC01918D828D981761F0828DDF01A80F9D
:10435000B11D5D968C91928D9F5F9F73928F90E0BF
:1043600008958FEF9FEF089585E593E2892B39F04B
:1043700080E090E0892B19F098D1811125C080E070
:1043800090E0892B41F080E090E0892B21F00E94A1
:10439000000081111CC080E090E0892B41F080E09A
:1043A00090E0892B21F00E940000811113C080E071
:1043B00090E0892BA1F080E090E0892B81F00E94B1
:1043C000000081110AC008950E940000D8CF0E9409
:1043D0000000E1CF0E940000EACF0C940000089595
:1043E000FC01848DDF01A80FB11DA35ABF4F2C9192
:1043F000848D90E001968F739927848FA689B78961
:104400002C93A089B1898C9180648C93938D848D39
:10441000981306C00288F389E02D80818F7D808308
:104420000895CF93DF93EC01888D8823C1F0EA894A
:10443000FB89808185FD05C0A889B9898C9186FD9D
:104440000EC00FB607FCF5CF808185FFF2CFA8899B
:10445000B9898C9185FFEDCFCE01C2DFE8CFDF9126
:10446000CF910895CF92DF92FF920F931F93CF9336
:10447000DF931F92CDB7DEB76C0181E0D60158966D
:104480008C9358975B969C915B975C968C915C970C
:10449000981307C05096ED91FC915197808185FD4E
:1044A0002DC0F601038D10E00F5F1F4F0F73112712
:1044B000F02EF601848DF81210C00FB607FCF9CF6C
:1044C000D6015096ED91FC915197808185FFF1CFF7
:1044D000C601698385DF6981ECCF838DE80FF11D0B
:1044E000E35AFF4F6083D6015B960C935B9752961D
:1044F000ED91FC915397808180620CC0D601569655
:10450000ED91FC91579760835096ED91FC915197F6
:1045100080818064808381E090E00F90DF91CF9173
:104520001F910F91FF90DF90CF900895BF92CF928F
:10453000DF92EF92FF92CF93DF93EC016A017B0150
:10454000B22EE889F98982E08083411581EE58070F
:104550006105710599F060E079E08DE390E0A701D5
:10456000960112D6215031094109510956954795B6
:1045700037952795211580E1380790F0E889F9896A
:10458000108260E874E88EE190E0A7019601FCD506
:10459000215031094109510956954795379527957D
:1045A000EC85FD853083EE85FF852083188EEC89B0
:1045B000FD89B082EA89FB89808180618083EA89F4
:1045C000FB89808188608083EA89FB89808180689B
:1045D0008083EA89FB8980818F7D8083DF91CF9101
:1045E000FF90EF90DF90CF90BF9008951F920F92B1
:1045F0000FB60F9211240BB60F922F938F939F93A8
:10460000EF93FF93E091BF08F091C0088081E091A3
:10461000C508F091C60882FD12C090818091C8083B
:104620008F5F8F732091C908821751F0E091C808FD
:10463000F0E0E155F74F958F8093C80801C0808165
:10464000FF91EF919F918F912F910F900BBE0F9043
:104650000FBE0F901F9018951F920F920FB60F92DA
:1046600011240BB60F922F933F934F935F936F9349
:104670007F938F939F93AF93BF93EF93FF938FEAB3
:1046800098E0AEDEFF91EF91BF91AF919F918F9136
:104690007F916F915F914F913F912F910F900BBE42
:1046A0000F900FBE0F901F9018958FEA98E02FDEA5
:1046B00021E0892B09F420E0822F08951092B2089E
:1046C0001092B10888EE93E0A0E0B0E08093B308C8
:1046D0009093B408A093B508B093B60885E394E02E
:1046E0009093B0088093AF0885EC90E09093BC085D
:1046F0008093BB0884EC90E09093BE088093BD0843
:1047000080EC90E09093C0088093BF0881EC90E02B
:104710009093C2088093C10882EC90E09093C40803
:104720008093C30886EC90E09093C6088093C508F8
:104730001092C8081092C9081092CA081092CB08AB
:104740000895CF92DF92EF92FF920F931F93CF9332
:10475000DF937C016A01EB0100E010E00C151D0500
:1047600071F06991D701ED91FC910190F081E02DFC
:10477000C7011995892B19F00F5F1F4FEFCFC801A3
:10478000DF91CF911F910F91FF90EF90DF90CF902D
:1047900008953F924F925F926F927F928F929F9275
:1047A000AF92BF92CF92DF92EF92FF920F931F933F
:1047B000CF93DF9300D01F92CDB7DEB78B012901D5
:1047C0003A0190910F02981721F09F3F09F0B2C271
:1047D00004C0ECE9F2E0349004C180930F02ECE9EC
:1047E000F2E0E491EF3F09F4A5C2E23009F480C0A1
:1047F00074F5EE2309F45BC0E13009F0F1C01092CA
:1048000080001092810090918100986090938100C7
:1048100090918100916090938100282F30E0F90100
:10482000E85FFD4FE491F0E0EE0FFF1FE859FD4F08
:104830004591549150936A0940936909F901EE53E7
:10484000FE4F24912093680933243394CCC0E43084
:1048500009F49EC00CF474C0E53009F0C1C0109298
:1048600020011092210190912101986090932101E3
:1048700090912101916090932101282F30E0F9015E
:10488000E85FFD4FE491F0E0EE0FFF1FE859FD4FA8
:104890004591549150934E0940934D09F901EE53BF
:1048A000FE4F249120934C0955E0352E9CC014BC3A
:1048B00015BC94B5926094BD95B5916095BD282FB7
:1048C00030E0F901E85FFD4FE491F0E0EE0FFF1FEB
:1048D000E859FD4F459154915093710940937009E7
:1048E000F901EE53FE4F249120936F09312C7BC0C8
:1048F0001092B0001092B1009091B000926090932D
:10490000B0009091B10091609093B100282F30E0F9
:10491000F901E85FFD4FE491F0E0EE0FFF1FE85969
:10492000FD4F459154915093630940936209F901F9
:10493000EE53FE4F24912093610922E0322E53C0A2
:104940001092900010929100909191009860909335
:10495000910090919100916090939100282F30E008
:10496000F901E85FFD4FE491F0E0EE0FFF1FE85919
:10497000FD4F4591549150935C0940935B09F901B7
:10498000EE53FE4F249120935A09B3E03B2E2BC0E7
:104990001092A0001092A1009091A10098609093B5
:1049A000A1009091A10091609093A100282F30E088
:1049B000F901E85FFD4FE491F0E0EE0FFF1FE859C9
:1049C000FD4F459154915093550940935409F90175
:1049D000EE53FE4F24912093530974E0372E03C009
:1049E0003E2E37FCA7C161E0FCDB4801A12CB12CB5
:1049F000832D8D7F09F0C1C060E072E18AE790E00D
:104A0000A5019401E3D329833A834B835C83690135
:104A10007A0181E0C81AD108E108F1089FEFC916B0
:104A2000D104E104F10409F008F495C060E472E4F3
:104A30008FE090E0A5019401C9D369017A01E1E01A
:104A4000CE1AD108E108F108F2E03F1218C08FEF4A
:104A5000C816D104E104F10409F008F486C060E945
:104A600070ED83E090E0A5019401B0D369017A0173
:104A700091E0C91AD108E108F10883E001C082E0A1
:104A8000EFEFCE16D104E104F10409F008F464C09C
:104A900068E478EE81E090E0A501940197D3690184
:104AA0007A01F1E0CF1AD108E108F1083320D9F0FA
:104AB00082E038121AC09FEFC916D104E104F10454
:104AC00009F008F435C164E274EF80E090E0A501DC
:104AD00094017CD369017A01E1E0CE1AD108E108A2
:104AE000F10885E003C083E001C084E0FFEFCF164A
:104AF000D104E104F10481F178F162E17AE780E028
:104B000090E0A501940162D369017A0181E0C81A9D
:104B1000D108E108F108311002C084E001C086E04C
:104B20009FEFC916D104E104F104B1F0A8F0C980E7
:104B3000DA80EB80FC809AE0F594E794D794C794F0
:104B40009A95D1F7E1E0CE1AD108E108F1083320B7
:104B500031F087E00BC081E0332011F007C085E021
:104B600095B5987F982B95BD54C082E09091B10087
:104B7000987F982B9093B1004CC060E072E18AE777
:104B800090E0A501940122D369017A01F1E0CF1AE6
:104B9000D108E108F108C114D10481E0E806F1046C
:104BA00080F068E478EE81E090E0A50194010ED3F6
:104BB00069017A0191E0C91AD108E108F10893E08E
:104BC00001C091E0E1E03E1207C080918100887F42
:104BD000892B809381001DC0F3E03F1207C08091B4
:104BE0009100887F892B8093910013C084E0381254
:104BF00007C08091A100887F892B8093A10009C004
:104C0000E5E03E1206C080912101887F892B8093C8
:104C10002101411451046104710461F0D801AA0F0B
:104C2000BB1FA3019201F4D228EE33E040E050E034
:104C3000ABD203C02FEF3FEFA901F2E03F1609F41A
:104C400043C0F315BCF0332081F181E0381272C00B
:104C5000D0928900C092880020936B0930936C0930
:104C600040936D0950936E0980916F00826080932C
:104C70006F0060C094E0391609F448C03916A4F1F9
:104C8000E5E03E1257C0D0922901C092280120933E
:104C90004F09309350094093510950935209809124
:104CA000730082608093730045C0C7BC2093720973
:104CB00030937309409374095093750980916E0085
:104CC000826080936E0036C0C092B3002093640966
:104CD000309365094093660950936709809170008D
:104CE00082608093700026C0D0929900C092980094
:104CF00020935D0930935E0940935F0950936009EA
:104D00008091710082608093710014C0D092A900DC
:104D1000C092A80020935609309357094093580930
:104D2000509359098091720082608093720002C092
:104D300084E01CCF0F900F900F900F90DF91CF91D8
:104D40001F910F91FF90EF90DF90CF90BF90AF90A9
:104D50009F908F907F906F905F904F903F900895BD
:104D60008230A9F028F4882349F0813051F0089569
:104D7000843021F1E8F0853039F1089510926E0009
:104D8000089580916F008D7F80936F0008958091CA
:104D900070008D7F8093700081E08093B0008091DF
:104DA000B100887F84608093B1001092B3000895B1
:104DB000809171008D7F80937100089580917200C1
:104DC0008D7F809372000895809173008D7F809312
:104DD00073000895CF93C82F80910F028C1307C0E2
:104DE000ECE9F2E084919FEF90930F0201C08FEF06
:104DF000B7DF60E08C2FCF912DCA1F920F920FB6B4
:104E00000F9211240BB60F922F933F934F935F9302
:104E10006F937F938F939F93AF93BF93EF93FF9382
:104E20008091640990916509A0916609B091670924
:104E3000892B8A2B8B2B51F190916109E0916209AA
:104E4000F091630980818927808380916409909122
:104E50006509A0916609B0916709181619061A0626
:104E60001B06BCF48091640990916509A0916609C4
:104E7000B09167090197A109B109809364099093E2
:104E80006509A0936609B093670903C080910F027A
:104E9000A1DFFF91EF91BF91AF919F918F917F9192
:104EA0006F915F914F913F912F910F900BBE0F909B
:104EB0000FBE0F901F9018954F925F926F927F9246
:104EC000AF92BF92CF92DF92EF92FF920F931F9318
:104ED000CF93DF93CDB7DEB729013A01621B730B85
:104EE000840B950B2A893B894C895D892A193B09DA
:104EF0004C095D092A8B3B8B4C8B5D8B9B01AC0174
:104F00006A897B898C899D89FDD0E418F50806099A
:104F10001709A80197015AD12A0D3B1D4C1D5D1D93
:104F2000CA01B901DF91CF911F910F91FF90EF90CE
:104F3000DF90CF90BF90AF907F906F905F904F9039
:104F40000895FC018081918118C2CF93DF93EC0119
:104F500088819981009709F010D2198218821D82E8
:104F60001C821B821A82DF91CF9108950F931F93A9
:104F7000CF93DF93EC018B016F5F7F4F8881998125
:104F80008BD2009731F0998388831B830A8381E059
:104F900001C080E0DF91CF911F910F910895CF93D1
:104FA000DF93EC0188819981892B29F08A819B818B
:104FB0008617970758F4CE01D9DF882341F08C81FA
:104FC0009D81892B19F4E881F981108281E0DF91BC
:104FD000CF910895EF92FF920F931F93CF93DF939A
:104FE000EC017B018A01BA01DADF811103C0CE0135
:104FF000ACDF06C01D830C83B7018881998139D34A
:10500000CE01DF91CF911F910F91FF90EF90089506
:10501000CF93DF93EC016115710559F0FB0101900D
:105020000020E9F7AF0141505109461B570BD2DF71
:1050300001C08BDFCE01DF91CF9108950F931F93B5
:10504000CF93DF93CDB7DEB7A2970FB6F894DEBF4C
:105050000FBECDBF8C01CB01BA01F80111821082C5
:10506000138212821582148230E0AE014F5F5F4FCF
:105070003BD3BE016F5F7F4FC801CADFA2960FB658
:10508000F894DEBF0FBECDBFDF91CF911F910F917E
:1050900008950F931F93CF93DF93EB0141155105B3
:1050A000E1F02097D1F0FC01648175812617370764
:1050B00098F4621B730B8A01015011096017710784
:1050C00008F48B01FC0160817181620F731FA801DC
:1050D000CE01D6D2C00FD11F1882DF91CF911F9180
:1050E0000F91089508950E94521FFCDF0E94CE097F
:1050F000C4EBD1E20E944C0F2097E1F335D9FACFEF
:10510000A4C00895DB018F939F9382D0BF91AF918C
:10511000A29F800D911DA39F900DB29F900D112411
:105120000895991B79E004C0991F961708F0961B03
:10513000881F7A95C9F780950895AA1BBB1B51E17A
:1051400007C0AA1FBB1FA617B70710F0A61BB70BF7
:10515000881F991F5A95A9F780959095BC01CD019C
:10516000089597FB072E16F4009406D077FD08D01B
:10517000E4DF07FC05D03EF4909581959F4F08959C
:10518000709561957F4F0895A1E21A2EAA1BBB1B53
:10519000FD010DC0AA1FBB1FEE1FFF1FA217B30703
:1051A000E407F50720F0A21BB30BE40BF50B661F19
:1051B000771F881F991F1A9469F7609570958095DD
:1051C00090959B01AC01BD01CF010895052E97FB81
:1051D00016F400940FD057FD05D0D6DF07FC02D09F
:1051E00046F408C050954095309521953F4F4F4F5C
:1051F0005F4F089590958095709561957F4F8F4F83
:105200009F4F0895EE0FFF1F0590F491E02D199424
:105210000DD0A59F900DB49F900DA49F800D911D62
:10522000112408950790F691E02D1994A29FB001E2
:10523000B39FC001A39F700D811D1124911DB29FCA
:10524000700D811D1124911D0895CF93DF9382303D
:10525000910510F482E090E0E0917809F0917909ED
:1052600020E030E0A0E0B0E0309739F1408151819A
:1052700048175907B8F04817590771F4828193818C
:10528000109729F013969C938E9312972CC09093AD
:1052900079098093780927C02115310531F042172B
:1052A000530718F0A901DB0101C0EF019A01BD010C
:1052B000DF010280F381E02DD7CF21153105F9F010
:1052C000281B390B2430310580F48A819B816115BC
:1052D000710521F0FB019383828304C090937909C7
:1052E00080937809FE01329644C0FE01E20FF31F5D
:1052F0008193919322503109398328833AC02091B8
:10530000760930917709232B41F4209102023091E4
:10531000030230937709209376092091000230919F
:1053200001022115310541F42DB73EB74091040229
:1053300050910502241B350BE0917609F091770915
:10534000E217F307A0F42E1B3F0B2817390778F05C
:10535000AC014E5F5F4F2417350748F04E0F5F1FBB
:1053600050937709409376098193919302C0E0E0CE
:10537000F0E0CF01DF91CF910895CF93DF930097B5
:1053800009F487C0FC01329713821282C091780918
:10539000D0917909209781F420813181280F391F1C
:1053A00080917609909177098217930779F5F093A8
:1053B0007709E09376096DC0DE0120E030E0AE179A
:1053C000BF0750F412964D915C9113979D014115C2
:1053D000510509F1DA01F3CFB383A28340815181F2
:1053E000840F951F8A179B0771F48D919C911197DB
:1053F000840F951F02969183808312968D919C91C4
:105400001397938382832115310529F4F093790949
:10541000E09378093EC0D9011396FC93EE9312975E
:105420004D915D91A40FB51FEA17FB0779F48081B8
:105430009181840F951F0296D90111969C938E93AA
:105440008281938113969C938E931297E0E0F0E013
:105450008A819B81009719F0FE01EC01F9CFCE0102
:10546000029628813981820F931F2091760930910D
:1054700077092817390769F4309729F410927909C8
:105480001092780902C013821282D0937709C093D8
:105490007609DF91CF9108956F927F928F929F92BC
:1054A000AF92BF92CF92DF92EF92FF920F931F9332
:1054B000CF93DF93EC01CB01209779F4DF91CF916B
:1054C0001F910F91FF90EF90DF90CF90BF90AF9022
:1054D0009F908F907F906F90B8CEFE01E60FF71FE0
:1054E0009E0122503109E217F30708F4A8C0D90140
:1054F0000D911C91119706171707B0F00530110593
:1055000008F49BC0A801445051094617570708F4F6
:1055100094C002501109061B170B019311936D9350
:105520007C93CF012ADF89C05B01A01AB10A4E012A
:10553000800E911EA0917809B0917909612C712C8F
:1055400060E070E0109709F449C0A815B905C9F5E5
:10555000ED90FC901197670142E0C40ED11CCA1473
:10556000DB0478F147018A189B08640142E0C40E0D
:10557000D11C1296BC9012971396AC91B5E0CB1645
:10558000D10440F0B282A38391828082D9018D93AD
:105590009C9309C00E5F1F4F0E0D1F1DF901118353
:1055A0000083EB2DFA2F6115710531F0DB011396A5
:1055B000FC93EE93129741C0F0937909E093780938
:1055C0003CC06D917C9111976616770608F43B01FB
:1055D000BD0112960D90BC91A02DB4CF60917609BB
:1055E0007091770968157905E9F468167906D0F4A1
:1055F00040910002509101024115510541F44DB70F
:105600005EB76091040270910502461B570BE417C8
:10561000F507A8F4F0937709E0937609F9019183EF
:1056200080830BC012DE7C01009749F0A801BE0107
:1056300017D0CE01A2DEC70104C0CE0102C080E0B7
:1056400090E0DF91CF911F910F91FF90EF90DF904D
:10565000CF90BF90AF909F908F907F906F90089564
:10566000FB01DC0102C001900D9241505040D8F77F
:105670000895FB01DC0101900D920020E1F70895EF
:10568000FB01DC014150504048F001900D92002098
:10569000C9F701C01D9241505040E0F70895FC0148
:1056A00081E090E00190061609F4CF010020D1F7C7
:1056B00001970895FB0151915523A9F0BF01DC0129
:1056C0004D9145174111E1F759F4CD0101900020AA
:1056D00049F04D9140154111C9F3FB014111EFCF44
:1056E00081E090E0019708952532310518F42230C9
:1056F00008F004C0FA011082CA010895BB272A30BD
:1057000051F4992342F4BDE290958095709561958E
:105710007F4F8F4F9F4F01C0BB27FA01A62F621703
:10572000710581059105330B30FB66F0AA27660FE2
:10573000771F881F991FAA1FA21710F0A21B63953D
:105740003850A9F7A05DAA3308F0A95DA19336F7F8
:10575000B111B1931082CA0100C0DC01FC01672FB6
:1057600071917723E1F7329704C07C916D93708338
:0E5770006291AE17BF07C8F30895F894FFCFFB
:10577E0000007A0980000100000021FF130001FFE4
:10578E004D617820736572766F73206174746163F6
:10579E0068656400556E6B6E6F776E2070696E2053
:1057AE006D6F646500533A5C506572736F5C476948
:1057BE00744875625C746563686E6F6C6F6769655B
:1057CE00735C61726475696E6F5C706572736F5C29
:1057DE00332E53637261746368322E305C733261A0
:1057EE00696F2D4669726D617461506C75735C736F
:1057FE003261696F2D4669726D617461506C75739B
:10580E002E696E6F004932433A20546F6F206D61DE
:10581E006E79206279746573207265636569766549
:10582E0064004932433A20546F6F206665772062D8
:10583E0079746573207265636569766564003130CD
:10584E002D6269742061646472657373696E67207A
:10585E006E6F7420737570706F7274656400746F00
:10586E006F206D616E792071756572696573005078
:10587E00494E475F434F4E464947204572726F72FD
:10588E003A204578636565646564206E756D626562
:10589E0072206F6620737570706F727465642070FD
:1058AE00696E67206465766963657300535445506D
:1058BE0050455220434F4E464947204572726F72F3
:1058CE003A2057726F6E67204E756D626572206F4B
:1058DE006620617267756D656E7473005354455022
:1058EE00504552204F504552415445204572726FDB
:1058FE00723A204D4F544F52204E4F5420434F4E2C
:10590E004649475552454400535445505045522040
:10591E004649524D574152452056455253494F4ED6
:10592E00204572726F723A204E4F204D4F544F5297
:10593E005320434F4E464947555245440053544514
:10594E005050455220434F4E464947204572726F84
:10595E00723A20554E4B4E4F574E20535445505091
:10596E00455220434F4D4D414E44006172676320B6
:10597E003D00E706000000000000000000000000EF
:10598E000000DD06D306000000003F141314E813D8
:10599E00F013031412142E637070000000000064E4
:1059AE001D000000003222A1238721A02192211187
:0259BE002200C5
:00000001FF
